S016000074656D705F6F6C65645F776966692E7372656347
S11300000C94E4000C94D6110C9403120C94900BF1
S11300100C94900B0C94900B0C940C010C940C010C
S11300200C940C010C940C010C940C010C940C0118
S11300300C940C010C940C010C940C010C940C0108
S11300400C9430120C940C010C94420E0C94740E0B
S11300500C940C010C940C010C940C010C940C01E8
S11300600C940C010C940C01005EBCE2613FDD8336
S1130070C29C7E20A3FD1F419DC3217FFCA2401E84
S11300805F01E3BD3E6082DC237D9FC1421CFEA074
S1130090E1BF5D0380DE3C62BEE0025CDF81633D64
S11300A07C22C09E1D43A1FF4618FAA427799BC554
S11300B084DA3866E5BB5907DB856739BAE4065844
S11300C01947A5FB7826C49A653BD987045AB8E634
S11300D0A7F91B45C6987A24F8A6441A99C7257B24
S11300E03A6486D85B05E7B98CD2306EEDB3510F14
S11300F04E10F2AC2F7193CD114FADF3702ECC9204
S1130100D38D6F31B2EC0E50AFF1134DCE90722CF3
S11301106D33D18F0C52B0EE326C8ED0530DEFB1E3
S1130120F0AE4C1291CF2D73CA947628ABF51749D3
S11301300856B4EA6937D58B5709EBB536688AD4C3
S113014095CB2977F4AA4816E9B7550B88D6346AB3
S11301502B7597C94A14F6A8742AC896154BA9F7A3
S1130160B6E80A54D7896B35000000080002010084
S1130170000304070000000000000000010204085E
S113018010204080010204081020010204081020FD
S11301900404040404040404020202020202030329
S11301A003030303000000002300260029000000CD
S11301B00000250028002B00000000002400270078
S11301C02A00870AA40E990A11241FBECFEFD8E093
S11301D0DEBFCDBF14E0A0E0B1E0E6E8F2E302C088
S11301E005900D92A63FB107D9F726E0A6EFB4E03B
S11301F001C01D92A733B207E1F710E0C3EED0E0CF
S113020004C02197FE010E945816C13ED107C9F7C8
S11302100E94D30E0C9436190C9400000895FC012E
S11302208EE091E0928B818B7683658314821082B9
S113023089E0818381E0828383830895FC01848142
S11302400895CF93DF93EB0167E0CE010E9404068B
S113025091E02F81821390E0892FDF91CF9108954F
S1130260EF92FF920F931F93CF93DF938C017B0147
S1130270D42FFC01858196810E944305C0E0B7011B
S1130280F801858196810E947405882359F0CD1365
S113029006C0B701C8010E942101811104C0CF5FCB
S11302A0DC1768F780E0DF91CF911F910F91FF90E9
S11302B0EF900895EF92FF920F931F93CF93DF93E4
S11302C000D0CDB7DEB77C018A01FC01858196811F
S11302D069837A830E94170469817A81F701858191
S11302E096810E94120540E06EEBF70185819681AC
S11302F00E94B404F701858196810E94F604F801F6
S11303008083F701858196810E94F604F801818338
S1130310F701858196810E94F604F8018283F70132
S1130320858196810E94F604F8018383F701858113
S113033096810E94F604F8018483F70185819681F1
S11303400E94F604F8018583F701858196810E9455
S1130350F604F8018683F701858196810E94F604EC
S1130360F8018783F701858196810E94F604F801DC
S11303708087F701858196810F900F90DF91CF914F
S11303801F910F91FF90EF900C941704CF93DF937C
S1130390EA010E945A0168E0CE010E94040691E03D
S11303A02885821390E0892FDF91CF910895EF92F1
S11303B0FF921F93CF93DF9300D0CDB7DEB77C01BC
S11303C0FC018581968169837A830E94170469817F
S11303D07A81F701858196810E94120540E064EBE1
S11303E0F701858196810E94B404F7018581968185
S11303F00E948904182FF701858196810E941704B1
S113040081E0111180E00F900F90DF91CF911F9147
S1130410FF90EF900895CF93DF93CDB7DEB7299780
S11304200FB6F894DEBF0FBECDBFFB012081203193
S1130430D9F0AE014F5F5F4F0E94C601882381F05F
S11304408D818F3359F018F48F3171F009C08F35D5
S113045019F08F3739F004C08BE007C08AE005C07B
S113046080E003C08CE001C089E029960FB6F894BF
S1130470DEBF0FBECDBFDF91CF910895EF92FF9203
S11304800F931F93CF93DF93CDB7DEB761970FB66A
S1130490F894DEBF0FBECDBF8C01FC01858196812F
S11304A00E944305F8011482FF24F394BE01665FA1
S11304B07F4FF801858196810E9474058823C9F1D4
S11304C0BE01665F7F4FC8010E942101882371F33A
S11304D0F8018081811108C0BE01665F7F4FC801A9
S11304E00E94D701811122C0AE014F5F5F4FBE0150
S11304F0665F7F4FC8010E945A01F801E180BE0186
S1130500665F7F4FC8010E940B028E1518F4F80134
S1130510818106C0BE01665F7F4FC8010E940B0245
S1130520F801818384818F5F8483C0CFF801F082D6
S1130530DBCF61960FB6F894DEBF0FBECDBFDF915F
S1130540CF911F910F91FF90EF900895CF93DF9378
S1130550CDB7DEB729970FB6F894DEBF0FBECDBF77
S1130560AE014F5F5F4F0E945A0181E09981911162
S113057001C080E029960FB6F894DEBF0FBECDBF50
S1130580DF91CF910895CF92DF92EF92FF920F9374
S11305901F93CF93DF93EC018B01452BF1F08B81FB
S11305A08823D9F08881811118C00E947A126B01C6
S11305B07C0160E070E0CE010E94A60281110DC0B2
S11305C00E947A12AB01BC014C195D096E097F09C6
S11305D04E3E52406105710560F3F80180818A3016
S11305E049F08B3061F0893079F46EE570E080E099
S11305F090E00EC06CEB70E080E090E009C067E72B
S113060071E080E090E004C06EEE72E080E090E083
S1130610DF91CF911F910F91FF90EF90DF90CF90DA
S11306200C94AB12CF93DF93EC018D819E810E94D9
S113063017048D819E810E943F05488164E48D8169
S11306409E810E94B4048A81882351F0BE016F5FA9
S11306507F4F40E050E0CE01DF91CF910C94C30274
S1130660DF91CF9108954F925F926F927F928F9214
S11306709F92AF92BF92FF92CF93DF93FB01EA0167
S11306808981682F70E0762F66278881682B8081A6
S11306908232B1F18832A1F1803109F078C0FF8053
S11306A075956795072E000C880B990B0E94C8144A
S11306B020E030E040E85EE30E94AC134B015C01B3
S11306C08F2D90E02E81821B9109BC01990F880B1C
S11306D0990B0E94C8142B013C016F2D70E080E03F
S11306E090E00E94C6149B01AC01C301B2010E94B8
S11306F01E149B01AC01C501B4010E94AD1343C09B
S11307008C818F3381F198F48F3109F040C093E0EC
S1130710759567959A95E1F7072E000C880B990B50
S11307200E94C81420E030E040E05FE32AC08F3527
S113073069F08F3761F5072E000C880B990B0E9426
S1130740C81420E030E040E85DE31BC07595679570
S1130750072E000C880B990B0E94C81420E030E08F
S113076040E05EE30EC07595679575956795072E15
S1130770000C880B990B0E94C81420E030E040E87C
S11307805EE30E947D15262F572F482F392F622FA5
S1130790752F842F932FDF91CF91FF90BF90AF904F
S11307A09F908F907F906F905F904F900895EF92FD
S11307B0FF920F931F93CF93DF93CDB7DEB72997A3
S11307C00FB6F894DEBF0FBECDBF8C017B01AE0126
S11307D04F5F5F4F0E94C601882341F0AE014F5F17
S11307E05F4FB701C8010E94330304C060E070E0AA
S11307F08EEF92EC29960FB6F894DEBF0FBECDBFF4
S1130800DF91CF911F910F91FF90EF900895FC011C
S11308108081089526E636E646EE5FE30E947D1564
S113082020E030E040E052E40E94AD130895FF92CE
S11308300F931F93CF93DF93FC010081C181D28179
S1130840F8948981F02EF0948F21898378941DE7A0
S1130850115029F182E090E00E94D3128881802314
S1130860B9F3F8948A818F218A838981802B8983C3
S1130870789480EE91E00E94D312F8948981F82252
S1130880F98286E490E00E94D3128881082311E063
S113089009F010E078948AE991E00E94D312812F44
S11308A0DF91CF911F910F91FF9008951F93CF93E4
S11308B0DF93FC011081C181D281812F809560FF7B
S11308C012C0F8949A8189238A838981812B898330
S11308D08AE090E00E94D3128A81182B1A837894BC
S11308E087E390E011C0F8949A8189238A838981EF
S11308F0812B898381E490E00E94D3128A81182B92
S11309001A83789485E090E0DF91CF911F910C9445
S1130910D3120F931F93CF93DF93FC011081C181F6
S1130920D281F8948981812B89838A81012F009552
S113093080238A8383E090E00E94D3128981082374
S113094009838AE090E00E94D312C881789485E3F9
S113095090E00E94D3121C2381E009F480E0DF912F
S1130960CF911F910F910895CF92DF92EF92FF9252
S11309700F931F93CF93DF931F92CDB7DEB76C0114
S1130980E62E08E010E0FF24F39461E08F2D8E2121
S113099009F460E0C60149830E945604FF0C01502B
S11309A0110949810115110581F7411115C0F89408
S11309B0D6011196ED91FC91129791818C918095BD
S11309C0892381831196ED91FC91129792818C91E8
S11309D080958923828378940F90DF91CF911F9122
S11309E00F91FF90EF90DF90CF900895EF92FF92D8
S11309F00F931F93CF93DF937C0108E010E0C0E0D6
S1130A00D1E0C7010E9489048111CD2BDD0F015073
S1130A101109B9F78C2FDF91CF911F910F91FF909E
S1130A20EF900895CF92DF92EF92FF920F931F936E
S1130A30CF93DF931F92CDB7DEB78C01F62E40E043
S1130A4065E579830E94B404CF2C7981D72E760191
S1130A5088E0E80EF11CF60161916F0140E0C801E5
S1130A600E94B404CE14DF04B1F70F90DF91CF914C
S1130A701F910F91FF90EF90DF90CF90089540E089
S1130A806CEC0C94B404FC01138615861486DC010A
S1130A901B9633961E92AE17BF07E1F708950F9386
S1130AA01F93CF938C01C62F60E08C2F0E944013BC
S1130AB06C2F70E0FB01E458FE4FE491D801EC93F5
S1130AC0FB01E057FE4FE491F0E0EE0FFF1FEC5501
S1130AD0FE4F85919491F80192838183C801CF914F
S1130AE01F910F910C944305AF92BF92CF92DF9266
S1130AF0EF92FF920F931F93CF93DF931F92CDB783
S1130B00DEB75C01D62EE72EFC018585811105C078
S1130B10C5010E941704811106C0F50113861586CC
S1130B20148680E065C040E060EFC5010E94B40413
S1130B3001E0F12CC12C11E0C5010E948904682F49
S1130B40C50169830E9489046981613019F4813087
S1130B50B9F433C04F2D50E068131BC0F5018385F1
S1130B60181730F4E40FF51F8381802349F402C081
S1130B70181731F060E0193058F4F501148708C0F3
S1130B80F501EF0DF11D8381802B838361E009C0A2
S1130B90C12EF501E40FF51F9381802F80958923E1
S1130BA08383C5010E9456041F5F000F11F4F39460
S1130BB001E0F7E0FF1508F0BFCF113408F4ADCF22
S1130BC0F501C386C11002C081E08587F5018381E8
S1130BD0882309F4A2CFD5011396ED2DFE2D95019E
S1130BE0255F3F4F8D918193A217B307D9F781E019
S1130BF00F90DF91CF911F910F91FF90EF90DF90B5
S1130C00CF90BF90AF900895DC01E0E0615038F0E0
S1130C108D91E827F0E0E859FF4FE491F7CF8E2F4C
S1130C200895449A459A1092B90080E28093B800DE
S1130C3084E08093BC0008958FEF90E02091BC0085
S1130C4027FD0EC00197D1F71092BC008091470593
S1130C50909148050196909348058093470508951F
S1130C6008950F931F93CF93DF931F92CDB7DEB7F1
S1130C700CEB10E094EAF801908389830E941C062F
S1130C8089818093BB0084E8F80180830F90DF9111
S1130C90CF911F910F910C941C068093BB0084E8A4
S1130CA08093BC000C941C06CF93DF9300D0CDB787
S1130CB0DEB7880F4A8369830E9431066981862FD3
S1130CC00E944D064A81842F0E944D0684E9809338
S1130CD0BC000F900F90DF91CF91089592E0909314
S1130CE0B800482F60E88CE30C9454068EEA0E9406
S1130CF06E068EE20E946E0684EA0E946E0662E32D
S1130D0070E080E090E00E94AB1280E20E946E06E8
S1130D1082E00E946E0681EA0E946E0688EC0E94C0
S1130D206E0686EA0E946E0681E80E946E068FEFC8
S1130D300E946E0664E170E080E090E00E94AB12D5
S1130D408FEA0E946E0664E170E080E090E00C940B
S1130D50AB12CF93C62F80550E946E068C2F880F3E
S1130D60880F880F88700E946E0628E0C29FC00119
S1130D70112424E0959587952A95E1F78F70805F7B
S1130D80CF910C946E0692E09093B800482F60E4E3
S1130D908CE30C9454060F931F93CF93DF93EC01D1
S1130DA088818823D9F000E010E08881F80198E078
S1130DB0899FE00DF11D1124E050F04080810E94D4
S1130DC0C3066AE070E080E090E00E94AB120F5F1F
S1130DD01F4F0830110549F72196E2CFDF91CF91DB
S1130DE01F910F910895CF93DF93C0E060E08C2FA3
S1130DF00E94A906D0E080E00E94C306DF5FD038DD
S1130E00D1F7CF5FC83091F7DF91CF9108955F920A
S1130E106F927F928F929F92AF92BF92CF92DF9206
S1130E20EF92FF920F931F93CF93DF93CDB7DEB76B
S1130E302A970FB6F894DEBF0FBECDBF3B014C011D
S1130E4020E030E048EC52E40E941E1420E030E040
S1130E5040E85FE30E9478157301840187FD1EC09A
S1130E60D12C20E030E048EC52E4B701C8010E94E4
S1130E707815181664F420E030E048EC52E4B70129
S1130E80C8010E94AC137B018C01D394EACF80E3A8
S1130E908D0D8983CC24C394D12C02C0C12CD12CB8
S1130EA020E030E040E251E4B701C8010E941E1482
S1130EB020E030E040E85FE30E94781587FD1DC024
S1130EC0B12C20E030E040E251E4B701C8010E94B7
S1130ED0781587FD0CC020E030E040E251E4B70112
S1130EE0C8010E94AC137B018C01B394EACFFE01CC
S1130EF0EC0DFD1D80E38B0D04C0FE01EC0DFD1D0A
S1130F0080E381838FEFC81AD80A20E030E0A9017A
S1130F10B701C8010E94781587FD20C0B12C20E0DC
S1130F2030E040E85FE3B701C8010E94781587FD0F
S1130F300CC020E030E040E85FE3B701C8010E9444
S1130F40AC137B018C01B394EACFFE01EC0DFD1DC3
S1130F5080E38B0D81838FEFC81AD80AE1E0F0E0BB
S1130F60EC0FFD1FEC0DFD1D8EE2808356018FEF0B
S1130F70A81AB80A2DEC3CEC4CEC5DE3B701C801AF
S1130F800E94781587FD1DC0512C2DEC3CEC4CECD7
S1130F905DE3B701C8010E94AC137B018C0153943B
S1130FA02DEC3CEC4CEC5DE30E94781587FFEDCF13
S1130FB0E1E0F0E0EC0FFD1FEA0DFB1D80E3850D81
S1130FC007C0E1E0F0E0EC0FFD1FEA0DFB1D80E33C
S1130FD0808382E0C80ED11C2AE037ED43E25CE353
S1130FE0B701C8010E94781587FD1DC0B12C2AE005
S1130FF037ED43E25CE3B701C8010E94AC137B0107
S11310008C01B3942AE037ED43E25CE30E94781547
S113101087FFEDCFE1E0F0E0EC0FFD1FEC0DFD1DCF
S113102080E38B0D808320E030E048EC52E4B30190
S1131030C4010E94191487FD1E8261E070E080E003
S113104090E00E94AB12CE0101962A960FB6F89456
S1131050DEBF0FBECDBFDF91CF911F910F91FF90E7
S1131060EF90DF90CF90BF90AF909F908F907F9044
S11310706F905F9008954F925F926F927F928F92DC
S11310809F92AF92BF92CF92DF92EF92FF920F9313
S11310901F93CF93DF93CDB7DEB762970FB6F89463
S11310A0DEBF0FBECDBF85E195E00E943E0285E123
S11310B095E00E941E01E82EF12C85E195E00E9446
S11310C00704882339F060E074E08DE895E00E941D
S11310D01F0F04C085E195E00E94120300E010E0B8
S11310E06E0188E0C80ED11C0E151F050CF0C3C09C
S11310F0402FBE01655F7F4F85E195E00E9430017E
S1131100882309F4B5C064E074E08DE895E00E949A
S11311101F0F4AE050E0B8018DE895E00E94DE0F11
S113112067E074E08DE895E00E941F0FBE01655FE3
S11311307F4F85E195E00E94D70360933B05709350
S11311403C0580933D0590933E050E940A046093FC
S11311503705709338058093390590933A0560916B
S11311603B0570913C0580913D0590913E050E94A0
S11311700A04AB01BC0122E030E08DE895E00E9456
S1131180CC1067E081E00E94A90660913705709158
S113119038058091390590913A050E940707FE01B0
S11311A03196DC012D91CD012A3310F4208301C046
S11311B010823196EC15FD05A1F7CE0101960E942F
S11311C0CB0640903F0550904005609041057090DB
S11311D042058090370590903805A0903905B0906D
S11311E03A05A5019401C301B2010E9478151816AD
S11311F04CF020E030E0A901C301B2010E941914AF
S1131200811110C080923F0590924005A092410543
S1131210B092420566E084E00E94A906CE010196E0
S11312200E94CB068090370590903805A090390530
S1131230B0903A05A501940160914305709144056D
S113124080914505909146050E94191487FF10C0AE
S11312508092430590924405A0924505B0924605BC
S113126066E085E00E94A906CE0101960E94CB06A5
S11312700F5F1F4F39CF62960FB6F894DEBF0FBED3
S1131280CDBFDF91CF911F910F91FF90EF90DF9031
S1131290CF90BF90AF909F908F907F906F905F9012
S11312A04F90089569E074E08DE895E00E942C0F5A
S11312B064E670E080E090E00E94AB1267E174E0C5
S11312C08DE895E00E942C0F64E670E080E090E0E9
S11312D00E94AB126FE374E08DE895E00E94CC119C
S11312E0882301F361E081E10E947C1364EF71E0E3
S11312F080E090E00E94AB1260E081E10E947C13E8
S113130064EF71E080E090E00E94AB1261E081E163
S11313100C947C1361E081E10E94401360E081E160
S11313200E947C1364E670E080E090E00E94AB12BF
S113133040E855E260E070E086EF94E00E948E0C95
S113134062E474E086EF94E00E942C0F64E670E09F
S113135080E090E00E94AB1226E040E056E960E0B5
S113136070E08DE895E00E94E20D63E574E08DE89D
S113137095E00E942C0F0E9452096EE774E08DE8FC
S113138095E00E942C0F6FE374E08DE895E00E94D5
S1131390CC11882351F063E874E08DE895E00E9455
S11313A02C0F61E081E10E947C130E9411060E94CF
S11313B076066AE070E080E090E00E94AB120E9442
S11313C0F30662E370E080E090E00E94AB1280E2FA
S11313D00E946E0682E00E946E0686EA0E946E06F5
S11313E061E081E00E94A90680EC94E00E94CB06B3
S11313F061E082E00E94A90688EB94E00E94CB069B
S113140061E084E00E94A90682EB94E00E94CB068E
S113141061E085E00E94A9068CEA94E00E94CB0674
S11314206AE070E080E090E00C94AB1262E974E052
S11314308DE895E00E942C0F61EA74E08DE895E058
S11314400E94CC118823A1F04091370550913805B2
S11314506091390570913A0522E030E08DE895E01D
S11314600E94CA106EE974E08DE895E00C941F0F99
S113147008950F931F93CF93DF93CDB7DEB72A97C9
S11314800FB6F894DEBF0FBECDBF63EA74E086EFFB
S113149094E00E942C0F6EE774E08DE895E00E94C2
S11314A02C0F0E943B080E94160A809136051F9259
S11314B08F9389EA94E09F938F938E010F5F1F4F60
S11314C01F930F930E945E1661E087E00E94A906B5
S11314D0C8010E94CB06809136058F5F8093360544
S11314E06CE271E080E090E00E94AB120F900F90EC
S11314F00F900F900F900F902A960FB6F894DEBFBE
S11315000FBECDBFDF91CF911F910F91089569E078
S113151088E295E00E944F0568E275E085E195E078
S11315200E940F0120E047E066E086EF94E00C940F
S1131530630C86EF94E00C940A0C20918B05309197
S11315408C0528173907B9F49091490580914A050B
S1131550981789F0E0914905F0E0E55BFA4F808146
S11315602091490530E02F5F3F4F2F73332720939D
S1131570490590E008958FEF9FEF08951F93CF934F
S1131580DF93DC015C962D913C915D97211531052B
S113159039F481E090E013969C938E9312973DC0AA
S11315A05196ED91FC91529750969C915097892FAA
S11315B080951FB75E964C915E9741FB772770F933
S11315C041FD6095F8944081772311F0492B01C0C7
S11315D048234083E9012197F1F748E0508160FFF7
S11315E002C0592B01C058235083E9012197F1F718
S11315F06695415099F7772321F090818923808360
S113160003C08081982B90831FBF5C968D919C9121
S11316105D970197F1F721E030E0C901DF91CF91A7
S11316201F91089520918B0530918C052817390757
S113163071F49091490580914A05981741F0E09121
S11316404905F0E0E55BFA4F808190E008958FEF63
S11316509FEF089520918B0530918C052817390749
S113166071F480914A052091490590E0805C9F4F78
S1131670821B910960E470E00E94EF15089580E0F8
S113168090E0089520918B0530918C052817390737
S113169039F48FB7F89410924A05109249058FBF18
S11316A00895E0918B05F0918C05E817F90769F42A
S11316B0A389B4899C918589809589238C93109200
S11316C08C0510928B0581E0089580E00895CF93F6
S11316D0DF93EC018A8D9B8D892BF1F080918B0532
S11316E090918C058C179D07B9F0009711F00E941A
S11316F0510B8E8D8E7F8E8F10924A051092490564
S1131700D0938C05C0938B05EB89FC8990818D89DE
S1131710892B808381E001C080E0DF91CF9108951F
S11317201F920F920FB60F9211242F933F934F9352
S11317305F936F937F938F939F93AF93BF93EF9335
S1131740FF93E0918B05F0918C05309709F451C01B
S1131750968DA685B785858591FF04C09C918923C4
S113176029F447C09C91892309F043C0A389B48913
S11317709C918589809589238C9386899789019783
S1131780F1F7608D718DA685B785558538E020E029
S1131790CB010197F1F7822F90E095958795282F3B
S11317A04C91452309F02068315091F7868D81FDD5
S11317B0209580914A0590E001968F739927309186
S11317C04905381749F0A0914A05B0E0A55BBA4F26
S11317D02C9380934A0503C0868D8160868F828D09
S11317E0938D0197F1F7A389B4899C918589892BFD
S11317F08C93FF91EF91BF91AF919F918F917F91C6
S11318006F915F914F913F912F910F900FBE0F9069
S11318101F9018952BEC34E0FC01318320830C9449
S1131820510B1F93CF93DF93EC01162F6E8D6695AA
S1131830617081E06827812F0E947C1361E0812F11
S11318400E944013612F70E0FB01E458FE4FE491C5
S1131850E88BFB01E057FE4FE491F0E0EE0FFF1F31
S1131860E255FE4F859194919A8B898BDF91CF91AC
S11318701F9108951F93CF93DF93EC01162F60E01F
S1131880812F0E9440138E8D81FD04C061E0812F61
S11318900E947C131C87612F70E0FB01E458FE4F0B
S11318A0E491ED87FB01E057FE4FE491F0E0EE0F89
S11318B0FF1FEC55FE4F859194919F878E87DF9192
S11318C0CF911F9108951F93CF93DF93EC01162FAF
S11318D01B821A8288EE93E0A0E0B0E08C839D83A3
S11318E0AE83BF838BEC94E0998388831F8A1E8A1E
S11318F0198E188E1B8E1A8E1D8E1C8E8E8D8E7FC9
S113190020FB81F98E8F642FCE010E94110C612F70
S1131910CE01DF91CF911F910C943A0CCF93DF93BA
S1131920EC019A01AB011B8E1A8E198E188E1F8A38
S11319301E8A60E874E88EE190E00E942516F901A1
S11319402430310518F0C901039702C081E090E00A
S11319509D8F8C8F6C85663108F069C0C90196959E
S113196087958431910510F0439702C081E090E09F
S11319709F8B8E8B369718F0C901059702C081E0C2
S113198090E0998F888FC901880F991F280F391FFC
S113199036952795369527952D30310518F02C501E
S11319A0310902C021E030E03B8F2A8F909168001A
S11319B0683050F021E06E3008F420E081E001C08E
S11319C0880F2A95EAF701C084E0892B8093680088
S11319D08C85883038F08E3040F0863148F020E035
S11319E030E008C02DE630E005C02BE630E002C050
S11319F02CE630E03C8B2B8B883030F491E001C036
S1131A00990F8A95EAF70EC0282F30E08E3018F42B
S1131A102850310902C02E50310991E001C0990FBC
S1131A202A95EAF79D8B8C8D9D8D0197F1F7CE0158
S1131A30DF91CF910C94670BFC01918D228D892F3E
S1131A4090E0805C9F4F821B91098F7399270895C2
S1131A50FC01918D828D981731F0828DE80FF11D74
S1131A60858D90E008958FEF9FEF0895FC01918D8F
S1131A70828D981761F0828DDF01A80FB11D5D96EC
S1131A808C91928D9F5F9F73928F90E008958FEF5A
S1131A909FEF08958AE99EE0892B49F080E090E069
S1131AA0892B29F00E949A0E81110C94000008954C
S1131AB0FC01848DDF01A80FB11DA35ABF4F2C91E7
S1131AC0848D90E001968F739927848FA689B789B6
S1131AD02C93A089B1898C9180648C93938D848D8F
S1131AE0981306C00288F389E02D80818F7D80835E
S1131AF00895CF93DF93EC01888D8823C9F0EA8998
S1131B00FB89808185FD05C0A889B9898C9186FDF2
S1131B100FC00FB607FCF5CF808185FFF2CFA889EF
S1131B20B9898C9185FFEDCFCE010E94580DE7CF86
S1131B30DF91CF910895EF92FF920F931F93CF936C
S1131B40DF93EC0181E0888F9B8D8C8D981305C009
S1131B50E889F989808185FD24C0F62E0B8D10E07B
S1131B600F5F1F4F0F731127E02E8C8DE8120CC0EE
S1131B700FB607FCFACFE889F989808185FFF5CF94
S1131B80CE010E94580DF1CF8B8DFE01E80FF11D9F
S1131B90E35AFF4FF0820B8FEA89FB8980818062D0
S1131BA007C0EE89FF896083E889F98980818064B0
S1131BB0808381E090E0DF91CF911F910F91FF909E
S1131BC0EF900895CF92DF92EF92FF921F93CF93FD
S1131BD0DF93EC016A017B01122F60E874E88EE167
S1131BE090E0A70196010E940316DA01C90101974A
S1131BF0A109B109B695A79597958795AC01E88990
S1131C00F98982E08083411580E15807A8F0E889CA
S1131C10F989108260E472E48FE090E0A7019601F4
S1131C200E940316BA01A9014150510961097109C1
S1131C307695679557954795EC85FD855083EE8598
S1131C40FF854083188EEC89FD891083EA89FB891E
S1131C50808180618083EA89FB89808188608083B8
S1131C60EA89FB89808180688083EA89FB89808195
S1131C708F7D8083DF91CF911F91FF90EF90DF9054
S1131C80CF9008951F920F920FB60F9211242F93A5
S1131C908F939F93EF93FF93E0919D05F0919E05A1
S1131CA08081E091A305F091A40582FD12C090818A
S1131CB08091A6058F5F8F732091A705821751F03D
S1131CC0E091A605F0E0E357FA4F958F8093A605BF
S1131CD001C08081FF91EF919F918F912F910F907F
S1131CE00FBE0F901F9018951F920F920FB60F9270
S1131CF011242F933F934F935F936F937F938F930D
S1131D009F93AF93BF93EF93FF938DE895E00E9469
S1131D10580DFF91EF91BF91AF919F918F917F915A
S1131D206F915F914F913F912F910F900FBE0F9044
S1131D301F9018958DE895E00E941C0D21E0892BD9
S1131D4009F420E0822F0895EDE8F5E01382128271
S1131D5088EE93E0A0E0B0E084839583A683B78304
S1131D608BED94E09183808385EC90E09587848764
S1131D7084EC90E09787868780EC90E0918B808B51
S1131D8081EC90E0938B828B82EC90E0958B848B3A
S1131D9086EC90E0978B868B118E128E138E148EA8
S1131DA00895089508950E94DC120E94D20E0E94A4
S1131DB08A09CAE4DDE00E94390A2097E1F30E940F
S1131DC04A0DF9CFCF92DF92EF92FF920F931F93B8
S1131DD0CF93DF936C01EB017B01E40EF51E00E071
S1131DE010E0CE15DF0561F06991D601ED91FC910B
S1131DF00190F081E02DC6010995080F191FF1CF5C
S1131E00C801DF91CF911F910F91FF90EF90DF9068
S1131E10CF9008956115710579F0FB0101900020C0
S1131E20E9F73197AF01461B570BDC01ED91FC91AB
S1131E300280F381E02D099480E090E008950C94F1
S1131E400A0FDC01ED91FC910190F081E02D0994E1
S1131E506EE974E00C940A0F0F931F93CF93DF93F2
S1131E60EC010E940A0F8C01CE010E94280F800F02
S1131E70911FDF91CF911F910F9108958F929F929F
S1131E80AF92BF92CF92DF92EF92FF920F931F9384
S1131E90CF93DF93CDB7DEB7A1970FB6F894DEBF2B
S1131EA00FBECDBF6C01142FE52FCB01022F19A259
S1131EB0223008F40AE07E0121E2E20EF11C802EB9
S1131EC0912CA12CB12C612F7E2FA50194010E948D
S1131ED00316029F1019112481E0E81AF1081A3040
S1131EE010F4105D01C0195CF7011083122FE32F69
S1131EF0CA01232B242B252B31F7B701C6010E94DD
S1131F000A0FA1960FB6F894DEBF0FBECDBFDF91C6
S1131F10CF911F910F91FF90EF90DF90CF90BF90E2
S1131F20AF909F908F900895CF92DF92EF92FF929F
S1131F300F931F93CF93DF93EC016A017B0121156B
S1131F40310579F4E881F9810190F081E02D642F65
S1131F50DF91CF911F910F91FF90EF90DF90CF9081
S1131F6009942A303105E9F477FF1AC06DE20E9422
S1131F70210F8C0144275527BA014C195D096E09BC
S1131F807F092AE0CE010E943E0F800F911FDF914E
S1131F90CF911F910F91FF90EF90DF90CF90089514
S1131FA02AE0B701A601CE01DF91CF911F910F91D5
S1131FB0FF90EF90DF90CF900C943E0F9A01AB010D
S1131FC0770F660B770B0C94940F4F925F926F927E
S1131FD07F928F929F92AF92BF92CF92DF92EF92B5
S1131FE0FF92CF93DF93EC016A017B01B22E9A0139
S1131FF0AB01C701B6010E94EA15882319F067EE08
S113200074E027C026013701E89477F82FEF3FEFFB
S11320104FE75FE7C301B2010E94EA1581110DC0C9
S11320202FEF3FEF4FE75FE7C301B2010E9419149E
S113203018161CF46BEE74E00CC02FEF3FEF4FE763
S11320405FE4C701B6010E94781518169CF46FEE80
S113205074E0CE01DF91CF91FF90EF90DF90CF90AD
S1132060BF90AF909F908F907F906F905F904F90B4
S11320700C940A0F2FEF3FEF4FE75FECC701B60157
S11320800E94191487FDE3CF20E030E0A901C701C5
S1132090B6010E94191487FF0AC06DE2CE010E94A6
S11320A0210F4C01F7FAF094F7F8F09402C0812C58
S11320B0912CA12C60E070E080E09FE3AB1441F030
S11320C020E030E040E251E40E941E14A394F6CFD5
S11320D09B01AC01C701B6010E94AD132B013C0169
S11320E00E9497146B017C010E94C6149B01AC01F1
S11320F0C301B2010E94AC132B013C012AE0B701D9
S1132100A601CE010E943E0F7C01E80CF91CBB2005
S113211039F063EF74E0CE010E940A0FE80EF91E55
S1132120DB2CDD2039F120E030E040E251E4C30152
S1132130B2010E947D152B013C010E9490144B01B9
S1132140770FAA08BB082AE030E0B501A401CE014C
S11321500E94940FE80EF91EC501B4010E94C81430
S11321609B01AC01C301B2010E94AC132B013C01E1
S1132170DA94D7CFC701DF91CF91FF90EF90DF9032
S1132180CF90BF90AF909F908F907F906F905F9013
S11321904F9008950C94E50F0F931F93CF93DF9303
S11321A0EC010E94E50F8C01CE010E94280F800FE4
S11321B0911FDF91CF911F910F9108950F931F935A
S11321C0CF93DF93EC010E947A12688779878A871C
S11321D09B87E881F9810680F781E02DCE0109957E
S11321E097FF17C00E947A12088519852A853B85B6
S11321F0DC01CB01801B910BA20BB30B0C811D8165
S11322002E813F8180179107A207B30710F38FEF48
S11322109FEFDF91CF911F910F9108954F925F929D
S11322206F927F928F929F92AF92BF92CF92DF92E2
S1132230EF92FF920F931F93CF93DF938C01EB01E7
S113224086E0849F4001859F900C1124860E971E82
S1132250FB01E815F905F8F482819381892B11F1CA
S11322603696F7CF6081718144815581DB01A40FDB
S1132270B51F2C9130E08217930711F54F5F5F4F24
S113228055834483228133814217530759F036968C
S1132290E815F90538F3C8010E94DE1097FD44C023
S11322A0FE01F6CFEC1BFD0BF595E7952BEA3AEA18
S11322B0E29FC001E39F900DF29F900D112436C060
S11322C04115510521F3C480D5809601215031096F
S11322D035832483DB01A20FB31FAC91B0E08A17CE
S11322E09B07F9F421153105C9F05B017A01E21A63
S11322F0F30AE60EF71E412C512CD5016D905D01B9
S1132300D7017D907D01671006C0BFEF4B1A5B0AB1
S11323104216530690F342165306A9F6D582C48298
S1132320B6CF232B81F6B3CF8FEF9FEFDF91CF9101
S11323301F910F91FF90EF90DF90CF90BF90AF90DF
S11323409F908F907F906F905F904F900895CF9360
S1132350DF9300D000D000D0CDB7DEB7FE013196B8
S113236026E0DF011D922A95E9F77A8369835C836D
S11323704B8341E050E0BF010E940E1121E0892B04
S113238009F020E0822F26960FB6F894DEBF0FBE28
S1132390CDBFDF91CF910895FB0101900020E9F7B3
S11323A03197AF01461B570B0C94A7111F920F9244
S11323B00FB60F9211242F933F934F935F936F9314
S11323C07F938F939F93AF93BF93EF93FF938091EA
S11323D02A0690912B06892B29F0E0912A06F09188
S11323E02B060995FF91EF91BF91AF919F918F912A
S11323F07F916F915F914F913F912F910F900FBEFD
S11324000F901F9018951F920F920FB60F921124E0
S11324102F933F934F935F936F937F938F939F93E8
S1132420AF93BF93EF93FF9380912C0690912D0669
S1132430892B29F0E0912C06F0912D060995FF9146
S1132440EF91BF91AF919F918F917F916F915F9128
S11324504F913F912F910F900FBE0F901F901895A1
S11324601F920F920FB60F9211242F933F938F93C5
S11324709F93AF93BF9380912F0690913006A091C4
S11324803106B091320630912E0626E0230F2D3707
S113249020F40296A11DB11D05C029E8230F03965F
S11324A0A11DB11D20932E0680932F069093300614
S11324B0A0933106B093320680913306909134068E
S11324C0A0913506B09136060196A11DB11D8093E9
S11324D0330690933406A0933506B0933606BF9125
S11324E0AF919F918F913F912F910F900FBE0F90BD
S11324F01F9018952FB7F89460912F0670913006AD
S113250080913106909132062FBF08953FB7F89419
S11325108091330690913406A0913506B091360629
S113252026B5A89B05C02F3F19F00196A11DB11D2A
S11325303FBFBA2FA92F982F8827820F911DA11D65
S1132540B11DBC01CD0143E0660F771F881F991FA1
S11325504A95D1F70895CF92DF92EF92FF92CF93ED
S1132560DF936B017C010E948612EB01C114D1043C
S1132570E104F10489F00E94D10E0E9486126C1BC2
S11325807D0B683E734090F381E0C81AD108E108DE
S1132590F108C851DC4FEACFDF91CF91FF90EF9063
S11325A0DF90CF9008958330910528F0880F991F0C
S11325B004970197F1F70895789484B5826084BDF7
S11325C084B5816084BD85B5826085BD85B5816033
S11325D085BDEEE6F0E0808181608083E1E8F0E093
S11325E01082808182608083808181608083E0E8C2
S11325F0F0E0808181608083E1EBF0E080818460A1
S11326008083E0EBF0E0808181608083EAE7F0E0A2
S113261080818460808380818260808380818E7FDA
S113262080838081806880831092C1000895833004
S113263081F028F4813099F08230A1F00895873038
S1132640A9F08830B9F08430D1F4809180008F7D76
S113265003C0809180008F7780938000089584B5B3
S11326608F7702C084B58F7D84BD08958091B000BA
S11326708F7703C08091B0008F7D8093B000089560
S1132680CF93DF9390E0FC01E458FE4F2491FC01CA
S1132690E057FE4F8491882361F190E0880F991FE1
S11326A0FC01E854FE4FC591D491FC01E255FE4F64
S11326B0A591B491611109C09FB7F89488812095C0
S11326C082238883EC912E230BC0623061F49FB780
S11326D0F8943881822F809583238883EC912E2B64
S11326E02C939FBF06C08FB7F894E8812E2B2883C4
S11326F08FBFDF91CF9108951F93CF93DF93282F3E
S113270030E0F901E859FE4F8491F901E458FE4F95
S1132710D491F901E057FE4FC491CC23C9F0162F90
S113272081110E941713EC2FF0E0EE0FFF1FE2550A
S1132730FE4FA591B4918FB7F894111105C09C91E7
S1132740ED2FE095E92302C0EC91ED2BEC938FBFC4
S1132750DF91CF911F9108955058BB27AA270E945B
S1132760C4130C943E150E94301538F00E9437159E
S113277020F039F49F3F19F426F40C942D150EF42F
S1132780E095E7FB0C942715E92F0E944F1558F3A9
S1132790BA17620773078407950720F079F4A6F542
S11327A00C9471150EF4E0950B2EBA2FA02D0B018D
S11327B0B90190010C01CA01A0011124FF27591B82
S11327C099F0593F50F4503E68F11A16F040A22F88
S11327D0232F342F4427585FF3CF469537952795F9
S11327E0A795F0405395C9F77EF41F16BA0B620BF8
S11327F0730B840BBAF09150A1F0FF0FBB1F661F3F
S1132800771F881FC2F70EC0BA0F621F731F841F81
S113281048F4879577956795B795F7959E3F08F0A7
S1132820B0CF9395880F08F09927EE0F9795879569
S113283008950E94031508F481E008950E9432145B
S11328400C943E150E94371558F00E94301540F044
S113285029F45F3F29F00C94271551110C9472153B
S11328600C942D150E944F1568F39923B1F3552349
S113287091F3951B550BBB27AA276217730784078F
S113288038F09F5F5F4F220F331F441FAA1FA9F325
S113289035D00E2E3AF0E0E832D091505040E69513
S11328A0001CCAF72BD0FE2F29D0660F771F881F74
S11328B0BB1F261737074807AB07B0E809F0BB0B67
S11328C0802DBF01FF2793585F4F3AF09E3F51057B
S11328D078F00C9427150C9472155F3FE4F3983E3E
S11328E0D4F3869577956795B795F7959F5FC9F764
S11328F0880F911D9695879597F90895E1E0660FE5
S1132900771F881FBB1F621773078407BA0720F05D
S1132910621B730B840BBA0BEE1F88F7E0950895C6
S11329200E9497146894B1110C94721508950E9432
S1132930571588F09F5798F0B92F9927B751B0F0E1
S1132940E1F0660F771F881F991F1AF0BA95C9F72F
S113295014C0B13091F00E947115B1E008950C9447
S11329607115672F782F8827B85F39F0B93FCCF3FA
S1132970869577956795B395D9F73EF490958095AC
S1132980709561957F4F8F4F9F4F0895E89409C0CC
S113299097FB3EF490958095709561957F4F8F4F8E
S11329A09F4F9923A9F0F92F96E9BB279395F695A4
S11329B0879577956795B795F111F8CFFAF4BB0F22
S11329C011F460FF1BC06F5F7F4F8F4F9F4F16C086
S11329D0882311F096E911C0772321F09EE8872F10
S11329E0762F05C0662371F096E8862F70E060E0CC
S11329F02AF09A95660F771F881FDAF7880F969545
S1132A00879597F90895990F0008550FAA0BE0E8E8
S1132A10FEEF16161706E807F907C0F0121613069C
S1132A20E407F50798F0621B730B840B950B39F4DC
S1132A300A2661F0232B242B252B21F408950A2642
S1132A4009F4A140A6958FEF811D811D089597F982
S1132A509F6780E870E060E008959FEF80EC089540
S1132A6000240A9416161706180609060895002469
S1132A700A9412161306140605060895092E0394E3
S1132A80000C11F4882352F0BB0F40F4BF2B11F457
S1132A9060FF04C06F5F7F4F8F4F9F4F089557FDB6
S1132AA09058440F551F59F05F3F71F04795880FB8
S1132AB097FB991F61F09F3F79F08795089512164F
S1132AC013061406551FF2CF4695F1DF08C01616FB
S1132AD017061806991FF1CF8695710561050894AC
S1132AE00895E894BB2766277727CB0197F90895C3
S1132AF00E94031508F48FEF08950E9490150C941A
S1132B003E150E94301538F00E94371520F09523A9
S1132B1011F00C9427150C942D1511240C94721596
S1132B200E944F1570F3959FC1F3950F50E0551F08
S1132B30629FF001729FBB27F00DB11D639FAA270E
S1132B40F00DB11DAA1F649F6627B00DA11D661F5D
S1132B50829F2227B00DA11D621F739FB00DA11D7E
S1132B60621F839FA00D611D221F749F3327A00D38
S1132B70611D231F849F600D211D822F762F6A2FD4
S1132B8011249F5750409AF0F1F088234AF0EE0F39
S1132B90FF1FBB1F661F771F881F91505040A9F766
S1132BA09E3F510580F00C9427150C9472155F3FDD
S1132BB0E4F3983ED4F3869577956795B795F795A2
S1132BC0E7959F5FC1F7FE2B880F911D969587951A
S1132BD097F908950E940315880B990B089597FBA4
S1132BE0072E16F4009407D077FD09D00E944416EE
S1132BF007FC05D03EF4909581959F4F08957095FC
S1132C0061957F4F0895A1E21A2EAA1BBB1BFD01FB
S1132C100DC0AA1FBB1FEE1FFF1FA217B307E407B7
S1132C20F50720F0A21BB30BE40BF50B661F771F0F
S1132C30881F991F1A9469F76095709580959095EF
S1132C409B01AC01BD01CF010895052E97FB1EF435
S1132C5000940E943C1657FD07D00E94031607FCFF
S1132C6003D04EF40C943C16509540953095219524
S1132C703F4F4F4F5F4F08959095809570956195A4
S1132C807F4F8F4F9F4F0895AA1BBB1B51E107C075
S1132C90AA1FBB1FA617B70710F0A61BB70B881FE8
S1132CA0991F5A95A9F780959095BC01CD01089577
S1132CB0EE0FFF1F0590F491E02D0994AEE0B0E013
S1132CC0E4E6F6E10C940D190D891E8986E08C83E7
S1132CD01A8309838FEF9FE79E838D83AE01475E3E
S1132CE05F4F6F89788DCE0101960E9481162F81E6
S1132CF03885F801E20FF31F10822E96E4E00C945D
S1132D002919ACE0B0E0E7E8F6E10C94FF187C0187
S1132D106B018A01FC0117821682838181FFBDC188
S1132D20CE0101964C01F7019381F60193FD859143
S1132D3093FF81916F01882309F4ABC1853239F483
S1132D4093FD859193FF81916F01853229F4B70139
S1132D5090E00E946918E7CF512C312C20E02032FA
S1132D60A0F48B3269F030F4803259F0833269F484
S1132D7020612CC08D3239F0803339F4216026C0B3
S1132D802260246023C0286021C027FD27C030EDC5
S1132D90380F3A3078F426FF06C0FAE05F9E300D13
S1132DA01124532E13C08AE0389E300D1124332E83
S1132DB020620CC08E3221F426FD6BC1206406C053
S1132DC08C3611F4206802C0883641F4F60193FD74
S1132DD0859193FF81916F018111C1CF982F9F7DC0
S1132DE09554933028F40C5F1F4FFFE3F9830DC013
S1132DF0833631F0833771F0833509F05BC022C02C
S1132E00F801808189830E5F1F4F44244394512C21
S1132E10540115C03801F2E06F0E711CF801A08056
S1132E20B18026FF03C0652D70E002C06FEF7FEF15
S1132E30C5012C870E945E182C0183012C852F77F5
S1132E40222E17C03801F2E06F0E711CF801A08029
S1132E50B18026FF03C0652D70E002C06FEF7FEFE5
S1132E60C5012C870E9453182C012C852068222E22
S1132E70830123FC1BC0832D90E048165906B0F44F
S1132E80B70180E290E00E9469183A94F4CFF5010A
S1132E9027FC859127FE81915F01B70190E00E9494
S1132EA0691831103A94F1E04F1A51084114510451
S1132EB071F7E5C0843611F0893639F5F80127FF3A
S1132EC007C060817181828193810C5F1F4F08C0AC
S1132ED060817181072E000C880B990B0E5F1F4FC8
S1132EE02F76722E97FF09C0909580957095619505
S1132EF07F4F8F4F9F4F2068722E2AE030E0A4014D
S1132F000E94A118A82EA81844C0853729F42F7E42
S1132F10B22E2AE030E025C0F22FF97FBF2E8F3683
S1132F20C1F018F4883579F0B4C0803719F08837C7
S1132F3021F0AFC02F2F2061B22EB4FE0DC08B2D17
S1132F408460B82E09C024FF0AC09F2F9660B92E52
S1132F5006C028E030E005C020E130E002C020E1F6
S1132F6032E0F801B7FE07C06081718182819381EC
S1132F700C5F1F4F06C06081718180E090E00E5F9E
S1132F801F4FA4010E94A118A82EA818FB2DFF779B
S1132F907F2E76FE0BC0372D3E7FA51450F474FEB1
S1132FA00AC072FC08C0372D3E7E05C0BA2C372DEE
S1132FB003C0BA2C01C0B52C34FF0DC0FE01EA0DCC
S1132FC0F11D8081803311F4397E09C032FF06C0BF
S1132FD0B394B39404C0832F867809F0B39433FD7B
S1132FE013C030FF06C05A2CB31418F4530C5B18EA
S1132FF0B32CB31468F4B70180E290E03C870E94DC
S11330006918B3943C85F5CFB31410F43B1801C090
S1133010312C34FF12C0B70180E390E03C870E945A
S113302069183C8532FF17C031FD03C088E790E082
S113303002C088E590E0B7010CC0832F867859F070
S113304031FF02C08BE201C080E237FD8DE2B7019F
S113305090E00E946918A51438F4B70180E390E069
S11330600E9469185A94F7CFAA94F401EA0DF11D4D
S11330708081B70190E00E946918A110F5CF332038
S113308009F451CEB70180E290E00E9469183A94A5
S1133090F6CFF7018681978102C08FEF9FEF2C96C0
S11330A0E2E10C941B19FC01059061507040011081
S11330B0D8F7809590958E0F9F1F0895FC0161505D
S11330C0704001900110D8F7809590958E0F9F1F46
S11330D008950F931F93CF93DF93FB01238121FD69
S11330E003C08FEF9FEF28C022FF16C0468157818F
S11330F0248135814217530744F4A081B1819D0195
S11331002F5F3F4F318320838C93268137812F5F3C
S11331103F4F3783268310C0EB01092F182F0084FB
S1133120F185E02D0995892BE1F68E819F81019629
S11331309F838E83812F902FDF91CF911F910F91C9
S11331400895FA01AA27283051F1203181F1E89439
S11331506F936E7F6E5F7F4F8F4F9F4FAF4FB1E086
S11331603ED0B4E03CD0670F781F891F9A1FA11D81
S1133170680F791F8A1F911DA11D6A0F711D811D82
S1133180911DA11D20D009F468943F912AE0269F47
S113319011243019305D3193DEF6CF010895462FA6
S11331A04770405D4193B3E00FD0C9F7F6CF462F87
S11331B04F70405D4A3318F0495D31FD40524193F0
S11331C002D0A9F7EACFB4E0A695979587957795AD
S11331D06795BA95C9F700976105710508959B0134
S11331E0AC010A2E06945795479537952795BA95BD
S11331F0C9F7620F731F841F951FA01D08952F9296
S11332003F924F925F926F927F928F929F92AF9272
S1133210BF92CF92DF92EF92FF920F931F93CF93BF
S1133220DF93CDB7DEB7CA1BDB0B0FB6F894DEBF56
S11332300FBECDBF09942A88398848885F846E847C
S11332407D848C849B84AA84B984C884DF80EE80C6
S1133250FD800C811B81AA81B981CE0FD11D0FB6CF
S1133260F894DEBF0FBECDBFED01089510E0C3EEAC
S1133270D0E004C0FE010E9458162196C43ED10736
S1093280C9F7F894FFCF2A
S1133286000000000000000000005F0000000000D5
S1133296000007000700000000147F147F140000DC
S11332A600242A7F2A120000002313086462000007
S11332B600364955225000000000050300000000B6
S11332C6001C2241000000000041221C00000000F6
S11332D600082A1C2A0800000008083E0808000006
S11332E600A06000000000000008080808080000AC
S11332F600606000000000000020100804020000C6
S1133306003E5149453E00000000427F4000000057
S113331600625149494600000022414949360000ED
S1133326001814127F100000002745454539000097
S1133336003C4A49493000000001710905030000B8
S1133346003649494936000000064949291E00004D
S113335600003636000000000000AC6C00000000DF
S11333660008142241000000001414141414000070
S11333760041221408000000000201510906000061
S113338600324979413E0000007E0909097E0000A9
S1133396007F494949360000003E41414122000070
S11333A6007F4141221C0000007F49494941000039
S11333B6007F090909010000003E414151720000E5
S11333C6007F0808087F000000417F4100000000DC
S11333D6002040413F010000007F08142241000004
S11333E6007F404040400000007F020C027F000046
S11333F6007F0408107F0000003E4141413E00006A
S1133406007F090909060000003E4151215E0000C3
S1133416007F09192946000000264949493200005F
S11334260001017F01010000003F4040403F0000D1
S1133436001F2040201F0000003F4038403F00008E
S113344600631408146300000003047804030000F6
S11334560061514945430000007F414100000000DE
S113346600020408102000000041417F0000000013
S113347600040201020400000080808080800000B5
S11334860001020400000000002054545478000097
S1133496007F4844443800000038444428000000B3
S11334A600384444487F000000385454541800003F
S11334B600087E09020000000018A4A4A47C0000F1
S11334C6007F08040478000000007D00000000006E
S11334D60080847D00000000007F10284400000066
S11334E600417F4000000000007C041804780000BE
S11334F6007C08047C0000000038444438000000C6
S113350600FC24241800000000182424FC000000F9
S113351600007C0804000000004854542400000005
S113352600047F4400000000003C40407C00000092
S1133536001C2040201C0000003C4030403C0000A1
S11335460044281028440000001CA0A07C000000B1
S1133556004464544C440000000836410000000056
S113356600007F0000000000004136080000000053
S1133576000201010201000000020505020000002C
S11335864F4E20002023003D0041542B4349504315
S11335964C4F53450D0A0041542B43495053544153
S11335A652543D22554450222C223139322E313682
S11335B6382E382E313032222C3131303030004F13
S11335C64B00626567696E20677073205365726984
S11335D6616C0044616C6C61732054656D70657236
S11335E6617475726520494320436F6E74726F6C03
S11335F6204C6962726172792044656D6F00415492
S11336060D0A00636F6D6D616E6420776F726B6572
S1133616640041542B43495053454E443D360D0AEC
S1133626003E0068656C6C6F002564006D61783A35
S113363620006C6F773A20006974656D703A20003B
S113364674656D703A200000000000BE0AE20E2A7E
S11336560B9D0A120B420B000000009B0DE20E1C90
S11336660D360D280D790D6E616E00696E66006F5C
S10936767666002E000040
S9030000FC
