:100000000C940D010C94EF1A0C941C1B0C94C2144C
:100010000C94C2140C94C2140C9435010C94350148
:100020000C9435010C9435010C9435010C94350178
:100030000C9435010C9435010C9435010C94350168
:100040000C94491B0C9435010C9474170C94A6174E
:100050000C9435010C9435010C9435010C94350148
:100060000C9435010C94350172047F0483048904D7
:100070008F04A404AD04B404B904BF04BF04BF04D6
:10008000BF04BF04BF04BF04BF04BF04BF04BF0458
:10009000BF04BF04BF04BF04BF04BF04BF04BF0448
:1000A000BF04BF04BF04BF04720478047F04830448
:1000B00089048F04950499049E04005EBCE2613FAC
:1000C000DD83C29C7E20A3FD1F419DC3217FFCA236
:1000D000401E5F01E3BD3E6082DC237D9FC1421C68
:1000E000FEA0E1BF5D0380DE3C62BEE0025CDF811A
:1000F000633D7C22C09E1D43A1FF4618FAA42779C8
:100100009BC584DA3866E5BB5907DB856739BAE4F5
:1001100006581947A5FB7826C49A653BD987045A27
:10012000B8E6A7F91B45C6987A24F8A6441A99C7D9
:10013000257B3A6486D85B05E7B98CD2306EEDB387
:10014000510F4E10F2AC2F7193CD114FADF3702EB5
:10015000CC92D38D6F31B2EC0E50AFF1134DCE90E7
:10016000722C6D33D18F0C52B0EE326C8ED0530D99
:10017000EFB1F0AE4C1291CF2D73CA947628ABF547
:1001800017490856B4EA6937D58B5709EBB5366875
:100190008AD495CB2977F4AA4816E9B7550B88D6A7
:1001A000346A2B7597C94A14F6A8742AC896154B59
:1001B000A9F7B6E80A54D7896B3500000008000299
:1001C000010000030407000000000000000001021D
:1001D00004081020408001020408102001020408D5
:1001E00010200404040404040404020202020202B3
:1001F000030303030303000000002300260029007B
:1002000000000000250028002B0000000000240052
:1002100027002A00BB12D617701311241FBECFEF80
:10022000D8E0DEBFCDBF15E0A0E0B1E0EEEDF6E432
:1002300002C005900D92A837B107D9F728E0A8E7CA
:10024000B5E001C01D92A037B207E1F711E0CCE0A4
:10025000D1E004C02197FE010E94B31FCA30D1072C
:10026000C9F70E9405180C9462230C940000FC014D
:1002700010821182138212821482158216821782D2
:1002800010861286118613861486158616861786A2
:10029000118A108A128A138A148A158A168A108E75
:1002A000178A118E128E138E148E158E12A213A21F
:1002B00014A215A216A217A210AA11AA12AA13AA72
:1002C00014AA15AA16AE17AEDC01DE9616961D927C
:1002D0001D921D921C9219971E961C9211961C92AB
:1002E000119716961D921D921D921C9219971E969B
:1002F0001C9211961C92119716961D921D921D929A
:100300001C9219971E961C9211961C921197169684
:100310001D921D921D921C9219971E961C92119669
:100320001C92119716961D921D921D921C92199760
:100330001E961C9211961C92509682E08C931196F8
:100340001C9211961C9211961C92119611961C9259
:100350001E92129611961C921E9212961D921D923A
:100360001D921C92139714961D921D921D921C9221
:10037000139714961D921D921D921C92139714961A
:100380001D921D921D921C921397EA57FF4F1082E7
:1003900008952FEB260F862F90E0263010F4C79794
:1003A00008956156663018F4875591090895C097ED
:1003B0000895FF920F931F93CF93DF93EC01FF24D7
:1003C000F39488818D3211F0F12C01C02196CE0179
:1003D0000E94EF1F9B01AC01A4E6B0E00E94B91F90
:1003E000FE014991242F30E0205331092A30310594
:1003F000B8F34E3221F5218130E0205331092A3003
:100400003105E8F44AE0429F8001439F100D11241A
:10041000012E000C220B330B600F711F821F931FE4
:10042000028110E0005311090A30110540F4012E39
:10043000000C220B330B600F711F821F931FFF20D4
:1004400039F090958095709561957F4F8F4F9F4FB4
:10045000DF91CF911F910F91FF9008952F923F92BE
:100460004F925F926F927F928F929F92AF92BF92C4
:10047000CF92DF92EF92FF920F931F93CF93DF9370
:10048000D82FC92F8B010E94EF1F24E630E040E0F7
:1004900050E00E94721F49015A019B01AC0160E8C3
:1004A00076E988E990E00E944E1F6B017C01F8011B
:1004B00091828082ED2FFC2F2191822F90E0C097B6
:1004C0000A97D0F32E3229F51F0180E8882E86E99D
:1004D000982E88E9A82EB12C9AE0492E512C612C37
:1004E000712CF101C1911F01D0E0E097CA30D10514
:1004F00080F4C501B401A30192010E94721F490159
:100500005A01DE010E94C41FC60ED71EE81EF91E46
:10051000E8CFA5E0B0E0A70196010E94B91F6F5F88
:100520007F4F8F4F9F4F23E030E040E050E00E942C
:10053000721FF80122833383448355831682DF912F
:10054000CF911F910F91FF90EF90DF90CF90BF90D0
:10055000AF909F908F907F906F905F904F903F9063
:100560002F900895CF93DF93EC0187E0FE01709602
:10057000DE01129601900D928A95E1F787E0FE0167
:100580007796DE01199601900D928A95E1F70E9407
:10059000931B6E8F7F8F88A399A381E089838883C3
:1005A000DF91CF910895CF92DF92EF92FF92CF9398
:1005B000DF93EC0119826A817B8180E090E00E94E8
:1005C000251E6B017C016C817D818E819F810E9443
:1005D000251E28E23BE64EE65EE40E947D1D9B015F
:1005E000AC01C701B6010E940C1D2885211190584D
:1005F000DF91CF91FF90EF90DF90CF900895CF9251
:10060000DF92EF92FF92CF93DF93EC01198269851D
:100610007A8580E090E00E94251E6B017C016B854D
:100620007C858D859E850E94251E28E23BE64EE650
:100630005EE40E947D1D9B01AC01C701B6010E94D2
:100640000C1D2F8521119058DF91CF91FF90EF90D5
:10065000DF90CF900895CF93DF93EC01CB010E9400
:10066000D9016E837F8388879987DF91CF91089521
:10067000CF93DF93EC01CB010E94EF1F6E837F834A
:1006800088879987DF91CF910895CF93DF93EC010D
:10069000CB010E94D9016A877B878C879D87DF9178
:1006A000CF910895CF93DF93EC018A859B85AC852C
:1006B000BD858E839F83A887B9870E94931B6A8319
:1006C0007B838C839D8381E089838883DF91CF91B5
:1006D0000895CF93DF93EC01CB010E94EF1F6A874F
:1006E0007B878C879D87DF91CF910895CF93DF9390
:1006F000EC01BC0140960E941F200E94931B68A33E
:1007000079A38AA39BA381E08DA38CA3DF91CF91D2
:10071000089540E150E00C942620BF92CF92DF92E2
:10072000EF92FF920F931F93CF93DF93EC01FC01A5
:10073000EB57FF4FB080BB2009F476C03196608143
:100740000E94C901182FFE01E957FF4F6081CE01B9
:100750000E94C90140E1149F800D1124FE01EC5755
:10076000FF4F9081891351C0B59680819181A281FC
:10077000B3810196A11DB11D80839183A283B383B0
:1007800071978081882369F0399640815181628117
:1007900073814F5F5F4F6F4F7F4F40835183628301
:1007A0007383FE01EB56FF4F9081992341F0913006
:1007B00081F4882371F0CE010E94B2020AC088231E
:1007C00019F0CE010E94B202CE0188599F4F0E94BB
:1007D00052038E0105561F4FD801CD91DC91209711
:1007E00009F403C1D801ED91FC9166A177A18EA116
:1007F0009FA10E941620892B09F0F7C0CE010E940C
:1008000076030AA4DBA5C02DEACFCB55DF4F888144
:100810009981AA81BB810196A11DB11D888399830D
:10082000AA83BB83B12CE1C07C01B6E9EB0EF11CBD
:10083000F70130818B569F4F6C018E0105561F4F7B
:10084000311135C07E0196E8E90EF11C63E074E0D9
:10085000C7010E941620892B11F481E00BC069E0CA
:1008600074E0C7010E941620892B19F4F60110824A
:1008700003C082E0D6018C93C756DF4F88819981EF
:10088000F80191838083F801C081D181209709F418
:10089000ACC0CEA0DFA0B701C6010E94162097FF12
:1008A0009AC08AA59BA5D8018D939C93ECCFDC01BF
:1008B000EC91E23009F463C0CE018A579F4FDC010E
:1008C0002C91222309F45BC0B0E2EB9FF0011124CC
:1008D000E32B3197E932F10508F051C0EC5CFF4F92
:1008E0000C94B31FBC01CE01C0960E942B0347C0DD
:1008F000FE01E856FF4F81E0213461F52CC0BE01B6
:10090000605F7F4F09C081E0233509F080E08E8B66
:1009100036C0BE01695E7F4F0E942E0230C081E06A
:10092000273509F080E08D8F2AC0BC01CE01CE961C
:1009300024C0BC01CE01845B9F4F1FC0BC01CE010F
:1009400082960E9438031BC0FE01E856FF4F81E0EB
:10095000213308F480E0808312C0BC01CE018859A5
:100960009F4F0E9469030BC0BC01CE018A589F4F64
:1009700004C0BC01CE01865A9F4F0E944503F80176
:10098000C080D180CA57DF4FC114D10471F1D801A2
:10099000ED91FC9166A177A1F60186A197A10E9435
:1009A0001620892B11F5D60198962D913C91999797
:1009B000F701808190E082179307BCF02817390770
:1009C00021F4BE01C6010E948903D6019A96CD90FA
:1009D000DC909B97D9CFB701C6010E94162018164C
:1009E00019061CF4D8011D921C928B2DDF91CF911A
:1009F0001F910F91FF90EF90DF90CF90BF900895DF
:100A0000DF92EF92FF920F931F93CF93DF939C019E
:100A1000FC01E356FF4F80819181A281B381019651
:100A2000A11DB11D80839183A283B38389010956DF
:100A30001F4FC9018B579F4F7C01643279F128F415
:100A40006A3069F06D30E1F50AC06A3241F06C320B
:100A5000B9F5F901EC57FF4F808186278083D62EA8
:100A6000E901F80180818F3050F4F901E80FF11DA0
:100A7000EA57FF4F1082C9010E948D0301C080E038
:100A8000CA56DF4F98819F5F9883F801108291E0EA
:100A9000FAE2DF1290E0F70190832BC0F801108298
:100AA000F901EA56FF4F108272971082719682E028
:100AB0008083F7011082F901E856FF4F108218C0B9
:100AC000F80180818E3048F491E0980F9083F9010D
:100AD000E80FF11DEA57FF4F6083F7018081811114
:100AE00007C0F901EC57FF4F90816927608301C06F
:100AF00080E0DF91CF911F910F91FF90EF90DF90F9
:100B000008950895FC0181E895E0928B818B7683AE
:100B100065831482108289E0818381E082838383EC
:100B20000895FC0184810895CF93DF93EB0167E082
:100B3000CE010E94770A91E02F81821390E0892FE5
:100B4000DF91CF910895EF92FF920F931F93CF9370
:100B5000DF938C017B01D42FFC01858196810E945B
:100B6000B609C0E0B701F801858196810E94E709C6
:100B7000882359F0CD1306C0B701C8010E9494051F
:100B8000811104C0CF5FDC1768F780E0DF91CF915F
:100B90001F910F91FF90EF900895EF92FF920F93A6
:100BA0001F93CF93DF9300D0CDB7DEB77C018A01CE
:100BB000FC018581968169837A830E948A08698114
:100BC0007A81F701858196810E94850940E06EEB6C
:100BD000F701858196810E942709F7018581968119
:100BE0000E946909F8018083F701858196810E943E
:100BF0006909F8018183F701858196810E9469095D
:100C0000F8018283F701858196810E946909F801C4
:100C10008383F701858196810E946909F8018483A5
:100C2000F701858196810E946909F8018583F701A2
:100C3000858196810E946909F8018683F701858183
:100C400096810E946909F8018783F7018581968161
:100C50000E946909F8018087F701858196810F90CC
:100C60000F90DF91CF911F910F91FF90EF900C9417
:100C70008A08CF93DF93EA010E94CD0568E0CE0198
:100C80000E94770A91E02885821390E0892FDF91F6
:100C9000CF910895EF92FF921F93CF93DF9300D0EF
:100CA000CDB7DEB77C01FC018581968169837A83AB
:100CB0000E948A0869817A81F701858196810E9464
:100CC000850940E064EBF701858196810E94270940
:100CD000F701858196810E94FC08182FF701858114
:100CE00096810E948A0881E0111180E00F900F9098
:100CF000DF91CF911F91FF90EF900895CF93DF93F5
:100D0000CDB7DEB729970FB6F894DEBF0FBECDBFC3
:100D1000FB0120812031D9F0AE014F5F5F4F0E946F
:100D20003906882381F08D818F3359F018F48F3183
:100D300071F009C08F3519F08F3739F004C08BE09E
:100D400007C08AE005C080E003C08CE001C089E0F4
:100D500029960FB6F894DEBF0FBECDBFDF91CF91BD
:100D60000895EF92FF920F931F93CF93DF93CDB728
:100D7000DEB761970FB6F894DEBF0FBECDBF8C0112
:100D8000FC01858196810E94B609F8011482FF2436
:100D9000F394BE01665F7F4FF801858196810E94C2
:100DA000E7098823C9F1BE01665F7F4FC8010E9431
:100DB0009405882371F3F8018081811108C0BE0178
:100DC000665F7F4FC8010E944A06811122C0AE01B2
:100DD0004F5F5F4FBE01665F7F4FC8010E94CD0528
:100DE000F801E180BE01665F7F4FC8010E947E0668
:100DF0008E1518F4F801818106C0BE01665F7F4F31
:100E0000C8010E947E06F801818384818F5F8483FC
:100E1000C0CFF801F082DBCF61960FB6F894DEBF49
:100E20000FBECDBFDF91CF911F910F91FF90EF903B
:100E30000895CF93DF93CDB7DEB729970FB6F89417
:100E4000DEBF0FBECDBFAE014F5F5F4F0E94CD052D
:100E500081E09981911101C080E029960FB6F89444
:100E6000DEBF0FBECDBFDF91CF910895CF92DF924D
:100E7000EF92FF920F931F93CF93DF93EC018B01BF
:100E8000452BF1F08B818823D9F08881811118C01E
:100E90000E94931B6B017C0160E070E0CE010E9418
:100EA000190781110DC00E94931BAB01BC014C19A5
:100EB0005D096E097F094E3E52406105710560F380
:100EC000F80180818A3049F08B3061F0893079F403
:100ED0006EE570E080E090E00EC06CEB70E080E0CA
:100EE00090E009C067E771E080E090E004C06EEE3A
:100EF00072E080E090E0DF91CF911F910F91FF9021
:100F0000EF90DF90CF900C94C41BCF93DF93EC0154
:100F10008D819E810E948A088D819E810E94B209E6
:100F2000488164E48D819E810E9427098A818823FB
:100F300051F0BE016F5F7F4F40E050E0CE01DF9186
:100F4000CF910C943607DF91CF9108954F925F9225
:100F50006F927F928F929F92AF92BF92FF92CF93A8
:100F6000DF93FB01EA018981682F70E0762F662705
:100F70008881682B80818232B1F18832A1F1803181
:100F800009F078C0FF8075956795072E000C880BD7
:100F9000990B0E94271E20E030E040E85EE30E94AB
:100FA0000B1D4B015C018F2D90E02E81821B91095E
:100FB000BC01990F880B990B0E94271E2B013C0145
:100FC0006F2D70E080E090E00E94251E9B01AC0137
:100FD000C301B2010E947D1D9B01AC01C501B4019A
:100FE0000E940C1D43C08C818F3381F198F48F31A6
:100FF00009F040C093E0759567959A95E1F7072E43
:10100000000C880B990B0E94271E20E030E040E086
:101010005FE32AC08F3569F08F3761F5072E000C2A
:10102000880B990B0E94271E20E030E040E85DE32A
:101030001BC075956795072E000C880B990B0E94B5
:10104000271E20E030E040E05EE30EC07595679516
:1010500075956795072E000C880B990B0E94271E2B
:1010600020E030E040E85EE30E94DC1E262F572F90
:10107000482F392F622F752F842F932FDF91CF9117
:10108000FF90BF90AF909F908F907F906F905F90F8
:101090004F900895EF92FF920F931F93CF93DF939A
:1010A000CDB7DEB729970FB6F894DEBF0FBECDBF20
:1010B0008C017B01AE014F5F5F4F0E943906882390
:1010C00041F0AE014F5F5F4FB701C8010E94A60714
:1010D00004C060E070E08EEF92EC29960FB6F894B1
:1010E000DEBF0FBECDBFDF91CF911F910F91FF905B
:1010F000EF900895FC018081089526E636E646EEDD
:101100005FE30E94DC1E20E030E040E052E40E94F9
:101110000C1D0895FF920F931F93CF93DF93FC0153
:101120000081C181D281F8948981F02EF0948F21C1
:10113000898378941DE7115029F182E090E00E94A4
:10114000EC1B88818023B9F3F8948A818F218A83EC
:101150008981802B8983789480EE91E00E94EC1B3A
:10116000F8948981F822F98286E490E00E94EC1BD1
:101170008881082311E009F010E078948AE991E071
:101180000E94EC1B812FDF91CF911F910F91FF9057
:1011900008951F93CF93DF93FC011081C181D28109
:1011A000812F809560FF12C0F8949A8189238A83E9
:1011B0008981812B89838AE090E00E94EC1B8A81DF
:1011C000182B1A83789487E390E011C0F8949A81E1
:1011D00089238A838981812B898381E490E00E941D
:1011E000EC1B8A81182B1A83789485E090E0DF91BC
:1011F000CF911F910C94EC1B0F931F93CF93DF9310
:10120000FC011081C181D281F8948981812B89836D
:101210008A81012F009580238A8383E090E00E94D9
:10122000EC1B8981082309838AE090E00E94EC1B73
:10123000C881789485E390E00E94EC1B1C2381E038
:1012400009F480E0DF91CF911F910F910895CF9223
:10125000DF92EF92FF920F931F93CF93DF931F9232
:10126000CDB7DEB76C01E62E08E010E0FF24F39462
:1012700061E08F2D8E2109F460E0C60149830E9450
:10128000C908FF0C0150110949810115110581F7A9
:10129000411115C0F894D6011196ED91FC91129769
:1012A00091818C918095892381831196ED91FC9198
:1012B000129792818C9180958923828378940F90E4
:1012C000DF91CF911F910F91FF90EF90DF90CF9022
:1012D0000895EF92FF920F931F93CF93DF937C01BA
:1012E00008E010E0C0E0D1E0C7010E94FC088111D5
:1012F000CD2BDD0F01501109B9F78C2FDF91CF9164
:101300001F910F91FF90EF900895CF92DF92EF928F
:10131000FF920F931F93CF93DF931F92CDB7DEB74A
:101320008C01F62E40E065E579830E942709CF2CD9
:101330007981D72E760188E0E80EF11CF6016191E3
:101340006F0140E0C8010E942709CE14DF04B1F705
:101350000F90DF91CF911F910F91FF90EF90DF9051
:10136000CF90089540E06CEC0C942709FC011386A3
:1013700015861486DC011B9633961E92AE17BF07A6
:10138000E1F708950F931F93CF938C01C62F60E070
:101390008C2F0E94761C6C2F70E0FB01E253FE4FF5
:1013A000E491D801EC93FB01EE51FE4FE491F0E0A3
:1013B000EE0FFF1FEA50FE4F85919491F801928342
:1013C0008183C801CF911F910F910C94B609AF9200
:1013D000BF92CF92DF92EF92FF920F931F93CF9322
:1013E000DF931F92CDB7DEB75C01D62EE72EFC014E
:1013F0008585811105C0C5010E948A08811106C03A
:10140000F50113861586148680E065C040E060EF24
:10141000C5010E94270901E0F12CC12C11E0C50192
:101420000E94FC08682FC50169830E94FC0869813D
:10143000613019F48130B9F433C04F2D50E0681396
:101440001BC0F5018385181730F4E40FF51F838165
:10145000802349F402C0181731F060E0193058F4C5
:10146000F501148708C0F501EF0DF11D8381802B74
:10147000838361E009C0C12EF501E40FF51F93815C
:10148000802F809589238383C5010E94C9081F5F2F
:10149000000F11F4F39401E0F7E0FF1508F0BFCF5F
:1014A000113408F4ADCFF501C386C11002C081E04C
:1014B0008587F5018381882309F4A2CFD50113968E
:1014C000ED2DFE2D9501255F3F4F8D918193A21744
:1014D000B307D9F781E00F90DF91CF911F910F9162
:1014E000FF90EF90DF90CF90BF90AF900895DC0118
:1014F000E0E0615038F08D91E827F0E0E654FF4FCE
:10150000E491F7CF8E2F089580918205882339F0DA
:10151000813069F461E082E00E94B21C1DC060E08D
:1015200082E00E94B21C81E08093820508951092AF
:10153000820580918305909184050196909384059E
:101540008093830561E082E00E94B21C8091830554
:1015500090918405039714F0109282050895449A9F
:10156000459A81E08093B90080E28093B80084E0DE
:101570008093BC0008958FEF90E02091BC0027FD80
:101580000EC00197D1F71092BC0080918007909116
:1015900081070196909381078093800708950895AD
:1015A0000F931F93CF93DF931F92CDB7DEB70CEB52
:1015B00010E094EAF801908389830E94BB0A898134
:1015C0008093BB0084E8F80180830F90DF91CF9176
:1015D0001F910F910C94BB0A8093BB0084E8809309
:1015E000BC000C94BB0ACF93DF9300D0CDB7DEB71D
:1015F000880F4A8369830E94D00A6981862F0E94DE
:10160000EC0A4A81842F0E94EC0A84E98093BC0092
:101610000F900F90DF91CF91089592E09093B800D2
:10162000482F60E88CE30C94F30A8EEA0E940D0BBD
:101630008EE20E940D0B84EA0E940D0B62E370E0C3
:1016400080E090E00E94C41B80E20E940D0B82E0CB
:101650000E940D0B81EA0E940D0B88EC0E940D0B7D
:1016600086EA0E940D0B81E80E940D0B8FEF0E940D
:101670000D0B64E170E080E090E00E94C41B8FEAF3
:101680000E940D0B64E170E080E090E00C94C41BBC
:10169000CF93C62F80550E940D0B8C2F880F880F7B
:1016A000880F88700E940D0B28E0C29FC001112492
:1016B00024E0959587952A95E1F78F70805FCF910B
:1016C0000C940D0B92E09093B800482F60E48CE3EB
:1016D0000C94F30A0F931F93CF93DF93EC0188814F
:1016E0008823D9F000E010E08881F80198E0899F14
:1016F000E00DF11D1124EE5FFF4F80810E94620B0F
:1017000061E070E080E090E00E94C41B0F5F1F4F1B
:101710000830110549F72196E2CFDF91CF911F9153
:101720000F9108950F931F93CF93DF93CDB7DEB73B
:101730002A970FB6F894DEBF0FBECDBF80917F050C
:10174000811137C080916F078F9380916E078F93BF
:1017500089E394E09F938F938E010F5F1F4F1F9338
:101760000F930E947A2061E087E00E94480BC80135
:101770000E946A0B80916E0790916F07019690937B
:101780006F0780936E070F900F900F900F900F9040
:101790000F908A30910531F4809172068F5F8093AB
:1017A000720609C084369105B9F3883E934019F456
:1017B000F3CF10927F052A960FB6F894DEBF0FBEC6
:1017C000CDBFDF91CF911F910F910895CF93DF93FC
:1017D000C0E060E08C2F0E94480BD0E080E00E94C7
:1017E000620BDF5FD038D1F7CF5FC83091F7DF9160
:1017F000CF91089585E00E94E21C21E030E0892B22
:1018000011F020E030E030937E0520937D0588E0E4
:101810000E94E21C21E0892B09F020E0822F90E059
:1018200090937C0580937B0580917A05813091F1BE
:1018300030F0823009F458C0833099F068C080914C
:101840007D0590917E05892B39F08091800581304E
:1018500019F081E080937A05222309F45AC083E0CD
:1018600016C080918005813031F492E0909380051C
:101870008093810502C0109280050E94E60B809142
:101880007B0590917C05892B09F441C082E080930F
:101890007A0508958093810580918005843061F4F4
:1018A00083E08093800561E081E00E94480B8CE337
:1018B00094E00E946A0B13C061E081E00E94480B33
:1018C00082E295E00E946A0B61E081E00E94480B91
:1018D00089E494E00E946A0B84E080938005809103
:1018E0007D0590917E05CFCF80917D0590917E05FD
:1018F000892B11F410927A0561E082E00E94B21CFB
:1019000080917B0590917C05892B09F008951092B8
:101910007A0508955F926F927F928F929F92AF9215
:10192000BF92CF92DF92EF92FF920F931F93CF93CC
:10193000DF93CDB7DEB72A970FB6F894DEBF0FBEA0
:10194000CDBF3B014C0120E030E048EC52E40E9466
:101950007D1D20E030E040E85FE30E94D71E730168
:10196000840187FD1EC0D12C20E030E048EC52E419
:10197000B701C8010E94D71E181664F420E030E0B9
:1019800048EC52E4B701C8010E940B1D7B018C0199
:10199000D394EACF80E38D0D8983CC24C394D12CDA
:1019A00002C0C12CD12C20E030E040E251E4B7016C
:1019B000C8010E947D1D20E030E040E85FE30E9406
:1019C000D71E87FD1DC0B12C20E030E040E251E47D
:1019D000B701C8010E94D71E87FD0CC020E030E08F
:1019E00040E251E4B701C8010E940B1D7B018C014C
:1019F000B394EACFFE01EC0DFD1D80E38B0D04C016
:101A0000FE01EC0DFD1D80E381838FEFC81AD80A1B
:101A100020E030E0A901B701C8010E94D71E87FD70
:101A200020C0B12C20E030E040E85FE3B701C801FE
:101A30000E94D71E87FD0CC020E030E040E85FE345
:101A4000B701C8010E940B1D7B018C01B394EACF42
:101A5000FE01EC0DFD1D80E38B0D81838FEFC81A15
:101A6000D80AE1E0F0E0EC0FFD1FEC0DFD1D8EE269
:101A7000808356018FEFA81AB80A2DEC3CEC4CEC91
:101A80005DE3B701C8010E94D71E87FD1DC0512C20
:101A90002DEC3CEC4CEC5DE3B701C8010E940B1D42
:101AA0007B018C0153942DEC3CEC4CEC5DE30E94EB
:101AB000D71E87FFEDCFE1E0F0E0EC0FFD1FEA0D50
:101AC000FB1D80E3850D07C0E1E0F0E0EC0FFD1F9A
:101AD000EA0DFB1D80E3808382E0C80ED11C2AE062
:101AE00037ED43E25CE3B701C8010E94D71E87FDD2
:101AF0001DC0B12C2AE037ED43E25CE3B701C80119
:101B00000E940B1D7B018C01B3942AE037ED43E268
:101B10005CE30E94D71E87FFEDCFE1E0F0E0EC0F21
:101B2000FD1FEC0DFD1D80E38B0D808320E030E078
:101B300048EC52E4B301C4010E94781D87FD1E8267
:101B400061E070E080E090E00E94C41BCE0101964D
:101B50002A960FB6F894DEBF0FBECDBFDF91CF91AE
:101B60001F910F91FF90EF90DF90CF90BF90AF90BB
:101B70009F908F907F906F905F9008958F929F922B
:101B8000AF92BF92CF92DF92EF92FF928091800549
:101B9000823019F138F4882309F4D3C0813009F474
:101BA00008C105C18330D9F1843009F000C167E074
:101BB00082E00E94480B60917407709175078091D4
:101BC0007607909177070E948A0C80934B07909339
:101BD0004C07DC01E1E4F7E049C061E081E00E94EC
:101BE000480B8CE394E00E946A0B61E082E00E9463
:101BF000480B84E495E00E946A0B61E084E00E9457
:101C0000480B8EE395E00E946A0B61E085E00E943C
:101C1000480B88E395E00E946A0B83E0C5C067E04B
:101C200082E00E94480B609170077091710780916B
:101C30007207909173070E948A0C80934B079093D0
:101C40004C07DC01E1E4F7E08D918A3310F48083E6
:101C500001C01082319687E0E834F807A9F70BC07D
:101C60001082319687E0E834F80729F08D918A33A5
:101C7000B8F78083F6CF81E497E00E946A0B8090EA
:101C8000780790907907A0907A07B0907B07C09072
:101C90007007D0907107E0907207F0907307A7016A
:101CA0009601C501B4010E94D71E18166CF020E001
:101CB00030E0A901C501B4010E94781D882321F0FC
:101CC00080918105882381F0C0927807D0927907AE
:101CD000E0927A07F0927B0766E084E00E94480B6E
:101CE00081E497E00E946A0BC0907007D090710762
:101CF000E0907207F0907307A701960160917C074E
:101D000070917D0780917E0790917F070E94781DDA
:101D100087FD04C080918105882381F0C0927C07F3
:101D2000D0927D07E0927E07F0927F0766E085E023
:101D30000E94480B81E497E00E946A0B1092810593
:101D400038C00E94E60B61E081E00E94480B84E508
:101D500094E00E946A0B61E082E00E94480B81E6F9
:101D600094E00E946A0B61E083E00E94480B8DE6DC
:101D700094E00E946A0B61E084E00E94480B89E7CE
:101D800094E00E946A0B61E085E00E94480B84E8C1
:101D900094E00E946A0B61E086E00E94480B82E9B1
:101DA00094E00E946A0B81E08093800502C010924B
:101DB0008005FF90EF90DF90CF90BF90AF909F9005
:101DC0008F900895EF92FF920F931F93CF93DF931D
:101DD000CDB7DEB728970FB6F894DEBF0FBECDBFE4
:101DE0008DE497E00E94B1068DE497E00E94910592
:101DF000E82EF12C8DE497E00E947A08882339F0D0
:101E000060EA74E086EC97E00E94511804C08DE40B
:101E100097E00E94850700E010E00E151F0534F5DD
:101E2000402FBE016F5F7F4F8DE497E00E94A305B6
:101E30008823C9F0BE016F5F7F4F8DE497E00E9459
:101E40004A086093740770937507809376079093A0
:101E500077070E947D0860937007709371078093E5
:101E60007207909373070F5F1F4FD7CF28960FB657
:101E7000F894DEBF0FBECDBFDF91CF911F910F91C0
:101E8000FF90EF900895CF93DF93CDB7DEB72897FB
:101E90000FB6F894DEBF0FBECDBF0E94E20E66E023
:101EA00087E00E94480B8EE00E94301C90937406DD
:101EB00080937306883E934044F469E087E00E9473
:101EC000480B8FE295E00E946A0B66E087E00E9473
:101ED000480B4AE050E0BE016F5F7F4F8091730670
:101EE000909174060E9435200E946A0B28960FB6C6
:101EF000F894DEBF0FBECDBFDF91CF910895FC01F6
:101F000080818E7F808380818D7F80831582168281
:101F100017821086148E138E168E158E10A2178EB1
:101F2000118A128A138A148A08950F931F93CF93EC
:101F3000DF93FC01A78DB0A11097C9F1EC01118AC4
:101F4000128A138A148A0788F08DE02D309759F190
:101F5000888181FD28C014960D911C9115971596C6
:101F6000DC93CE9314978881826088830995988149
:101F700080FB90F9988388818D7F8883EF8DF8A10D
:101F8000158304830E94931B09811A812B813C8154
:101F9000DC01CB01801B910BA20BB30B8D839E83C5
:101FA000AF83B88704C0888181608883EBCFDF91DD
:101FB000CF911F910F910895CF92DF92EF92FF92F0
:101FC0000F931F93CF93DF93EC016A017B01452BA5
:101FD000462B472B21F4C980DA80EB80FC800E94DD
:101FE000931B09811A812B813C81DC01CB018C0D73
:101FF0009D1DAE1DBF1D801B910BA20BB30B8D83CE
:102000009E83AF83B887DF91CF911F910F91FF908F
:10201000EF90DF90CF900895FC014183528363835A
:10202000748340E050E0BA010C94DC0FEF92FF9211
:102030000F931F93CF93DF931F92CDB7DEB7DC01D1
:102040009C918C918E7F8C938C918D7F8C93892F1A
:10205000817090FF1FC059962D913C915A97211580
:102060003105C1F07D015F960D90BC91A02D1496B5
:102070000D911C9115971596FC92EE9214978983F9
:10208000F9010995D7015F96ED91FC919097158321
:10209000048389810F90DF91CF911F910F91FF9061
:1020A000EF900895CF93DF93DC01FB0190A3878F1E
:1020B0008D919C911197892B31F411967C936E939D
:1020C000148E138E08C01296CD91DC911397D48F85
:1020D000C38F7E8F6D8F168E158E1396FC93EE93A5
:1020E0001297DF91CF9108952F923F924F925F9276
:1020F0006F927F928F929F92AF92CF92DF92EF92E8
:10210000FF920F931F93CF93DF9300D000D0CDB7F2
:10211000DEB73C0118012901088D198D49835A83C6
:102120006B837C830E947F0F49815A816B817C8104
:10213000C3010E940C10F301218632864386548627
:10214000258636864786508AF68AE58A908E878A63
:10215000128F018FC114D10421F0B301C6010E9476
:102160005210AA20C1F0C3010F900F900F900F9052
:10217000DF91CF911F910F91FF90EF90DF90CF9063
:10218000AF909F908F907F906F905F904F903F9017
:102190002F900C94950F0F900F900F900F90DF9150
:1021A000CF911F910F91FF90EF90DF90CF90AF9064
:1021B0009F908F907F906F905F904F903F902F9067
:1021C0000895CF92DF92EF92FF920F931F93CF93D8
:1021D000DF93EC01888199819D838C838C819D8123
:1021E000009709F45CC0FC01208120FF53C04185A9
:1021F000528563857485452B462B472B19F40E9425
:10220000161048C00E94931BEC81FD81C180D280D2
:10221000E380F4800581168127813085AB01BC0104
:10222000401B510B620B730B4C155D056E057F0552
:1022300088F1418552856385748514161506160646
:10224000170664F4418552856385748541505109B0
:10225000610971094187528763877487418952896F
:10226000638974894F5F5F4F6F4F7F4F418B528BF4
:10227000638B748BD901C8018C0D9D1DAE1DBF1DD4
:1022800085839683A783B0870588F689E02D3097EC
:1022900009F00995EC81FD81858D968D9DCFDF91AB
:1022A000CF911F910F91FF90EF90DF90CF90089505
:1022B00064EA74E086EC97E00E945E1864E670E0E1
:1022C00080E090E00E94C41B62EB74E086EC97E033
:1022D0000E945E1864E670E080E090E00E94C41BFB
:1022E0006AED74E086EC97E00E94E51A882301F31A
:1022F00061E081E10E94B21C64EF71E080E090E057
:102300000E94C41B60E081E10E94B21C64EF71E096
:1023100080E090E00E94C41B61E081E10C94B21C5B
:1023200061E081E10E94761C60E081E10E94B21CC4
:1023300061E082E00E94761C61E082E00E94B21CB3
:1023400060E085E00E94761C61E085E00E94B21C9E
:1023500061E083E00E94761C60E083E00E94B21C92
:1023600060E088E00E94761C61E088E00E94B21C78
:1023700060E08EE00E94761C64E670E080E090E011
:102380000E94C41B40E855E260E070E085E796E0FB
:102390000E94C0156DED74E085E796E00E945E181E
:1023A00064E670E080E090E00E94C41B26E040E01C
:1023B00056E960E070E086EC97E00E9414170E94F6
:1023C00058110E94AF0A0E94150B6AE070E080E08D
:1023D00090E00E94C41B0E94E60B62E370E080E084
:1023E00090E00E94C41B80E20E940D0B82E00E94DC
:1023F0000D0B86EA0E940D0BACE6B6E015961C921A
:102400001E921497EBE4F6E0B0A3A78F1196FC930D
:10241000EE93148E138E168E158E1396FC93EE93F8
:1024200012976AE276E0CD010E94521069E076E0F0
:102430008CE696E00E94521068EE75E08CE696E01D
:102440000E94521067EC75E08CE696E00E945210F4
:1024500066EA75E08CE696E00E94521065E875E049
:102460008CE696E00E9452108BE496E00E94950F55
:102470008AE296E00E94950F89E096E00E94950F0F
:1024800088EE95E00E94950F87EC95E00E94950FED
:1024900086EA95E00E94950F85E895E00C94950FEB
:1024A0006EEE74E086EC97E00E945E186EEF74E0CA
:1024B00086EC97E00E94E51A882309F44CC060E09E
:1024C00075E086EC97E00E9451184091700750919A
:1024D0007107609172077091730722E030E086EC1B
:1024E00097E00E94F51964E075E086EC97E00E94A1
:1024F000511884E996E00E94D302AB01BC0126E0AA
:1025000030E086EC97E00E94F51964E075E086EC17
:1025100097E00E94511884E996E00E94FF02AB0107
:10252000BC0126E030E086EC97E00E94F51966E0F9
:1025300075E086EC97E00E9451186091000170915F
:10254000010186EC97E00E9451186BEF74E086EC75
:1025500097E00C945E1868E075E086EC97E00E94C6
:10256000E51A81110C94581108950C9450128CE6C0
:1025700096E00C94E1108F929F92AF92CF92DF92EF
:10258000EF92FF920F931F9369E080E697E00E941D
:10259000C20960E677E08DE497E00E94820584E955
:1025A00096E00E94370120E047E066E085E796E08C
:1025B0000E949515ECE6F6E01182108213821282D9
:1025C000158214821F921F92812C912CAA24A3940D
:1025D0006F0184E8E82E8AE0F82E0FEF1FEF9801D4
:1025E00044EF51E060E070E08BE496E00E947410EC
:1025F0001F921F929EEBE92E9DE0F92E0FEF1FEF29
:10260000980144EF51E060E070E08AE296E00E94B9
:1026100074101F921F922AEFE22E2BE0F22E0FEF82
:102620001FEF980144E650E060E070E089E096E03A
:102630000E9474101F921F9232E9E32E3BE0F32EAA
:102640000FEF1FEF980148EE53E060E070E088EE76
:1026500095E00E9474101F921F9244E7E42E43E11C
:10266000F42E0FEF1FEF980140ED57E060E070E0AF
:1026700087EC95E00E9474101F921F9255EBE52E97
:1026800052E1F52E0FEF1FEF980140ED57E060E0AB
:1026900070E086EA95E00E9474101F921F9263E436
:1026A000E62E6FE0F62E0FEF1FEF980140ED57E09A
:1026B00060E070E085E895E00E9474108DB79EB7E9
:1026C0000E960FB6F8949EBF0FBE8DBF1F910F914F
:1026D000FF90EF90DF90CF90AF909F908F900895F4
:1026E00085E796E00C943C15CF93DF93CDB7DEB72A
:1026F0002A970FB6F894DEBF0FBECDBF85E796E0F0
:102700000E945C141816190654F485E796E00E949E
:10271000CF13682F84E996E00E940005EFCF6DE0AB
:1027200087E00E94480B1092FD0648E050E0BE0191
:102730006F5F7F4F80910207909103070E943520C1
:102740000E946A0B1092FD06809102079091030788
:10275000A0910407B09105070597A105B105B0F058
:102760008091780590917905892B29F0109279054F
:102770001092780506C081E090E0909379058093EF
:1027800078056091780583E00E94B21C2A960FB606
:10279000F894DEBF0FBECDBFDF91CF910895209199
:1027A000C4073091C50728173907B9F490918207FB
:1027B00080918307981789F0E0918207F0E0EC5749
:1027C000F84F80812091820730E02F5F3F4F2F73B9
:1027D00033272093820790E008958FEF9FEF0895AD
:1027E0001F93CF93DF93DC015C962D913C915D9715
:1027F0002115310539F481E090E013969C938E9376
:1028000012973DC05196ED91FC91529750969C9134
:102810005097892F80951FB75E964C915E9741FB2C
:10282000772770F941FD6095F8944081772311F086
:10283000492B01C048234083E9012197F1F748E083
:10284000508160FF02C0592B01C058235083E90119
:102850002197F1F76695415099F7772321F0908100
:102860008923808303C08081982B90831FBF5C964F
:102870008D919C915D970197F1F721E030E0C901BE
:10288000DF91CF911F9108952091C4073091C50722
:102890002817390771F49091820780918307981760
:1028A00041F0E0918207F0E0EC57F84F808190E032
:1028B00008958FEF9FEF08952091C4073091C507C9
:1028C0002817390771F4809183072091820790E0DF
:1028D000805C9F4F821B910960E470E00E945E1F44
:1028E000089580E090E008952091C4073091C507D5
:1028F0002817390739F48FB7F8941092830710928C
:1029000082078FBF0895E091C407F091C507E817CB
:10291000F90769F4A389B4899C91858980958923F5
:102920008C931092C5071092C40781E0089580E04F
:102930000895CF93DF93EC018A8D9B8D892BF1F065
:102940008091C4079091C5078C179D07B9F0009737
:1029500011F00E9483148E8D8E7F8E8F10928307CC
:1029600010928207D093C507C093C407EB89FC89F6
:1029700090818D89892B808381E001C080E0DF9187
:10298000CF9108951F920F920FB60F9211242F939B
:102990003F934F935F936F937F938F939F93AF93E7
:1029A000BF93EF93FF93E091C407F091C507309771
:1029B00009F451C0968DA685B785858591FF04C021
:1029C0009C91892329F447C09C91892309F043C035
:1029D000A389B4899C918589809589238C93868964
:1029E00097890197F1F7608D718DA685B78555851B
:1029F00038E020E0CB010197F1F7822F90E0959528
:102A00008795282F4C91452309F02068315091F784
:102A1000868D81FD20958091830790E001968F73CC
:102A2000992730918207381749F0A0918307B0E0C9
:102A3000AC57B84F2C938093830703C0868D816079
:102A4000868F828D938D0197F1F7A389B4899C912C
:102A50008589892B8C93FF91EF91BF91AF919F91C5
:102A60008F917F916F915F914F913F912F910F9037
:102A70000FBE0F901F9018952FE435E0FC013183B5
:102A800020830C9483141F93CF93DF93EC01162FB4
:102A90006E8D6695617081E06827812F0E94B21C5F
:102AA00061E0812F0E94761C612F70E0FB01E253F0
:102AB000FE4FE491E88BFB01EE51FE4FE491F0E014
:102AC000EE0FFF1FE050FE4F859194919A8B898BFA
:102AD000DF91CF911F9108951F93CF93DF93EC0166
:102AE000162F60E0812F0E94761C8E8D81FD04C020
:102AF00061E0812F0E94B21C1C87612F70E0FB01F6
:102B0000E253FE4FE491ED87FB01EE51FE4FE4915D
:102B1000F0E0EE0FFF1FEA50FE4F859194919F87E2
:102B20008E87DF91CF911F9108951F93CF93DF93ED
:102B3000EC01162F1B821A8288EE93E0A0E0B0E031
:102B40008C839D83AE83BF838FE495E099838883D4
:102B50001F8A1E8A198E188E1B8E1A8E1D8E1C8E31
:102B60008E8D8E7F20FB81F98E8F642FCE010E9487
:102B70004315612FCE01DF91CF911F910C946C15FD
:102B8000CF93DF93EC019A01AB011B8E1A8E198E45
:102B9000188E1F8A1E8A60E874E88EE190E00E9419
:102BA000941FF9012430310518F0C901039702C0C0
:102BB00081E090E09D8F8C8F6C85663108F069C054
:102BC000C901969587958431910510F0439702C00D
:102BD00081E090E09F8B8E8B369718F0C9010597A6
:102BE00002C081E090E0998F888FC901880F991FFA
:102BF000280F391F36952795369527952D303105A5
:102C000018F02C50310902C021E030E03B8F2A8FB0
:102C100090916800683050F021E06E3008F420E0B8
:102C200081E001C0880F2A95EAF701C084E0892B72
:102C3000809368008C85883038F08E3040F0863183
:102C400048F020E030E008C02DE630E005C02BE67B
:102C500030E002C02CE630E03C8B2B8B883030F427
:102C600091E001C0990F8A95EAF70EC0282F30E055
:102C70008E3018F42850310902C02E50310991E0ED
:102C800001C0990F2A95EAF79D8B8C8D9D8D019738
:102C9000F1F7CE01DF91CF910C949914FC01918D45
:102CA000228D892F90E0805C9F4F821B91098F734A
:102CB00099270895FC01918D828D981731F0828DAE
:102CC000E80FF11D858D90E008958FEF9FEF089537
:102CD000FC01918D828D981761F0828DDF01A80F24
:102CE000B11D5D968C91928D9F5F9F73928F90E046
:102CF00008958FEF9FEF08958CEC97E1892B49F0B1
:102D000080E090E0892B29F00E94CC1781110C946F
:102D100000000895FC01848DDF01A80FB11DA35AA6
:102D2000BF4F2C91848D90E001968F739927848FEB
:102D3000A689B7892C93A089B1898C9180648C93E2
:102D4000938D848D981306C00288F389E02D8081CD
:102D50008F7D80830895CF93DF93EC01888D882346
:102D6000C9F0EA89FB89808185FD05C0A889B989F8
:102D70008C9186FD0FC00FB607FCF5CF808185FFD3
:102D8000F2CFA889B9898C9185FFEDCFCE010E9441
:102D90008A16E7CFDF91CF910895EF92FF920F93BC
:102DA0001F93CF93DF93EC0181E0888F9B8D8C8DF7
:102DB000981305C0E889F989808185FD24C0F62E25
:102DC0000B8D10E00F5F1F4F0F731127E02E8C8DBE
:102DD000E8120CC00FB607FCFACFE889F9898081A8
:102DE00085FFF5CFCE010E948A16F1CF8B8DFE01B3
:102DF000E80FF11DE35AFF4FF0820B8FEA89FB8940
:102E00008081806207C0EE89FF896083E889F98943
:102E100080818064808381E090E0DF91CF911F9179
:102E20000F91FF90EF900895CF92DF92EF92FF9273
:102E30001F93CF93DF93EC016A017B01122F60E8AF
:102E400074E88EE190E0A70196010E94721FDA01FA
:102E5000C9010197A109B109B695A79597958795DD
:102E6000AC01E889F98982E08083411580E1580747
:102E7000A8F0E889F989108260E472E48FE090E0BC
:102E8000A70196010E94721FBA01A9014150510980
:102E9000610971097695679557954795EC85FD858C
:102EA0005083EE85FF854083188EEC89FD89108361
:102EB000EA89FB89808180618083EA89FB8980813E
:102EC00088608083EA89FB89808180688083EA89C1
:102ED000FB8980818F7D8083DF91CF911F91FF904F
:102EE000EF90DF90CF9008951F920F920FB60F9240
:102EF00011242F938F939F93EF93FF93E091D60725
:102F0000F091D7078081E091DC07F091DD0782FD29
:102F100012C090818091DF078F5F8F732091E0074F
:102F2000821751F0E091DF07F0E0EA53F84F958FF8
:102F30008093DF0701C08081FF91EF919F918F9176
:102F40002F910F900FBE0F901F9018951F920F9208
:102F50000FB60F9211242F933F934F935F936F936C
:102F60007F938F939F93AF93BF93EF93FF9386ECE1
:102F700097E00E948A16FF91EF91BF91AF919F91C8
:102F80008F917F916F915F914F913F912F910F9012
:102F90000FBE0F901F90189586EC97E00E944E167A
:102FA00021E0892B09F420E0822F0895E6ECF7E078
:102FB0001382128288EE93E0A0E0B0E084839583D0
:102FC000A683B7838FE595E09183808385EC90E0BD
:102FD0009587848784EC90E09787868780EC90E0E3
:102FE000918B808B81EC90E0938B828B82EC90E0D4
:102FF000958B848B86EC90E0978B868B118E128E4E
:10300000138E148E0895089508950E94F51B0E9452
:1030100004180E949011CCE7D6E10E94B7122097C5
:10302000E1F30E947C16F9CFCF92DF92EF92FF92EC
:103030000F931F93CF93DF936C01EB017B01E40EA1
:10304000F51E00E010E0CE15DF0561F06991D601B4
:10305000ED91FC910190F081E02DC6010995080FDA
:10306000191FF1CFC801DF91CF911F910F91FF90F0
:10307000EF90DF90CF9008956115710579F0FB0115
:1030800001900020E9F73197AF01461B570BDC0197
:10309000ED91FC910280F381E02D099480E090E0B5
:1030A00008950C943C18DC01ED91FC910190F081A5
:1030B000E02D09946BEF74E00C943C180F931F9370
:1030C000CF93DF93EC010E943C188C01CE010E944B
:1030D0005A18800F911FDF91CF911F910F91089582
:1030E0008F929F92AF92BF92CF92DF92EF92FF9218
:1030F0000F931F93CF93DF93CDB7DEB7A1970FB692
:10310000F894DEBF0FBECDBF6C01142FE52FCB01AD
:10311000022F19A2223008F40AE07E0121E2E20E19
:10312000F11C802E912CA12CB12C612F7E2FA5019A
:1031300094010E94721F029F1019112481E0E81A65
:10314000F1081A3010F4105D01C0195CF70110830A
:10315000122FE32FCA01232B242B252B31F7B70184
:10316000C6010E943C18A1960FB6F894DEBF0FBEB0
:10317000CDBFDF91CF911F910F91FF90EF90DF9026
:10318000CF90BF90AF909F908F900895CF92DF9295
:10319000EF92FF920F931F93CF93DF93EC016A019D
:1031A0007B012115310579F4E881F9810190F081E5
:1031B000E02D642FDF91CF911F910F91FF90EF9041
:1031C000DF90CF9009942A303105E9F477FF1AC0D7
:1031D0006DE20E9453188C0144275527BA014C19FF
:1031E0005D096E097F092AE0CE010E947018800FE8
:1031F000911FDF91CF911F910F91FF90EF90DF9082
:10320000CF9008952AE0B701A601CE01DF91CF91BA
:103210001F910F91FF90EF90DF90CF900C9470185A
:103220004F925F926F927F928F929F92AF92BF92D6
:10323000CF92DF92EF92FF92CF93DF93EC016A017E
:103240007B01B22E9A01AB01C701B6010E94491F52
:10325000882319F06BE675E027C026013701E89452
:1032600077F82FEF3FEF4FE75FE7C301B2010E940E
:10327000491F81110DC02FEF3FEF4FE75FE7C301FB
:10328000B2010E94781D18161CF46FE675E00CC0A0
:103290002FEF3FEF4FE75FE4C701B6010E94D71E53
:1032A00018169CF463E775E0CE01DF91CF91FF9093
:1032B000EF90DF90CF90BF90AF909F908F907F90D6
:1032C0006F905F904F900C943C182FEF3FEF4FE7BB
:1032D0005FECC701B6010E94781D87FDE3CF20E0B7
:1032E00030E0A901C701B6010E94781D87FF0AC01E
:1032F0006DE2CE010E9453184C01F7FAF094F7F8F2
:10330000F09402C0812C912CA12C60E070E080E050
:103310009FE3AB1441F020E030E040E251E40E9432
:103320007D1DA394F6CF9B01AC01C701B6010E949D
:103330000C1D2B013C010E94F61D6B017C010E94BB
:10334000251E9B01AC01C301B2010E940B1D2B0184
:103350003C012AE0B701A601CE010E9470187C0151
:10336000E80CF91CBB2039F06EE974E0CE010E9434
:103370003C18E80EF91EDB2CDD2039F120E030E0AE
:1033800040E251E4C301B2010E94DC1E2B013C016A
:103390000E94EF1D4B01770FAA08BB082AE030E01E
:1033A000B501A401CE010E94C618E80EF91EC501A0
:1033B000B4010E94271E9B01AC01C301B2010E940F
:1033C0000B1D2B013C01DA94D7CFC701DF91CF91C0
:1033D000FF90EF90DF90CF90BF90AF909F908F9035
:1033E0007F906F905F904F9008950C9410190F93F9
:1033F0001F93CF93DF93EC010E94931B688779871B
:103400008A879B87E881F9810680F781E02DCE01CC
:10341000099597FF17C00E94931B088519852A8577
:103420003B85DC01CB01801B910BA20BB30B0C8104
:103430001D812E813F8180179107A207B30710F3EA
:103440008FEF9FEFDF91CF911F910F9108954F92D2
:103450005F926F927F928F929F92AF92BF92CF9224
:10346000DF92EF92FF920F931F93CF93DF938C0124
:10347000EB0186E0849F4001859F900C1124860E0D
:10348000971EFB01E815F905F8F482819381892BD9
:1034900011F13696F7CF6081718144815581DB014E
:1034A000A40FB51F2C9130E08217930711F54F5FE1
:1034B0005F4F55834483228133814217530759F06C
:1034C0003696E815F90538F3C8010E94F71997FDFB
:1034D00044C0FE01F6CFEC1BFD0BF595E7952BEAFA
:1034E0003AEAE29FC001E39F900DF29F900D1124F4
:1034F00036C04115510521F3C480D5809601215075
:10350000310935832483DB01A20FB31FAC91B0E0F6
:103510008A179B07F9F421153105C9F05B017A017F
:10352000E21AF30AE60EF71E412C512CD5016D90DC
:103530005D01D7017D907D01671006C0BFEF4B1A7A
:103540005B0A4216530690F342165306A9F6D5823B
:10355000C482B6CF232B81F6B3CF8FEF9FEFDF91DD
:10356000CF911F910F91FF90EF90DF90CF90BF9080
:10357000AF909F908F907F906F905F904F90089545
:10358000CF93DF9300D000D000D0CDB7DEB7FE01DF
:10359000319626E0DF011D922A95E9F77A83698347
:1035A0005C834B8341E050E0BF010E94271A21E079
:1035B000892B09F020E0822F26960FB6F894DEBF03
:1035C0000FBECDBFDF91CF910895FB010190002088
:1035D000E9F73197AF01461B570B0C94C01A1F92A5
:1035E0000F920FB60F9211242F933F934F935F9337
:1035F0006F937F938F939F93AF93BF93EF93FF93BB
:103600008091630890916408892B29F0E091630808
:10361000F09164080995FF91EF91BF91AF919F914F
:103620008F917F916F915F914F913F912F910F906B
:103630000FBE0F901F9018951F920F920FB60F920A
:1036400011242F933F934F935F936F937F938F93A7
:103650009F93AF93BF93EF93FF93809165089091F1
:103660006608892B29F0E0916508F09166080995B4
:10367000FF91EF91BF91AF919F918F917F916F914A
:103680005F914F913F912F910F900FBE0F901F9020
:1036900018951F920F920FB60F9211242F933F93FC
:1036A0008F939F93AF93BF9380916808909169081F
:1036B000A0916A08B0916B083091670826E0230F4B
:1036C0002D3720F40296A11DB11D05C029E8230F56
:1036D0000396A11DB11D20936708809368089093FD
:1036E0006908A0936A08B0936B0880916C08909168
:1036F0006D08A0916E08B0916F080196A11DB11DD3
:1037000080936C0890936D08A0936E08B0936F0837
:10371000BF91AF919F918F913F912F910F900FBECD
:103720000F901F9018952FB7F894609168087091CA
:10373000690880916A0890916B082FBF08953FB780
:10374000F89480916C0890916D08A0916E08B091EA
:103750006F0826B5A89B05C02F3F19F00196A11D43
:10376000B11D3FBFBA2FA92F982F8827820F911D17
:10377000A11DB11DBC01CD0143E0660F771F881F5D
:10378000991F4A95D1F70895CF92DF92EF92FF9259
:10379000CF93DF936B017C010E949F1BEB01C1144F
:1037A000D104E104F10489F00E9403180E949F1BD8
:1037B0006C1B7D0B683E734090F381E0C81AD10802
:1037C000E108F108C851DC4FEACFDF91CF91FF90BB
:1037D000EF90DF90CF9008958330910528F0880F07
:1037E000991F04970197F1F70895789484B5826042
:1037F00084BD84B5816084BD85B5826085BD85B595
:10380000816085BDEEE6F0E0808181608083E1E843
:10381000F0E010828081826080838081816080837B
:10382000E0E8F0E0808181608083E1EBF0E080817E
:1038300084608083E0EBF0E0808181608083EAE750
:10384000F0E08081846080838081826080838081D9
:103850008E7F80838081806880831092C10008956C
:103860008E3008F08E5087702091020490E4299FDA
:1038700090011124822B80937C0080917A008064D7
:1038800080937A0080917A0086FDFCCF8091780049
:103890002091790090E0922B0895833081F028F4F4
:1038A000813099F08230A1F008958730A9F08830F6
:1038B000B9F08430D1F4809180008F7D03C0809175
:1038C00080008F7780938000089584B58F7702C041
:1038D00084B58F7D84BD08958091B0008F7703C03B
:1038E0008091B0008F7D8093B0000895CF93DF93D7
:1038F00090E0FC01E253FE4F2491FC01EE51FE4F9B
:103900008491882361F190E0880F991FFC01E65FA4
:10391000FD4FC591D491FC01E050FE4FA591B491AB
:10392000611109C09FB7F89488812095822388830C
:10393000EC912E230BC0623061F49FB7F89438816C
:10394000822F809583238883EC912E2B2C939FBF0D
:1039500006C08FB7F894E8812E2B28838FBFDF91A4
:10396000CF9108951F93CF93DF93282F30E0F90173
:10397000E654FE4F8491F901E253FE4FD491F901D0
:10398000EE51FE4FC491CC23C9F0162F81110E9435
:103990004D1CEC2FF0E0EE0FFF1FE050FE4FA59105
:1039A000B4918FB7F894111105C09C91ED2FE0955B
:1039B000E92302C0EC91ED2BEC938FBFDF91CF9107
:1039C0001F910895CF93DF93282F30E0F901E6543B
:1039D000FE4F8491F901E253FE4FD491F901EE516B
:1039E000FE4FC491CC2391F081110E944D1CEC2F0D
:1039F000F0E0EE0FFF1FEA50FE4FA591B491EC915D
:103A0000ED2381E090E021F480E002C080E090E0CE
:103A1000DF91CF9108955058BB27AA270E94231DFC
:103A20000C949D1E0E948F1E38F00E94961E20F05E
:103A300039F49F3F19F426F40C948C1E0EF4E09593
:103A4000E7FB0C94861EE92F0E94AE1E58F3BA17AE
:103A5000620773078407950720F079F4A6F50C94A4
:103A6000D01E0EF4E0950B2EBA2FA02D0B01B9013C
:103A700090010C01CA01A0011124FF27591B99F0E4
:103A8000593F50F4503E68F11A16F040A22F232FF0
:103A9000342F4427585FF3CF469537952795A79540
:103AA000F0405395C9F77EF41F16BA0B620B730BE7
:103AB000840BBAF09150A1F0FF0FBB1F661F771F58
:103AC000881FC2F70EC0BA0F621F731F841F48F40D
:103AD000879577956795B795F7959E3F08F0B0CF96
:103AE0009395880F08F09927EE0F9795879508957D
:103AF0000E94621E08F481E008950E94911D0C94BA
:103B00009D1E0E94961E58F00E948F1E40F029F4C0
:103B10005F3F29F00C94861E51110C94D11E0C9419
:103B20008C1E0E94AE1E68F39923B1F3552391F3C6
:103B3000951B550BBB27AA2762177307840738F01C
:103B40009F5F5F4F220F331F441FAA1FA9F335D079
:103B50000E2E3AF0E0E832D091505040E695001C2D
:103B6000CAF72BD0FE2F29D0660F771F881FBB1FE7
:103B7000261737074807AB07B0E809F0BB0B802DC5
:103B8000BF01FF2793585F4F3AF09E3F510578F0F1
:103B90000C94861E0C94D11E5F3FE4F3983ED4F340
:103BA000869577956795B795F7959F5FC9F7880FC5
:103BB000911D9695879597F90895E1E0660F771F17
:103BC000881FBB1F621773078407BA0720F0621BA8
:103BD000730B840BBA0BEE1F88F7E09508950E94D3
:103BE000F61D6894B1110C94D11E08950E94B61E62
:103BF00088F09F5798F0B92F9927B751B0F0E1F0AE
:103C0000660F771F881F991F1AF0BA95C9F714C05D
:103C1000B13091F00E94D01EB1E008950C94D01EF6
:103C2000672F782F8827B85F39F0B93FCCF3869596
:103C300077956795B395D9F73EF4909580957095F3
:103C400061957F4F8F4F9F4F0895E89409C097FB70
:103C50003EF490958095709561957F4F8F4F9F4F63
:103C60009923A9F0F92F96E9BB279395F6958795A7
:103C700077956795B795F111F8CFFAF4BB0F11F46A
:103C800060FF1BC06F5F7F4F8F4F9F4F16C0882311
:103C900011F096E911C0772321F09EE8872F762F47
:103CA00005C0662371F096E8862F70E060E02AF088
:103CB0009A95660F771F881FDAF7880F9695879574
:103CC00097F90895990F0008550FAA0BE0E8FEEF49
:103CD00016161706E807F907C0F012161306E407D0
:103CE000F50798F0621B730B840B950B39F40A26C9
:103CF00061F0232B242B252B21F408950A2609F4A7
:103D0000A140A6958FEF811D811D089597F99F67AA
:103D100080E870E060E008959FEF80EC0895002453
:103D20000A941616170618060906089500240A9420
:103D300012161306140605060895092E0394000CA6
:103D400011F4882352F0BB0F40F4BF2B11F460FF35
:103D500004C06F5F7F4F8F4F9F4F089557FD90585E
:103D6000440F551F59F05F3F71F04795880F97FB3F
:103D7000991F61F09F3F79F08795089512161306F9
:103D80001406551FF2CF4695F1DF08C01616170628
:103D90001806991FF1CF869571056105089408955D
:103DA000E894BB2766277727CB0197F908950E94EF
:103DB000621E08F48FEF08950E94EF1E0C949D1E62
:103DC0000E948F1E38F00E94961E20F0952311F05D
:103DD0000C94861E0C948C1E11240C94D11E0E94EF
:103DE000AE1E70F3959FC1F3950F50E0551F629F73
:103DF000F001729FBB27F00DB11D639FAA27F00D44
:103E0000B11DAA1F649F6627B00DA11D661F829F6A
:103E10002227B00DA11D621F739FB00DA11D621F4F
:103E2000839FA00D611D221F749F3327A00D611D6C
:103E3000231F849F600D211D822F762F6A2F11244E
:103E40009F5750409AF0F1F088234AF0EE0FFF1F81
:103E5000BB1F661F771F881F91505040A9F79E3FD8
:103E6000510580F00C94861E0C94D11E5F3FE4F344
:103E7000983ED4F3869577956795B795F795E7952E
:103E80009F5FC1F7FE2B880F911D9695879597F937
:103E900008950E94621E880B990B0895DB018F9391
:103EA0009F930E94B91FBF91AF91A29F800D911D5A
:103EB000A39F900DB29F900D1124089597FB072E9C
:103EC00016F4009407D077FD09D00E94CC1F07FCA0
:103ED00005D03EF4909581959F4F0895709561951A
:103EE0007F4F0895A1E21A2EAA1BBB1BFD010DC036
:103EF000AA1FBB1FEE1FFF1FA217B307E407F5079A
:103F000020F0A21BB30BE40BF50B661F771F881F75
:103F1000991F1A9469F760957095809590959B010B
:103F2000AC01BD01CF010895052E97FB1EF400944E
:103F30000E94AB1F57FD07D00E94721F07FC03D0E1
:103F40004EF40C94AB1F50954095309521953F4F02
:103F50004F4F5F4F089590958095709561957F4F75
:103F60008F4F9F4F0895EE0FFF1F0590F491E02DA6
:103F700009940E94E01FA59F900DB49F900DA49FEF
:103F8000800D911D11240895B7FF0C94B91F0E9454
:103F9000B91F821B930B0895AA1BBB1B51E107C0DD
:103FA000AA1FBB1FA617B70710F0A61BB70B881FC9
:103FB000991F5A95A9F780959095BC01CD01089558
:103FC000A29FB001B39FC001A39F700D811D11245A
:103FD000911DB29F700D811D1124911D08951F9395
:103FE000FC0199278827BC01E89411911032E9F36C
:103FF000193010F01E30C8F31B3251F01D3249F455
:10400000689406C00E944B20610F711D811D911D97
:10401000119110531A30B0F33EF49095809570953D
:1040200061957F4F8F4F9F4F1F910895FB01DC01DA
:104030008D91019080190110D9F3990B0895FB011E
:10404000DC0101900D920020E1F70895FB01DC01F5
:104050004150504048F001900D920020C9F701C036
:104060001D9241505040E0F708954532510520F42B
:10407000423010F00C944020FB011082CB010895D7
:10408000BB274A3031F4992322F4BDE29095819503
:104090009F4F0C946120592F482F372F262F660FE2
:1040A000771F881F991F660F771F881F991F620F40
:1040B000731F841F951F660F771F881F991F089510
:1040C000BB27FB015527AA27880F991FAA1FA417F2
:1040D00010F0A41B83955051B9F7A05DAA3308F0E6
:1040E000A95DA193009779F7B111B1931192CB011A
:1040F0000C948522AEE0B0E0E0E8F0E20C943923C5
:104100000D891E8986E08C831A8309838FEF9FE7D0
:104110009E838D83AE01475E5F4F6F89788DCE01A0
:1041200001960E949D202F813885F801E20FF31F30
:1041300010822E96E4E00C945523ACE0B0E0E3EA64
:10414000F0E20C942B237C016B018A01FC011782A5
:104150001682838181FFBDC1CE0101964C01F7011A
:104160009381F60193FD859193FF81916F018823DF
:1041700009F4ABC1853239F493FD859193FF8191A8
:104180006F01853229F4B70190E00E949522E7CFB4
:10419000512C312C20E02032A0F48B3269F030F425
:1041A000803259F0833269F420612CC08D3239F0AD
:1041B000803339F4216026C02260246023C0286047
:1041C00021C027FD27C030ED380F3A3078F426FFA4
:1041D00006C0FAE05F9E300D1124532E13C08AE012
:1041E000389E300D1124332E20620CC08E3221F403
:1041F00026FD6BC1206406C08C3611F4206802C015
:10420000883641F4F60193FD859193FF81916F010A
:104210008111C1CF982F9F7D9554933028F40C5F66
:104220001F4FFFE3F9830DC0833631F0833771F000
:10423000833509F05BC022C0F801808189830E5F5D
:104240001F4F44244394512C540115C03801F2E00F
:104250006F0E711CF801A080B18026FF03C0652D90
:1042600070E002C06FEF7FEFC5012C870E947A22B9
:104270002C0183012C852F77222E17C03801F2E004
:104280006F0E711CF801A080B18026FF03C0652D60
:1042900070E002C06FEF7FEFC5012C870E946F2294
:1042A0002C012C852068222E830123FC1BC0832D2A
:1042B00090E048165906B0F4B70180E290E00E9401
:1042C00095223A94F4CFF50127FC859127FE819140
:1042D0005F01B70190E00E94952231103A94F1E01D
:1042E0004F1A51084114510471F7E5C0843611F09A
:1042F000893639F5F80127FF07C060817181828115
:1043000093810C5F1F4F08C060817181072E000CE4
:10431000880B990B0E5F1F4F2F76722E97FF09C0E7
:1043200090958095709561957F4F8F4F9F4F206836
:10433000722E2AE030E0A4010E94CD22A82EA818F7
:1043400044C0853729F42F7EB22E2AE030E025C004
:10435000F22FF97FBF2E8F36C1F018F4883579F02F
:10436000B4C0803719F0883721F0AFC02F2F2061FB
:10437000B22EB4FE0DC08B2D8460B82E09C024FF70
:104380000AC09F2F9660B92E06C028E030E005C015
:1043900020E130E002C020E132E0F801B7FE07C0C2
:1043A00060817181828193810C5F1F4F06C06081A3
:1043B000718180E090E00E5F1F4FA4010E94CD222A
:1043C000A82EA818FB2DFF777F2E76FE0BC0372D69
:1043D0003E7FA51450F474FE0AC072FC08C0372D4D
:1043E0003E7E05C0BA2C372D03C0BA2C01C0B52CB7
:1043F00034FF0DC0FE01EA0DF11D8081803311F400
:10440000397E09C032FF06C0B394B39404C0832F31
:10441000867809F0B39433FD13C030FF06C05A2CE0
:10442000B31418F4530C5B18B32CB31468F4B7012D
:1044300080E290E03C870E949522B3943C85F5CFC2
:10444000B31410F43B1801C0312C34FF12C0B70173
:1044500080E390E03C870E9495223C8532FF17C0A4
:1044600031FD03C088E790E002C088E590E0B70125
:104470000CC0832F867859F031FF02C08BE201C057
:1044800080E237FD8DE2B70190E00E949522A514ED
:1044900038F4B70180E390E00E9495225A94F7CF58
:1044A000AA94F401EA0DF11D8081B70190E00E9409
:1044B0009522A110F5CF332009F451CEB70180E247
:1044C00090E00E9495223A94F6CFF7018681978179
:1044D00002C08FEF9FEF2C96E2E10C944723FC0182
:1044E0000590615070400110D8F7809590958E0F1F
:1044F0009F1F0895FC016150704001900110D8F792
:10450000809590958E0F9F1F0895DC01FC01672F09
:1045100071917723E1F7329704C07C916D9370839A
:104520006291AE17BF07C8F308950F931F93CF93FF
:10453000DF93FB01238121FD03C08FEF9FEF28C094
:1045400022FF16C0468157812481358142175307C7
:1045500044F4A081B1819D012F5F3F4F31832083BF
:104560008C93268137812F5F3F4F3783268310C07E
:10457000EB01092F182F0084F185E02D0995892B77
:10458000E1F68E819F8101969F838E83812F902FEC
:10459000DF91CF911F910F910895FA01AA2728303A
:1045A00051F1203181F1E8946F936E7F6E5F7F4F00
:1045B0008F4F9F4FAF4FB1E03ED0B4E03CD0670F7C
:1045C000781F891F9A1FA11D680F791F8A1F911DCF
:1045D000A11D6A0F711D811D911DA11D20D009F41F
:1045E00068943F912AE0269F11243019305D319361
:1045F000DEF6CF010895462F4770405D4193B3E04A
:104600000FD0C9F7F6CF462F4F70405D4A3318F0F0
:10461000495D31FD4052419302D0A9F7EACFB4E0A1
:10462000A6959795879577956795BA95C9F7009759
:104630006105710508959B01AC010A2E06945795FA
:10464000479537952795BA95C9F7620F731F841F51
:10465000951FA01D08952F923F924F925F926F92E7
:104660007F928F929F92AF92BF92CF92DF92EF9202
:10467000FF920F931F93CF93DF93CDB7DEB7CA1B83
:10468000DB0B0FB6F894DEBF0FBECDBF09942A88AE
:10469000398848885F846E847D848C849B84AA8456
:1046A000B984C884DF80EE80FD800C811B81AA81E3
:1046B000B981CE0FD11D0FB6F894DEBF0FBECDBFAE
:1046C000ED01089511E0CCE0D1E004C0FE010E94AC
:0E46D000B31F2196CD30D107C9F7F894FFCF64
:1046DE001A05000000000000000000005F0000004E
:1046EE000000000007000700000000147F147F1474
:1046FE00000000242A7F2A1200000023130864629F
:10470E00000000364955225000000000050300004D
:10471E000000001C2241000000000041221C00008D
:10472E00000000082A1C2A0800000008083E08089D
:10473E00000000A060000000000000080808080843
:10474E00000000606000000000000020100804025D
:10475E000000003E5149453E00000000427F4000EF
:10476E000000006251494946000000224149493685
:10477E000000001814127F1000000027454545392F
:10478E000000003C4A494930000000017109050350
:10479E000000003649494936000000064949291EE5
:1047AE00000000003636000000000000AC6C000077
:1047BE000000000814224100000000141414141408
:1047CE0000000041221408000000000201510906F9
:1047DE00000000324979413E0000007E0909097E41
:1047EE000000007F494949360000003E4141412208
:1047FE000000007F4141221C0000007F49494941D1
:10480E000000007F090909010000003E414151727C
:10481E000000007F0808087F000000417F41000073
:10482E000000002040413F010000007F081422419B
:10483E000000007F404040400000007F020C027FDD
:10484E000000007F0408107F0000003E4141413E01
:10485E000000007F090909060000003E4151215E5B
:10486E000000007F091929460000002649494932F7
:10487E0000000001017F01010000003F4040403F69
:10488E000000001F2040201F0000003F4038403F26
:10489E00000000631408146300000003047804038E
:1048AE0000000061514945430000007F4141000076
:1048BE00000000020408102000000041417F0000AB
:1048CE00000000040201020400000080808080804D
:1048DE00000000010204000000000020545454782F
:1048EE000000007F4844443800000038444428004B
:1048FE00000000384444487F0000003854545418D7
:10490E00000000087E09020000000018A4A4A47C88
:10491E000000007F08040478000000007D00000005
:10492E0000000080847D00000000007F10284400FD
:10493E00000000417F4000000000007C0418047855
:10494E000000007C08047C0000000038444438005D
:10495E00000000FC24241800000000182424FC0091
:10496E00000000007C08040000000048545424009D
:10497E00000000047F4400000000003C40407C002A
:10498E000000001C2040201C0000003C4030403C39
:10499E0000000044281028440000001CA0A07C0049
:1049AE000000004464544C440000000836410000EE
:1049BE00000000007F0000000000004136080000EB
:1049CE0000000002010102010000000205050200C4
:1049DE000000014750524D43004750474741004E9B
:1049EE00004E4E4500454E45004553450053534538
:1049FE000053005353570057535700574E57004E0E
:104A0E004E570025352E3564002564002020466162
:104A1E006872656E686569740020202043656C635A
:104A2E006975730020554352204353203132324171
:104A3E0000202046616C6C20323031350020202061
:104A4E00427269616E20486F002853746570686108
:104A5E006E6965002020202020202020546F6E6774
:104A6E00290020502E4F2E542E412E542E4F2E0004
:104A7E004F4E200041542B434950434C4F53450D4C
:104A8E000A0041542B43495053544152543D225530
:104A9E004450222C223139322E3136382E382E32D5
:104AAE003535222C3131303030004F4B0062656786
:104ABE00696E206770732053657269616C00415492
:104ACE002B43495053454E443D33320D0A003E00B0
:104ADE0023303D002C003B006C696E6B2069732007
:104AEE006E6F742076616C69640020202020202077
:104AFE0020202020202020202020202020202020A8
:104B0E0000504F5441544F006D61783A20006C6F45
:104B1E00773A200074656D703A200000000000F0B6
:104B2E001314185C14CF134414741400000000CD39
:104B3E001614184E1668165A16AB166E616E00696C
:084B4E006E66006F7666000040
:00000001FF
