:100000000C941D010C9445190C9472190C94E31274
:100010000C94E3120C94E3120C9445010C944501EA
:100020000C9445010C9445010C9445010C94450138
:100030000C9445010C9445010C9445010C94450128
:100040000C949F190C9445010C9495150C94C715AC
:100050000C9445010C9445010C9445010C94450108
:100060000C9445010C944501EA04F704FB040105D6
:1000700007051C0525052C0531053705370537050E
:100080003705370537053705370537053705370590
:100090003705370537053705370537053705370580
:1000A0003705370537053705EA04F004F704FB0484
:1000B000010507050D0511051605005EBCE2613F4F
:1000C000DD83C29C7E20A3FD1F419DC3217FFCA236
:1000D000401E5F01E3BD3E6082DC237D9FC1421C68
:1000E000FEA0E1BF5D0380DE3C62BEE0025CDF811A
:1000F000633D7C22C09E1D43A1FF4618FAA42779C8
:100100009BC584DA3866E5BB5907DB856739BAE4F5
:1001100006581947A5FB7826C49A653BD987045A27
:10012000B8E6A7F91B45C6987A24F8A6441A99C7D9
:10013000257B3A6486D85B05E7B98CD2306EEDB387
:10014000510F4E10F2AC2F7193CD114FADF3702EB5
:10015000CC92D38D6F31B2EC0E50AFF1134DCE90E7
:10016000722C6D33D18F0C52B0EE326C8ED0530D99
:10017000EFB1F0AE4C1291CF2D73CA947628ABF547
:1001800017490856B4EA6937D58B5709EBB5366875
:100190008AD495CB2977F4AA4816E9B7550B88D6A7
:1001A000346A2B7597C94A14F6A8742AC896154B59
:1001B000A9F7B6E80A54D7896B354E6F20475053DC
:1001C0002064657465637465643A20636865636B75
:1001D00020776972696E672E000000000800020136
:1001E00000000304070000000000000000010204FA
:1001F00008102040800102040810200102040810A9
:10020000200404040404040404020202020202039F
:10021000030303030300000000230026002900005D
:10022000000000250028002B00000000002400270B
:10023000002A00001811F715741111241FBECFEF0A
:10024000D8E0DEBFCDBF15E0A0E0B1E0EEE7F2E41C
:1002500002C005900D92A031B107D9F727E0A0E1C7
:10026000B5E001C01D92A435B207E1F711E0CCE181
:10027000D1E004C02197FE010E94C31DCA31D107FD
:10028000C9F70E9426160C9432210C940000FC0140
:1002900010821182138212821482158216821782B2
:1002A0001086128611861386148615861686178682
:1002B000118A108A128A138A148A158A168A108E55
:1002C000178A118E128E138E148E158E12A213A2FF
:1002D00014A215A216A217A210AA11AA12AA13AA52
:1002E00014AA15AA16AE17AEDC01DE9616961D925C
:1002F0001D921D921C9219971E961C9211961C928B
:10030000119716961D921D921D921C9219971E967A
:100310001C9211961C92119716961D921D921D9279
:100320001C9219971E961C9211961C921197169664
:100330001D921D921D921C9219971E961C92119649
:100340001C92119716961D921D921D921C92199740
:100350001E961C9211961C92509682E08C931196D8
:100360001C9211961C9211961C92119611961C9239
:100370001E92129611961C921E9212961D921D921A
:100380001D921C92139714961D921D921D921C9201
:10039000139714961D921D921D921C9213971496FA
:1003A0001D921D921D921C921397EA57FF4F1082C7
:1003B00008952FEB260F862F90E0263010F4C79774
:1003C00008956156663018F4875591090895C097CD
:1003D0000895FF920F931F93CF93DF93EC01FF24B7
:1003E000F39488818D3211F0F12C01C02196CE0159
:1003F0000E94FF1D9B01AC01A4E6B0E00E94C91D54
:10040000FE014991242F30E0205331092A30310573
:10041000B8F34E3221F5218130E0205331092A30E2
:100420003105E8F44AE0429F8001439F100D1124FA
:10043000012E000C220B330B600F711F821F931FC4
:10044000028110E0005311090A30110540F4012E19
:10045000000C220B330B600F711F821F931FFF20B4
:1004600039F090958095709561957F4F8F4F9F4F94
:10047000DF91CF911F910F91FF9008952F923F929E
:100480004F925F926F927F928F929F92AF92BF92A4
:10049000CF92DF92EF92FF920F931F93CF93DF9350
:1004A000D82FC92F8B010E94FF1D24E630E040E0C9
:1004B00050E00E94821D49015A019B01AC0160E895
:1004C00076E988E990E00E945E1D6B017C01F801ED
:1004D00091828082ED2FFC2F2191822F90E0C09796
:1004E0000A97D0F32E3229F51F0180E8882E86E97D
:1004F000982E88E9A82EB12C9AE0492E512C612C17
:10050000712CF101C1911F01D0E0E097CA30D105F3
:1005100080F4C501B401A30192010E94821D49012A
:100520005A01DE010E94D41DC60ED71EE81EF91E18
:10053000E8CFA5E0B0E0A70196010E94C91D6F5F5A
:100540007F4F8F4F9F4F23E030E040E050E00E940C
:10055000821DF80122833383448355831682DF9101
:10056000CF911F910F91FF90EF90DF90CF90BF90B0
:10057000AF909F908F907F906F905F904F903F9043
:100580002F900895CF93DF93EC0187E0FE017096E2
:10059000DE01129601900D928A95E1F787E0FE0147
:1005A0007796DE01199601900D928A95E1F70E94E7
:1005B000E9196E8F7F8F88A399A381E0898388834F
:1005C000DF91CF910895CF92DF92EF92FF92CF9378
:1005D000DF93EC0119826A817B8180E090E00E94C8
:1005E000351C6B017C016C817D818E819F810E9415
:1005F000351C28E23BE64EE65EE40E948D1B9B0123
:10060000AC01C701B6010E941C1B2885211190581E
:10061000DF91CF91FF90EF90DF90CF900895CF9230
:10062000DF92EF92FF92CF93DF93EC0119826985FD
:100630007A8580E090E00E94351C6B017C016B851F
:100640007C858D859E850E94351C28E23BE64EE622
:100650005EE40E948D1B9B01AC01C701B6010E94A4
:100660001C1B2F8521119058DF91CF91FF90EF90A7
:10067000DF90CF900895CF93DF93EC018E819F811F
:10068000A885B9858A839B83AC83BD830E94E919C1
:100690006A877B878C879D8781E089838883DF9148
:1006A000CF910895CF93DF93EC018E819F81A88530
:1006B000B9858A839B83AC83BD830E94E9196A87CD
:1006C0007B878C879D8781E089838883DF91CF91A9
:1006D0000895CF93DF93EC01CB010E94E9016E8373
:1006E0007F8388879987DF91CF910895CF93DF9398
:1006F000EC01CB010E94FF1D6E837F838887998761
:10070000DF91CF910895CF93DF93EC018A859B858C
:10071000AC85BD858E839F83A887B9870E94E91920
:100720006A837B838C839D8381E089838883DF91C7
:10073000CF910895CF93DF93EC01CB010E94E901A3
:100740006A877B878C879D87DF91CF910895CF93B0
:10075000DF93EC018A859B85AC85BD858E839F8365
:10076000A887B9870E94E9196A837B838C839D835C
:1007700081E089838883DF91CF910895CF93DF93C0
:10078000EC01CB010E94FF1D6A877B878C879D87C8
:10079000DF91CF910895CF93DF93EC01BC01409698
:1007A0000E942F1E0E94E91968A379A38AA39BA324
:1007B00081E08DA38CA3DF91CF91089540E150E0BB
:1007C0000C94361EBF92CF92DF92EF92FF920F935E
:1007D0001F93CF93DF93EC01FC01EB57FF4FB080E9
:1007E000BB2009F499C0319660810E94D901182F6D
:1007F000FE01E957FF4F6081CE010E94D90140E11F
:10080000149F800D1124FE01EC57FF4F9081891336
:1008100074C0B59680819181A281B3810196A11D9A
:10082000B11D80839183A283B3838E0108561F4F2D
:10083000D8018C91882361F0389780819181A281C1
:10084000B3810196A11DB11D80839183A283B383DF
:10085000FE01EB56FF4F80818823C9F0813089F576
:10086000CE0182960E943B03CE01C0960E945203A5
:10087000F8018081882329F1CE010E94C202CE01B5
:10088000CE960E948303CE01845B9F4F18C0CE0199
:10089000C0960E945203D8018C91882341F0CE016A
:1008A0000E94C202CE01865A9F4F0E948303CE014E
:1008B00088599F4F0E94A703CE018A589F4F0E94DC
:1008C00083038E0105561F4FF801C081D181209707
:1008D00009F403C1D801ED91FC9166A177A18EA125
:1008E0009FA10E94261E892B09F0F7C0CE010E940D
:1008F000CB030AA4DBA5C02DEACFCB55DF4F8881FF
:100900009981AA81BB810196A11DB11D888399831C
:10091000AA83BB83B12CE1C07C01B6E9EB0EF11CCC
:10092000F70130818B569F4F6C018E0105561F4F8A
:10093000311135C07E0196E8E90EF11C62E074E0E9
:10094000C7010E94261E892B11F481E00BC068E0CC
:1009500074E0C7010E94261E892B19F4F60110824B
:1009600003C082E0D6018C93C756DF4F88819981FE
:10097000F80191838083F801C081D181209709F427
:10098000ACC0CEA0DFA0B701C6010E94261E97FF13
:100990009AC08AA59BA5D8018D939C93ECCFDC01CE
:1009A000EC91E23009F463C0CE018A579F4FDC011D
:1009B0002C91222309F45BC0B0E2EB9FF0011124DB
:1009C000E32B3197E932F10508F051C0EC5CFF4FA1
:1009D0000C94C31DBC01CE01C0960E94690347C0A0
:1009E000FE01E856FF4F81E0213461F52CC0BE01C5
:1009F000605F7F4F09C081E0233509F080E08E8B76
:100A000036C0BE01695E7F4F0E943E0230C081E069
:100A1000273509F080E08D8F2AC0BC01CE01CE962B
:100A200024C0BC01CE01845B9F4F1FC0BC01CE011E
:100A300082960E9476031BC0FE01E856FF4F81E0BC
:100A4000213308F480E0808312C0BC01CE018859B4
:100A50009F4F0E94BE030BC0BC01CE018A589F4F1E
:100A600004C0BC01CE01865A9F4F0E949A03F80130
:100A7000C080D180CA57DF4FC114D10471F1D801B1
:100A8000ED91FC9166A177A1F60186A197A10E9444
:100A9000261E892B11F5D60198962D913C91999798
:100AA000F701808190E082179307BCF0281739077F
:100AB00021F4BE01C6010E94DE03D6019A96CD90B4
:100AC000DC909B97D9CFB701C6010E94261E18164D
:100AD00019061CF4D8011D921C928B2DDF91CF9129
:100AE0001F910F91FF90EF90DF90CF90BF900895EE
:100AF000DF92EF92FF920F931F93CF93DF939C01AE
:100B0000FC01E356FF4F80819181A281B381019660
:100B1000A11DB11D80839183A283B38389010956EE
:100B20001F4FC9018B579F4F7C01643279F128F424
:100B30006A3069F06D30E1F50AC06A3241F06C321A
:100B4000B9F5F901EC57FF4F808186278083D62EB7
:100B5000E901F80180818F3050F4F901E80FF11DAF
:100B6000EA57FF4F1082C9010E94E20301C080E0F2
:100B7000CA56DF4F98819F5F9883F801108291E0F9
:100B8000FAE2DF1290E0F70190832BC0F8011082A7
:100B9000F901EA56FF4F108272971082719682E037
:100BA0008083F7011082F901E856FF4F108218C0C8
:100BB000F80180818E3048F491E0980F9083F9011C
:100BC000E80FF11DEA57FF4F6083F7018081811123
:100BD00007C0F901EC57FF4F90816927608301C07E
:100BE00080E0DF91CF911F910F91FF90EF90DF9008
:100BF00008950895FC0189EF95E0928B818B7683AF
:100C000065831482108289E0818381E082838383FB
:100C10000895FC0184810895CF93DF93EB0167E091
:100C2000CE010E94EF0A91E02F81821390E0892F7C
:100C3000DF91CF910895EF92FF920F931F93CF937F
:100C4000DF938C017B01D42FFC01858196810E946A
:100C50002E0AC0E0B701F801858196810E945F0AE3
:100C6000882359F0CD1306C0B701C8010E940C06B5
:100C7000811104C0CF5FDC1768F780E0DF91CF916E
:100C80001F910F91FF90EF900895EF92FF920F93B5
:100C90001F93CF93DF9300D0CDB7DEB77C018A01DD
:100CA000FC018581968169837A830E9402096981AA
:100CB0007A81F701858196810E94FD0940E06EEB03
:100CC000F701858196810E949F09F70185819681B0
:100CD0000E94E109F8018083F701858196810E94D5
:100CE000E109F8018183F701858196810E94E1097C
:100CF000F8018283F701858196810E94E109F8015C
:100D00008383F701858196810E94E109F80184833C
:100D1000F701858196810E94E109F8018583F70139
:100D2000858196810E94E109F8018683F70185811A
:100D300096810E94E109F8018783F70185819681F8
:100D40000E94E109F8018087F701858196810F9063
:100D50000F90DF91CF911F910F91FF90EF900C9426
:100D60000209CF93DF93EA010E94450668E0CE01B5
:100D70000E94EF0A91E02885821390E0892FDF918D
:100D8000CF910895EF92FF921F93CF93DF9300D0FE
:100D9000CDB7DEB77C01FC018581968169837A83BA
:100DA0000E94020969817A81F701858196810E94FA
:100DB000FD0940E064EBF701858196810E949F095F
:100DC000F701858196810E947409182FF7018581AA
:100DD00096810E94020981E0111180E00F900F902E
:100DE000DF91CF911F91FF90EF900895CF93DF9304
:100DF000CDB7DEB729970FB6F894DEBF0FBECDBFD3
:100E0000FB0120812031D9F0AE014F5F5F4F0E947E
:100E1000B106882381F08D818F3359F018F48F311A
:100E200071F009C08F3519F08F3739F004C08BE0AD
:100E300007C08AE005C080E003C08CE001C089E003
:100E400029960FB6F894DEBF0FBECDBFDF91CF91CC
:100E50000895EF92FF920F931F93CF93DF93CDB737
:100E6000DEB761970FB6F894DEBF0FBECDBF8C0121
:100E7000FC01858196810E942E0AF8011482FF24CC
:100E8000F394BE01665F7F4FF801858196810E94D1
:100E90005F0A8823C9F1BE01665F7F4FC8010E94C7
:100EA0000C06882371F3F8018081811108C0BE010E
:100EB000665F7F4FC8010E94C206811122C0AE0149
:100EC0004F5F5F4FBE01665F7F4FC8010E944506BE
:100ED000F801E180BE01665F7F4FC8010E94F606FF
:100EE0008E1518F4F801818106C0BE01665F7F4F40
:100EF000C8010E94F606F801818384818F5F848394
:100F0000C0CFF801F082DBCF61960FB6F894DEBF58
:100F10000FBECDBFDF91CF911F910F91FF90EF904A
:100F20000895CF93DF93CDB7DEB729970FB6F89426
:100F3000DEBF0FBECDBFAE014F5F5F4F0E944506C3
:100F400081E09981911101C080E029960FB6F89453
:100F5000DEBF0FBECDBFDF91CF910895CF92DF925C
:100F6000EF92FF920F931F93CF93DF93EC018B01CE
:100F7000452BF1F08B818823D9F08881811118C02D
:100F80000E94E9196B017C0160E070E0CE010E94D3
:100F9000910781110DC00E94E919AB01BC014C19E8
:100FA0005D096E097F094E3E52406105710560F38F
:100FB000F80180818A3049F08B3061F0893079F412
:100FC0006EE570E080E090E00EC06CEB70E080E0D9
:100FD00090E009C067E771E080E090E004C06EEE49
:100FE00072E080E090E0DF91CF911F910F91FF9030
:100FF000EF90DF90CF900C941A1ACF93DF93EC010F
:101000008D819E810E9402098D819E810E942A0A03
:10101000488164E48D819E810E949F098A81882392
:1010200051F0BE016F5F7F4F40E050E0CE01DF9195
:10103000CF910C94AE07DF91CF9108954F925F92BC
:101040006F927F928F929F92AF92BF92FF92CF93B7
:10105000DF93FB01EA018981682F70E0762F662714
:101060008881682B80818232B1F18832A1F1803190
:1010700009F078C0FF8075956795072E000C880BE6
:10108000990B0E94371C20E030E040E85EE30E94AC
:101090001B1B4B015C018F2D90E02E81821B91095F
:1010A000BC01990F880B990B0E94371C2B013C0146
:1010B0006F2D70E080E090E00E94351C9B01AC0138
:1010C000C301B2010E948D1B9B01AC01C501B4019B
:1010D0000E941C1B43C08C818F3381F198F48F31A7
:1010E00009F040C093E0759567959A95E1F7072E52
:1010F000000C880B990B0E94371C20E030E040E088
:101100005FE32AC08F3569F08F3761F5072E000C39
:10111000880B990B0E94371C20E030E040E85DE32B
:101120001BC075956795072E000C880B990B0E94C4
:10113000371C20E030E040E05EE30EC07595679517
:1011400075956795072E000C880B990B0E94371C2C
:1011500020E030E040E85EE30E94EC1C262F572F91
:10116000482F392F622F752F842F932FDF91CF9126
:10117000FF90BF90AF909F908F907F906F905F9007
:101180004F900895EF92FF920F931F93CF93DF93A9
:10119000CDB7DEB729970FB6F894DEBF0FBECDBF2F
:1011A0008C017B01AE014F5F5F4F0E94B106882327
:1011B00041F0AE014F5F5F4FB701C8010E941E08AA
:1011C00004C060E070E08EEF92EC29960FB6F894C0
:1011D000DEBF0FBECDBFDF91CF911F910F91FF906A
:1011E000EF900895FC018081089526E636E646EEEC
:1011F0005FE30E94EC1C20E030E040E052E40E94FB
:101200001C1B0895FF920F931F93CF93DF93FC0154
:101210000081C181D281F8948981F02EF0948F21D0
:10122000898378941DE7115029F182E090E00E94B3
:10123000421A88818023B9F3F8948A818F218A83A6
:101240008981802B8983789480EE91E00E94421AF4
:10125000F8948981F822F98286E490E00E94421A8B
:101260008881082311E009F010E078948AE991E080
:101270000E94421A812FDF91CF911F910F91FF9011
:1012800008951F93CF93DF93FC011081C181D28118
:10129000812F809560FF12C0F8949A8189238A83F8
:1012A0008981812B89838AE090E00E94421A8A8199
:1012B000182B1A83789487E390E011C0F8949A81F0
:1012C00089238A838981812B898381E490E00E942C
:1012D000421A8A81182B1A83789485E090E0DF9176
:1012E000CF911F910C94421A0F931F93CF93DF93CA
:1012F000FC011081C181D281F8948981812B89837D
:101300008A81012F009580238A8383E090E00E94E8
:10131000421A8981082309838AE090E00E94421AD8
:10132000C881789485E390E00E94421A1C2381E0F2
:1013300009F480E0DF91CF911F910F910895CF9232
:10134000DF92EF92FF920F931F93CF93DF931F9241
:10135000CDB7DEB76C01E62E08E010E0FF24F39471
:1013600061E08F2D8E2109F460E0C60149830E945F
:101370004109FF0C0150110949810115110581F73F
:10138000411115C0F894D6011196ED91FC91129778
:1013900091818C918095892381831196ED91FC91A7
:1013A000129792818C9180958923828378940F90F3
:1013B000DF91CF911F910F91FF90EF90DF90CF9031
:1013C0000895EF92FF920F931F93CF93DF937C01C9
:1013D00008E010E0C0E0D1E0C7010E94740981116B
:1013E000CD2BDD0F01501109B9F78C2FDF91CF9173
:1013F0001F910F91FF90EF900895CF92DF92EF929F
:10140000FF920F931F93CF93DF931F92CDB7DEB759
:101410008C01F62E40E065E579830E949F09CF2C70
:101420007981D72E760188E0E80EF11CF6016191F2
:101430006F0140E0C8010E949F09CE14DF04B1F79C
:101440000F90DF91CF911F910F91FF90EF90DF9060
:10145000CF90089540E06CEC0C949F09FC0113863A
:1014600015861486DC011B9633961E92AE17BF07B5
:10147000E1F708950F931F93CF938C01C62F60E07F
:101480008C2F0E94AF1A6C2F70E0FB01E351FE4FCE
:10149000E491D801EC93FB01EF5FFD4FE491F0E0A4
:1014A000EE0FFF1FEB5EFD4F85919491F801928343
:1014B0008183C801CF911F910F910C942E0AAF9296
:1014C000BF92CF92DF92EF92FF920F931F93CF9331
:1014D000DF931F92CDB7DEB75C01D62EE72EFC015D
:1014E0008585811105C0C5010E940209811106C0D0
:1014F000F50113861586148680E065C040E060EF34
:10150000C5010E949F0901E0F12CC12C11E0C50129
:101510000E947409682FC50169830E94740969815A
:10152000613019F48130B9F433C04F2D50E06813A5
:101530001BC0F5018385181730F4E40FF51F838174
:10154000802349F402C0181731F060E0193058F4D4
:10155000F501148708C0F501EF0DF11D8381802B83
:10156000838361E009C0C12EF501E40FF51F93816B
:10157000802F809589238383C5010E9441091F5FC5
:10158000000F11F4F39401E0F7E0FF1508F0BFCF6E
:10159000113408F4ADCFF501C386C11002C081E05B
:1015A0008587F5018381882309F4A2CFD50113969D
:1015B000ED2DFE2D9501255F3F4F8D918193A21753
:1015C000B307D9F781E00F90DF91CF911F910F9171
:1015D000FF90EF90DF90CF90BF90AF900895DC0127
:1015E000E0E0615038F08D91E827F0E0E654FF4FDD
:1015F000E491F7CF8E2F08950895809110058823E8
:1016000039F0813069F460E082E00E94EB1A08C092
:1016100061E082E00E94EB1A81E08093100508955A
:10162000109210050895449A459A81E08093B9007C
:1016300080E28093B80084E08093BC0008958FEF2F
:1016400090E02091BC0027FD0EC00197D1F71092C9
:10165000BC008091640690916506019690936506A2
:1016600080936406089508950F931F93CF93DF939B
:101670001F92CDB7DEB70CEB10E094EAF80190832F
:1016800089830E941F0B89818093BB0084E8F80145
:1016900080830F90DF91CF911F910F910C941F0BBE
:1016A0008093BB0084E88093BC000C941F0BCF9305
:1016B000DF9300D0CDB7DEB7880F4A8369830E94DD
:1016C000340B6981862F0E94500B4A81842F0E941F
:1016D000500B84E98093BC000F900F90DF91CF9165
:1016E000089592E09093B800482F60E88CE30C9442
:1016F000570B8EEA0E94710B8EE20E94710B84EAF6
:101700000E94710B62E370E080E090E00E941A1A80
:1017100080E20E94710B82E00E94710B81EA0E94BC
:10172000710B88EC0E94710B86EA0E94710B81E8B4
:101730000E94710B8FEF0E94710B64E170E080E0FA
:1017400090E00E941A1A8FEA0E94710B64E170E027
:1017500080E090E00C941A1ACF93C62F80550E9417
:10176000710B8C2F880F880F880F88700E94710B67
:1017700028E0C29FC001112424E0959587952A9501
:10178000E1F78F70805FCF910C94710B92E0909392
:10179000B800482F60E48CE30C94570B0F931F9311
:1017A000CF93DF93EC0188818823D9F000E010E02B
:1017B0008881F80198E0899FE00DF11D1124EE5F0A
:1017C000FF4F80810E94C60B6AE070E080E090E0ED
:1017D0000E941A1A0F5F1F4F0830110549F7219612
:1017E000E2CFDF91CF911F910F910895CF93DF93B7
:1017F000C0E060E08C2F0E94AC0BD0E080E00E9443
:10180000C60BDF5FD038D1F7CF5FC83091F7DF91DB
:10181000CF9108955F926F927F928F929F92AF9235
:10182000BF92CF92DF92EF92FF920F931F93CF93CD
:10183000DF93CDB7DEB72A970FB6F894DEBF0FBEA1
:10184000CDBF3B014C0120E030E048EC52E40E9467
:101850008D1B20E030E040E85FE30E94E71C73014D
:10186000840187FD1EC0D12C20E030E048EC52E41A
:10187000B701C8010E94E71C181664F420E030E0AC
:1018800048EC52E4B701C8010E941B1B7B018C018C
:10189000D394EACF80E38D0D8983CC24C394D12CDB
:1018A00002C0C12CD12C20E030E040E251E4B7016D
:1018B000C8010E948D1B20E030E040E85FE30E94F9
:1018C000E71C87FD1DC0B12C20E030E040E251E470
:1018D000B701C8010E94E71C87FD0CC020E030E082
:1018E00040E251E4B701C8010E941B1B7B018C013F
:1018F000B394EACFFE01EC0DFD1D80E38B0D04C017
:10190000FE01EC0DFD1D80E381838FEFC81AD80A1C
:1019100020E030E0A901B701C8010E94E71C87FD63
:1019200020C0B12C20E030E040E85FE3B701C801FF
:101930000E94E71C87FD0CC020E030E040E85FE338
:10194000B701C8010E941B1B7B018C01B394EACF35
:10195000FE01EC0DFD1D80E38B0D81838FEFC81A16
:10196000D80AE1E0F0E0EC0FFD1FEC0DFD1D8EE26A
:10197000808356018FEFA81AB80A2DEC3CEC4CEC92
:101980005DE3B701C8010E94E71C87FD1DC0512C13
:101990002DEC3CEC4CEC5DE3B701C8010E941B1B35
:1019A0007B018C0153942DEC3CEC4CEC5DE30E94EC
:1019B000E71C87FFEDCFE1E0F0E0EC0FFD1FEA0D43
:1019C000FB1D80E3850D07C0E1E0F0E0EC0FFD1F9B
:1019D000EA0DFB1D80E3808382E0C80ED11C2AE063
:1019E00037ED43E25CE3B701C8010E94E71C87FDC5
:1019F0001DC0B12C2AE037ED43E25CE3B701C8011A
:101A00000E941B1B7B018C01B3942AE037ED43E25B
:101A10005CE30E94E71C87FFEDCFE1E0F0E0EC0F14
:101A2000FD1FEC0DFD1D80E38B0D808320E030E079
:101A300048EC52E4B301C4010E94881B87FD1E825A
:101A400061E070E080E090E00E941A1ACE010196F9
:101A50002A960FB6F894DEBF0FBECDBFDF91CF91AF
:101A60001F910F91FF90EF90DF90CF90BF90AF90BC
:101A70009F908F907F906F905F9008954F925F92AC
:101A80006F927F928F929F92AF92BF92EF92FF924E
:101A90000F931F93CF93DF93CDB7DEB728970FB681
:101AA000F894DEBF0FBECDBF81E396E00E94290708
:101AB00081E396E00E940906E82EF12C81E396E08E
:101AC0000E94F208882339F062E374E08AEA96E023
:101AD0000E94951604C081E396E00E94FD0700E095
:101AE00010E00E151F050CF0A2C0402FBE016F5F65
:101AF0007F4F81E396E00E941B06882309F494C07F
:101B0000BE016F5F7F4F81E396E00E94C208609341
:101B100058067093590680935A0690935B060E946C
:101B2000F50860935406709355068093560690937B
:101B3000570667E081E00E94AC0B609154067091FB
:101B4000550680915606909157060E940A0C809384
:101B50002F0690933006DC01E5E2F6E08D918A33A2
:101B600010F4808301C01082319686E0EC32F807D1
:101B7000A9F785E296E00E94CE0B40905C0650905B
:101B80005D0660905E0670905F06809054069090AF
:101B90005506A0905606B0905706A5019401C301C2
:101BA000B2010E94E71C18164CF020E030E0A901B9
:101BB000C301B2010E94881B811110C080925C0693
:101BC00090925D06A0925E06B0925F0666E084E0A9
:101BD0000E94AC0B85E296E00E94CE0B80905406EA
:101BE00090905506A0905606B0905706A501940116
:101BF0006091600670916106809162069091630623
:101C00000E94881B87FF10C0809260069092610638
:101C1000A0926206B092630666E085E00E94AC0B7B
:101C200085E296E00E94CE0B0F5F1F4F5ACF289699
:101C30000FB6F894DEBF0FBECDBFDF91CF911F91DD
:101C40000F91FF90EF90BF90AF909F908F907F90FB
:101C50006F905F904F900895FC0180818E7F80830C
:101C600080818D7F80831582168217821086148E64
:101C7000138E168E158E10A2178E118A128A138A51
:101C8000148A08950F931F93CF93DF93FC01A78DC0
:101C9000B0A11097C9F1EC01118A128A138A148A33
:101CA0000788F08DE02D309759F1888181FD28C09B
:101CB00014960D911C9115971596DC93CE9314975D
:101CC0008881826088830995988180FB90F9988348
:101CD00088818D7F8883EF8DF8A1158304830E940E
:101CE000E91909811A812B813C81DC01CB01801B20
:101CF000910BA20BB30B8D839E83AF83B88704C077
:101D0000888181608883EBCFDF91CF911F910F9104
:101D10000895CF92DF92EF92FF920F931F93CF938C
:101D2000DF93EC016A017B01452B462B472B21F405
:101D3000C980DA80EB80FC800E94E91909811A8150
:101D40002B813C81DC01CB018C0D9D1DAE1DBF1D87
:101D5000801B910BA20BB30B8D839E83AF83B8873F
:101D6000DF91CF911F910F91FF90EF90DF90CF9077
:101D70000895FC01418352836383748340E050E003
:101D8000BA010C94890EEF92FF920F931F93CF9399
:101D9000DF931F92CDB7DEB7DC019C918C918E7FD3
:101DA0008C938C918D7F8C93892F817090FF1FC0B5
:101DB00059962D913C915A9721153105C1F07D011D
:101DC0005F960D90BC91A02D14960D911C911597C6
:101DD0001596FC92EE9214978983F9010995D70123
:101DE0005F96ED91FC9190971583048389810F9004
:101DF000DF91CF911F910F91FF90EF900895CF93B6
:101E0000DF93DC01FB0190A3878F8D919C9111974B
:101E1000892B31F411967C936E93148E138E08C027
:101E20001296CD91DC911397D48FC38F7E8F6D8FD7
:101E3000168E158E1396FC93EE931297DF91CF9129
:101E400008952F923F924F925F926F927F928F925E
:101E50009F92AF92CF92DF92EF92FF920F931F93D8
:101E6000CF93DF9300D000D0CDB7DEB73C0118018F
:101E70002901088D198D49835A836B837C830E94C5
:101E80002C0E49815A816B817C81C3010E94B90E5D
:101E9000F301218632864386548625863686478618
:101EA000508AF68AE58A908E878A128F018FC11434
:101EB000D10421F0B301C6010E94FF0EAA20C1F097
:101EC000C3010F900F900F900F90DF91CF911F9152
:101ED0000F91FF90EF90DF90CF90AF909F908F90F9
:101EE0007F906F905F904F903F902F900C94420E98
:101EF0000F900F900F900F90DF91CF911F910F9146
:101F0000FF90EF90DF90CF90AF909F908F907F9059
:101F10006F905F904F903F902F900895CF92DF92F7
:101F2000EF92FF920F931F93CF93DF93EC01888181
:101F300099819D838C838C819D81009709F45CC07D
:101F4000FC01208120FF53C0418552856385748543
:101F5000452B462B472B19F40E94C30E48C00E9404
:101F6000E919EC81FD81C180D280E380F480058194
:101F7000168127813085AB01BC01401B510B620BE0
:101F8000730B4C155D056E057F0588F14185528503
:101F900063857485141615061606170664F44185C4
:101FA00052856385748541505109610971094187E2
:101FB00052876387748741895289638974894F5F27
:101FC0005F4F6F4F7F4F418B528B638B748BD90167
:101FD000C8018C0D9D1DAE1DBF1D85839683A783F3
:101FE000B0870588F689E02D309709F00995EC81D6
:101FF000FD81858D968D9DCFDF91CF911F910F91A2
:10200000FF90EF90DF90CF90089566E374E08AEA46
:1020100096E00E94B41664E670E080E090E00E94D2
:102020001A1A64E474E08AEA96E00E94B41664E640
:1020300070E080E090E00E941A1A6CE674E08AEA90
:1020400096E00E943B19882301F361E081E10E9440
:10205000EB1A64EF71E080E090E00E941A1A60E0F1
:1020600081E10E94EB1A64EF71E080E090E00E9451
:102070001A1A61E081E10C94EB1A61E081E10E949F
:10208000AF1A60E081E10E94EB1A61E082E00E94F9
:10209000AF1A61E082E00E94EB1A64E670E080E033
:1020A00090E00E941A1A40E855E260E070E089E58D
:1020B00095E00E94E1136FE674E089E595E00E94E7
:1020C000B41664E670E080E090E00E941A1A26E000
:1020D00040E056E960E070E08AEA96E00E9435153B
:1020E0000E9405100E94130B0E94790B6AE070E0B9
:1020F00080E090E00E941A1A0E94F60B62E370E002
:1021000080E090E00E941A1A80E20E94710B82E047
:102110000E94710B86EA0E94710B61E081E00E94CF
:10212000AC0B8AED94E00E94CE0B61E082E00E944D
:10213000AC0B82ED94E00E94CE0B61E084E00E9443
:10214000AC0B8CEC94E00E94CE0B61E085E00E9429
:10215000AC0B86EC94E00E94CE0B6AE070E080E06D
:1021600090E00C941A1A60E874E08AEA96E00E9403
:10217000B41660E974E08AEA96E00E943B1988236D
:1021800009F44CC062E974E08AEA96E00E94951670
:10219000409154065091550660915606709157062D
:1021A00022E030E08AEA96E00E944B1866E974E08B
:1021B0008AEA96E00E94951688E795E00E94E3027D
:1021C000AB01BC0126E030E08AEA96E00E944B18A1
:1021D00066E974E08AEA96E00E94951688E795E041
:1021E0000E940F03AB01BC0126E030E08AEA96E0D2
:1021F0000E944B1868E974E08AEA96E00E949516FE
:1022000060910001709101018AEA96E00E949516A2
:102210006DE874E08AEA96E00C94B4166AE974E01A
:102220008AEA96E00E943B1981110C9405100895EA
:102230008F929F92AF92CF92DF92EF92FF920F9385
:102240001F9369E084E496E00E943A0A64E476E031
:1022500081E396E00E94FA0588E795E00E94470135
:1022600020E047E066E089E595E00E94B613E3E5EB
:10227000F5E01182108213821282158214821F925D
:102280001F92812C912CAA24A3946F018DEFE82E2C
:102290008AE0F82E0FEF1FEF98014CE251E060E06A
:1022A00070E082E395E00E94210F1F921F929CEF45
:1022B000E92E9AE0F92E0FEF1FEF980148EC50E05D
:1022C00060E070E081E195E00E94210F0F900F9097
:1022D0000F900F901F910F91FF90EF90DF90CF9094
:1022E000AF909F908F90089589E595E00C945D13D1
:1022F0000F931F93CF93DF93CDB7DEB72A970FB617
:10230000F894DEBF0FBECDBF83E595E00E948E0F2F
:102310000E943E0D0E94B31089E595E00E947D1257
:10232000181619062CF589E595E00E94F011682F22
:1023300088E795E00E947805882371F30E94E919E7
:10234000693873418105910538F3809115069091A4
:102350001606A0911706B09118060A97A105B105B7
:10236000D8F66AEB71E08AEA96E00E94A216FFCFE7
:10237000809153068F93809152068F938CEA94E05C
:102380009F938F938E010F5F1F4F1F930F930E9498
:102390005A1E61E087E00E94AC0BC8010E94CE0B80
:1023A0008091520690915306019690935306809324
:1023B00052066CE271E080E090E00E941A1A0F90E1
:1023C0000F900F900F900F900F902A960FB6F894E1
:1023D000DEBF0FBECDBFDF91CF911F910F9108954A
:1023E0002091A8063091A90628173907B9F49091D1
:1023F000660680916706981789F0E0916606F0E01E
:10240000E859F94F80812091660630E02F5F3F4FF9
:102410002F7333272093660690E008958FEF9FEF88
:1024200008951F93CF93DF93DC015C962D913C912F
:102430005D972115310539F481E090E013969C9366
:102440008E9312973DC05196ED91FC915297509604
:102450009C915097892F80951FB75E964C915E97FF
:1024600041FB772770F941FD6095F894408177230F
:1024700011F0492B01C048234083E9012197F1F76E
:1024800048E0508160FF02C0592B01C0582350839F
:10249000E9012197F1F76695415099F7772321F0EB
:1024A00090818923808303C08081982B90831FBFF4
:1024B0005C968D919C915D970197F1F721E030E05A
:1024C000C901DF91CF911F9108952091A806309105
:1024D000A9062817390771F490916606809167065E
:1024E000981741F0E0916606F0E0E859F94F8081D5
:1024F00090E008958FEF9FEF08952091A806309106
:10250000A9062817390771F480916706209166069D
:1025100090E0805C9F4F821B910960E470E00E9414
:102520006E1D089580E090E008952091A8063091F6
:10253000A9062817390739F48FB7F894109267065F
:10254000109266068FBF0895E091A806F091A90643
:10255000E817F90769F4A389B4899C918589809566
:1025600089238C931092A9061092A80681E0089501
:1025700080E00895CF93DF93EC018A8D9B8D892BAA
:10258000F1F08091A8069091A9068C179D07B9F0EB
:10259000009711F00E94A4128E8D8E7F8E8F109264
:1025A000670610926606D093A906C093A806EB8929
:1025B000FC8990818D89892B808381E001C080E036
:1025C000DF91CF9108951F920F920FB60F921124B1
:1025D0002F933F934F935F936F937F938F939F932B
:1025E000AF93BF93EF93FF93E091A806F091A906F4
:1025F000309709F451C0968DA685B785858591FFE2
:1026000004C09C91892329F447C09C91892309F037
:1026100043C0A389B4899C918589809589238C9333
:10262000868997890197F1F7608D718DA685B785A9
:10263000558538E020E0CB010197F1F7822F90E03B
:1026400095958795282F4C91452309F020683150A6
:1026500091F7868D81FD20958091670690E0019627
:102660008F73992730916606381749F0A091670655
:10267000B0E0A859B94F2C938093670603C0868DAC
:102680008160868F828D938D0197F1F7A389B4893C
:102690009C918589892B8C93FF91EF91BF91AF918C
:1026A0009F918F917F916F915F914F913F912F916A
:1026B0000F900FBE0F901F90189525EE34E0FC018F
:1026C000318320830C94A4121F93CF93DF93EC01EA
:1026D000162F6E8D6695617081E06827812F0E94AC
:1026E000EB1A61E0812F0E94AF1A612F70E0FB01AD
:1026F000E351FE4FE491E88BFB01EF5FFD4FE49166
:10270000F0E0EE0FFF1FE15EFD4F859194919A8BF3
:10271000898BDF91CF911F9108951F93CF93DF9302
:10272000EC01162F60E0812F0E94AF1A8E8D81FD83
:1027300004C061E0812F0E94EB1A1C87612F70E0BA
:10274000FB01E351FE4FE491ED87FB01EF5FFD4F8D
:10275000E491F0E0EE0FFF1FEB5EFD4F8591949149
:102760009F878E87DF91CF911F9108951F93CF93FD
:10277000DF93EC01162F1B821A8288EE93E0A0E013
:10278000B0E08C839D83AE83BF8385EE94E0998314
:1027900088831F8A1E8A198E188E1B8E1A8E1D8E94
:1027A0001C8E8E8D8E7F20FB81F98E8F642FCE0143
:1027B0000E946413612FCE01DF91CF911F910C9481
:1027C0008D13CF93DF93EC019A01AB011B8E1A8E10
:1027D000198E188E1F8A1E8A60E874E88EE190E0D8
:1027E0000E94A41DF9012430310518F0C901039796
:1027F00002C081E090E09D8F8C8F6C85663108F07F
:1028000069C0C901969587958431910510F0439769
:1028100002C081E090E09F8B8E8B369718F0C90143
:10282000059702C081E090E0998F888FC901880FD9
:10283000991F280F391F36952795369527952D30E6
:10284000310518F02C50310902C021E030E03B8FF7
:102850002A8F90916800683050F021E06E3008F4C3
:1028600020E081E001C0880F2A95EAF701C084E0EA
:10287000892B809368008C85883038F08E3040F04A
:10288000863148F020E030E008C02DE630E005C099
:102890002BE630E002C02CE630E03C8B2B8B8830FE
:1028A00030F491E001C0990F8A95EAF70EC0282F05
:1028B00030E08E3018F42850310902C02E50310912
:1028C00091E001C0990F2A95EAF79D8B8C8D9D8D23
:1028D0000197F1F7CE01DF91CF910C94BA12FC0170
:1028E000918D228D892F90E0805C9F4F821B9109F2
:1028F0008F7399270895FC01918D828D981731F07F
:10290000828DE80FF11D858D90E008958FEF9FEF88
:102910000895FC01918D828D981761F0828DDF0101
:10292000A80FB11D5D968C91928D9F5F9F73928FC2
:1029300090E008958FEF9FEF08958DEE95E1892B3C
:1029400049F080E090E0892B29F00E94ED1581117B
:102950000C9400000895FC01848DDF01A80FB11DC7
:10296000A35ABF4F2C91848D90E001968F739927C5
:10297000848FA689B7892C93A089B1898C918064B2
:102980008C93938D848D981306C00288F389E02D73
:1029900080818F7D80830895CF93DF93EC01888DB4
:1029A0008823C9F0EA89FB89808185FD05C0A88953
:1029B000B9898C9186FD0FC00FB607FCF5CF8081D9
:1029C00085FFF2CFA889B9898C9185FFEDCFCE0123
:1029D0000E94AB14E7CFDF91CF910895EF92FF9261
:1029E0000F931F93CF93DF93EC0181E0888F9B8D32
:1029F0008C8D981305C0E889F989808185FD24C0F4
:102A0000F62E0B8D10E00F5F1F4F0F731127E02E76
:102A10008C8DE8120CC00FB607FCFACFE889F98953
:102A2000808185FFF5CFCE010E94AB14F1CF8B8D55
:102A3000FE01E80FF11DE35AFF4FF0820B8FEA8988
:102A4000FB898081806207C0EE89FF896083E88905
:102A5000F98980818064808381E090E0DF91CF916B
:102A60001F910F91FF90EF900895CF92DF92EF9218
:102A7000FF921F93CF93DF93EC016A017B01122F2A
:102A800060E874E88EE190E0A70196010E94821D43
:102A9000DA01C9010197A109B109B695A7959795E2
:102AA0008795AC01E889F98982E08083411580E14E
:102AB0005807A8F0E889F989108260E472E48FE091
:102AC00090E0A70196010E94821DBA01A901415020
:102AD0005109610971097695679557954795EC8578
:102AE000FD855083EE85FF854083188EEC89FD8936
:102AF0001083EA89FB89808180618083EA89FB8970
:102B0000808188608083EA89FB89808180688083F6
:102B1000EA89FB8980818F7D8083DF91CF911F912E
:102B2000FF90EF90DF90CF9008951F920F920FB615
:102B30000F9211242F938F939F93EF93FF93E09124
:102B4000BA06F091BB068081E091C006F091C10603
:102B500082FD12C090818091C3068F5F8F73209198
:102B6000C406821751F0E091C306F0E0E655F94F34
:102B7000958F8093C30601C08081FF91EF919F9153
:102B80008F912F910F900FBE0F901F9018951F924D
:102B90000F920FB60F9211242F933F934F935F9391
:102BA0006F937F938F939F93AF93BF93EF93FF9315
:102BB0008AEA96E00E94AB14FF91EF91BF91AF912A
:102BC0009F918F917F916F915F914F913F912F9145
:102BD0000F900FBE0F901F9018958AEA96E00E9402
:102BE0006F1421E0892B09F420E0822F0895EAEA8E
:102BF000F6E01382128288EE93E0A0E0B0E08483D6
:102C00009583A683B78385EF94E09183808385ECD9
:102C100090E09587848784EC90E09787868780ECA6
:102C200090E0918B808B81EC90E0938B828B82EC97
:102C300090E0958B848B86EC90E0978B868B118E41
:102C4000128E138E148E0895089508950E944B1AC3
:102C50000E9425160E943D10CDE9D4E10E94781112
:102C60002097E1F30E949D14F9CFCF92DF92EF926B
:102C7000FF920F931F93CF93DF936C01EB017B01C6
:102C8000E40EF51E00E010E0CE15DF0561F069915D
:102C9000D601ED91FC910190F081E02DC6010995DE
:102CA000080F191FF1CFC801DF91CF911F910F912C
:102CB000FF90EF90DF90CF9008956115710579F046
:102CC000FB0101900020E9F73197AF01461B570B3C
:102CD000DC01ED91FC910280F381E02D099480E00C
:102CE00090E00895EF92FF920F931F93CF93DF939D
:102CF0007C01FB0100E010E06491EF012196662366
:102D000061F0D701ED91FC910190F081E02DC701B8
:102D10000995080F191FFE01EFCFC801DF91CF9170
:102D20001F910F91FF90EF9008950C945D16DC01B8
:102D3000ED91FC910190F081E02D09946DE874E033
:102D40000C945D160F931F93CF93DF93EC010E94B9
:102D500072168C01CE010E949E16800F911FDF918A
:102D6000CF911F910F9108950F931F93CF93DF93EE
:102D7000EC010E945D168C01CE010E949E16800F10
:102D8000911FDF91CF911F910F9108958F929F9284
:102D9000AF92BF92CF92DF92EF92FF920F931F9369
:102DA000CF93DF93CDB7DEB7A1970FB6F894DEBF10
:102DB0000FBECDBF6C01142FE52FCB01022F19A23E
:102DC000223008F40AE07E0121E2E20EF11C802E9E
:102DD000912CA12CB12C612F7E2FA50194010E9472
:102DE000821D029F1019112481E0E81AF1081A309F
:102DF00010F4105D01C0195CF7011083122FE32F4E
:102E0000CA01232B242B252B31F7B701C6010E94C1
:102E10005D16A1960FB6F894DEBF0FBECDBFDF9151
:102E2000CF911F910F91FF90EF90DF90CF90BF90C7
:102E3000AF909F908F900895CF92DF92EF92FF9284
:102E40000F931F93CF93DF93EC016A017B01211550
:102E5000310579F4E881F9810190F081E02D642F4A
:102E6000DF91CF911F910F91FF90EF90DF90CF9066
:102E700009942A303105E9F477FF1AC06DE20E9407
:102E800097168C0144275527BA014C195D096E0924
:102E90007F092AE0CE010E94C616800F911FDF91A4
:102EA000CF911F910F91FF90EF90DF90CF900895F9
:102EB0002AE0B701A601CE01DF91CF911F910F91BA
:102EC000FF90EF90DF90CF900C94C6164F925F92D8
:102ED0006F927F928F929F92AF92BF92CF92DF922A
:102EE000EF92FF92CF93DF93EC016A017B01B22E48
:102EF0009A01AB01C701B6010E94591D882319F040
:102F000061E075E027C026013701E89477F82FEFDC
:102F10003FEF4FE75FE7C301B2010E94591D8111E6
:102F20000DC02FEF3FEF4FE75FE7C301B2010E94F3
:102F3000881B18161CF465E075E00CC02FEF3FEFFE
:102F40004FE75FE4C701B6010E94E71C18169CF426
:102F500069E075E0CE01DF91CF91FF90EF90DF90B7
:102F6000CF90BF90AF909F908F907F906F905F9029
:102F70004F900C945D162FEF3FEF4FE75FECC701CA
:102F8000B6010E94881B87FDE3CF20E030E0A90155
:102F9000C701B6010E94881B87FF0AC06DE2CE01FF
:102FA0000E9497164C01F7FAF094F7F8F09402C0DB
:102FB000812C912CA12C60E070E080E09FE3AB14A9
:102FC00041F020E030E040E251E40E948D1BA394E8
:102FD000F6CF9B01AC01C701B6010E941C1B2B015F
:102FE0003C010E94061C6B017C010E94351C9B0168
:102FF000AC01C301B2010E941B1B2B013C012AE062
:10300000B701A601CE010E94C6167C01E80CF91C8E
:10301000BB2039F06DE075E0CE010E945D16E80E30
:10302000F91EDB2CDD2039F120E030E040E251E4F4
:10303000C301B2010E94EC1C2B013C010E94FF1B4A
:103040004B01770FAA08BB082AE030E0B501A401C4
:10305000CE010E941C17E80EF91EC501B4010E94A2
:10306000371C9B01AC01C301B2010E941B1B2B0149
:103070003C01DA94D7CFC701DF91CF91FF90EF9059
:10308000DF90CF90BF90AF909F908F907F906F9088
:103090005F904F9008950C9466170F931F93CF93F2
:1030A000DF93EC010E94E919688779878A879B87FB
:1030B000E881F9810680F781E02DCE01099597FF1F
:1030C00017C00E94E919088519852A853B85DC010E
:1030D000CB01801B910BA20BB30B0C811D812E81A8
:1030E0003F8180179107A207B30710F38FEF9FEF7F
:1030F000DF91CF911F910F9108954F925F926F9240
:103100007F928F929F92AF92BF92CF92DF92EF9277
:10311000FF920F931F93CF93DF938C01EB0186E017
:10312000849F4001859F900C1124860E971EFB0101
:10313000E815F905F8F482819381892B11F136960F
:10314000F7CF6081718144815581DB01A40FB51FE8
:103150002C9130E08217930711F54F5F5F4F558335
:103160004483228133814217530759F03696E8157C
:10317000F90538F3C8010E944D1897FD44C0FE01BF
:10318000F6CFEC1BFD0BF595E7952BEA3AEAE29FAB
:10319000C001E39F900DF29F900D112436C04115A0
:1031A000510521F3C480D580960121503109358322
:1031B0002483DB01A20FB31FAC91B0E08A179B07F9
:1031C000F9F421153105C9F05B017A01E21AF30A1D
:1031D000E60EF71E412C512CD5016D905D01D701F3
:1031E0007D907D01671006C0BFEF4B1A5B0A421647
:1031F000530690F342165306A9F6D582C482B6CF81
:10320000232B81F6B3CF8FEF9FEFDF91CF911F91EB
:103210000F91FF90EF90DF90CF90BF90AF909F9075
:103220008F907F906F905F904F900895CF93DF9332
:1032300000D000D000D0CDB7DEB7FE01319626E039
:10324000DF011D922A95E9F77A8369835C834B83BA
:1032500041E050E0BF010E947D1821E0892B09F078
:1032600020E0822F26960FB6F894DEBF0FBECDBFAA
:10327000DF91CF910895FB0101900020E9F731978C
:10328000AF01461B570B0C9416191F920F920FB6E5
:103290000F9211242F933F934F935F936F937F93DC
:1032A0008F939F93AF93BF93EF93FF9380914707C3
:1032B00090914807892B29F0E0914707F091480742
:1032C0000995FF91EF91BF91AF919F918F917F9160
:1032D0006F915F914F913F912F910F900FBE0F9083
:1032E0001F9018951F920F920FB60F9211242F93D3
:1032F0003F934F935F936F937F938F939F93AF937E
:10330000BF93EF93FF938091490790914A07892BD0
:1033100029F0E0914907F0914A070995FF91EF9153
:10332000BF91AF919F918F917F916F915F914F91DD
:103330003F912F910F900FBE0F901F9018951F92E5
:103340000F920FB60F9211242F933F938F939F9359
:10335000AF93BF9380914C0790914D07A0914E077A
:10336000B0914F0730914B0726E0230F2D3720F403
:103370000296A11DB11D05C029E8230F0396A11DCA
:10338000B11D20934B0780934C0790934D07A0935A
:103390004E07B0934F078091500790915107A0912D
:1033A0005207B09153070196A11DB11D809350079C
:1033B00090935107A0935207B0935307BF91AF91D9
:1033C0009F918F913F912F910F900FBE0F901F9063
:1033D00018952FB7F89460914C0770914D07809124
:1033E0004E0790914F072FBF08953FB7F8948091F3
:1033F000500790915107A0915207B091530726B5FD
:10340000A89B05C02F3F19F00196A11DB11D3FBF1C
:10341000BA2FA92F982F8827820F911DA11DB11DAA
:10342000BC01CD0143E0660F771F881F991F4A95A5
:10343000D1F70895CF92DF92EF92FF92CF93DF936F
:103440006B017C010E94F519EB01C114D104E10468
:10345000F10489F00E9424160E94F5196C1B7D0B63
:10346000683E734090F381E0C81AD108E108F10882
:10347000C851DC4FEACFDF91CF91FF90EF90DF9002
:10348000CF9008958330910528F0880F991F0497F5
:103490000197F1F70895789484B5826084BD84B56E
:1034A000816084BD85B5826085BD85B5816085BD3F
:1034B000EEE6F0E0808181608083E1E8F0E0108258
:1034C000808182608083808181608083E0E8F0E099
:1034D000808181608083E1EBF0E080818460808383
:1034E000E0EBF0E0808181608083EAE7F0E08081BA
:1034F0008460808380818260808380818E7F8083EE
:103500008081806880831092C1000895833081F0AB
:1035100028F4813099F08230A1F008958730A9F025
:103520008830B9F08430D1F4809180008F7D03C061
:10353000809180008F7780938000089584B58F7785
:1035400002C084B58F7D84BD08958091B0008F77CF
:1035500003C08091B0008F7D8093B0000895CF9319
:10356000DF9390E0FC01E351FE4F2491FC01EF5FFB
:10357000FD4F8491882361F190E0880F991FFC0131
:10358000E75DFD4FC591D491FC01E15EFD4FA59132
:10359000B491611109C09FB7F89488812095822366
:1035A0008883EC912E230BC0623061F49FB7F894AE
:1035B0003881822F809583238883EC912E2B2C9346
:1035C0009FBF06C08FB7F894E8812E2B28838FBF4A
:1035D000DF91CF9108951F93CF93DF93282F30E091
:1035E000F901E752FE4F8491F901E351FE4FD49166
:1035F000F901EF5FFD4FC491CC23C9F0162F811163
:103600000E94861AEC2FF0E0EE0FFF1FE15EFD4FE7
:10361000A591B4918FB7F894111105C09C91ED2F2D
:10362000E095E92302C0EC91ED2BEC938FBFDF9185
:10363000CF911F9108955058BB27AA270E94331B92
:103640000C94AD1C0E949F1C38F00E94A61C20F018
:1036500039F49F3F19F426F40C949C1C0EF4E09569
:10366000E7FB0C94961CE92F0E94BE1C58F3BA1776
:10367000620773078407950720F079F4A6F50C9488
:10368000E01C0EF4E0950B2EBA2FA02D0B01B90112
:1036900090010C01CA01A0011124FF27591B99F0C8
:1036A000593F50F4503E68F11A16F040A22F232FD4
:1036B000342F4427585FF3CF469537952795A79524
:1036C000F0405395C9F77EF41F16BA0B620B730BCB
:1036D000840BBAF09150A1F0FF0FBB1F661F771F3C
:1036E000881FC2F70EC0BA0F621F731F841F48F4F1
:1036F000879577956795B795F7959E3F08F0B0CF7A
:103700009395880F08F09927EE0F97958795089560
:103710000E94721C08F481E008950E94A11B0C9481
:10372000AD1C0E94A61C58F00E949F1C40F029F47A
:103730005F3F29F00C94961C51110C94E11C0C94E1
:103740009C1C0E94BE1C68F39923B1F3552391F38E
:10375000951B550BBB27AA2762177307840738F000
:103760009F5F5F4F220F331F441FAA1FA9F335D05D
:103770000E2E3AF0E0E832D091505040E695001C11
:10378000CAF72BD0FE2F29D0660F771F881FBB1FCB
:10379000261737074807AB07B0E809F0BB0B802DA9
:1037A000BF01FF2793585F4F3AF09E3F510578F0D5
:1037B0000C94961C0C94E11C5F3FE4F3983ED4F308
:1037C000869577956795B795F7959F5FC9F7880FA9
:1037D000911D9695879597F90895E1E0660F771FFB
:1037E000881FBB1F621773078407BA0720F0621B8C
:1037F000730B840BBA0BEE1F88F7E09508950E94B7
:10380000061C6894B1110C94E11C08950E94C61C1A
:1038100088F09F5798F0B92F9927B751B0F0E1F091
:10382000660F771F881F991F1AF0BA95C9F714C041
:10383000B13091F00E94E01CB1E008950C94E01CBE
:10384000672F782F8827B85F39F0B93FCCF386957A
:1038500077956795B395D9F73EF4909580957095D7
:1038600061957F4F8F4F9F4F0895E89409C097FB54
:103870003EF490958095709561957F4F8F4F9F4F47
:103880009923A9F0F92F96E9BB279395F69587958B
:1038900077956795B795F111F8CFFAF4BB0F11F44E
:1038A00060FF1BC06F5F7F4F8F4F9F4F16C08823F5
:1038B00011F096E911C0772321F09EE8872F762F2B
:1038C00005C0662371F096E8862F70E060E02AF06C
:1038D0009A95660F771F881FDAF7880F9695879558
:1038E00097F90895990F0008550FAA0BE0E8FEEF2D
:1038F00016161706E807F907C0F012161306E407B4
:10390000F50798F0621B730B840B950B39F40A26AC
:1039100061F0232B242B252B21F408950A2609F48A
:10392000A140A6958FEF811D811D089597F99F678E
:1039300080E870E060E008959FEF80EC0895002437
:103940000A941616170618060906089500240A9404
:1039500012161306140605060895092E0394000C8A
:1039600011F4882352F0BB0F40F4BF2B11F460FF19
:1039700004C06F5F7F4F8F4F9F4F089557FD905842
:10398000440F551F59F05F3F71F04795880F97FB23
:10399000991F61F09F3F79F08795089512161306DD
:1039A0001406551FF2CF4695F1DF08C0161617060C
:1039B0001806991FF1CF8695710561050894089541
:1039C000E894BB2766277727CB0197F908950E94D3
:1039D000721C08F48FEF08950E94FF1C0C94AD1C1C
:1039E0000E949F1C38F00E94A61C20F0952311F025
:1039F0000C94961C0C949C1C11240C94E11C0E94A9
:103A0000BE1C70F3959FC1F3950F50E0551F629F48
:103A1000F001729FBB27F00DB11D639FAA27F00D27
:103A2000B11DAA1F649F6627B00DA11D661F829F4E
:103A30002227B00DA11D621F739FB00DA11D621F33
:103A4000839FA00D611D221F749F3327A00D611D50
:103A5000231F849F600D211D822F762F6A2F112432
:103A60009F5750409AF0F1F088234AF0EE0FFF1F65
:103A7000BB1F661F771F881F91505040A9F79E3FBC
:103A8000510580F00C94961C0C94E11C5F3FE4F30C
:103A9000983ED4F3869577956795B795F795E79512
:103AA0009F5FC1F7FE2B880F911D9695879597F91B
:103AB00008950E94721C880B990B0895DB018F9367
:103AC0009F930E94C91DBF91AF91A29F800D911D30
:103AD000A39F900DB29F900D1124089597FB072E80
:103AE00016F4009407D077FD09D00E94DC1D07FC76
:103AF00005D03EF4909581959F4F089570956195FE
:103B00007F4F0895A1E21A2EAA1BBB1BFD010DC019
:103B1000AA1FBB1FEE1FFF1FA217B307E407F5077D
:103B200020F0A21BB30BE40BF50B661F771F881F59
:103B3000991F1A9469F760957095809590959B01EF
:103B4000AC01BD01CF010895052E97FB1EF4009432
:103B50000E94BB1D57FD07D00E94821D07FC03D0A9
:103B60004EF40C94BB1D50954095309521953F4FD8
:103B70004F4F5F4F089590958095709561957F4F59
:103B80008F4F9F4F0895EE0FFF1F0590F491E02D8A
:103B900009940E94F01DA59F900DB49F900DA49FC5
:103BA000800D911D11240895B7FF0C94C91D0E942A
:103BB000C91D821B930B0895AA1BBB1B51E107C0B3
:103BC000AA1FBB1FA617B70710F0A61BB70B881FAD
:103BD000991F5A95A9F780959095BC01CD0108953C
:103BE000A29FB001B39FC001A39F700D811D11243E
:103BF000911DB29F700D811D1124911D08951F9379
:103C0000FC0199278827BC01E89411911032E9F34F
:103C1000193010F01E30C8F31B3251F01D3249F438
:103C2000689406C00E94451E610F711D811D911D83
:103C3000119110531A30B0F33EF490958095709521
:103C400061957F4F8F4F9F4F1F910895FB01DC01BE
:103C50008D91019080190110D9F3990B0895FB0102
:103C6000DC0101900D920020E1F70895FB01DC01D9
:103C70004150504048F001900D920020C9F701C01A
:103C80001D9241505040E0F70895592F482F372F8B
:103C9000262F660F771F881F991F660F771F881FB3
:103CA000991F620F731F841F951F660F771F881F50
:103CB000991F0895AEE0B0E0E0E6FEE10C94092122
:103CC0000D891E8986E08C831A8309838FEF9FE715
:103CD0009E838D83AE01475E5F4F6F89788DCE01E5
:103CE00001960E947D1E2F813885F801E20FF31F97
:103CF00010822E96E4E00C942521ACE0B0E0E3E8DD
:103D0000FEE10C94FB207C016B018A01FC0117820F
:103D10001682838181FFBDC1CE0101964C01F7015E
:103D20009381F60193FD859193FF81916F01882323
:103D300009F4ABC1853239F493FD859193FF8191EC
:103D40006F01853229F4B70190E00E946520E7CF2A
:103D5000512C312C20E02032A0F48B3269F030F469
:103D6000803259F0833269F420612CC08D3239F0F1
:103D7000803339F4216026C02260246023C028608B
:103D800021C027FD27C030ED380F3A3078F426FFE8
:103D900006C0FAE05F9E300D1124532E13C08AE056
:103DA000389E300D1124332E20620CC08E3221F447
:103DB00026FD6BC1206406C08C3611F4206802C059
:103DC000883641F4F60193FD859193FF81916F014F
:103DD0008111C1CF982F9F7D9554933028F40C5FAB
:103DE0001F4FFFE3F9830DC0833631F0833771F045
:103DF000833509F05BC022C0F801808189830E5FA2
:103E00001F4F44244394512C540115C03801F2E053
:103E10006F0E711CF801A080B18026FF03C0652DD4
:103E200070E002C06FEF7FEFC5012C870E945A201F
:103E30002C0183012C852F77222E17C03801F2E048
:103E40006F0E711CF801A080B18026FF03C0652DA4
:103E500070E002C06FEF7FEFC5012C870E944F20FA
:103E60002C012C852068222E830123FC1BC0832D6E
:103E700090E048165906B0F4B70180E290E00E9445
:103E800065203A94F4CFF50127FC859127FE8191B6
:103E90005F01B70190E00E94652031103A94F1E093
:103EA0004F1A51084114510471F7E5C0843611F0DE
:103EB000893639F5F80127FF07C060817181828159
:103EC00093810C5F1F4F08C060817181072E000C29
:103ED000880B990B0E5F1F4F2F76722E97FF09C02C
:103EE00090958095709561957F4F8F4F9F4F20687B
:103EF000722E2AE030E0A4010E949D20A82EA8186E
:103F000044C0853729F42F7EB22E2AE030E025C048
:103F1000F22FF97FBF2E8F36C1F018F4883579F073
:103F2000B4C0803719F0883721F0AFC02F2F20613F
:103F3000B22EB4FE0DC08B2D8460B82E09C024FFB4
:103F40000AC09F2F9660B92E06C028E030E005C059
:103F500020E130E002C020E132E0F801B7FE07C006
:103F600060817181828193810C5F1F4F06C06081E7
:103F7000718180E090E00E5F1F4FA4010E949D20A0
:103F8000A82EA818FB2DFF777F2E76FE0BC0372DAD
:103F90003E7FA51450F474FE0AC072FC08C0372D91
:103FA0003E7E05C0BA2C372D03C0BA2C01C0B52CFB
:103FB00034FF0DC0FE01EA0DF11D8081803311F444
:103FC000397E09C032FF06C0B394B39404C0832F76
:103FD000867809F0B39433FD13C030FF06C05A2C25
:103FE000B31418F4530C5B18B32CB31468F4B70172
:103FF00080E290E03C870E946520B3943C85F5CF39
:10400000B31410F43B1801C0312C34FF12C0B701B7
:1040100080E390E03C870E9465203C8532FF17C01A
:1040200031FD03C088E790E002C088E590E0B70169
:104030000CC0832F867859F031FF02C08BE201C09B
:1040400080E237FD8DE2B70190E00E946520A51463
:1040500038F4B70180E390E00E9465205A94F7CFCE
:10406000AA94F401EA0DF11D8081B70190E00E944D
:104070006520A110F5CF332009F451CEB70180E2BD
:1040800090E00E9465203A94F6CFF70186819781EF
:1040900002C08FEF9FEF2C96E2E10C941721FC01F8
:1040A0000590615070400110D8F7809590958E0F63
:1040B0009F1F0895FC016150704001900110D8F7D6
:1040C000809590958E0F9F1F08950F931F93CF9308
:1040D000DF93FB01238121FD03C08FEF9FEF28C0F9
:1040E00022FF16C04681578124813581421753072C
:1040F00044F4A081B1819D012F5F3F4F3183208324
:104100008C93268137812F5F3F4F3783268310C0E2
:10411000EB01092F182F0084F185E02D0995892BDB
:10412000E1F68E819F8101969F838E83812F902F50
:10413000DF91CF911F910F910895FA01AA2728309E
:1041400051F1203181F1E8946F936E7F6E5F7F4F64
:104150008F4F9F4FAF4FB1E03ED0B4E03CD0670FE0
:10416000781F891F9A1FA11D680F791F8A1F911D33
:10417000A11D6A0F711D811D911DA11D20D009F483
:1041800068943F912AE0269F11243019305D3193C5
:10419000DEF6CF010895462F4770405D4193B3E0AE
:1041A0000FD0C9F7F6CF462F4F70405D4A3318F055
:1041B000495D31FD4052419302D0A9F7EACFB4E006
:1041C000A6959795879577956795BA95C9F70097BE
:1041D0006105710508959B01AC010A2E069457955F
:1041E000479537952795BA95C9F7620F731F841FB6
:1041F000951FA01D08952F923F924F925F926F924C
:104200007F928F929F92AF92BF92CF92DF92EF9266
:10421000FF920F931F93CF93DF93CDB7DEB7CA1BE7
:10422000DB0B0FB6F894DEBF0FBECDBF09942A8812
:10423000398848885F846E847D848C849B84AA84BA
:10424000B984C884DF80EE80FD800C811B81AA8147
:10425000B981CE0FD11D0FB6F894DEBF0FBECDBF12
:10426000ED01089511E0CCE1D1E004C0FE010E940F
:0E427000C31D2196CD31D107C9F7F894FFCFB9
:10427E00AF04000000000000000000005F0000001E
:10428E000000000007000700000000147F147F14D8
:10429E00000000242A7F2A12000000231308646203
:1042AE0000000036495522500000000005030000B2
:1042BE000000001C2241000000000041221C0000F2
:1042CE00000000082A1C2A0800000008083E080802
:1042DE00000000A0600000000000000808080808A8
:1042EE0000000060600000000000002010080402C2
:1042FE000000003E5149453E00000000427F400054
:10430E0000000062514949460000002241494936E9
:10431E000000001814127F10000000274545453993
:10432E000000003C4A4949300000000171090503B4
:10433E000000003649494936000000064949291E49
:10434E00000000003636000000000000AC6C0000DB
:10435E00000000081422410000000014141414146C
:10436E00000000412214080000000002015109065D
:10437E00000000324979413E0000007E0909097EA5
:10438E000000007F494949360000003E414141226C
:10439E000000007F4141221C0000007F4949494135
:1043AE000000007F090909010000003E41415172E1
:1043BE000000007F0808087F000000417F410000D8
:1043CE000000002040413F010000007F0814224100
:1043DE000000007F404040400000007F020C027F42
:1043EE000000007F0408107F0000003E4141413E66
:1043FE000000007F090909060000003E4151215EC0
:10440E000000007F0919294600000026494949325B
:10441E0000000001017F01010000003F4040403FCD
:10442E000000001F2040201F0000003F4038403F8A
:10443E0000000063140814630000000304780403F2
:10444E0000000061514945430000007F41410000DA
:10445E00000000020408102000000041417F00000F
:10446E0000000004020102040000008080808080B1
:10447E000000000102040000000000205454547893
:10448E000000007F484444380000003844442800AF
:10449E00000000384444487F00000038545454183B
:1044AE00000000087E09020000000018A4A4A47CED
:1044BE000000007F08040478000000007D0000006A
:1044CE0000000080847D00000000007F1028440062
:1044DE00000000417F4000000000007C04180478BA
:1044EE000000007C08047C000000003844443800C2
:1044FE00000000FC24241800000000182424FC00F6
:10450E00000000007C080400000000485454240001
:10451E00000000047F4400000000003C40407C008E
:10452E000000001C2040201C0000003C4030403C9D
:10453E0000000044281028440000001CA0A07C00AD
:10454E000000004464544C44000000083641000052
:10455E00000000007F00000000000041360800004F
:10456E000000000201010201000000020505020028
:10457E0000004750524D43004750474741004E0000
:10458E004E4E4500454E450045534500535345009C
:10459E0053005353570057535700574E57004E4E24
:1045AE0057004F4E200041542B434950434C4F531C
:1045BE00450D0A0041542B43495053544152543D2A
:1045CE0022554450222C223139322E3136382E3893
:1045DE002E323535222C3131303030004F4B0062C7
:1045EE006567696E206770732053657269616C0030
:1045FE0041542B43495053454E443D33320D0A002E
:10460E003E0023303D002C003B006C696E6B206930
:10461E0073206E6F742076616C69640025640020CF
:10462E00202020202020202020202020202020207C
:10463E002020202020006D61783A20006C6F773AA0
:10464E0020006974656D703A200074656D703A20B3
:10465E000000000000111235167D12F01165129542
:10466E001200000000EE1435166F1489147B14CC62
:10467E00146E616E00696E66006F7666002E000025
:00000001FF
