:100000000C940D010C94421B0C946F1B0C94151551
:100010000C9415150C9415150C9435010C943501A0
:100020000C9435010C9435010C9435010C94350178
:100030000C9435010C9435010C9435010C94350168
:100040000C949C1B0C9435010C94C7170C94F91755
:100050000C9435010C9435010C9435010C94350148
:100060000C9435010C943501DA04E704EB04F10437
:10007000F7040C0515051C0521052705270527058F
:100080002705270527052705270527052705270510
:100090002705270527052705270527052705270500
:1000A0002705270527052705DA04E004E704EB0404
:1000B000F104F704FD0401050605005EBCE2613FA2
:1000C000DD83C29C7E20A3FD1F419DC3217FFCA236
:1000D000401E5F01E3BD3E6082DC237D9FC1421C68
:1000E000FEA0E1BF5D0380DE3C62BEE0025CDF811A
:1000F000633D7C22C09E1D43A1FF4618FAA42779C8
:100100009BC584DA3866E5BB5907DB856739BAE4F5
:1001100006581947A5FB7826C49A653BD987045A27
:10012000B8E6A7F91B45C6987A24F8A6441A99C7D9
:10013000257B3A6486D85B05E7B98CD2306EEDB387
:10014000510F4E10F2AC2F7193CD114FADF3702EB5
:10015000CC92D38D6F31B2EC0E50AFF1134DCE90E7
:10016000722C6D33D18F0C52B0EE326C8ED0530D99
:10017000EFB1F0AE4C1291CF2D73CA947628ABF547
:1001800017490856B4EA6937D58B5709EBB5366875
:100190008AD495CB2977F4AA4816E9B7550B88D6A7
:1001A000346A2B7597C94A14F6A8742AC896154B59
:1001B000A9F7B6E80A54D7896B3500000008000299
:1001C000010000030407000000000000000001021D
:1001D00004081020408001020408102001020408D5
:1001E00010200404040404040404020202020202B3
:1001F000030303030303000000002300260029007B
:1002000000000000250028002B0000000000240052
:1002100027002A000E132918C31311241FBECFEF85
:10022000D8E0DEBFCDBF15E0A0E0B1E0E4E8F7E440
:1002300002C005900D92A037B107D9F728E0A0E7DA
:10024000B5E001C01D92A636B207E1F711E0CCE09F
:10025000D1E004C02197FE010E940620CA30D107D8
:10026000C9F70E9458180C94B5230C940000FC01A7
:1002700010821182138212821482158216821782D2
:1002800010861286118613861486158616861786A2
:10029000118A108A128A138A148A158A168A108E75
:1002A000178A118E128E138E148E158E12A213A21F
:1002B00014A215A216A217A210AA11AA12AA13AA72
:1002C00014AA15AA16AE17AEDC01DE9616961D927C
:1002D0001D921D921C9219971E961C9211961C92AB
:1002E000119716961D921D921D921C9219971E969B
:1002F0001C9211961C92119716961D921D921D929A
:100300001C9219971E961C9211961C921197169684
:100310001D921D921D921C9219971E961C92119669
:100320001C92119716961D921D921D921C92199760
:100330001E961C9211961C92509682E08C931196F8
:100340001C9211961C9211961C92119611961C9259
:100350001E92129611961C921E9212961D921D923A
:100360001D921C92139714961D921D921D921C9221
:10037000139714961D921D921D921C92139714961A
:100380001D921D921D921C921397EA57FF4F1082E7
:1003900008952FEB260F862F90E0263010F4C79794
:1003A00008956156663018F4875591090895C097ED
:1003B0000895FF920F931F93CF93DF93EC01FF24D7
:1003C000F39488818D3211F0F12C01C02196CE0179
:1003D0000E9442209B01AC01A4E6B0E00E940C20E8
:1003E000FE014991242F30E0205331092A30310594
:1003F000B8F34E3221F5218130E0205331092A3003
:100400003105E8F44AE0429F8001439F100D11241A
:10041000012E000C220B330B600F711F821F931FE4
:10042000028110E0005311090A30110540F4012E39
:10043000000C220B330B600F711F821F931FFF20D4
:1004400039F090958095709561957F4F8F4F9F4FB4
:10045000DF91CF911F910F91FF9008952F923F92BE
:100460004F925F926F927F928F929F92AF92BF92C4
:10047000CF92DF92EF92FF920F931F93CF93DF9370
:10048000D82FC92F8B010E94422024E630E040E0A3
:1004900050E00E94C51F49015A019B01AC0160E870
:1004A00076E988E990E00E94A11F6B017C01F801C8
:1004B00091828082ED2FFC2F2191822F90E0C097B6
:1004C0000A97D0F32E3229F51F0180E8882E86E99D
:1004D000982E88E9A82EB12C9AE0492E512C612C37
:1004E000712CF101C1911F01D0E0E097CA30D10514
:1004F00080F4C501B401A30192010E94C51F490106
:100500005A01DE010E941720C60ED71EE81EF91EF2
:10051000E8CFA5E0B0E0A70196010E940C206F5F34
:100520007F4F8F4F9F4F23E030E040E050E00E942C
:10053000C51FF80122833383448355831682DF91DC
:10054000CF911F910F91FF90EF90DF90CF90BF90D0
:10055000AF909F908F907F906F905F904F903F9063
:100560002F900895CF93DF93EC0187E0FE01709602
:10057000DE01129601900D928A95E1F787E0FE0167
:100580007796DE01199601900D928A95E1F70E9407
:10059000E61B6E8F7F8F88A399A381E08983888370
:1005A000DF91CF910895CF92DF92EF92FF92CF9398
:1005B000DF93EC0119826A817B8180E090E00E94E8
:1005C000781E6B017C016C817D818E819F810E94F0
:1005D000781E28E23BE64EE65EE40E94D01D9B01B9
:1005E000AC01C701B6010E945F1D288521119058FA
:1005F000DF91CF91FF90EF90DF90CF900895CF9251
:10060000DF92EF92FF92CF93DF93EC01198269851D
:100610007A8580E090E00E94781E6B017C016B85FA
:100620007C858D859E850E94781E28E23BE64EE6FD
:100630005EE40E94D01D9B01AC01C701B6010E947F
:100640005F1D2F8521119058DF91CF91FF90EF9082
:10065000DF90CF900895CF93DF93EC018E819F813F
:10066000A885B9858A839B83AC83BD830E94E61BE2
:100670006A877B878C879D8781E089838883DF9168
:10068000CF910895CF93DF93EC018E819F81A88550
:10069000B9858A839B83AC83BD830E94E61B6A87EE
:1006A0007B878C879D8781E089838883DF91CF91C9
:1006B0000895CF93DF93EC01CB010E94D9016E83A3
:1006C0007F8388879987DF91CF910895CF93DF93B8
:1006D000EC01CB010E9442206E837F83888799873B
:1006E000DF91CF910895CF93DF93EC018A859B85AD
:1006F000AC85BD858E839F83A887B9870E94E61B42
:100700006A837B838C839D8381E089838883DF91E7
:10071000CF910895CF93DF93EC01CB010E94D901D3
:100720006A877B878C879D87DF91CF910895CF93D0
:10073000DF93EC018A859B85AC85BD858E839F8385
:10074000A887B9870E94E61B6A837B838C839D837D
:1007500081E089838883DF91CF910895CF93DF93E0
:10076000EC01CB010E9442206A877B878C879D87A2
:10077000DF91CF910895CF93DF93EC01BC014096B8
:100780000E9472200E94E61B68A379A38AA39BA300
:1007900081E08DA38CA3DF91CF91089540E150E0DB
:1007A0000C947920BF92CF92DF92EF92FF920F9339
:1007B0001F93CF93DF93EC01FC01EB57FF4FB08009
:1007C000BB2009F499C0319660810E94C901182F9D
:1007D000FE01E957FF4F6081CE010E94C90140E14F
:1007E000149F800D1124FE01EC57FF4F9081891357
:1007F00074C0B59680819181A281B3810196A11DBB
:10080000B11D80839183A283B3838E0108561F4F4D
:10081000D8018C91882361F0389780819181A281E1
:10082000B3810196A11DB11D80839183A283B383FF
:10083000FE01EB56FF4F80818823C9F0813089F596
:10084000CE0182960E942B03CE01C0960E944203E5
:10085000F8018081882329F1CE010E94B202CE01E5
:10086000CE960E947303CE01845B9F4F18C0CE01C9
:10087000C0960E944203D8018C91882341F0CE019A
:100880000E94B202CE01865A9F4F0E947303CE018E
:1008900088599F4F0E949703CE018A589F4F0E940C
:1008A00073038E0105561F4FF801C081D181209737
:1008B00009F403C1D801ED91FC9166A177A18EA145
:1008C0009FA10E946920892B09F0F7C0CE010E94E8
:1008D000BB030AA4DBA5C02DEACFCB55DF4F88812F
:1008E0009981AA81BB810196A11DB11D888399833D
:1008F000AA83BB83B12CE1C07C01B6E9EB0EF11CED
:10090000F70130818B569F4F6C018E0105561F4FAA
:10091000311135C07E0196E8E90EF11C63E074E008
:10092000C7010E946920892B11F481E00BC069E0A6
:1009300074E0C7010E946920892B19F4F601108226
:1009400003C082E0D6018C93C756DF4F888199811E
:10095000F80191838083F801C081D181209709F447
:10096000ACC0CEA0DFA0B701C6010E94692097FFEE
:100970009AC08AA59BA5D8018D939C93ECCFDC01EE
:10098000EC91E23009F463C0CE018A579F4FDC013D
:100990002C91222309F45BC0B0E2EB9FF0011124FB
:1009A000E32B3197E932F10508F051C0EC5CFF4FC1
:1009B0000C940620BC01CE01C0960E94590347C08A
:1009C000FE01E856FF4F81E0213461F52CC0BE01E5
:1009D000605F7F4F09C081E0233509F080E08E8B96
:1009E00036C0BE01695E7F4F0E942E0230C081E09A
:1009F000273509F080E08D8F2AC0BC01CE01CE964C
:100A000024C0BC01CE01845B9F4F1FC0BC01CE013E
:100A100082960E9466031BC0FE01E856FF4F81E0EC
:100A2000213308F480E0808312C0BC01CE018859D4
:100A30009F4F0E94AE030BC0BC01CE018A589F4F4E
:100A400004C0BC01CE01865A9F4F0E948A03F80160
:100A5000C080D180CA57DF4FC114D10471F1D801D1
:100A6000ED91FC9166A177A1F60186A197A10E9464
:100A70006920892B11F5D60198962D913C91999773
:100A8000F701808190E082179307BCF0281739079F
:100A900021F4BE01C6010E94CE03D6019A96CD90E4
:100AA000DC909B97D9CFB701C6010E946920181628
:100AB00019061CF4D8011D921C928B2DDF91CF9149
:100AC0001F910F91FF90EF90DF90CF90BF9008950E
:100AD000DF92EF92FF920F931F93CF93DF939C01CE
:100AE000FC01E356FF4F80819181A281B381019681
:100AF000A11DB11D80839183A283B383890109560F
:100B00001F4FC9018B579F4F7C01643279F128F444
:100B10006A3069F06D30E1F50AC06A3241F06C323A
:100B2000B9F5F901EC57FF4F808186278083D62ED7
:100B3000E901F80180818F3050F4F901E80FF11DCF
:100B4000EA57FF4F1082C9010E94D20301C080E022
:100B5000CA56DF4F98819F5F9883F801108291E019
:100B6000FAE2DF1290E0F70190832BC0F8011082C7
:100B7000F901EA56FF4F108272971082719682E057
:100B80008083F7011082F901E856FF4F108218C0E8
:100B9000F80180818E3048F491E0980F9083F9013C
:100BA000E80FF11DEA57FF4F6083F7018081811143
:100BB00007C0F901EC57FF4F90816927608301C09E
:100BC00080E0DF91CF911F910F91FF90EF90DF9028
:100BD00008950895FC0189EE95E0928B818B7683D0
:100BE00065831482108289E0818381E0828383831C
:100BF0000895FC0184810895CF93DF93EB0167E0B2
:100C0000CE010E94DF0A91E02F81821390E0892FAC
:100C1000DF91CF910895EF92FF920F931F93CF939F
:100C2000DF938C017B01D42FFC01858196810E948A
:100C30001E0AC0E0B701F801858196810E944F0A23
:100C4000882359F0CD1306C0B701C8010E94FC05E6
:100C5000811104C0CF5FDC1768F780E0DF91CF918E
:100C60001F910F91FF90EF900895EF92FF920F93D5
:100C70001F93CF93DF9300D0CDB7DEB77C018A01FD
:100C8000FC018581968169837A830E94F2086981DB
:100C90007A81F701858196810E94ED0940E06EEB33
:100CA000F701858196810E948F09F70185819681E0
:100CB0000E94D109F8018083F701858196810E9405
:100CC000D109F8018183F701858196810E94D109BC
:100CD000F8018283F701858196810E94D109F8018C
:100CE0008383F701858196810E94D109F80184836D
:100CF000F701858196810E94D109F8018583F7016A
:100D0000858196810E94D109F8018683F70185814A
:100D100096810E94D109F8018783F7018581968128
:100D20000E94D109F8018087F701858196810F9093
:100D30000F90DF91CF911F910F91FF90EF900C9446
:100D4000F208CF93DF93EA010E94350668E0CE01F6
:100D50000E94DF0A91E02885821390E0892FDF91BD
:100D6000CF910895EF92FF921F93CF93DF9300D01E
:100D7000CDB7DEB77C01FC018581968169837A83DA
:100D80000E94F20869817A81F701858196810E942B
:100D9000ED0940E064EBF701858196810E948F099F
:100DA000F701858196810E946409182FF7018581DA
:100DB00096810E94F20881E0111180E00F900F905F
:100DC000DF91CF911F91FF90EF900895CF93DF9324
:100DD000CDB7DEB729970FB6F894DEBF0FBECDBFF3
:100DE000FB0120812031D9F0AE014F5F5F4F0E949F
:100DF000A106882381F08D818F3359F018F48F314B
:100E000071F009C08F3519F08F3739F004C08BE0CD
:100E100007C08AE005C080E003C08CE001C089E023
:100E200029960FB6F894DEBF0FBECDBFDF91CF91EC
:100E30000895EF92FF920F931F93CF93DF93CDB757
:100E4000DEB761970FB6F894DEBF0FBECDBF8C0141
:100E5000FC01858196810E941E0AF8011482FF24FC
:100E6000F394BE01665F7F4FF801858196810E94F1
:100E70004F0A8823C9F1BE01665F7F4FC8010E94F7
:100E8000FC05882371F3F8018081811108C0BE013F
:100E9000665F7F4FC8010E94B206811122C0AE0179
:100EA0004F5F5F4FBE01665F7F4FC8010E943506EE
:100EB000F801E180BE01665F7F4FC8010E94E6062F
:100EC0008E1518F4F801818106C0BE01665F7F4F60
:100ED000C8010E94E606F801818384818F5F8483C4
:100EE000C0CFF801F082DBCF61960FB6F894DEBF79
:100EF0000FBECDBFDF91CF911F910F91FF90EF906B
:100F00000895CF93DF93CDB7DEB729970FB6F89446
:100F1000DEBF0FBECDBFAE014F5F5F4F0E943506F3
:100F200081E09981911101C080E029960FB6F89473
:100F3000DEBF0FBECDBFDF91CF910895CF92DF927C
:100F4000EF92FF920F931F93CF93DF93EC018B01EE
:100F5000452BF1F08B818823D9F08881811118C04D
:100F60000E94E61B6B017C0160E070E0CE010E94F4
:100F7000810781110DC00E94E61BAB01BC014C1919
:100F80005D096E097F094E3E52406105710560F3AF
:100F9000F80180818A3049F08B3061F0893079F432
:100FA0006EE570E080E090E00EC06CEB70E080E0F9
:100FB00090E009C067E771E080E090E004C06EEE69
:100FC00072E080E090E0DF91CF911F910F91FF9050
:100FD000EF90DF90CF900C94171CCF93DF93EC0130
:100FE0008D819E810E94F2088D819E810E941A0A45
:100FF000488164E48D819E810E948F098A818823C3
:1010000051F0BE016F5F7F4F40E050E0CE01DF91B5
:10101000CF910C949E07DF91CF9108954F925F92EC
:101020006F927F928F929F92AF92BF92FF92CF93D7
:10103000DF93FB01EA018981682F70E0762F662734
:101040008881682B80818232B1F18832A1F18031B0
:1010500009F078C0FF8075956795072E000C880B06
:10106000990B0E947A1E20E030E040E85EE30E9487
:101070005E1D4B015C018F2D90E02E81821B91093A
:10108000BC01990F880B990B0E947A1E2B013C0121
:101090006F2D70E080E090E00E94781E9B01AC0113
:1010A000C301B2010E94D01D9B01AC01C501B40176
:1010B0000E945F1D43C08C818F3381F198F48F3182
:1010C00009F040C093E0759567959A95E1F7072E72
:1010D000000C880B990B0E947A1E20E030E040E063
:1010E0005FE32AC08F3569F08F3761F5072E000C5A
:1010F000880B990B0E947A1E20E030E040E85DE307
:101100001BC075956795072E000C880B990B0E94E4
:101110007A1E20E030E040E05EE30EC075956795F2
:1011200075956795072E000C880B990B0E947A1E07
:1011300020E030E040E85EE30E942F1F262F572F6B
:10114000482F392F622F752F842F932FDF91CF9146
:10115000FF90BF90AF909F908F907F906F905F9027
:101160004F900895EF92FF920F931F93CF93DF93C9
:10117000CDB7DEB729970FB6F894DEBF0FBECDBF4F
:101180008C017B01AE014F5F5F4F0E94A106882357
:1011900041F0AE014F5F5F4FB701C8010E940E08DA
:1011A00004C060E070E08EEF92EC29960FB6F894E0
:1011B000DEBF0FBECDBFDF91CF911F910F91FF908A
:1011C000EF900895FC018081089526E636E646EE0C
:1011D0005FE30E942F1F20E030E040E052E40E94D5
:1011E0005F1D0895FF920F931F93CF93DF93FC0130
:1011F0000081C181D281F8948981F02EF0948F21F1
:10120000898378941DE7115029F182E090E00E94D3
:101210003F1C88818023B9F3F8948A818F218A83C7
:101220008981802B8983789480EE91E00E943F1C15
:10123000F8948981F822F98286E490E00E943F1CAC
:101240008881082311E009F010E078948AE991E0A0
:101250000E943F1C812FDF91CF911F910F91FF9032
:1012600008951F93CF93DF93FC011081C181D28138
:10127000812F809560FF12C0F8949A8189238A8318
:101280008981812B89838AE090E00E943F1C8A81BA
:10129000182B1A83789487E390E011C0F8949A8110
:1012A00089238A838981812B898381E490E00E944C
:1012B0003F1C8A81182B1A83789485E090E0DF9197
:1012C000CF911F910C943F1C0F931F93CF93DF93EB
:1012D000FC011081C181D281F8948981812B89839D
:1012E0008A81012F009580238A8383E090E00E9409
:1012F0003F1C8981082309838AE090E00E943F1CFB
:10130000C881789485E390E00E943F1C1C2381E013
:1013100009F480E0DF91CF911F910F910895CF9252
:10132000DF92EF92FF920F931F93CF93DF931F9261
:10133000CDB7DEB76C01E62E08E010E0FF24F39491
:1013400061E08F2D8E2109F460E0C60149830E947F
:101350003109FF0C0150110949810115110581F76F
:10136000411115C0F894D6011196ED91FC91129798
:1013700091818C918095892381831196ED91FC91C7
:10138000129792818C9180958923828378940F9013
:10139000DF91CF911F910F91FF90EF90DF90CF9051
:1013A0000895EF92FF920F931F93CF93DF937C01E9
:1013B00008E010E0C0E0D1E0C7010E94640981119B
:1013C000CD2BDD0F01501109B9F78C2FDF91CF9193
:1013D0001F910F91FF90EF900895CF92DF92EF92BF
:1013E000FF920F931F93CF93DF931F92CDB7DEB77A
:1013F0008C01F62E40E065E579830E948F09CF2CA1
:101400007981D72E760188E0E80EF11CF601619112
:101410006F0140E0C8010E948F09CE14DF04B1F7CC
:101420000F90DF91CF911F910F91FF90EF90DF9080
:10143000CF90089540E06CEC0C948F09FC0113866A
:1014400015861486DC011B9633961E92AE17BF07D5
:10145000E1F708950F931F93CF938C01C62F60E09F
:101460008C2F0E94C91C6C2F70E0FB01E253FE4FD1
:10147000E491D801EC93FB01EE51FE4FE491F0E0D2
:10148000EE0FFF1FEA50FE4F85919491F801928371
:101490008183C801CF911F910F910C941E0AAF92C6
:1014A000BF92CF92DF92EF92FF920F931F93CF9351
:1014B000DF931F92CDB7DEB75C01D62EE72EFC017D
:1014C0008585811105C0C5010E94F208811106C001
:1014D000F50113861586148680E065C040E060EF54
:1014E000C5010E948F0901E0F12CC12C11E0C5015A
:1014F0000E946409682FC50169830E94640969819B
:10150000613019F48130B9F433C04F2D50E06813C5
:101510001BC0F5018385181730F4E40FF51F838194
:10152000802349F402C0181731F060E0193058F4F4
:10153000F501148708C0F501EF0DF11D8381802BA3
:10154000838361E009C0C12EF501E40FF51F93818B
:10155000802F809589238383C5010E9431091F5FF5
:10156000000F11F4F39401E0F7E0FF1508F0BFCF8E
:10157000113408F4ADCFF501C386C11002C081E07B
:101580008587F5018381882309F4A2CFD5011396BD
:10159000ED2DFE2D9501255F3F4F8D918193A21773
:1015A000B307D9F781E00F90DF91CF911F910F9191
:1015B000FF90EF90DF90CF90BF90AF900895DC0147
:1015C000E0E0615038F08D91E827F0E0E654FF4FFD
:1015D000E491F7CF8E2F089580917A05882339F012
:1015E000813069F460E082E00E94051D08C061E07E
:1015F00082E00E94051D81E080937A050895109293
:101600007A050895449A459A81E08093B90080E272
:101610008093B80084E08093BC0008958FEF90E041
:101620002091BC0027FD0EC00197D1F71092BC009D
:101630008091760790917707019690937707809332
:101640007607089508950F931F93CF93DF931F920A
:10165000CDB7DEB70CEB10E094EAF80190838983F4
:101660000E940E0B89818093BB0084E8F80180837F
:101670000F90DF91CF911F910F910C940E0B8093DF
:10168000BB0084E88093BC000C940E0BCF93DF93D7
:1016900000D0CDB7DEB7880F4A8369830E94230B41
:1016A0006981862F0E943F0B4A81842F0E943F0B45
:1016B00084E98093BC000F900F90DF91CF91089543
:1016C00092E09093B800482F60E88CE30C94460BAE
:1016D0008EEA0E94600B8EE20E94600B84EA0E94F8
:1016E000600B62E370E080E090E00E94171C80E2F3
:1016F0000E94600B82E00E94600B81EA0E94600BF6
:1017000088EC0E94600B86EA0E94600B81E80E94D0
:10171000600B8FEF0E94600B64E170E080E090E06E
:101720000E94171C8FEA0E94600B64E170E080E069
:1017300090E00C94171CCF93C62F80550E94600B2D
:101740008C2F880F880F880F88700E94600B28E00C
:10175000C29FC001112424E0959587952A95E1F751
:101760008F70805FCF910C94600B92E09093B800E3
:10177000482F60E48CE30C94460B0F931F93CF9398
:10178000DF93EC0188818823D9F000E010E08881A4
:10179000F80198E0899FE00DF11D1124EE5FFF4FE5
:1017A00080810E94B50B61E070E080E090E00E94D3
:1017B000171C0F5F1F4F0830110549F72196E2CF24
:1017C000DF91CF911F910F9108950F931F93CF93A6
:1017D000DF93CDB7DEB72A970FB6F894DEBF0FBE02
:1017E000CDBF80917705811137C0809165078F93B8
:1017F000809164078F9389E394E09F938F938E0188
:101800000F5F1F4F1F930F930E94CD2061E087E071
:101810000E949B0BC8010E94BD0B809164079091B0
:101820006507019690936507809364070F900F906A
:101830000F900F900F900F908A30910531F48091A6
:1018400068068F5F8093680609C084369105B9F3F6
:10185000883E934019F4F3CF109277052A960FB67D
:10186000F894DEBF0FBECDBFDF91CF911F910F91D6
:101870000895CF93DF93C0E060E08C2F0E949B0B14
:10188000D0E080E00E94B50BDF5FD038D1F7CF5FAA
:10189000C83091F7DF91CF91089585E00E94351D02
:1018A00021E030E0892B11F020E030E03093760524
:1018B0002093750588E00E94351D21E0892B09F0F1
:1018C00020E0822F90E090937405809373058091BF
:1018D0007205813091F130F0823009F458C08330C4
:1018E00099F068C08091750590917605892B39F043
:1018F00080917805813019F081E080937205222370
:1019000009F45AC083E016C080917805813031F423
:1019100092E0909378058093790502C01092780543
:101920000E94390C8091730590917405892B09F4FC
:1019300041C082E08093720508958093790580917B
:101940007805843061F483E08093780561E081E07C
:101950000E949B0B8CE394E00E94BD0B13C061E0DE
:1019600081E00E949B0B82E295E00E94BD0B61E04A
:1019700081E00E949B0B89E494E00E94BD0B84E00F
:10198000809378058091750590917605CFCF8091F1
:10199000750590917605892B11F41092720561E01E
:1019A00082E00E94051D8091730590917405892B3A
:1019B00009F008951092720508955F926F927F92D8
:1019C0008F929F92AF92BF92CF92DF92EF92FF924F
:1019D0000F931F93CF93DF93CDB7DEB72A970FB640
:1019E000F894DEBF0FBECDBF3B014C0120E030E0DC
:1019F00048EC52E40E94D01D20E030E040E85FE374
:101A00000E942A1F7301840187FD1EC0D12C20E093
:101A100030E048EC52E4B701C8010E942A1F1816B2
:101A200064F420E030E048EC52E4B701C8010E94C1
:101A30005E1D7B018C01D394EACF80E38D0D8983F9
:101A4000CC24C394D12C02C0C12CD12C20E030E096
:101A500040E251E4B701C8010E94D01D20E030E00F
:101A600040E85FE30E942A1F87FD1DC0B12C20E0E3
:101A700030E040E251E4B701C8010E942A1F87FD0F
:101A80000CC020E030E040E251E4B701C8010E9400
:101A90005E1D7B018C01B394EACFFE01EC0DFD1DB0
:101AA00080E38B0D04C0FE01EC0DFD1D80E38183FE
:101AB0008FEFC81AD80A20E030E0A901B701C801A9
:101AC0000E942A1F87FD20C0B12C20E030E040E8B2
:101AD0005FE3B701C8010E942A1F87FD0CC020E008
:101AE00030E040E85FE3B701C8010E945E1D7B0162
:101AF0008C01B394EACFFE01EC0DFD1D80E38B0D4C
:101B000081838FEFC81AD80AE1E0F0E0EC0FFD1FE7
:101B1000EC0DFD1D8EE2808356018FEFA81AB80AE6
:101B20002DEC3CEC4CEC5DE3B701C8010E942A1F90
:101B300087FD1DC0512C2DEC3CEC4CEC5DE3B70156
:101B4000C8010E945E1D7B018C0153942DEC3CEC7E
:101B50004CEC5DE30E942A1F87FFEDCFE1E0F0E04F
:101B6000EC0FFD1FEA0DFB1D80E3850D07C0E1E0D2
:101B7000F0E0EC0FFD1FEA0DFB1D80E3808382E0A7
:101B8000C80ED11C2AE037ED43E25CE3B701C8017F
:101B90000E942A1F87FD1DC0B12C2AE037ED43E2C9
:101BA0005CE3B701C8010E945E1D7B018C01B39408
:101BB0002AE037ED43E25CE30E942A1F87FFEDCF66
:101BC000E1E0F0E0EC0FFD1FEC0DFD1D80E38B0D5F
:101BD000808320E030E048EC52E4B301C4010E946D
:101BE000CB1D87FD1E8261E070E080E090E00E94E6
:101BF000171CCE0101962A960FB6F894DEBF0FBED1
:101C0000CDBFDF91CF911F910F91FF90EF90DF90AB
:101C1000CF90BF90AF909F908F907F906F905F908C
:101C200008958F929F92AF92BF92CF92DF92EF92E0
:101C3000FF9280917805823019F138F4882309F4F5
:101C4000D3C0813009F408C105C18330D9F1843093
:101C500009F000C167E082E00E949B0B60916A0777
:101C600070916B0780916C0790916D070E94DD0C5D
:101C70008093410790934207DC01E7E3F7E049C016
:101C800061E081E00E949B0B8CE394E00E94BD0B1D
:101C900061E082E00E949B0B8DE395E00E94BD0B0A
:101CA00061E084E00E949B0B87E395E00E94BD0BFE
:101CB00061E085E00E949B0B81E395E00E94BD0BF3
:101CC00083E0C5C067E082E00E949B0B60916607DD
:101CD0007091670780916807909169070E94DD0CF9
:101CE0008093410790934207DC01E7E3F7E08D9191
:101CF0008A3310F4808301C01082319687E0EE337E
:101D0000F807A9F70BC01082319687E0EE33F80789
:101D100029F08D918A33B8F78083F6CF87E397E077
:101D20000E94BD0B80906E0790906F07A090700787
:101D3000B0907107C0906607D0906707E090680781
:101D4000F0906907A7019601C501B4010E942A1FFE
:101D500018166CF020E030E0A901C501B4010E9422
:101D6000CB1D882321F080917905882381F0C092D2
:101D70006E07D0926F07E0927007F092710766E0ED
:101D800084E00E949B0B87E397E00E94BD0BC0900C
:101D90006607D0906707E0906807F0906907A70191
:101DA000960160917207709173078091740790910A
:101DB00075070E94CB1D87FD04C08091790588239B
:101DC00081F0C0927207D0927307E0927407F0928C
:101DD000750766E085E00E949B0B87E397E00E9411
:101DE000BD0B1092790538C00E94390C61E081E08A
:101DF0000E949B0B84E594E00E94BD0B61E082E0B1
:101E00000E949B0B81E694E00E94BD0B61E083E0A1
:101E10000E949B0B8DE694E00E94BD0B61E084E084
:101E20000E949B0B89E794E00E94BD0B61E085E076
:101E30000E949B0B84E894E00E94BD0B61E086E069
:101E40000E949B0B82E994E00E94BD0B81E080938D
:101E5000780502C010927805FF90EF90DF90CF9048
:101E6000BF90AF909F908F900895EF92FF920F9345
:101E70001F93CF93DF93CDB7DEB728970FB6F894B3
:101E8000DEBF0FBECDBF83E497E00E94190783E455
:101E900097E00E94F905E82EF12C83E497E00E9478
:101EA000E208882339F060EA74E08CEB97E00E9446
:101EB000A41804C083E497E00E94ED0700E010E05E
:101EC0000E151F0534F5402FBE016F5F7F4F83E471
:101ED00097E00E940B068823C9F0BE016F5F7F4F19
:101EE00083E497E00E94B20860936A0770936B07DF
:101EF00080936C0790936D070E94E50860936607D6
:101F00007093670780936807909369070F5F1F4F6F
:101F1000D7CF28960FB6F894DEBF0FBECDBFDF91A6
:101F2000CF911F910F91FF90EF900895CF93DF9382
:101F3000CDB7DEB728970FB6F894DEBF0FBECDBF82
:101F40000E94350F66E087E00E949B0B8EE00E94A6
:101F5000831C90936A0680936906883E934044F4FC
:101F600069E087E00E949B0B8FE295E00E94BD0B29
:101F700066E087E00E949B0B4AE050E0BE016F5F85
:101F80007F4F8091690690916A060E9488200E9486
:101F9000BD0B28960FB6F894DEBF0FBECDBFDF9104
:101FA000CF910895FC0180818E7F808380818D7F19
:101FB00080831582168217821086148E138E168ED9
:101FC000158E10A2178E118A128A138A148A089508
:101FD0000F931F93CF93DF93FC01A78DB0A11097B0
:101FE000C9F1EC01118A128A138A148A0788F08DCC
:101FF000E02D309759F1888181FD28C014960D910C
:102000001C9115971596DC93CE9314978881826066
:1020100088830995988180FB90F9988388818D7FCA
:102020008883EF8DF8A1158304830E94E61B098144
:102030001A812B813C81DC01CB01801B910BA20B0F
:10204000B30B8D839E83AF83B88704C08881816082
:102050008883EBCFDF91CF911F910F910895CF929D
:10206000DF92EF92FF920F931F93CF93DF93EC01D8
:102070006A017B01452B462B472B21F4C980DA806E
:10208000EB80FC800E94E61B09811A812B813C8138
:10209000DC01CB018C0D9D1DAE1DBF1D801B910B66
:1020A000A20BB30B8D839E83AF83B887DF91CF9153
:1020B0001F910F91FF90EF90DF90CF900895FC015A
:1020C000418352836383748340E050E0BA010C94EF
:1020D0002F10EF92FF920F931F93CF93DF931F92D6
:1020E000CDB7DEB7DC019C918C918E7F8C938C9167
:1020F0008D7F8C93892F817090FF1FC059962D91F1
:102100003C915A9721153105C1F07D015F960D90E4
:10211000BC91A02D14960D911C9115971596FC92CB
:10212000EE9214978983F9010995D7015F96ED9195
:10213000FC9190971583048389810F90DF91CF9153
:102140001F910F91FF90EF900895CF93DF93DC01E3
:10215000FB0190A3878F8D919C911197892B31F46E
:1021600011967C936E93148E138E08C01296CD91A7
:10217000DC911397D48FC38F7E8F6D8F168E158E43
:102180001396FC93EE931297DF91CF9108952F92BF
:102190003F924F925F926F927F928F929F92AF92F7
:1021A000CF92DF92EF92FF920F931F93CF93DF9323
:1021B00000D000D0CDB7DEB73C0118012901088D51
:1021C000198D49835A836B837C830E94D20F498186
:1021D0005A816B817C81C3010E945F10F3012186CB
:1021E000328643865486258636864786508AF68A06
:1021F000E58A908E878A128F018FC114D10421F055
:10220000B301C6010E94A510AA20C1F0C3010F901E
:102210000F900F900F90DF91CF911F910F91FF9032
:10222000EF90DF90CF90AF909F908F907F906F90C6
:102230005F904F903F902F900C94E80F0F900F906D
:102240000F900F90DF91CF911F910F91FF90EF9022
:10225000DF90CF90AF909F908F907F906F905F9026
:102260004F903F902F900895CF92DF92EF92FF9280
:102270000F931F93CF93DF93EC01888199819D8306
:102280008C838C819D81009709F45CC0FC012081C6
:1022900020FF53C04185528563857485452B462BAD
:1022A000472B19F40E94691048C00E94E61BEC817C
:1022B000FD81C180D280E380F48005811681278171
:1022C0003085AB01BC01401B510B620B730B4C15ED
:1022D0005D056E057F0588F14185528563857485AE
:1022E000141615061606170664F441855285638593
:1022F000748541505109610971094187528763878B
:10230000748741895289638974894F5F5F4F6F4F2A
:102310007F4F418B528B638B748BD901C8018C0D1D
:102320009D1DAE1DBF1D85839683A783B08705883D
:10233000F689E02D309709F00995EC81FD81858DB6
:10234000968D9DCFDF91CF911F910F91FF90EF90D0
:10235000DF90CF90089564EA74E08CEB97E00E94E0
:10236000B11864E670E080E090E00E94171C62EB18
:1023700074E08CEB97E00E94B11864E670E080E0B6
:1023800090E00E94171C6AED74E08CEB97E00E94CD
:10239000381B882301F361E081E10E94051D64EF91
:1023A00071E080E090E00E94171C60E081E10E94F3
:1023B000051D64EF71E080E090E00E94171C61E071
:1023C00081E10C94051D61E081E10E94C91C60E07F
:1023D00081E10E94051D61E082E00E94C91C61E06C
:1023E00082E00E94051D60E085E00E94C91C61E05A
:1023F00085E00E94051D61E083E00E94C91C60E049
:1024000083E00E94051D60E088E00E94C91C61E035
:1024100088E00E94051D60E08EE00E94C91C64E611
:1024200070E080E090E00E94171C40E855E260E018
:1024300070E08BE696E00E9413166DED74E08BE67B
:1024400096E00E94B11864E670E080E090E00E949F
:10245000171C26E040E056E960E070E08CEB97E066
:102460000E9467170E94AB110E94020B0E94680B2A
:102470006AE070E080E090E00E94171C0E94390C36
:1024800062E370E080E090E00E94171C80E20E940E
:10249000600B82E00E94600B86EA0E94600BA2E65D
:1024A000B6E015961C921E921497E1E4F6E0B0A3F4
:1024B000A78F1196FC93EE93148E138E168E158EA5
:1024C0001396FC93EE93129760E276E0CD010E94A2
:1024D000A5106FEF75E082E696E00E94A5106EED04
:1024E00075E082E696E00E94A5106DEB75E082E64D
:1024F00096E00E94A5106CE975E082E696E00E94E5
:10250000A5106BE775E082E696E00E94A51081E4D5
:1025100096E00E94E80F80E296E00E94E80F8FEFBD
:1025200095E00E94E80F8EED95E00E94E80F8DEB9C
:1025300095E00E94E80F8CE995E00E94E80F8BE798
:1025400095E00C94E80F6EEE74E08CEB97E00E943F
:10255000B1186EEF74E08CEB97E00E94381B882373
:1025600009F44CC060E075E08CEB97E00E94A41881
:1025700040916607509167076091680770916907FD
:1025800022E030E08CEB97E00E94481A64E075E0AE
:102590008CEB97E00E94A4188AE896E00E94D30290
:1025A000AB01BC0126E030E08CEB97E00E94481ABA
:1025B00064E075E08CEB97E00E94A4188AE896E04E
:1025C0000E94FF02AB01BC0126E030E08CEB97E0FB
:1025D0000E94481A66E075E08CEB97E00E94A41810
:1025E00060910001709101018CEB97E00E94A418AA
:1025F0006BEF74E08CEB97E00C94B11868E075E039
:102600008CEB97E00E94381B81110C94AB1108955C
:102610000C94A31282E696E00C9434118F929F9250
:10262000AF92CF92DF92EF92FF920F931F9369E0E8
:1026300086E597E00E942A0A66E577E083E497E062
:102640000E94EA058AE896E00E94370120E047E010
:1026500066E08BE696E00E94E815E2E6F6E011827D
:10266000108213821282158214821F921F92812C73
:10267000912CAA24A3946F018CEEE82E8AE0F82E08
:102680000FEF1FEF980148EE53E060E070E081E447
:1026900096E00E94C7101F921F9291E1E92E9EE0E2
:1026A000F92E0FEF1FEF980148EC50E060E070E06A
:1026B00080E296E00E94C7101F921F922DE4E22E46
:1026C0002CE0F22E0FEF1FEF98014AE050E060E09F
:1026D00070E08FEF95E00E94C7101F921F9235EEB9
:1026E000E32E3BE0F32E0FEF1FEF980148EE53E08F
:1026F00060E070E08EED95E00E94C7101F921F927F
:1027000047ECE42E43E1F42E0FEF1FEF980148EE63
:1027100053E060E070E08DEB95E00E94C7101F92DF
:102720001F9258E0E52E53E1F52E0FEF1FEF9801B1
:1027300048EE53E060E070E08CE995E00E94C7103D
:102740001F921F9266E9E62E6FE0F62E0FEF1FEF45
:10275000980148EE53E060E070E08BE795E00E945E
:10276000C7108DB79EB70E960FB6F8949EBF0FBEDA
:102770008DBF1F910F91FF90EF90DF90CF90AF90A2
:102780009F908F9008958BE696E00C948F15CF93D1
:10279000DF93CDB7DEB72A970FB6F894DEBF0FBE32
:1027A000CDBF8BE696E00E94AF141816190654F4BC
:1027B0008BE696E00E942214682F8AE896E00E9439
:1027C0006805EFCF6DE087E00E949B0B1092F30647
:1027D00048E050E0BE016F5F7F4F8091F806909116
:1027E000F9060E9488200E94BD0B1092F30680918A
:1027F000F8069091F906A091FA06B091FB060597AC
:10280000A105B105B0F08091700590917105892BFB
:1028100029F0109271051092700506C081E090E0D9
:1028200090937105809370056091700583E00E941C
:10283000051D2A960FB6F894DEBF0FBECDBFDF91FF
:10284000CF9108952091BA073091BB072817390717
:10285000B9F49091780780917907981789F0E09101
:102860007807F0E0E658F84F80812091780730E053
:102870002F5F3F4F2F7333272093780790E0089501
:102880008FEF9FEF08951F93CF93DF93DC015C964A
:102890002D913C915D972115310539F481E090E04F
:1028A00013969C938E9312973DC05196ED91FC9197
:1028B000529750969C915097892F80951FB75E969E
:1028C0004C915E9741FB772770F941FD6095F89434
:1028D0004081772311F0492B01C048234083E9014F
:1028E0002197F1F748E0508160FF02C0592B01C0E9
:1028F00058235083E9012197F1F76695415099F7E4
:10290000772321F090818923808303C08081982BD5
:1029100090831FBF5C968D919C915D970197F1F715
:1029200021E030E0C901DF91CF911F9108952091FE
:10293000BA073091BB072817390771F490917807CF
:1029400080917907981741F0E0917807F0E0E65818
:10295000F84F808190E008958FEF9FEF08952091C8
:10296000BA073091BB072817390771F480917907AE
:102970002091780790E0805C9F4F821B910960E472
:1029800070E00E94B11F089580E090E008952091CA
:10299000BA073091BB072817390739F48FB7F89475
:1029A00010927907109278078FBF0895E091BA07C7
:1029B000F091BB07E817F90769F4A389B4899C91E2
:1029C0008589809589238C931092BB071092BA0752
:1029D00081E0089580E00895CF93DF93EC018A8D24
:1029E0009B8D892BF1F08091BA079091BB078C17D2
:1029F0009D07B9F0009711F00E94D6148E8D8E7F3E
:102A00008E8F1092790710927807D093BB07C093EE
:102A1000BA07EB89FC8990818D89892B808381E0BD
:102A200001C080E0DF91CF9108951F920F920FB601
:102A30000F9211242F933F934F935F936F937F9344
:102A40008F939F93AF93BF93EF93FF93E091BA0758
:102A5000F091BB07309709F451C0968DA685B785D4
:102A6000858591FF04C09C91892329F447C09C91DE
:102A7000892309F043C0A389B4899C9185898095F5
:102A800089238C93868997890197F1F7608D718DE1
:102A9000A685B785558538E020E0CB010197F1F791
:102AA000822F90E095958795282F4C91452309F02A
:102AB0002068315091F7868D81FD209580917907AE
:102AC00090E001968F73992730917807381749F075
:102AD000A0917907B0E0A658B84F2C93809379075E
:102AE00003C0868D8160868F828D938D0197F1F76B
:102AF000A389B4899C918589892B8C93FF91EF914F
:102B0000BF91AF919F918F917F916F915F914F9105
:102B10003F912F910F900FBE0F901F90189528E4B2
:102B200035E0FC01318320830C94D6141F93CF939E
:102B3000DF93EC01162F6E8D6695617081E068273A
:102B4000812F0E94051D61E0812F0E94C91C612F09
:102B500070E0FB01E253FE4FE491E88BFB01EE5184
:102B6000FE4FE491F0E0EE0FFF1FE050FE4F859125
:102B700094919A8B898BDF91CF911F9108951F9328
:102B8000CF93DF93EC01162F60E0812F0E94C91CC8
:102B90008E8D81FD04C061E0812F0E94051D1C8780
:102BA000612F70E0FB01E253FE4FE491ED87FB01E2
:102BB000EE51FE4FE491F0E0EE0FFF1FEA50FE4FA2
:102BC000859194919F878E87DF91CF911F91089572
:102BD0001F93CF93DF93EC01162F1B821A8288EE8E
:102BE00093E0A0E0B0E08C839D83AE83BF8388E454
:102BF00095E0998388831F8A1E8A198E188E1B8EF2
:102C00001A8E1D8E1C8E8E8D8E7F20FB81F98E8FED
:102C1000642FCE010E949615612FCE01DF91CF91D6
:102C20001F910C94BF15CF93DF93EC019A01AB0178
:102C30001B8E1A8E198E188E1F8A1E8A60E874E801
:102C40008EE190E00E94E71FF9012430310518F071
:102C5000C901039702C081E090E09D8F8C8F6C8545
:102C6000663108F069C0C901969587958431910550
:102C700010F0439702C081E090E09F8B8E8B3697D7
:102C800018F0C901059702C081E090E0998F888F04
:102C9000C901880F991F280F391F3695279536953A
:102CA00027952D30310518F02C50310902C021E054
:102CB00030E03B8F2A8F90916800683050F021E01F
:102CC0006E3008F420E081E001C0880F2A95EAF711
:102CD00001C084E0892B809368008C85883038F0AF
:102CE0008E3040F0863148F020E030E008C02DE61C
:102CF00030E005C02BE630E002C02CE630E03C8B33
:102D00002B8B883030F491E001C0990F8A95EAF757
:102D10000EC0282F30E08E3018F42850310902C040
:102D20002E50310991E001C0990F2A95EAF79D8B49
:102D30008C8D9D8D0197F1F7CE01DF91CF910C9491
:102D4000EC14FC01918D228D892F90E0805C9F4FC7
:102D5000821B91098F7399270895FC01918D828DB3
:102D6000981731F0828DE80FF11D858D90E0089560
:102D70008FEF9FEF0895FC01918D828D981761F080
:102D8000828DDF01A80FB11D5D968C91928D9F5FA2
:102D90009F73928F90E008958FEF9FEF08958FE1DA
:102DA00098E1892B49F080E090E0892B29F00E947E
:102DB0001F1881110C9400000895FC01848DDF011F
:102DC000A80FB11DA35ABF4F2C91848D90E001969E
:102DD0008F739927848FA689B7892C93A089B1898D
:102DE0008C9180648C93938D848D981306C0028897
:102DF000F389E02D80818F7D80830895CF93DF93C9
:102E0000EC01888D8823C9F0EA89FB89808185FDE2
:102E100005C0A889B9898C9186FD0FC00FB607FC43
:102E2000F5CF808185FFF2CFA889B9898C9185FF84
:102E3000EDCFCE010E94DD16E7CFDF91CF9108954F
:102E4000EF92FF920F931F93CF93DF93EC0181E0FA
:102E5000888F9B8D8C8D981305C0E889F9898081B6
:102E600085FD24C0F62E0B8D10E00F5F1F4F0F73F2
:102E70001127E02E8C8DE8120CC00FB607FCFACF9C
:102E8000E889F989808185FFF5CFCE010E94DD16A2
:102E9000F1CF8B8DFE01E80FF11DE35AFF4FF08259
:102EA0000B8FEA89FB898081806207C0EE89FF89E8
:102EB0006083E889F98980818064808381E090E083
:102EC000DF91CF911F910F91FF90EF900895CF92D6
:102ED000DF92EF92FF921F93CF93DF93EC016A0191
:102EE0007B01122F60E874E88EE190E0A701960163
:102EF0000E94C51FDA01C9010197A109B109B69560
:102F0000A79597958795AC01E889F98982E0808338
:102F1000411580E15807A8F0E889F989108260E43A
:102F200072E48FE090E0A70196010E94C51FBA01EC
:102F3000A901415051096109710976956795579525
:102F40004795EC85FD855083EE85FF854083188E7F
:102F5000EC89FD891083EA89FB8980818061808307
:102F6000EA89FB89808188608083EA89FB89808186
:102F700080688083EA89FB8980818F7D8083DF91EF
:102F8000CF911F91FF90EF90DF90CF9008951F9207
:102F90000F920FB60F9211242F938F939F93EF935D
:102FA000FF93E091CC07F091CD078081E091D207AB
:102FB000F091D30782FD12C090818091D5078F5F79
:102FC0008F732091D607821751F0E091D507F0E07A
:102FD000E454F84F958F8093D50701C08081FF910D
:102FE000EF919F918F912F910F900FBE0F901F9097
:102FF00018951F920F920FB60F9211242F933F93A3
:103000004F935F936F937F938F939F93AF93BF93F0
:10301000EF93FF938CEB97E00E94DD16FF91EF9109
:10302000BF91AF919F918F917F916F915F914F91E0
:103030003F912F910F900FBE0F901F9018958CEB22
:1030400097E00E94A11621E0892B09F420E0822F4D
:103050000895ECEBF7E01382128288EE93E0A0E093
:10306000B0E084839583A683B78388E595E0918358
:10307000808385EC90E09587848784EC90E0978747
:10308000868780EC90E0918B808B81EC90E0938B35
:10309000828B82EC90E0958B848B86EC90E0978B12
:1030A000868B118E128E138E148E089508950895B6
:1030B0000E94481C0E9457180E94E311CFECD6E1F1
:1030C0000E940A132097E1F30E94CF16F9CFCF9206
:1030D000DF92EF92FF920F931F93CF93DF936C01D8
:1030E000EB017B01E40EF51E00E010E0CE15DF05DC
:1030F00061F06991D601ED91FC910190F081E02D94
:10310000C6010995080F191FF1CFC801DF91CF91B2
:103110001F910F91FF90EF90DF90CF900895611570
:10312000710579F0FB0101900020E9F73197AF01BB
:10313000461B570BDC01ED91FC910280F381E02DE1
:10314000099480E090E008950C948F18DC01ED91D3
:10315000FC910190F081E02D09946BEF74E00C94E8
:103160008F180F931F93CF93DF93EC010E948F185A
:103170008C01CE010E94AD18800F911FDF91CF917D
:103180001F910F9108958F929F92AF92BF92CF920D
:10319000DF92EF92FF920F931F93CF93DF93CDB700
:1031A000DEB7A1970FB6F894DEBF0FBECDBF6C019E
:1031B000142FE52FCB01022F19A2223008F40AE0C8
:1031C0007E0121E2E20EF11C802E912CA12CB12C6B
:1031D000612F7E2FA50194010E94C51F029F101927
:1031E000112481E0E81AF1081A3010F4105D01C0D2
:1031F000195CF7011083122FE32FCA01232B242B14
:10320000252B31F7B701C6010E948F18A1960FB682
:10321000F894DEBF0FBECDBFDF91CF911F910F910C
:10322000FF90EF90DF90CF90BF90AF909F908F90E6
:103230000895CF92DF92EF92FF920F931F93CF9357
:10324000DF93EC016A017B012115310579F4E881F6
:10325000F9810190F081E02D642FDF91CF911F91D2
:103260000F91FF90EF90DF90CF9009942A303105B5
:10327000E9F477FF1AC06DE20E94A6188C0144277A
:103280005527BA014C195D096E097F092AE0CE0164
:103290000E94C318800F911FDF91CF911F910F9152
:1032A000FF90EF90DF90CF9008952AE0B701A6013C
:1032B000CE01DF91CF911F910F91FF90EF90DF90A2
:1032C000CF900C94C3184F925F926F927F928F921F
:1032D0009F92AF92BF92CF92DF92EF92FF92CF93E5
:1032E000DF93EC016A017B01B22E9A01AB01C701A9
:1032F000B6010E949C1F882319F064E675E027C080
:1033000026013701E89477F82FEF3FEF4FE75FE7AB
:10331000C301B2010E949C1F81110DC02FEF3FEF2E
:103320004FE75FE7C301B2010E94CB1D18161CF4E2
:1033300068E675E00CC02FEF3FEF4FE75FE4C70191
:10334000B6010E942A1F18169CF46CE675E0CE01A7
:10335000DF91CF91FF90EF90DF90CF90BF90AF9033
:103360009F908F907F906F905F904F900C948F18EC
:103370002FEF3FEF4FE75FECC701B6010E94CB1D77
:1033800087FDE3CF20E030E0A901C701B6010E942C
:10339000CB1D87FF0AC06DE2CE010E94A6184C012A
:1033A000F7FAF094F7F8F09402C0812C912CA12C3C
:1033B00060E070E080E09FE3AB1441F020E030E09B
:1033C00040E251E40E94D01DA394F6CF9B01AC01D2
:1033D000C701B6010E945F1D2B013C010E94491EDE
:1033E0006B017C010E94781E9B01AC01C301B201FC
:1033F0000E945E1D2B013C012AE0B701A601CE010F
:103400000E94C3187C01E80CF91CBB2039F06EE95E
:1034100074E0CE010E948F18E80EF91EDB2CDD202F
:1034200039F120E030E040E251E4C301B2010E94F2
:103430002F1F2B013C010E94421E4B01770FAA084F
:10344000BB082AE030E0B501A401CE010E941919A1
:10345000E80EF91EC501B4010E947A1E9B01AC0161
:10346000C301B2010E945E1D2B013C01DA94D7CF4B
:10347000C701DF91CF91FF90EF90DF90CF90BF9089
:10348000AF909F908F907F906F905F904F90089536
:103490000C9463190F931F93CF93DF93EC010E9459
:1034A000E61B688779878A879B87E881F981068090
:1034B000F781E02DCE01099597FF17C00E94E61B0A
:1034C000088519852A853B85DC01CB01801B910B82
:1034D000A20BB30B0C811D812E813F8180179107B8
:1034E000A207B30710F38FEF9FEFDF91CF911F91EA
:1034F0000F9108954F925F926F927F928F929F9259
:10350000AF92BF92CF92DF92EF92FF920F931F93F1
:10351000CF93DF938C01EB0186E0849F4001859F70
:10352000900C1124860E971EFB01E815F905F8F49E
:1035300082819381892B11F13696F7CF6081718159
:1035400044815581DB01A40FB51F2C9130E0821717
:10355000930711F54F5F5F4F558344832281338179
:103560004217530759F03696E815F90538F3C801A4
:103570000E944A1A97FD44C0FE01F6CFEC1BFD0BDA
:10358000F595E7952BEA3AEAE29FC001E39F900D9B
:10359000F29F900D112436C04115510521F3C480CE
:1035A000D58096012150310935832483DB01A20F98
:1035B000B31FAC91B0E08A179B07F9F421153105D0
:1035C000C9F05B017A01E21AF30AE60EF71E412CFC
:1035D000512CD5016D905D01D7017D907D01671063
:1035E00006C0BFEF4B1A5B0A4216530690F3421611
:1035F0005306A9F6D582C482B6CF232B81F6B3CF6A
:103600008FEF9FEFDF91CF911F910F91FF90EF9080
:10361000DF90CF90BF90AF909F908F907F906F90F2
:103620005F904F900895CF93DF9300D000D000D0EB
:10363000CDB7DEB7FE01319626E0DF011D922A9557
:10364000E9F77A8369835C834B8341E050E0BF01F3
:103650000E947A1A21E0892B09F020E0822F269619
:103660000FB6F894DEBF0FBECDBFDF91CF910895A6
:10367000FB0101900020E9F73197AF01461B570B82
:103680000C94131B1F920F920FB60F9211242F93BD
:103690003F934F935F936F937F938F939F93AF93DA
:1036A000BF93EF93FF938091590890915A08892B0B
:1036B00029F0E0915908F0915A080995FF91EF918E
:1036C000BF91AF919F918F917F916F915F914F913A
:1036D0003F912F910F900FBE0F901F9018951F9242
:1036E0000F920FB60F9211242F933F934F935F9336
:1036F0006F937F938F939F93AF93BF93EF93FF93BA
:1037000080915B0890915C08892B29F0E0915B081F
:10371000F0915C080995FF91EF91BF91AF919F9156
:103720008F917F916F915F914F913F912F910F906A
:103730000FBE0F901F9018951F920F920FB60F9209
:1037400011242F933F938F939F93AF93BF938091B7
:103750005E0890915F08A0916008B0916108309177
:103760005D0826E0230F2D3720F40296A11DB11D20
:1037700005C029E8230F0396A11DB11D20935D0804
:1037800080935E0890935F08A0936008B0936108EF
:103790008091620890916308A0916408B0916508D7
:1037A0000196A11DB11D8093620890936308A093B8
:1037B0006408B0936508BF91AF919F918F913F913D
:1037C0002F910F900FBE0F901F9018952FB7F89460
:1037D00060915E0870915F08809160089091610827
:1037E0002FBF08953FB7F8948091620890916308C5
:1037F000A0916408B091650826B5A89B05C02F3F2D
:1038000019F00196A11DB11D3FBFBA2FA92F982F06
:103810008827820F911DA11DB11DBC01CD0143E080
:10382000660F771F881F991F4A95D1F70895CF9289
:10383000DF92EF92FF92CF93DF936B017C010E94A6
:10384000F21BEB01C114D104E104F10489F00E94E0
:1038500056180E94F21B6C1B7D0B683E734090F360
:1038600081E0C81AD108E108F108C851DC4FEACF5D
:10387000DF91CF91FF90EF90DF90CF90089583304C
:10388000910528F0880F991F04970197F1F7089583
:10389000789484B5826084BD84B5816084BD85B52B
:1038A000826085BD85B5816085BDEEE6F0E08081F2
:1038B00081608083E1E8F0E0108280818260808313
:1038C000808181608083E0E8F0E080818160808396
:1038D000E1EBF0E0808184608083E0EBF0E08081C8
:1038E00081608083EAE7F0E080818460808380816A
:1038F0008260808380818E7F8083808180688083E6
:103900001092C10008958E3008F08E50877020917B
:10391000020490E4299F90011124822B80937C0063
:1039200080917A00806480937A0080917A0086FD8D
:10393000FCCF809178002091790090E0922B08953F
:10394000833081F028F4813099F08230A1F008951D
:103950008730A9F08830B9F08430D1F480918000AC
:103960008F7D03C0809180008F77809380000895C1
:1039700084B58F7702C084B58F7D84BD0895809112
:10398000B0008F7703C08091B0008F7D8093B0002E
:103990000895CF93DF9390E0FC01E253FE4F249112
:1039A000FC01EE51FE4F8491882361F190E0880F75
:1039B000991FFC01E65FFD4FC591D491FC01E050D9
:1039C000FE4FA591B491611109C09FB7F894888109
:1039D000209582238883EC912E230BC0623061F402
:1039E0009FB7F8943881822F809583238883EC9148
:1039F0002E2B2C939FBF06C08FB7F894E8812E2BF7
:103A000028838FBFDF91CF9108951F93CF93DF93CA
:103A1000282F30E0F901E654FE4F8491F901E2537A
:103A2000FE4FD491F901EE51FE4FC491CC23C9F061
:103A3000162F81110E94A01CEC2FF0E0EE0FFF1F4B
:103A4000E050FE4FA591B4918FB7F894111105C0C5
:103A50009C91ED2FE095E92302C0EC91ED2BEC93C6
:103A60008FBFDF91CF911F910895CF93DF93282FC0
:103A700030E0F901E654FE4F8491F901E253FE4F24
:103A8000D491F901EE51FE4FC491CC2391F08111F4
:103A90000E94A01CEC2FF0E0EE0FFF1FEA50FE4F3B
:103AA000A591B491EC91ED2381E090E021F480E0C8
:103AB00002C080E090E0DF91CF9108955058BB277D
:103AC000AA270E94761D0C94F01E0E94E21E38F078
:103AD0000E94E91E20F039F49F3F19F426F40C945B
:103AE000DF1E0EF4E095E7FB0C94D91EE92F0E942F
:103AF000011F58F3BA17620773078407950720F070
:103B000079F4A6F50C94231F0EF4E0950B2EBA2F32
:103B1000A02D0B01B90190010C01CA01A0011124D3
:103B2000FF27591B99F0593F50F4503E68F11A167F
:103B3000F040A22F232F342F4427585FF3CF469510
:103B400037952795A795F0405395C9F77EF41F1632
:103B5000BA0B620B730B840BBAF09150A1F0FF0FFC
:103B6000BB1F661F771F881FC2F70EC0BA0F621FE8
:103B7000731F841F48F4879577956795B795F795D8
:103B80009E3F08F0B0CF9395880F08F09927EE0F6D
:103B90009795879508950E94B51E08F481E00895D1
:103BA0000E94E41D0C94F01E0E94E91E58F00E9431
:103BB000E21E40F029F45F3F29F00C94D91E511108
:103BC0000C94241F0C94DF1E0E94011F68F399239C
:103BD000B1F3552391F3951B550BBB27AA27621709
:103BE0007307840738F09F5F5F4F220F331F441F16
:103BF000AA1FA9F335D00E2E3AF0E0E832D091504A
:103C00005040E695001CCAF72BD0FE2F29D0660F36
:103C1000771F881FBB1F261737074807AB07B0E879
:103C200009F0BB0B802DBF01FF2793585F4F3AF07F
:103C30009E3F510578F00C94D91E0C94241F5F3FD1
:103C4000E4F3983ED4F3869577956795B795F79505
:103C50009F5FC9F7880F911D9695879597F90895ED
:103C6000E1E0660F771F881FBB1F62177307840789
:103C7000BA0720F0621B730B840BBA0BEE1F88F798
:103C8000E09508950E94491E6894B1110C94241F78
:103C900008950E94091F88F09F5798F0B92F99271F
:103CA000B751B0F0E1F0660F771F881F991F1AF027
:103CB000BA95C9F714C0B13091F00E94231FB1E04A
:103CC00008950C94231F672F782F8827B85F39F049
:103CD000B93FCCF3869577956795B395D9F73EF4C0
:103CE00090958095709561957F4F8F4F9F4F089568
:103CF000E89409C097FB3EF4909580957095619586
:103D00007F4F8F4F9F4F9923A9F0F92F96E9BB273B
:103D10009395F695879577956795B795F111F8CFB7
:103D2000FAF4BB0F11F460FF1BC06F5F7F4F8F4F22
:103D30009F4F16C0882311F096E911C0772321F018
:103D40009EE8872F762F05C0662371F096E8862FB0
:103D500070E060E02AF09A95660F771F881FDAF707
:103D6000880F9695879597F90895990F0008550F34
:103D7000AA0BE0E8FEEF16161706E807F907C0F0F1
:103D800012161306E407F50798F0621B730B840BF9
:103D9000950B39F40A2661F0232B242B252B21F4D3
:103DA00008950A2609F4A140A6958FEF811D811D73
:103DB000089597F99F6780E870E060E008959FEFAD
:103DC00080EC089500240A941616170618060906B2
:103DD000089500240A941216130614060506089581
:103DE000092E0394000C11F4882352F0BB0F40F409
:103DF000BF2B11F460FF04C06F5F7F4F8F4F9F4F49
:103E0000089557FD9058440F551F59F05F3F71F0CA
:103E10004795880F97FB991F61F09F3F79F0879531
:103E20000895121613061406551FF2CF4695F1DFBA
:103E300008C0161617061806991FF1CF869571054A
:103E4000610508940895E894BB2766277727CB017E
:103E500097F908950E94B51E08F48FEF08950E9407
:103E6000421F0C94F01E0E94E21E38F00E94E91ED0
:103E700020F0952311F00C94D91E0C94DF1E112410
:103E80000C94241F0E94011F70F3959FC1F3950F9E
:103E900050E0551F629FF001729FBB27F00DB11DCE
:103EA000639FAA27F00DB11DAA1F649F6627B00D5E
:103EB000A11D661F829F2227B00DA11D621F739F47
:103EC000B00DA11D621F839FA00D611D221F749F55
:103ED0003327A00D611D231F849F600D211D822F9C
:103EE000762F6A2F11249F5750409AF0F1F08823C3
:103EF0004AF0EE0FFF1FBB1F661F771F881F9150F0
:103F00005040A9F79E3F510580F00C94D91E0C94A7
:103F1000241F5F3FE4F3983ED4F386957795679529
:103F2000B795F795E7959F5FC1F7FE2B880F911D19
:103F30009695879597F908950E94B51E880B990B61
:103F40000895DB018F939F930E940C20BF91AF9146
:103F5000A29F800D911DA39F900DB29F900D1124E3
:103F6000089597FB072E16F4009407D077FD09D02B
:103F70000E941F2007FC05D03EF4909581959F4F2D
:103F80000895709561957F4F0895A1E21A2EAA1B9E
:103F9000BB1BFD010DC0AA1FBB1FEE1FFF1FA217F9
:103FA000B307E407F50720F0A21BB30BE40BF50BF6
:103FB000661F771F881F991F1A9469F7609570957F
:103FC000809590959B01AC01BD01CF010895052E10
:103FD00097FB1EF400940E94FE1F57FD07D00E941D
:103FE000C51F07FC03D04EF40C94FE1F509540955E
:103FF000309521953F4F4F4F5F4F08959095809595
:10400000709561957F4F8F4F9F4F0895EE0FFF1F63
:104010000590F491E02D09940E943320A59F900D06
:10402000B49F900DA49F800D911D11240895B7FF9A
:104030000C940C200E940C20821B930B0895AA1B49
:10404000BB1B51E107C0AA1FBB1FA617B70710F083
:10405000A61BB70B881F991F5A95A9F780959095B5
:10406000BC01CD010895A29FB001B39FC001A39FE1
:10407000700D811D1124911DB29F700D811D1124A1
:10408000911D08951F93FC0199278827BC01E8948E
:1040900011911032E9F3193010F01E30C8F31B32C1
:1040A00051F01D3249F4689406C00E949E20610FB1
:1040B000711D811D911D119110531A30B0F33EF402
:1040C00090958095709561957F4F8F4F9F4F1F9171
:1040D0000895FB01DC018D91019080190110D9F345
:1040E000990B0895FB01DC0101900D920020E1F78E
:1040F0000895FB01DC014150504048F001900D92C1
:104100000020C9F701C01D9241505040E0F70895CA
:104110004532510520F4423010F00C949320FB01FD
:104120001082CB010895BB274A3031F4992322F441
:10413000BDE2909581959F4F0C94B420592F482F44
:10414000372F262F660F771F881F991F660F771F3F
:10415000881F991F620F731F841F951F660F771F9B
:10416000881F991F0895BB27FB015527AA27880F91
:10417000991FAA1FA41710F0A41B83955051B9F7DB
:10418000A05DAA3308F0A95DA193009779F7B1115A
:10419000B1931192CB010C94D822AEE0B0E0E3EDE4
:1041A000F0E20C948C230D891E8986E08C831A839F
:1041B00009838FEF9FE79E838D83AE01475E5F4F3C
:1041C0006F89788DCE0101960E94F0202F8138856D
:1041D000F801E20FF31F10822E96E4E00C94A8235E
:1041E000ACE0B0E0E6EFF0E20C947E237C016B01E2
:1041F0008A01FC0117821682838181FFBDC1CE0135
:1042000001964C01F7019381F60193FD859193FF8F
:1042100081916F01882309F4ABC1853239F493FD94
:10422000859193FF81916F01853229F4B70190E068
:104230000E94E822E7CF512C312C20E02032A0F45C
:104240008B3269F030F4803259F0833269F42061A6
:104250002CC08D3239F0803339F4216026C02260C1
:10426000246023C0286021C027FD27C030ED380F0F
:104270003A3078F426FF06C0FAE05F9E300D112434
:10428000532E13C08AE0389E300D1124332E206245
:104290000CC08E3221F426FD6BC1206406C08C3622
:1042A00011F4206802C0883641F4F60193FD85912F
:1042B00093FF81916F018111C1CF982F9F7D9554FC
:1042C000933028F40C5F1F4FFFE3F9830DC0833652
:1042D00031F0833771F0833509F05BC022C0F801FB
:1042E000808189830E5F1F4F44244394512C5401D5
:1042F00015C03801F2E06F0E711CF801A080B1808A
:1043000026FF03C0652D70E002C06FEF7FEFC5018F
:104310002C870E94CD222C0183012C852F77222E01
:1043200017C03801F2E06F0E711CF801A080B18057
:1043300026FF03C0652D70E002C06FEF7FEFC5015F
:104340002C870E94C2222C012C852068222E8301FA
:1043500023FC1BC0832D90E048165906B0F4B7012A
:1043600080E290E00E94E8223A94F4CFF50127FC25
:10437000859127FE81915F01B70190E00E94E822BC
:1043800031103A94F1E04F1A51084114510471F779
:10439000E5C0843611F0893639F5F80127FF07C0EA
:1043A00060817181828193810C5F1F4F08C06081A1
:1043B0007181072E000C880B990B0E5F1F4F2F7613
:1043C000722E97FF09C090958095709561957F4FEB
:1043D0008F4F9F4F2068722E2AE030E0A4010E9488
:1043E0002023A82EA81844C0853729F42F7EB22E8A
:1043F0002AE030E025C0F22FF97FBF2E8F36C1F0C2
:1044000018F4883579F0B4C0803719F0883721F076
:10441000AFC02F2F2061B22EB4FE0DC08B2D846053
:10442000B82E09C024FF0AC09F2F9660B92E06C07F
:1044300028E030E005C020E130E002C020E132E0B9
:10444000F801B7FE07C060817181828193810C5FA2
:104450001F4F06C06081718180E090E00E5F1F4FAA
:10446000A4010E942023A82EA818FB2DFF777F2EE1
:1044700076FE0BC0372D3E7FA51450F474FE0AC0A3
:1044800072FC08C0372D3E7E05C0BA2C372D03C004
:10449000BA2C01C0B52C34FF0DC0FE01EA0DF11D90
:1044A0008081803311F4397E09C032FF06C0B39495
:1044B000B39404C0832F867809F0B39433FD13C0FE
:1044C00030FF06C05A2CB31418F4530C5B18B32CED
:1044D000B31468F4B70180E290E03C870E94E822C0
:1044E000B3943C85F5CFB31410F43B1801C0312CC4
:1044F00034FF12C0B70180E390E03C870E94E822BD
:104500003C8532FF17C031FD03C088E790E002C050
:1045100088E590E0B7010CC0832F867859F031FF11
:1045200002C08BE201C080E237FD8DE2B70190E06E
:104530000E94E822A51438F4B70180E390E00E94BD
:10454000E8225A94F7CFAA94F401EA0DF11D808174
:10455000B70190E00E94E822A110F5CF332009F4C2
:1045600051CEB70180E290E00E94E8223A94F6CF63
:10457000F7018681978102C08FEF9FEF2C96E2E1D1
:104580000C949A23FC010590615070400110D8F7FB
:10459000809590958E0F9F1F0895FC01615070408B
:1045A00001900110D8F7809590958E0F9F1F089568
:1045B000DC01FC01672F71917723E1F7329704C08A
:1045C0007C916D9370836291AE17BF07C8F3089515
:1045D0000F931F93CF93DF93FB01238121FD03C032
:1045E0008FEF9FEF28C022FF16C04681578124819C
:1045F00035814217530744F4A081B1819D012F5F9B
:104600003F4F318320838C93268137812F5F3F4F2B
:104610003783268310C0EB01092F182F0084F18502
:10462000E02D0995892BE1F68E819F8101969F836C
:104630008E83812F902FDF91CF911F910F9108953D
:10464000FA01AA27283051F1203181F1E8946F93C3
:104650006E7F6E5F7F4F8F4F9F4FAF4FB1E03ED069
:10466000B4E03CD0670F781F891F9A1FA11D680F07
:10467000791F8A1F911DA11D6A0F711D811D911D3A
:10468000A11D20D009F468943F912AE0269F1124AF
:104690003019305D3193DEF6CF010895462F477013
:1046A000405D4193B3E00FD0C9F7F6CF462F4F706E
:1046B000405D4A3318F0495D31FD4052419302D0CC
:1046C000A9F7EACFB4E0A695979587957795679572
:1046D000BA95C9F700976105710508959B01AC0172
:1046E0000A2E06945795479537952795BA95C9F799
:1046F000620F731F841F951FA01D08952F923F9274
:104700004F925F926F927F928F929F92AF92BF92E1
:10471000CF92DF92EF92FF920F931F93CF93DF938D
:10472000CDB7DEB7CA1BDB0B0FB6F894DEBF0FBEEA
:10473000CDBF09942A88398848885F846E847D8437
:104740008C849B84AA84B984C884DF80EE80FD8039
:104750000C811B81AA81B981CE0FD11D0FB6F894AF
:10476000DEBF0FBECDBFED01089511E0CCE0D1E07A
:1047700004C0FE010E9406202196CD30D107C9F762
:04478000F894FFCFDB
:104784001A05000000000000000000005F000000A7
:104794000000000007000700000000147F147F14CD
:1047A400000000242A7F2A120000002313086462F8
:1047B40000000036495522500000000005030000A7
:1047C4000000001C2241000000000041221C0000E7
:1047D400000000082A1C2A0800000008083E0808F7
:1047E400000000A06000000000000008080808089D
:1047F40000000060600000000000002010080402B7
:104804000000003E5149453E00000000427F400048
:1048140000000062514949460000002241494936DE
:104824000000001814127F10000000274545453988
:104834000000003C4A4949300000000171090503A9
:104844000000003649494936000000064949291E3E
:10485400000000003636000000000000AC6C0000D0
:104864000000000814224100000000141414141461
:104874000000004122140800000000020151090652
:10488400000000324979413E0000007E0909097E9A
:104894000000007F494949360000003E4141412261
:1048A4000000007F4141221C0000007F494949412A
:1048B4000000007F090909010000003E41415172D6
:1048C4000000007F0808087F000000417F410000CD
:1048D4000000002040413F010000007F08142241F5
:1048E4000000007F404040400000007F020C027F37
:1048F4000000007F0408107F0000003E4141413E5B
:104904000000007F090909060000003E4151215EB4
:104914000000007F09192946000000264949493250
:1049240000000001017F01010000003F4040403FC2
:104934000000001F2040201F0000003F4038403F7F
:1049440000000063140814630000000304780403E7
:1049540000000061514945430000007F41410000CF
:10496400000000020408102000000041417F000004
:1049740000000004020102040000008080808080A6
:104984000000000102040000000000205454547888
:104994000000007F484444380000003844442800A4
:1049A400000000384444487F000000385454541830
:1049B400000000087E09020000000018A4A4A47CE2
:1049C4000000007F08040478000000007D0000005F
:1049D40000000080847D00000000007F1028440057
:1049E400000000417F4000000000007C04180478AF
:1049F4000000007C08047C000000003844443800B7
:104A0400000000FC24241800000000182424FC00EA
:104A1400000000007C0804000000004854542400F6
:104A2400000000047F4400000000003C40407C0083
:104A34000000001C2040201C0000003C4030403C92
:104A440000000044281028440000001CA0A07C00A2
:104A54000000004464544C44000000083641000047
:104A6400000000007F000000000000413608000044
:104A7400000000020101020100000002050502001D
:104A84000000014750524D43004750474741004EF4
:104A9400004E4E4500454E45004553450053534591
:104AA4000053005353570057535700574E57004E67
:104AB4004E570025352E35640025640020204661BC
:104AC4006872656E686569740020202043656C63B4
:104AD40069757300205543522043532031323241CB
:104AE40000202046616C6C203230313500202020BB
:104AF400427269616E20486F002853746570686162
:104B04006E6965002020202020202020546F6E67CD
:104B1400290020502E4F2E542E412E542E4F2E005D
:104B24004F4E200041542B434950434C4F53450DA5
:104B34000A0041542B43495053544152543D225589
:104B44004450222C223139322E3136382E382E322E
:104B54003535222C3131303030004F4B00626567DF
:104B6400696E206770732053657269616C004154EB
:104B74002B43495053454E443D33320D0A003E0009
:104B840023303D002C003B006C696E6B2069732060
:104B94006E6F742076616C696400202020202020D0
:104BA4002020202020202020202020202020202001
:104BB400006D61783A20006C6F773A200074656D5F
:104BC400703A20000000000043146718AF14221448
:104BD4009714C7140000000020176718A116BB160D
:104BE400AD16FE166E616E00696E66006F76660025
:00000001FF
