:100000000C94E8000C94CB1A0C94F81A0C94F0138E
:100010000C94F0130C94F0130C9410010C946F1AC0
:100020000C9410010C9410010C9410010C9410010C
:100030000C9410010C9410010C9410010C941001FC
:100040000C94251B0C9410010C94F1160C94291798
:100050000C9410010C9410010C9410010C941001DC
:100060000C9410010C941001005EBCE2613FDD8332
:10007000C29C7E20A3FD1F419DC3217FFCA2401E88
:100080005F01E3BD3E6082DC237D9FC1421CFEA078
:10009000E1BF5D0380DE3C62BEE0025CDF81633D68
:1000A0007C22C09E1D43A1FF4618FAA427799BC558
:1000B00084DA3866E5BB5907DB856739BAE4065848
:1000C0001947A5FB7826C49A653BD987045AB8E638
:1000D000A7F91B45C6987A24F8A6441A99C7257B28
:1000E0003A6486D85B05E7B98CD2306EEDB3510F18
:1000F0004E10F2AC2F7193CD114FADF3702ECC9208
:10010000D38D6F31B2EC0E50AFF1134DCE90722CF7
:100110006D33D18F0C52B0EE326C8ED0530DEFB1E7
:10012000F0AE4C1291CF2D73CA947628ABF51749D7
:100130000856B4EA6937D58B5709EBB536688AD4C7
:1001400095CB2977F4AA4816E9B7550B88D6346AB7
:100150002B7597C94A14F6A8742AC896154BA9F7A7
:10016000B6E80A54D7896B35020000000800020186
:10017000000003040700000000000000000102046A
:100180000810204080010204081020010204081019
:100190002004040404040404040202020202020310
:1001A00003030303030000000023002600290000CE
:1001B000000000250028002B00000000002400277C
:1001C000002A000012014E03D5125917C917E81270
:1001D00011241FBECFEFD8E0DEBFCDBF14E0A0E0FA
:1001E000B1E0E2E4F4E402C005900D92A23BB10755
:1001F000D9F728E0A2EBB4E001C01D92A035B20708
:10020000E1F710E0C7EED0E004C02197FE010E94A4
:10021000361FC23ED107C9F70E94D5170C9414228D
:100220000C940000E2EBF4E015821682118613862E
:1002300082E090E0A0E0B0E084879587A687B7874A
:1002400013A215A614A689E094E093A782A717A687
:1002500008958EBD00000DB407FEFDCF8EB5089544
:100260008FEF8EBD00000DB407FEFDCF8EB5089553
:1002700061E0FC0184810E94811C8091FE0488233E
:10028000A1F01092FE048091FD04882371F09FB7C5
:10029000F8948091FD04813029F48091FB048DBB9A
:1002A0009FBF08958091FB048FBF08952091FE04A5
:1002B000211120C021E02093FE04EFEFF4E0308113
:1002C00021814091FD04442399F04FB7F894509157
:1002D000FD04513059F45DB35093FB046DB350915C
:1002E000FC04509556235DBB4FBF02C04093FB04F6
:1002F0003CBD2DBD60E0FC0184810E94811C0895FD
:10030000CF93DF93FC0126812223D1F0EC0187817A
:1003100090859C012F5F3F4F30872783823092402A
:1003200058F40E9430012F813885C90101969887C1
:100330008F8322303240A8F3CE010E9438011E8202
:10034000DF91CF9108950F931F93CF93DF93EB012C
:100350000E946F1B8B010E9430018F3F49F00E9469
:100360006F1B601B710B6C177D07A8F380E001C049
:1003700081E0DF91CF911F910F910895BF92CF92AD
:10038000DF92EF92FF920F931F93CF93DF938C0135
:10039000B62E69017A010E948001C8010E945601AF
:1003A0006CE271E0C8010E94A3018B2D80640E9461
:1003B0002901C8E1D0E0D701C6010C2E04C0B695D2
:1003C000A795979587950A94D2F70E9429012897B7
:1003D000C83F8FEFD80779F7BB2029F0E8E0BE12BD
:1003E00004C087E803C085E901C08FEF0E9429019E
:1003F000C0E001C0CF5F0E943001F80182878823EE
:1004000014F4CF3FB9F7DF91CF911F910F91FF9077
:10041000EF90DF90CF90BF9008950F931F93CF93ED
:10042000DF93EC010E946F1B8B010AC00E946F1BBF
:10043000601B710B6D32714018F08FE08D8309C025
:100440000E9430018A878F3F89F38E3F39F08DE01B
:100450008D83CE010E94380180E001C081E0DF91F0
:10046000CF911F910F910895CF92DF92EF92FF925B
:100470000F931F93CF93DF93EC01690101151105D1
:1004800009F46CC0C801820F931F8130924008F0BC
:1004900060C08E81882371F088819981AA81BB8197
:1004A00084179507A607B70729F48F819885C81682
:1004B000D90620F5488359836A837B838B858330F3
:1004C00049F0032E39E0440F551F661F771F3A95F8
:1004D000D1F7302D9A01AB0161E1CE010E94BE013E
:1004E000882319F083E08D8334C0CE010E940D0271
:1004F000882379F118861F8281E08E838F81988509
:100500008C159D0550F40E9430018F8198850196CD
:1005100098878F838C159D05B0F36701E00EF11E5F
:100520000E943001F60181936F01EE15FF05C1F7BE
:100530008F819885080F191F18870F838985882355
:1005400019F00115124060F0CE010E94800181E097
:1005500008C0CE010E94380180E003C081E001C0E4
:1005600081E0DF91CF911F910F91FF90EF90DF908D
:10057000CF900895EF92FF920F931F93790100E0BF
:1005800012E020E030E00E9434021F910F91FF90B2
:10059000EF900895EF92FF920F931F93CF93DF9305
:1005A0007C01862F8A010E942901E8011E5F899142
:1005B0000E942901C017D107D1F78FEF0E942901AE
:1005C0008FEF0E9429010E943001F7018287982F46
:1005D0009F71953039F081E18583C7010E94380110
:1005E00080E001C081E0DF91CF911F910F91FF90DA
:1005F000EF9008950F931F93CF93DF93EC01890140
:10060000411551056105710519F482E18D833DC0E5
:100610008B85833049F0032E39E0440F551F661F48
:10062000771F3A95D1F7302D9A01AB0168E1CE01E1
:100630000E94BE01882319F084E08D8326C0A801A2
:100640006EEFCE010E94CA028823F9F068E572E0DD
:10065000CE010E94A301811103C085E18D8315C0E5
:1006600020E030E0A9016DE0CE010E94BE018111C1
:1006700004C00E943001882319F084E18D8305C0F5
:10068000CE010E94380181E004C0CE010E943801F1
:1006900080E0DF91CF911F910F910895EFEFF4E08B
:1006A00080E5808381E081830895CF93DF93EC011F
:1006B0009C012A5F3F4F41E050E060E070E08B8D8D
:1006C0009C8D0E9482088823B1F08F89988DA98D16
:1006D000BA8D892B8A2B8B2B69F48E819F81A885FB
:1006E000B9858F8B988FA98FBA8F8C8180688C8306
:1006F00081E001C081E0DF91CF910895CF93DF9336
:10070000EC01462F6E857F85888999890E94EC06C9
:10071000882341F08A8920E2829FC0011124865FEC
:100720009A4F02C080E090E0DF91CF9108958F92C0
:100730009F92AF92BF92CF92DF92EF92FF920F9370
:100740001F93CF93DF93EC018D81882309F47FC041
:100750000B891C892D893E89041715072607370741
:1007600008F474C0823031F44A875B876C877D87D8
:1007700081E06DC0411551056105710551F41E827E
:100780001F82188619861A861B861C861D8681E0A4
:100790005EC08A849B84AC84BD84EB8DFC8D858592
:1007A00090E0099695018401015011092109310950
:1007B000082E04C036952795179507950A94D2F709
:1007C0006A017B01E1E0CE1AD108E108F10804C01A
:1007D000F694E794D794C7948A95D2F7C016D106B9
:1007E000E206F30620F089288A288B2849F48F89AD
:1007F000988DA98DBA8D8E839F83A887B98716C0DF
:10080000C01AD10AE20AF30A11C04E815F816885DD
:10081000798598018B8D9C8D0E94250791E0C91ADE
:10082000D108E108F108811106C011C04A015B013D
:100830008E010A5F1F4FC114D104E104F10429F7AE
:100840008A869B86AC86BD8681E001C080E0DF9110
:10085000CF911F910F91FF90EF90DF90CF90BF90BD
:10086000AF909F908F9008950F931F93CF93DF9336
:10087000FC0185818823D1F1EF018481882394F5DF
:1008800061E0CF010E947E038C01892B71F18D8183
:10089000823048F48B899C89AD89BE89F801848FA8
:1008A000958FA68FB78F8F89988DF801938F828F40
:1008B0008F89988DA98DBA8DB58BA48BE091010598
:1008C000F0910205309759F0B8016A5E7F4FC80178
:1008D00048960995F801808D918D938B828B8C8140
:1008E0008F778C830E94B10601C080E0DF91CF91A9
:1008F0001F910F9108952F923F924F925F926F92A6
:100900007F928F929F92AF92BF92CF92DF92EF929F
:10091000FF920F931F93CF93DF9300D000D000D0AE
:10092000CDB7DEB78C011B015E834D83DC011596CC
:100930008C911597813009F07DC114968C91149794
:1009400081FF78C182FF18C053964D915D916D91E2
:100950007C9156971A968D919D910D90BC91A02DEA
:1009600084179507A607B70709F474C1C8010E9448
:100970009703882309F45EC1ED81FE81EF2B09F412
:100980002DC1CD80DE80A12C6894BB24B1F8D801A4
:100990001A964D915D916D917C911D975B96ED91AD
:1009A000FC915C972A013B01032E39E07694679411
:1009B000579447943A95D1F7302D948191509421D2
:1009C0004A01B1E09B22911156C08114910409F0B3
:1009D00074C1D80116964D915D916D917C911997D6
:1009E0004115510561057105B1F457968D919D91A1
:1009F0000D90BC91A02D0097A105B10531F4C8015F
:100A00000E94550381112CC115C1F801868397837B
:100A1000A087B18725C19E012F5F3F4FCF010E9464
:100A20002507811102C090E072C149815A816B8112
:100A30007C81D8015B96ED91FC915C978789803130
:100A400029F088EF9FEFAFEFBFE004C088EF9FEF82
:100A5000A0E0B0E0481759076A077B0730F0C801EB
:100A60000E9455038111FCC0E5C0F80146835783FD
:100A700060877187F5C095012819390976012C1511
:100A80003D0508F47901D80116964D905D906D9062
:100A90007C901997B2E04B1A5108610871080584DF
:100AA00004C0440C551C661C771C0A94D2F746857A
:100AB000578560897189440E551E661E771E490E42
:100AC000511C611C711CE114E2E0FE0641F58091AD
:100AD000000190910101A0910201B09103018415E0
:100AE0009505A605B70559F48FEF9FEFDC018093BC
:100AF000000190930101A0930201B09303019101C1
:100B0000B301A20180910805909109050E94FA02A3
:100B1000882309F48FC09EEF391A75014CC08114E7
:100B2000910429F5D8011A964D915D916D917C91B2
:100B30001D9753968D919D910D90BC91A02D4817B6
:100B400059076A077B0798F00E94B106882309F4C9
:100B500071C04092000150920101609202017092B6
:100B600003018091070581608093070508C041E07B
:100B7000C301B2010E94EC06882309F45BC0C401E2
:100B8000865F9A4FAC014E0D5F1D8417950799F053
:100B9000F101DC0191012E0D3F1D61916D93E21772
:100BA000F307D9F70196E1E0F0E0E81BF90B4E0FEF
:100BB0005F1F240E351ECE18DF08F801828593854D
:100BC000A485B5858E0D9F1DA11DB11D82879387BC
:100BD000A487B587C114D10409F0D9CEF801828564
:100BE0009385A485B5854389548965897689481795
:100BF00059076A077B0740F4838B948BA58BB68BD0
:100C00008481806884830DC08091010590910205E4
:100C1000892B39F02D813E81232B19F08481806846
:100C20008483F801848183FF0FC0C8010E943404CB
:100C300081110DC081E090E0D80113969C938E93B2
:100C4000129780E090E063C08D819E8160C08D81AD
:100C50009E815DC0ED81FE81EF2B09F092CEE1CF48
:100C60007601F1E0CF16F2E0DF0608F07501D80159
:100C70005B96ED91FC915C9716964D905D906D9012
:100C80007C901997B2E04B1A5108610871080584ED
:100C900004C0440C551C661C771C0A94D2F7868548
:100CA0009785A089B189480E591E6A1E7B1EE114E2
:100CB000E2E0FE0609F036CF0ACFC501881999098E
:100CC00076018C159D0508F47C01D80116964D908F
:100CD0005D906D907C901997B2E04B1A51086108B5
:100CE0007108058404C0440C551C661C771C0A94CA
:100CF000D2F786859785A089B189480E591E6A1E4C
:100D00007B1EE114E2E0FE0609F031CFE0CE26962C
:100D10000FB6F894DEBF0FBECDBFDF91CF911F910C
:100D20000F91FF90EF90DF90CF90BF90AF909F908A
:100D30008F907F906F905F904F903F902F9008958D
:100D4000CF93DF931F92CDB7DEB7698341E050E0C8
:100D5000BE016F5F7F4F0E947B040F90DF91CF91A8
:100D60000895809107058823A9F1409100015091D1
:100D7000010160910201709103012AE035E0809148
:100D80000805909109050E94FA02882321F14091FB
:100D90000305509104056091050570910605411504
:100DA00051056105710591F02AE035E08091080553
:100DB000909109050E94FA02882369F010920305B8
:100DC0001092040510920505109206051092070571
:100DD00081E0089581E00895CF92DF92EF92FF9233
:100DE000CF936B017C01C42F809100019091010190
:100DF000A0910201B09103018C159D05AE05BF05C0
:100E0000C1F00E94B1068823D1F02AE035E0B70195
:100E1000A60180910805909109050E94BA028823D5
:100E200071F0C0920001D0920101E0920201F092B3
:100E3000030180910705C82BC093070581E0CF917E
:100E4000FF90EF90DF90CF9008958F929F92AF9296
:100E5000BF92CF92DF92EF92FF920F931F93CF93A7
:100E6000DF93E901FC0101851285238534850F5F3D
:100E70001F4F2F4F3F4F041715072607370708F45A
:100E800077C08E016A017B01EC0183899489A58971
:100E9000B68927892031D1F4452F562F672F772720
:100EA0004A015B01880E991EAA1EBB1EC501B40132
:100EB0008090000190900101A0900201B090030188
:100EC000681579058A059B05F1F425C0689416F824
:100ED00076956795579547951694D1F74A015B012A
:100EE000880E991EAA1EBB1EC501B4018090000188
:100EF00090900101A0900201B0900301681579055E
:100F00008A059B05E1F040E00E94EC06882389F108
:100F10008F898031A1F4DD24EE24FF24C601880FDF
:100F2000991FFC01E65FFA4F80819181A0E0B0E05B
:100F3000F80180839183A283B38381E01AC0E8948F
:100F4000C7F8DD24EE24FF24C601880F991F880FFF
:100F5000991FFC01E65FFA4F80819181A281B381E4
:100F6000BF70F80180839183A283B38381E001C0C5
:100F700080E0DF91CF911F910F91FF90EF90DF9074
:100F8000CF90BF90AF909F908F9008954F925F92B7
:100F90006F927F928F929F92AF92BF92CF92DF9289
:100FA000EF92FF920F931F93CF93DF93EC016A01AF
:100FB0007B0128013901423051056105710508F4B2
:100FC0008BC089859A85AB85BC850196A11DB11D15
:100FD00084179507A607B70708F480C08B899C89FA
:100FE000AD89BE892F892031C1F4852E962EA72E7A
:100FF000BB24880E991EAA1EBB1E809100019091F1
:101000000101A0910201B091030188169906AA0678
:10101000BB06F1F44C015D0126C04A015B016894F6
:1010200016F8B694A794979487941694D1F7880EDF
:10103000991EAA1EBB1E8091000190910101A091F2
:101040000201B091030188169906AA06BB06B9F001
:1010500040E0C501B4010E94EC06882309F441C0B8
:101060008F89803171F4DD24EE24FF24C601880FBE
:10107000991FFC01E65FFA4F5182408213C04C0178
:101080005D01E894C7F8DD24EE24FF24C601880F33
:10109000991F880F991FFC01E65FFA4F4082518229
:1010A00062827382809107058160809307058A8937
:1010B0008230B0F08D819E81AF81B885880E991EF7
:1010C000AA1EBB1E8092030590920405A0920505FE
:1010D000B092060581E005C080E003C080E001C059
:1010E00081E0DF91CF911F910F91FF90EF90DF9002
:1010F000CF90BF90AF909F908F907F906F905F90B8
:101100004F9008952F923F924F925F926F927F92ED
:101110008F929F92AF92BF92CF92DF92EF92FF9207
:101120000F931F93CF93DF93CDB7DEB72F970FB6F3
:10113000F894DEBF0FBECDBF1C01F9018080918005
:10114000A280B38081149104A104B10439F02FEF7F
:10115000821A920AA20AB20A1D860DC0DC018D9085
:101160009D90AD90BC90B1E0BD87413051056105C7
:10117000710509F01D86D10119960D911D912D91D2
:101180003C911C97D901C8010196A11DB11D8D8309
:101190009E83AF83B887012B022B032B09F45FC01A
:1011A000FF87EE8749875A876B877C8775016401C3
:1011B000412C512C320112E000E02D813E814F8103
:1011C00058852C153D054E055F0540F4C12ED02EE7
:1011D000E12CF12C812E902EA12CB12C9E012F5FA1
:1011E0003F4FB701A601C1010E9425078823B9F12D
:1011F00089819A81AB81BC81892B8A2B8B2B41F011
:10120000460157013FEF831A930AA30AB30A12C09B
:10121000D701C6010196A11DB11D88199909AA0916
:10122000BB0929853A854B855C8582179307A407FE
:10123000B507B9F03FEF431A530A630A730A4FEF39
:10124000C41AD40AE40AF40AF10181859285A385BF
:10125000B485481659066A067B0608F4AECF80E0CE
:1012600053C00FEF1FEF2FEF3FE0B701A601C10101
:101270000E94C607811112C047C09701860168010C
:101280007901F1E0CF1AD108E108F108B701A60110
:10129000C1010E94C607811107C036C08C149D048D
:1012A000AE04BF0450F307C0970186018C149D045F
:1012B000AE04BF0420F3AE85BF854D915D916D9165
:1012C0007C91411551056105710539F09501840145
:1012D000C1010E94C6078823B9F0EE85FF85808290
:1012E0009182A282B382FD85FF2369F02FEF821ADB
:1012F000920AA20AB20AD1018D929D92AD92BC923D
:10130000139781E001C081E02F960FB6F894DEBFFD
:101310000FBECDBFDF91CF911F910F91FF90EF9046
:10132000DF90CF90BF90AF909F908F907F906F9005
:101330005F904F903F902F9008950895FC018DE9A4
:1013400099E0928B818B768365831482108289E089
:10135000818381E0828383830895FC0184810895E1
:10136000CF93DF93EB0167E0CE010E948C0E91E0FA
:101370002F81821390E0892FDF91CF910895EF9212
:10138000FF920F931F93CF93DF938C017B01D42F98
:10139000FC01858196810E94BC0DC0E00BC0CD137D
:1013A00006C0B701C8010E94B00981110DC0CF5F0E
:1013B000DC1748F0B701F801858196810E94F40D91
:1013C0008111EDCF01C080E0DF91CF911F910F918E
:1013D000FF90EF900895EF92FF920F931F93CF939A
:1013E000DF93EC017B018A018D819E810E949A0C22
:1013F000B7018D819E810E94990D40E06EEB8D8139
:101400009E810E94410D8D819E810E947E0DF8017A
:1014100080838D819E810E947E0DF80181838D8164
:101420009E810E947E0DF80182838D819E810E94A3
:101430007E0DF80183838D819E810E947E0DF801CF
:1014400084838D819E810E947E0DF80185838D812C
:101450009E810E947E0DF80186838D819E810E946F
:101460007E0DF80187838D819E810E947E0DF8019B
:1014700080878D819E810E949A0CDF91CF911F9170
:101480000F91FF90EF900895CF93DF93EA010E94B0
:10149000EB0968E0CE010E948C0E91E02885821352
:1014A00090E0892FDF91CF9108950F931F93CF93F1
:1014B000DF93EC018B018D819E810E949A0CB80113
:1014C0008D819E810E94990D40E064EB8D819E810B
:1014D0000E94410D8D819E810E94160D182F8D81D5
:1014E0009E810E949A0C81E0111180E0DF91CF91E2
:1014F0001F910F910895CF93DF93CDB7DEB7299752
:101500000FB6F894DEBF0FBECDBFFB0120812031A6
:10151000D9F0AE014F5F5F4F0E94440A8823B1F0BB
:101520008D818F3369F018F48F3161F007C08F35EA
:1015300019F08F3769F002C08BE00BC080E009C062
:101540008AE007C089E005C089E003C080E001C0EF
:101550008CE029960FB6F894DEBF0FBECDBFDF91A9
:10156000CF910895EF92FF920F931F93CF93DF9344
:10157000CDB7DEB761970FB6F894DEBF0FBECDBF13
:101580008C01FC01858196810E94BC0DF8011482BA
:10159000EE24E39437C0BE01665F7F4FC8010E940E
:1015A000B009882379F1F801808181110AC0BE0158
:1015B000665F7F4FC8010E94550A882311F0F80129
:1015C000E082AE014F5F5F4FBE01665F7F4FC80193
:1015D0000E94EB09F801F180BE01665F7F4FC801F0
:1015E0000E947B0A8F1518F4F801818106C0BE01A4
:1015F000665F7F4FC8010E947B0AF8018183848166
:101600008F5F8483BE01665F7F4FF801858196817D
:101610000E94F40D8111BFCF61960FB6F894DEBF22
:101620000FBECDBFDF91CF911F910F91FF90EF9033
:101630000895CF93DF93CDB7DEB729970FB6F8940F
:10164000DEBF0FBECDBFAE014F5F5F4F0E94EB0903
:1016500081E09981911101C080E029960FB6F8943C
:10166000DEBF0FBECDBFDF91CF910895CF92DF9245
:10167000EF92FF920F931F93CF93DF93EC018B01B7
:10168000452BF1F08B818823D9F08881811118C016
:101690000E946F1B6B017C0160E070E0CE010E9434
:1016A000190B81110DC00E946F1BDC01CB018C193D
:1016B0009D09AE09BF098E3E9240A105B10560F3B8
:1016C000F80180818A3059F08B3081F08930A9F49B
:1016D0006EE570E080E090E00E94A11B14C06CEB0E
:1016E00070E080E090E00E94A11B0DC067E771E010
:1016F00080E090E00E94A11B06C06EEE72E080E0E8
:1017000090E00E94A11BDF91CF911F910F91FF905C
:10171000EF90DF90CF900895CF93DF93EC018D8110
:101720009E810E949A0C8D819E810E94B70D4881F6
:1017300064E48D819E810E94410D8A81882341F05D
:10174000BE016F5F7F4F40E050E0CE010E94360B3C
:10175000DF91CF9108958F929F92AF92BF92CF92D7
:10176000DF92EF92FF921F93CF93DF93FB01EA0189
:10177000898190E0982F88272881BC01622B808185
:10178000823231F0883221F0803109F07EC04CC0C5
:101790008C818F3329F118F48F3199F176C08F3510
:1017A00081F08F3709F071C0072E000C880B990B60
:1017B0000E94CE1D20E030E040E85DE30E94831EE1
:1017C00065C075956795072E000C880B990B0E94D4
:1017D000CE1D20E030E040E05EE30E94831E56C054
:1017E0007595679575956795072E000C880B990B75
:1017F0000E94CE1D20E030E040E85EE30E94831EA0
:1018000045C0759567957595679575956795072E8C
:10181000000C880B990B0E94CE1D20E030E040E0C8
:101820005FE30E94831E32C01F8175956795072E66
:10183000000C880B990B0E94CE1D20E030E040E8A0
:101840005EE30E94B21C6B017C01812F90E02E812F
:10185000821B9109BC01990F880B990B0E94CE1D28
:101860004B015C01612F70E080E090E00E94CC1D94
:101870009B01AC01C501B4010E94241D9B01AC0178
:10188000C701B6010E94B31C01C004C0562F472FE8
:10189000382F292F652F742F832F922FDF91CF910F
:1018A0001F91FF90EF90DF90CF90BF90AF909F90EF
:1018B0008F900895EF92FF920F931F93CF93DF9332
:1018C000CDB7DEB729970FB6F894DEBF0FBECDBFF8
:1018D0008C017B01AE014F5F5F4F0E94440A882359
:1018E00041F0AE014F5F5F4FB701C8010E94AB0BE3
:1018F00004C060E070E08EEF92EC29960FB6F89489
:10190000DEBF0FBECDBFDF91CF911F910F91FF9032
:10191000EF900895FC018081089526E636E646EEB4
:101920005FE30E94831E20E030E040E052E40E942A
:10193000B31C0895FF920F931F93CF93DF93FC0185
:10194000D08101811281F894F8018181FD2EF094FB
:101950008F2181837894CCE702C0C15041F182E0AD
:1019600090E00E94CD1BF80190819D23B1F3F89483
:1019700082818F21828381818D2B8183789480EE77
:1019800091E00E94CD1BF894F8018181F822F18248
:1019900086E490E00E94CD1BF8018081D823C1E04D
:1019A00009F0C0E078948AE991E00E94CD1B8C2F69
:1019B000DF91CF911F910F91FF9008951F93CF93C7
:1019C000DF93FC011081C181D28160FF16C0F894C1
:1019D0008A81912F909589238A838981812B89839C
:1019E0008AE090E00E94CD1B8A81182B1A8378949C
:1019F00087E390E00E94CD1B15C0F8948A81912F57
:101A0000909589238A838981812B898381E490E061
:101A10000E94CD1B8A81182B1A83789485E090E070
:101A20000E94CD1BDF91CF911F9108950F931F93BB
:101A3000CF93DF93FC011081C181D281F894898119
:101A4000812B89838A81012F009580238A8383E0FB
:101A500090E00E94CD1B8981082309838AE090E0F1
:101A60000E94CD1BC881789485E390E00E94CD1B35
:101A70001C2381E009F480E0DF91CF911F910F9149
:101A80000895BF92CF92DF92EF92FF920F931F9330
:101A9000CF93DF937C01D62EB42EC8E0D0E011E0C6
:101AA00001E0C12C602F912F9D2109F46C2DC701FD
:101AB0000E94DE0C110F2197A9F7B11015C0F89400
:101AC000D7011196ED91FC91129791818C9180959F
:101AD000892381831196ED91FC91129792818C91CB
:101AE0008095892382837894DF91CF911F910F9104
:101AF000FF90EF90DF90CF90BF900895EF92FF920C
:101B00000F931F93CF93DF937C01C8E0D0E000E0F8
:101B100011E0C7010E94160D8111012B110F2197B1
:101B2000C1F7802FDF91CF911F910F91FF90EF9020
:101B30000895EF92FF920F931F93CF93DF937C0151
:101B40008B0140E065E50E94410DE801085F1F4FF1
:101B5000699140E0C7010E94410DC017D107C1F74C
:101B6000DF91CF911F910F91FF90EF90089540E08A
:101B70006CEC0E94410D0895DC011B961C921B9792
:101B80001D961C921D971C961C921C971A961C92CF
:101B9000FC013A9603961292E817F907E1F70895C7
:101BA0001F93CF93DF93EC01162F60E0812F0E94EB
:101BB000421C612F70E0FB01E358FE4FE491E88383
:101BC000FB01EF56FE4FE491F0E0EE0FFF1FEB55E7
:101BD000FE4F859194919A838983CE010E94BC0D1A
:101BE000DF91CF911F9108959F92AF92BF92CF92B4
:101BF000DF92EF92FF920F931F93CF93DF93EC014D
:101C0000C62ED72E8D85811161C0CE010E949A0CFF
:101C1000811104C01B861D861C8672C040E060EFE7
:101C2000CE010E94410D01E0F12CA12CEE24E394A1
:101C3000BB24B394912CCE010E94160D182FCE0117
:101C40000E94160D113009F04DC08130C9F435C025
:101C50008B85E81648F4FE01EF0DF11D838180238A
:101C60001B2D29F4192D03C01B2DE812192D11115C
:101C700005C088E08E15C8F1EC8637C0113041F4FC
:101C8000FE01EF0DF11D8381802B83831B2D08C086
:101C9000FE01EF0DF11D9381802F809589238383B1
:101CA000612FCE010E94DE0CE394000F11F4F39437
:101CB0000B2D87E08F1508F0BECF80E48E1530F431
:101CC000AB86A11014C081E08D8711C01B861D86D4
:101CD0001C8680E015C081918D93EC17FD07D9F724
:101CE00081E00EC01813D4CFB3CFAE2CD1CF8B81EF
:101CF000882361F3FE013396AC2DBD2D2B96EBCFDF
:101D0000DF91CF911F910F91FF90EF90DF90CF90D7
:101D1000BF90AF909F9008952FEF260F662369F034
:101D2000A82FB92F80E09D91E82FE927F0E0E8592E
:101D3000FF4F84912150B8F7089580E00895449AA8
:101D4000459A1092B90080E28093B80084E08093B5
:101D5000BC0008958FEF90E0ECEBF0E00EC001972F
:101D600061F41092BC008091530790915407019642
:101D700090935407809353070895208122237CF782
:101D800008951F93CF93DF93182FCCEBD0E084EA14
:101D900088830E94AA0E1093BB0084E888830E9467
:101DA000AA0EDF91CF911F9108958093BB0084E824
:101DB0008093BC000E94AA0E0895CF93DF93D62F84
:101DC000C42F880F0E94C10E8D2F0E94D50E8C2F1C
:101DD0000E94D50E84E98093BC00DF91CF910895D5
:101DE00092E09093B800482F60E88CE30E94DD0EEB
:101DF00008958EEA0E94F00E8EE20E94F00E84EAB0
:101E00000E94F00E62E370E080E090E00E94A11B6F
:101E100080E20E94F00E82E00E94F00E81EA0E94B1
:101E2000F00E88EC0E94F00E86EA0E94F00E81E827
:101E30000E94F00E8FEF0E94F00E64E170E080E0EF
:101E400090E00E94A11B8FEA0E94F00E64E170E016
:101E500080E090E00E94A11B0895CF93C62F80558B
:101E60000E94F00E8C2F880F880F880F88700E94B8
:101E7000F00E8C2F90E0969587958F70805F0E9472
:101E8000F00ECF91089592E09093B800482F60E44F
:101E90008CE30E94DD0E0895CF93DF93D0E060E0E5
:101EA0008D2F0E942D0FC0E080E00E94430FCF5F76
:101EB000C038D1F7DF5FD83091F7DF91CF91089527
:101EC000EF92FF920F931F93CF93DF93EC018881E2
:101ED000811121C025C0E881F0E0B097EE0FFF1F0F
:101EE000EE0FFF1FEE0FFF1FE00FF11FEC5FFE4F25
:101EF00080810E94430F6AE070E080E090E00E94E1
:101F0000A11B0F5F1F4F0830110529F7219688810B
:101F1000811103C005C0E12CF12C0E2D1F2DDBCF4C
:101F2000DF91CF911F910F91FF90EF9008954F9205
:101F30005F926F927F928F929F92AF92BF92CF9259
:101F4000DF92EF92FF920F931F93CF93DF93CDB762
:101F5000DEB72A970FB6F894DEBF0FBECDBF662E50
:101F6000772E982E892E20E030E048EC52E40E9433
:101F7000241D20E030E040E85FE30E947E1E8823BD
:101F8000ACF120E030E048EC52E4662D772D892D4D
:101F9000982D0E947E1E1816ECF4162D072DF92C94
:101FA000E82CD12C20E030E048EC52E4612F702F77
:101FB0008F2D9E2D0E94B21C162F072FF82EE92E72
:101FC000D39420E030E048EC52E40E947E1E1816C4
:101FD0004CF305C0162D072DF92CE82CD12C80E3ED
:101FE0008D0D8983CC24C394D12C06C0162D072DCA
:101FF000F92CE82CC12CD12C20E030E040E251E457
:10200000612F702F8F2D9E2D0E94241D20E030E027
:1020100040E85FE30E947E1E882384F120E030E0E8
:1020200040E251E4612F702F8F2D9E2D0E947E1E65
:102030008823CCF0B12C20E030E040E251E4612F65
:10204000702F8F2D9E2D0E94B21C162F072FF82E59
:10205000E92EB39420E030E040E251E40E947E1E7D
:1020600088234CF701C0B12CFE01EC0DFD1D80E36F
:102070008B0D81838FEFC81AD80A08C0FE01EC0DC2
:10208000FD1D80E381838FEFC81AD80A20E030E07D
:10209000A901612F702F8F2D9E2D0E947E1E8823F7
:1020A0000CF4AFC020E030E040E85FE3612F702F18
:1020B0008F2D9E2D0E947E1E8823CCF0B12C20E017
:1020C00030E040E85FE3612F702F8F2D9E2D0E943E
:1020D000B21C162F072FF82EE92EB39420E030E023
:1020E00040E85FE30E947E1E88234CF701C0B12CBC
:1020F000E1E0F0E0EC0FFD1FEC0DFD1D80E38B0D2A
:10210000808356018FEFA81AB80AE1E0F0E0EC0FE7
:10211000FD1FEA0DFB1D8EE28083260182E0480E42
:10212000511C2DEC3CEC4CEC5DE3612F702F8F2D9E
:102130009E2D0E947E1E882314F423C05601D12CAC
:102140002DEC3CEC4CEC5DE3612F702F8F2D9E2D20
:102150000E94B21C162F072FF82EE92ED3942DECD7
:102160003CEC4CEC5DE30E947E1E88234CF7FE01A4
:10217000E40DF51D80E38D0D818382E0A80EB11C76
:1021800008C0FE01E40DF51D80E3818382E0A80E06
:10219000B11C2AE037ED43E25CE3612F702F8F2DF5
:1021A0009E2D0E947E1E8823F4F0D12C2AE037ED6C
:1021B00043E25CE3612F702F8F2D9E2D0E94B21C95
:1021C000162F072FF82EE92ED3942AE037ED43E29D
:1021D0005CE30E947E1E88234CF7FE01EA0DFB1D86
:1021E00080E38D0D818320E030E048EC52E4662DE1
:1021F000772D892D982D0E941F1D8823D4F41E82CF
:1022000018C08EE2FE01EC0DFD1D818326018FEFCB
:10221000481A580A2DEC3CEC4CEC5DE3612F702F12
:102220008F2D9E2D0E947E1E88230CF087CF560195
:10223000A8CF61E070E080E090E00E94A11BCE0199
:1022400001962A960FB6F894DEBF0FBECDBFDF9180
:10225000CF911F910F91FF90EF90DF90CF90BF90A3
:10226000AF909F908F907F906F905F904F90089568
:102270004F925F926F927F928F929F92AF92BF9296
:10228000EF92FF920F931F93CF93DF93CDB7DEB7FB
:1022900062970FB6F894DEBF0FBECDBF89E297E01C
:1022A0000E94B20A89E297E00E94AD09E82EF12C63
:1022B00089E297E00E948A0C882339F06DE074E08F
:1022C00089E997E00E94111804C089E297E00E9412
:1022D0008C0B1E141F040CF0A2C000E010E0402F75
:1022E000BE01655F7F4F89E297E00E94BF098823A6
:1022F00009F48FC061E174E089E997E00E94111848
:102300004AE050E0B80189E997E00E94FC1864E1D6
:1023100074E089E997E00E941118BE01655F7F4F64
:1023200089E297E00E945A0C2B013C010E948D0C1F
:102330004B015C01C301B2010E948D0CAB01BC01D9
:1023400022E030E089E997E00E94261A67E081E008
:102350000E942D0FC501B4010E94970FFC01DE0100
:1023600011969C01295F3F4F91919A3310F49C93F1
:1023700001C01C921196E217F307B1F7CE01019646
:102380000E94600F40904B0750904C0760904D07A3
:1023900070904E07A3019201C501B4010E941F1D58
:1023A00088234CF020E030E0A901C301B2010E9473
:1023B0001F1D811110C080924B0790924C07A09274
:1023C0004D07B0924E0766E084E00E942D0FCE01CB
:1023D00001960E94600F20914F0730915007409165
:1023E000510750915207C501B4010E947E1E181674
:1023F00084F480924F0790925007A0925107B092B8
:10240000520766E085E00E942D0FCE0101960E94E2
:10241000600F0F5F1F4FE016F10609F060CF629664
:102420000FB6F894DEBF0FBECDBFDF91CF911F91E5
:102430000F91FF90EF90BF90AF909F908F907F9003
:102440006F905F904F90089564E670E080E090E0B8
:102450000E94A11B40E056E960E070E08AE097E04E
:102460000E94241566E174E08AE097E00E943B1820
:1024700064E670E080E090E00E94A11B26E040E06E
:1024800056E960E070E089E997E00E948D166CE201
:1024900074E089E997E00E943B180E949F0E0E9419
:1024A000F90E6AE070E080E090E00E94A11B0E94BB
:1024B0004C0F62E370E080E090E00E94A11B80E29C
:1024C0000E94F00E82E00E94F00E86EA0E94F00E5A
:1024D00061E081E00E942D0F84E794E00E94600F8C
:1024E00061E082E00E942D0F8CE694E00E94600F74
:1024F00061E084E00E942D0F86E694E00E94600F68
:1025000061E085E00E942D0F80E694E00E94600F5C
:102510006AE070E080E090E00E94A11B08950F93B4
:102520001F93CF93DF93CDB7DEB72A970FB6F894FA
:10253000DEBF0FBECDBF67E574E08AE097E00E9482
:102540003B180E94381180914A071F928F938DE5A6
:1025500094E09F938F938E010F5F1F4F1F930F93F4
:102560000E943C1F61E087E00E942D0FC8010E947D
:10257000600F80914A078F5F80934A0768EE73E08F
:1025800080E090E00E94A11B0F900F900F900F90A1
:102590000F900F902A960FB6F894DEBF0FBECDBFF6
:1025A000DF91CF911F910F91089569E08CE397E03F
:1025B0000E94D00D6CE377E089E297E00E949E09CB
:1025C00020E047E066E08AE097E00E94F814089572
:1025D0008AE097E00E949E14089520919707309119
:1025E000980728173907F9F49091550780915607F5
:1025F0009817E1F0E0915507F0E0E95AF84F808133
:102600002091550730E02F5F3F4F2F7330783323F1
:1026100034F421503109206C3F6F2F5F3F4F2093DE
:10262000550790E008958FEF9FEF08958FEF9FEF8C
:102630000895209197073091980728173907B1F42A
:10264000209156078091550730E0205C3F4F281BB2
:1026500031092F733078332334F421503109206C41
:102660003F6F2F5F3F4F822F932F089580E090E0C0
:1026700008951F93CF93DF93EC014C8D5D8D411531
:10268000510529F481E090E09B838A8339C0A989B0
:10269000BA893889832F80951FB79E8D91FB772744
:1026A00070F991FD6095F894772321F09C91932B1C
:1026B0009C9303C09C9198239C93FA013197F1F766
:1026C00098E060FF04C02C91232B2C9303C02C9125
:1026D00028232C93FA013197F1F76695915089F7E9
:1026E000772321F09C9189238C9303C08C91382B04
:1026F0003C931FBF8C8D9D8D0197F1F741E050E019
:10270000CA01DF91CF911F910895209197073091D1
:1027100098072817390739F48FB7F894109256079D
:10272000109255078FBF0895209197073091980711
:102730002817390771F4909155078091560798171B
:1027400059F0E0915507F0E0E95AF84F808190E0A8
:1027500008958FEF9FEF08958FEF9FEF0895E09119
:102760009707F0919807E817F90769F4A389B489E6
:102770009C918589809589238C931092980710925B
:10278000970781E0089580E00895CF93DF93EC01EF
:102790008A8D9B8D892BF1F08091970790919807F6
:1027A0008C179D07C9F0009711F00E94AF138E8D12
:1027B0008E7F8E8F1092560710925507D0939807F0
:1027C000C0939707EB89FC8990818D89892B808341
:1027D00081E003C080E001C080E0DF91CF910895E7
:1027E0001F920F920FB60F9211242F933F934F9386
:1027F0005F936F937F938F939F93AF93BF93CF9389
:10280000DF93EF93FF93A0919707B09198071097EC
:1028100009F481C05E968C915E9781FF0DC01E9673
:10282000ED91FC911F9790811D968C911D97982397
:1028300081E071F480E00CC01E96ED91FC911F9731
:1028400090811D968C911D97982381E009F080E07E
:10285000882309F460C05396ED91FC9154979081C0
:1028600055968C91559780958923808356968D91A6
:102870009C9157970197F1F758966D917C915997D4
:102880001E96CD91DC911F971D965C911D9738E0A7
:1028900040E0FB013197F1F7842F90E09595879503
:1028A000482F2881252309F04068315091F75E9622
:1028B0008C915E9781FD40958091560790E001963E
:1028C0008F739078992324F40197806C9F6F019601
:1028D00020915507281749F0E0915607F0E0E95A92
:1028E000F84F40838093560707C05E968C915E97A1
:1028F00081605E968C935E975A968D919C915B97C2
:102900000197F1F75396ED91FC915497908155966C
:102910008C91892B8083FF91EF91DF91CF91BF91B3
:10292000AF919F918F917F916F915F914F913F9167
:102930002F910F900FBE0F901F9018952FE734E046
:10294000FC01318320830E94AF1308951F93CF931E
:10295000DF93EC01162F6E8D6695617081E068271C
:10296000812F0E94811C61E0812F0E94421C612FF7
:1029700070E0FB01E358FE4FE491E88BFB01EF565A
:10298000FE4FE491F0E0EE0FFF1FE155FE4F859101
:1029900094919A8B898BDF91CF911F9108951F930A
:1029A000CF93DF93EC01162F60E0812F0E94421C31
:1029B0008E8D81FD04C061E0812F0E94811C1C87E7
:1029C000612F70E0FB01E358FE4FE491ED87FB01BE
:1029D000EF56FE4FE491F0E0EE0FFF1FEB55FE4F78
:1029E000859194919F878E87DF91CF911F91089554
:1029F0001F93CF93DF93EC01162F1B821A8288EE70
:102A000093E0A0E0B0E08C839D83AE83BF838FE72B
:102A100094E0998388831F8A1E8A198E188E1B8ED4
:102A20001A8E1D8E1C8E8E8D8E7F20FB81F98E8FCF
:102A3000642FCE010E94A614612FCE010E94CF14F4
:102A4000DF91CF911F910895CF93DF93EC019A010D
:102A5000AB011B8E1A8E198E188E1F8A1E8A60E893
:102A600074E88EE190E00E94171FF90124303105CF
:102A700018F0C901039702C081E090E09D8F8C8F10
:102A80008C85863108F041C0B9017695679564312F
:102A9000710518F06351710902C061E070E07F8B2D
:102AA0006E8B369720F0B9016550710902C061E064
:102AB00070E0798F688FB901660F771F260F371F77
:102AC00036952795369527952D30310510F12C50E8
:102AD000310921C021E08E3008F420E081E001C0FE
:102AE000880F2A95EAF7982B909368009C85983078
:102AF000D0F09E3010F1963158F120E030E02AC03D
:102B00008D8B8C8D9D8D0197F1F7CE010E94C513A1
:102B10002AC021E030E03B8F2A8F909168008830F6
:102B2000C8F684E0E0CF2DE630E03C8B2B8B81E0D3
:102B300001C0880F9A95EAF7E3CF2BE630E03C8B93
:102B40002B8B985081E001C0880F9A95EAF7D8CF77
:102B50002CE630E03C8B2B8B9E5081E001C0880F2F
:102B60009A95EAF7CDCFDF91CF910895FC01918D31
:102B7000228D892F90E0805C9F4F821B91098F737B
:102B800099270895FC01918D828D981731F0828DDF
:102B9000E80FF11D858D90E008958FEF9FEF089568
:102BA000FC01918D828D981761F0828DDF01A80F55
:102BB000B11D5D968C91928D9F5F9F73928F90E077
:102BC00008958FEF9FEF08958FE497E1892B49F0E7
:102BD00080E090E0892B29F00E944F1781110E941C
:102BE00000000895FC01848DDF01A80FB11DA35AD8
:102BF000BF4F8C91248D30E02F5F3F4F2F73307883
:102C0000332334F421503109206C3F6F2F5F3F4F45
:102C1000248FA689B7898C93A089B1898C9180640F
:102C20008C93938D848D981306C00288F389E02DD0
:102C300080818F7D80830895CF93DF93EC01888D11
:102C400081110FC018C00FB607FC0DC0908195FF11
:102C50000AC0A889B9898C9185FF05C0CE010E9460
:102C6000F215EA89FB89908195FDEDCFA889B98994
:102C70008C9186FFE8CFDF91CF9108950F931F933A
:102C8000CF93DF93FC0181E0808F938D848D981327
:102C900022C0A089B1898C9185FD2FC01CC00FB6C0
:102CA00007FC08C0E889F989808185FF03C0CE014F
:102CB0000E94F2159C8D091791F38B8DFE01E80F90
:102CC000F11DE35AFF4F10830B8FEA89FB89808146
:102CD000806280831BC0238D30E02F5F3F4F2F73B6
:102CE0003078332334F421503109206C3F6F2F5F4B
:102CF0003F4F162FEF01022FDDCFA689B7896C93C6
:102D00000088F189E02D80818064808381E090E0FB
:102D1000DF91CF911F910F910895BF92CF92DF92D3
:102D2000EF92FF920F931F93CF93DF93EC016A0111
:102D30007B01B22E60E874E88EE190E0A701960175
:102D40000E94F51E89019A010150110921093109DA
:102D50003695279517950795E889F98982E080834C
:102D6000011580E11807A8F0E889F989108260E46C
:102D700072E48FE090E0A70196010E94F51EDA014F
:102D8000C9010197A109B109B695A79597958795AE
:102D90008C01EC85FD851083EE85FF850083188E00
:102DA000EC89FD89B082EA89FB898081806180831A
:102DB000EA89FB89808188608083EA89FB89808138
:102DC00080688083EA89FB8980818F7D8083DF91A1
:102DD000CF911F910F91FF90EF90DF90CF90BF9018
:102DE00008951F920F920FB60F9211242F938F9375
:102DF0009F93AF93BF93EF93FF93E091A907F09157
:102E0000AA07808182FD14C0E9E9F7E0A689B789A5
:102E10002C91818D8F5F8F73928D891771F0DF01F7
:102E2000E18DF0E0E756F84F258F59968C9305C059
:102E3000E091AF07F091B0078081FF91EF91BF91D2
:102E4000AF919F918F912F910F900FBE0F901F9078
:102E500018951F920F920FB60F9211242F933F9344
:102E60004F935F936F937F938F939F93AF93BF9392
:102E7000EF93FF9389E997E00E94F215FF91EF919C
:102E8000BF91AF919F918F917F916F915F914F9182
:102E90003F912F910F900FBE0F901F90189589E9C9
:102EA00097E00E94B61521E0892B09F420E0822FDB
:102EB0000895E9E9F7E01382128288EE93E0A0E03A
:102EC000B0E084839583A683B7838FE894E09183F1
:102ED000808385EC90E09587848784EC90E09787E9
:102EE000868780EC90E0918B808B81EC90E0938BD7
:102EF000828B82EC90E0958B848B86EC90E0978BB4
:102F0000868B118E128E138E148E089508958F92D3
:102F10009F92AF92BF92CF92DF92EF92FF920F9368
:102F20001F93CF93DF935C017B014C0182E0880EFD
:102F3000911C6501E5E0CE0ED11C00E010E0F4012B
:102F400061914F014AE050E0C7010E941319EC0162
:102F50006EE2C7010E9427188C0F9D1F080F191FD2
:102F60008C149D0461F74AE050E0F5016581C701CA
:102F70000E941319800F911FDF91CF911F910F9124
:102F8000FF90EF90DF90CF90BF90AF909F908F9089
:102F90000895E6E3F8E08FE994E09183808312825C
:102FA000138214821582089508950E94D81B0E94EE
:102FB000D4170E942412C4EED5E10E948F122097EC
:102FC000E1F30E94E415F9CFCF92DF92EF92FF92E6
:102FD0000F931F93CF93DF9341155105B1F08C01EF
:102FE000E62EF72EEA01C12CD12CD7016D917D017F
:102FF000D801ED91FC910190F081E02DC801099577
:10300000C80ED91E219789F702C0C12CD12CC60148
:10301000DF91CF911F910F91FF90EF90DF90CF90B4
:1030200008956115710581F0FB0101900020E9F719
:103030003197AF01461B570BDC01ED91FC910280EB
:10304000F381E02D0995089580E090E00895DC017A
:10305000ED91FC910190F081E02D09950895DC013E
:10306000ED91FC910280F381E02D42E050E061EAB5
:1030700074E0099508950F931F93CF93DF93EC01AC
:103080000E9411188C01CE010E942F18800F911FF1
:10309000DF91CF911F910F9108954F925F926F92A0
:1030A0007F929F92AF92BF92CF92DF92EF92FF9268
:1030B0000F931F93CF93DF93CDB7DEB7A1970FB6D2
:1030C000F894DEBF0FBECDBF5C016A017B01922E7A
:1030D00019A281E0821720F00F2EFAE09F2EF02D2A
:1030E0008E010F5D1F4F492C512C612C712CC70193
:1030F000B601A30192010E94F51E8C2D929E8019AB
:103100001124015011098A3010F4805D01C0895CDE
:10311000D8018C93C22ED32EE42EF52EC114D104E7
:10312000E104F10421F70115110591F0F801019076
:103130000020E9F73197AF01401B510BD501ED910C
:10314000FC910280F381E02DB801C501099502C010
:1031500080E090E0A1960FB6F894DEBF0FBECDBF21
:10316000DF91CF911F910F91FF90EF90DF90CF9063
:10317000BF90AF909F907F906F905F904F90089519
:10318000CF92DF92EF92FF920F931F93CF93DF9333
:10319000EC016A017B012115310541F4E881F981D7
:1031A0000190F081E02D642F09951DC02A30310572
:1031B000C1F4772394F46DE20E9427188C01442710
:1031C0005527BA014C195D096E097F092AE0CE0125
:1031D0000E944D18800F911F06C02AE00E944D18D2
:1031E00002C00E944D18DF91CF911F910F91FF9067
:1031F000EF90DF90CF9008959A01AB01770F660BA7
:10320000770B0E94C01808952115310549F4DC019F
:10321000ED91FC910190F081E02D642F09950895C6
:103220000E944D1808959A01462F50E060E070E02A
:103230000E94041908954F925F927F928F929F92FD
:10324000AF92BF92CF92DF92EF92FF920F931F93B4
:10325000CF93DF9300D000D0CDB7DEB78C014A0109
:103260005B01722E9A01AB01C501B4010E94F01EF0
:10327000882331F064EA74E0C8010E941118D2C0BA
:1032800075016401E894F7F82FEF3FEF4FE75FE730
:10329000C701B6010E94F01E811110C02FEF3FEF51
:1032A0004FE75FE7C701B6010E941F1D181634F4EF
:1032B00068EA74E0C8010E941118B4C02FEF3FEF14
:1032C0004FE75FE4C501B4010E947E1E181634F476
:1032D0006CEA74E0C8010E941118A4C02FEF3FEF00
:1032E0004FE75FECC501B4010E941F1D882334F431
:1032F0006CEA74E0C8010E94111894C020E030E02C
:10330000A901C501B4010E941F1D882354F46DE278
:10331000C8010E9427187C01B7FAB094B7F8B0949E
:1033200002C0E12CF12C772009F467C0D12C60E0B9
:1033300070E080E09FE320E030E040E251E40E9452
:10334000241DD394D710F7CF2BC020E030E040E20B
:1033500051E4C501B4010E94831E4B015C010E942F
:10336000961D6B01770FEE08FF082AE030E0B701E9
:10337000A601C8010E94C018480E591EC701B60117
:103380000E94CE1D9B01AC01C501B4010E94B21C7C
:103390004B015C017A947110D8CF842D952D42C0D9
:1033A0009B01AC01C501B4010E94B31C4B015C013F
:1033B0000E949D1D69837A838B839C830E94CC1D10
:1033C0009B01AC01C501B4010E94B21C4B015C0120
:1033D0002AE030E049815A816B817C81C8010E94DA
:1033E00004196C0160EB74E0C8010E9411188C0D87
:1033F0009D1D2C014E0C5F1CA8CF20E030E040E06A
:103400005FE3C501B4010E94B31C0E949D1DAB0186
:10341000BC012AE030E0C8010E9404192C014E0CC6
:103420005F1CBBCF0F900F900F900F90DF91CF914B
:103430001F910F91FF90EF90DF90CF90BF90AF90D2
:103440009F908F907F905F904F9008950F931F9360
:10345000CF93DF93EC010E941B198C01CE010E94D7
:103460002F18800F911FDF91CF911F910F91089519
:10347000813039F018F0823051F0089510926E00CA
:103480000895EFE6F0E080818D7F80830895E0E786
:10349000F0E080818D7F808381E08093B000E1EB5C
:1034A000F0E08081887F846080831092B30008956B
:1034B000CF93C82F809104048C1308C0E8E6F1E094
:1034C000E4918E2F9FEF9093040401C08FEF0E9430
:1034D000381A60E08C2F0E94811CCF9108951F92B2
:1034E0000F920FB60F9211242F933F934F935F9338
:1034F0006F937F938F939F93AF93BF93EF93FF93BC
:1035000080913F0890914008A0914108B0914208F5
:10351000892B8A2B8B2B51F180913C08E0913D083F
:10352000F0913E0890818927808380913F08909197
:103530004008A0914108B0914208181619061A06D1
:103540001B06C4F480913F0890914008A091410867
:10355000B09142080197A109B10980933F08909367
:103560004008A0934108B093420804C0809104042D
:103570000E94581AFF91EF91BF91AF919F918F9147
:103580007F916F915F914F913F912F910F900FBE5F
:103590000F901F9018951F920F920FB60F92112443
:1035A0002F933F934F935F936F937F938F939F934B
:1035B000AF93BF93EF93FF9380914308909144089A
:1035C000892B29F0E0914308F09144080995FF9177
:1035D000EF91BF91AF919F918F917F916F915F918B
:1035E0004F913F912F910F900FBE0F901F90189504
:1035F0001F920F920FB60F9211242F933F934F9368
:103600005F936F937F938F939F93AF93BF93EF934A
:10361000FF938091450890914608892B29F0E0910D
:103620004508F09146080995FF91EF91BF91AF9140
:103630009F918F917F916F915F914F913F912F91CA
:103640000F900FBE0F901F9018951F920F920FB6FC
:103650000F9211242F933F938F939F93AF93BF9318
:103660008091480890914908A0914A08B0914B0870
:103670003091470823E0230F2D3720F40196A11D38
:10368000B11D05C026E8230F0296A11DB11D209390
:1036900047088093480890934908A0934A08B0933C
:1036A0004B0880914C0890914D08A0914E08B09124
:1036B0004F080196A11DB11D80934C0890934D08B1
:1036C000A0934E08B0934F08BF91AF919F918F91F7
:1036D0003F912F910F900FBE0F901F9018952FB70D
:1036E000F894609148087091490880914A08909137
:1036F0004B082FBF08953FB7F89480914C089091E4
:103700004D08A0914E08B0914F0826B5A89B05C062
:103710002F3F19F00196A11DB11D3FBFBA2FA92F50
:10372000982F8827820F911DA11DB11DBC01CD01CD
:10373000660F771F881F991F660F771F881F991FB5
:103740000895CF92DF92EF92FF92CF93DF936B01B8
:103750007C010E947B1BEB01C114D104E104F10444
:10376000A9F00E9486170E947B1B6C1B7D0B683E94
:10377000734038F081E0C81AD108E108F108C85157
:10378000DC4FC114D104E104F10459F7DF91CF916A
:10379000FF90EF90DF90CF9008958230910538F040
:1037A000880F991F880F991F05970197F1F70895C2
:1037B000789484B5826084BD84B5816084BD85B50C
:1037C000826085BD85B5816085BDEEE6F0E08081D3
:1037D00081608083E1E8F0E01082808182608083F4
:1037E000808181608083E0E8F0E080818160808377
:1037F000E1EBF0E0808184608083E0EBF0E08081A9
:1038000081608083EAE7F0E080818460808380814A
:1038100082608083808181608083808180688083F2
:103820001092C1000895833069F028F48130B1F01E
:103830008230C1F008958730C9F08830E9F08430D3
:1038400001F506C0E0E8F0E080818F77808308957D
:10385000E0E8F0E080818F7D8083089584B58F77E4
:1038600084BD089584B58F7D84BD0895E0EBF0E0BC
:1038700080818F7780830895E0EBF0E080818F7DF9
:1038800080830895CF93DF9390E0FC01E358FE4FCF
:103890002491FC01EF56FE4F8491882379F190E04A
:1038A000880F991FFC01E754FE4FA591B491FC01CC
:1038B000E155FE4FC591D49161110CC09FB7F894AA
:1038C0008C91E22FE0958E238C932881E223E8836C
:1038D0009FBF14C0623061F49FB7F8943C91822F6F
:1038E000809583238C93E881E22BE8839FBF06C0F9
:1038F0008FB7F894EC91E22BEC938FBFDF91CF91CF
:1039000008951F93CF93DF93282F30E0F901E759F3
:10391000FE4F8491F901E358FE4F1491F901EF56DF
:10392000FE4FC491CC23D1F0D62F81110E94131CDD
:10393000EC2FF0E0EE0FFF1FE155FE4FA591B49183
:103940008FB7F894D11106C09C91E12FE095E9233F
:10395000EC9303C0EC91E12BEC938FBFDF91CF91FF
:103960001F9108955058BB27AA270E94CA1C0C9487
:10397000441E0E94361E38F00E943D1E20F039F48D
:103980009F3F19F426F40C94331E0EF4E095E7FBE8
:103990000C942D1EE92F0E94551E58F3BA1762078A
:1039A00073078407950720F079F4A6F50C94771E29
:1039B0000EF4E0950B2EBA2FA02D0B01B90190014A
:1039C0000C01CA01A0011124FF27591B99F0593F8E
:1039D00050F4503E68F11A16F040A22F232F342FD6
:1039E0004427585FF3CF469537952795A795F04024
:1039F0005395C9F77EF41F16BA0B620B730B840B39
:103A0000BAF09150A1F0FF0FBB1F661F771F881FF0
:103A1000C2F70EC0BA0F621F731F841F48F4879548
:103A200077956795B795F7959E3F08F0B0CF93953A
:103A3000880F08F09927EE0F9795879508950E94B3
:103A4000091E08F481E008950E94381D0C94441E5C
:103A50000E943D1E58F00E94361E40F029F45F3F40
:103A600029F00C942D1E51110C94781E0C94331EC9
:103A70000E94551E68F39923B1F3552391F3951BCA
:103A8000550BBB27AA2762177307840738F09F5F7F
:103A90005F4F220F331F441FAA1FA9F335D00E2EEC
:103AA0003AF0E0E832D091505040E695001CCAF759
:103AB0002BD0FE2F29D0660F771F881FBB1F26171C
:103AC00037074807AB07B0E809F0BB0B802DBF01F3
:103AD000FF2793585F4F3AF09E3F510578F00C94C2
:103AE0002D1E0C94781E5F3FE4F3983ED4F3869528
:103AF00077956795B795F7959F5FC9F7880F911DE3
:103B00009695879597F90895E1E0660F771F881FCE
:103B1000BB1F621773078407BA0720F0621B730B81
:103B2000840BBA0BEE1F88F7E09508950E949D1D47
:103B30006894B1110C94781E08950E945D1E88F05F
:103B40009F5798F0B92F9927B751B0F0E1F0660F61
:103B5000771F881F991F1AF0BA95C9F714C0B130A2
:103B600091F00E94771EB1E008950C94771E672FA4
:103B7000782F8827B85F39F0B93FCCF386957795D1
:103B80006795B395D9F73EF49095809570956195BA
:103B90007F4F8F4F9F4F0895E89409C097FB3EF4E5
:103BA00090958095709561957F4F8F4F9F4F99238A
:103BB000A9F0F92F96E9BB279395F6958795779508
:103BC0006795B795F111F8CFFAF4BB0F11F460FFC8
:103BD0001BC06F5F7F4F8F4F9F4F16C0882311F020
:103BE00096E911C0772321F09EE8872F762F05C034
:103BF000662371F096E8862F70E060E02AF09A95CF
:103C0000660F771F881FDAF7880F9695879597F9C3
:103C10000895990F0008550FAA0BE0E8FEEF16165D
:103C20001706E807F907C0F012161306E407F507B0
:103C300098F0621B730B840B950B39F40A2661F024
:103C4000232B242B252B21F408950A2609F4A140C7
:103C5000A6958FEF811D811D089597F99F6780E8D4
:103C600070E060E008959FEF80EC089500240A94CE
:103C70001616170618060906089500240A94121647
:103C80001306140605060895092E0394000C11F47A
:103C9000882352F0BB0F40F4BF2B11F460FF04C027
:103CA0006F5F7F4F8F4F9F4F089557FD9058440F80
:103CB000551F59F05F3F71F04795880F97FB991F8B
:103CC00061F09F3F79F08795089512161306140648
:103CD000551FF2CF4695F1DF08C0161617061806D5
:103CE000991FF1CF86957105610508940895E894B0
:103CF000BB2766277727CB0197F908950E94091EF5
:103D000008F48FEF08950E94961E0C94441E0E94A2
:103D1000361E38F00E943D1E20F0952311F00C94C1
:103D20002D1E0C94331E11240C94781E0E94551ED7
:103D300070F3959FC1F3950F50E0551F629FF001FE
:103D4000729FBB27F00DB11D639FAA27F00DB11D17
:103D5000AA1F649F6627B00DA11D661F829F2227A0
:103D6000B00DA11D621F739FB00DA11D621F839F27
:103D7000A00D611D221F749F3327A00D611D231FFD
:103D8000849F600D211D822F762F6A2F11249F574B
:103D900050409AF0F1F088234AF0EE0FFF1FBB1F4E
:103DA000661F771F881F91505040A9F79E3F51050D
:103DB00080F00C942D1E0C94781E5F3FE4F3983E27
:103DC000D4F3869577956795B795F795E7959F5FB7
:103DD000C1F7FE2B880F911D9695879597F9089549
:103DE0000E94091E880B990B0895A1E21A2EAA1BA6
:103DF000BB1BFD010DC0AA1FBB1FEE1FFF1FA2179B
:103E0000B307E407F50720F0A21BB30BE40BF50B97
:103E1000661F771F881F991F1A9469F76095709520
:103E2000809590959B01AC01BD01CF010895052EB1
:103E300097FB1EF400940E942E1F57FD07D00E948E
:103E4000F51E07FC03D04EF40C942E1F50954095A0
:103E5000309521953F4F4F4F5F4F08959095809536
:103E6000709561957F4F8F4F9F4F0895EE0FFF1F05
:103E70000590F491E02D0994AEE0B0E0E2E4FFE1BA
:103E80000C94EB210D891E8986E08C831A830983AB
:103E90008FEF9FE79E838D83AE01475E5F4F6F89F3
:103EA000788DCE0101960E945F1F2F813885F80121
:103EB000E20FF31F10822E96E4E00C940722ACE090
:103EC000B0E0E5E6FFE10C94DD217C016B018A01A5
:103ED000FC0117821682838181FFBDC1CE0101964C
:103EE0004C01F7019381F60193FD859193FF819138
:103EF0006F01882309F4ABC1853239F493FD8591B4
:103F000093FF81916F01853229F4B70190E00E94FF
:103F10004721E7CF512C312C20E02032A0F48B3206
:103F200069F030F4803259F0833269F420612CC09A
:103F30008D3239F0803339F4216026C0226024604C
:103F400023C0286021C027FD27C030ED380F3A304C
:103F500078F426FF06C0FAE05F9E300D1124532E40
:103F600013C08AE0389E300D1124332E20620CC01D
:103F70008E3221F426FD6BC1206406C08C3611F40C
:103F8000206802C0883641F4F60193FD859193FFC5
:103F900081916F018111C1CF982F9F7D95549330EE
:103FA00028F40C5F1F4FFFE3F9830DC0833631F017
:103FB000833771F0833509F05BC022C0F80180813E
:103FC00089830E5F1F4F44244394512C540115C024
:103FD0003801F2E06F0E711CF801A080B18026FF5D
:103FE00003C0652D70E002C06FEF7FEFC5012C8725
:103FF0000E943C212C0183012C852F77222E17C093
:104000003801F2E06F0E711CF801A080B18026FF2C
:1040100003C0652D70E002C06FEF7FEFC5012C87F4
:104020000E9431212C012C852068222E830123FC43
:104030001BC0832D90E048165906B0F4B70180E20A
:1040400090E00E9447213A94F4CFF50127FC859136
:1040500027FE81915F01B70190E00E944721311056
:104060003A94F1E04F1A51084114510471F7E5C038
:10407000843611F0893639F5F80127FF07C06081D1
:104080007181828193810C5F1F4F08C060817181B3
:10409000072E000C880B990B0E5F1F4F2F76722E88
:1040A00097FF09C090958095709561957F4F8F4FD0
:1040B0009F4F2068722E2AE030E0A4010E947F21E9
:1040C000A82EA81844C0853729F42F7EB22E2AE0E6
:1040D00030E025C0F22FF97FBF2E8F36C1F018F4E3
:1040E000883579F0B4C0803719F0883721F0AFC037
:1040F0002F2F2061B22EB4FE0DC08B2D8460B82E00
:1041000009C024FF0AC09F2F9660B92E06C028E080
:1041100030E005C020E130E002C020E132E0F801EB
:10412000B7FE07C060817181828193810C5F1F4F50
:1041300006C06081718180E090E00E5F1F4FA40196
:104140000E947F21A82EA818FB2DFF777F2E76FED8
:104150000BC0372D3E7FA51450F474FE0AC072FCCC
:1041600008C0372D3E7E05C0BA2C372D03C0BA2CAF
:1041700001C0B52C34FF0DC0FE01EA0DF11D808198
:10418000803311F4397E09C032FF06C0B394B39472
:1041900004C0832F867809F0B39433FD13C030FF39
:1041A00006C05A2CB31418F4530C5B18B32CB31478
:1041B00068F4B70180E290E03C870E944721B39405
:1041C0003C85F5CFB31410F43B1801C0312C34FFFB
:1041D00012C0B70180E390E03C870E9447213C85F4
:1041E00032FF17C031FD03C088E790E002C088E5C8
:1041F00090E0B7010CC0832F867859F031FF02C0E0
:104200008BE201C080E237FD8DE2B70190E00E94B1
:104210004721A51438F4B70180E390E00E944721BC
:104220005A94F7CFAA94F401EA0DF11D8081B701E9
:1042300090E00E944721A110F5CF332009F451CE20
:10424000B70180E290E00E9447213A94F6CFF7014F
:104250008681978102C08FEF9FEF2C96E2E10C944C
:10426000F921FC010590615070400110D8F780954C
:1042700090958E0F9F1F0895FC0161507040019032
:104280000110D8F7809590958E0F9F1F08950F937A
:104290001F93CF93DF93FB01238121FD03C08FEF99
:1042A0009FEF28C022FF16C04681578124813581A7
:1042B0004217530744F4A081B1819D012F5F3F4F06
:1042C000318320838C93268137812F5F3F4F378343
:1042D000268310C0EB01092F182F0084F185E02DF3
:1042E0000995892BE1F68E819F8101969F838E83AC
:1042F000812F902FDF91CF911F910F910895FA0197
:10430000AA27283051F1203181F1E8946F936E7F14
:104310006E5F7F4F8F4F9F4FAF4FB1E03ED0B4E005
:104320003CD0670F781F891F9A1FA11D680F791F46
:104330008A1F911DA11D6A0F711D811D911DA11D57
:1043400020D009F468943F912AE0269F1124301967
:10435000305D3193DEF6CF010895462F4770405D02
:104360004193B3E00FD0C9F7F6CF462F4F70405DB1
:104370004A3318F0495D31FD4052419302D0A9F70C
:10438000EACFB4E0A6959795879577956795BA9506
:10439000C9F700976105710508959B01AC010A2ECC
:1043A00006945795479537952795BA95C9F7620FA3
:1043B000731F841F951FA01D08952F923F924F9247
:1043C0005F926F927F928F929F92AF92BF92CF92A5
:1043D000DF92EF92FF920F931F93CF93DF93CDB7AE
:1043E000DEB7CA1BDB0B0FB6F894DEBF0FBECDBF26
:1043F00009942A88398848885F846E847D848C84F7
:104400009B84AA84B984C884DF80EE80FD800C81FF
:104410001B81AA81B981CE0FD11D0FB6F894DEBFE2
:104420000FBECDBFED01089510E0C7EED0E004C08F
:10443000FE010E94361F2196C83ED107C9F7F894A5
:02444000FFCFAC
:10444200FFFFFFFF000000000000000000005F000F
:1044520000000000000007000700000000147F14A5
:104462007F14000000242A7F2A1200000023130870
:104472006462000000364955225000000000050326
:1044820000000000001C2241000000000041221C2C
:104492000000000000082A1C2A0800000008083E4C
:1044A2000808000000A060000000000000080808E2
:1044B20008080000006060000000000000201008F2
:1044C20004020000003E5149453E00000000427FC8
:1044D2004000000000625149494600000022414963
:1044E20049360000001814127F10000000274545CD
:1044F20045390000003C4A49493000000001710979
:1045020005030000003649494936000000064949C2
:10451200291E000000003636000000000000AC6CCE
:1045220000000000000814224100000000141414CE
:10453200141400000041221408000000000201517E
:104542000906000000324979413E0000007E090957
:10455200097E0000007F494949360000003E414182
:1045620041220000007F4141221C0000007F494996
:1045720049410000007F090909010000003E414154
:1045820051720000007F0808087F000000417F414F
:1045920000000000002040413F010000007F08149D
:1045A20022410000007F404040400000007F020C9A
:1045B200027F0000007F0408107F0000003E41419E
:1045C200413E0000007F090909060000003E4151FA
:1045D200215E0000007F0919294600000026494992
:1045E200493200000001017F01010000003F40400C
:1045F200403F0000001F2040201F0000003F4038C5
:10460200403F0000006314081463000000030478B4
:10461200040300000061514945430000007F41410D
:104622000000000000020408102000000041417F49
:1046320000000000000402010204000000808080EB
:104642008080000000010204000000000020545499
:1046520054780000007F4844443800000038444445
:104662002800000000384444487F000000385454B9
:104672005418000000087E09020000000018A4A4DB
:10468200A47C0000007F08040478000000007D0084
:10469200000000000080847D00000000007F1028E0
:1046A2004400000000417F4000000000007C04182C
:1046B20004780000007C08047C00000000384444B8
:1046C2003800000000FC24241800000000182424F4
:1046D200FC00000000007C08040000000048545464
:1046E2002400000000047F4400000000003C404021
:1046F2007C000000001C2040201C0000003C4030D8
:10470200403C00000044281028440000001CA0A0E7
:104712007C000000004464544C4400000008364110
:104722000000000000007F00000000000041360889
:104732000000000000020101020100000002050564
:1047420002000000FF00000000A006E4174F4E2008
:10475200002023003D00626567696E207769666903
:10476200706F72742053657269616C0044616C6C85
:1047720061732054656D706572617475726520494C
:104782004320436F6E74726F6C204C696272617267
:10479200792044656D6F0068656C6C6F002564005C
:1047A2006D61783A20006C6F773A20006974656D0C
:1047B200703A200074656D703A20000000000039E4
:1047C20013E4171913ED1294138513000000003E31
:1047D20016E417B615D015C2151C16000000008786
:1047E200170D0A006E616E00696E66006F766600D4
:0247F2002E0097
:00000001FF
