:100000000C94E5000C94BC0D0C94E90D0C940D01BE
:100010000C940D010C940D010C940D010C94600DC9
:100020000C940D010C940D010C940D010C940D0118
:100030000C940D010C940D010C940D010C940D0108
:100040000C94160E0C940D010C94430B0C947B0B2A
:100050000C940D010C940D010C940D010C940D01E8
:100060000C940D010C940D01005EBCE2613FDD8338
:10007000C29C7E20A3FD1F419DC3217FFCA2401E88
:100080005F01E3BD3E6082DC237D9FC1421CFEA078
:10009000E1BF5D0380DE3C62BEE0025CDF81633D68
:1000A0007C22C09E1D43A1FF4618FAA427799BC558
:1000B00084DA3866E5BB5907DB856739BAE4065848
:1000C0001947A5FB7826C49A653BD987045AB8E638
:1000D000A7F91B45C6987A24F8A6441A99C7257B28
:1000E0003A6486D85B05E7B98CD2306EEDB3510F18
:1000F0004E10F2AC2F7193CD114FADF3702ECC9208
:10010000D38D6F31B2EC0E50AFF1134DCE90722CF7
:100110006D33D18F0C52B0EE326C8ED0530DEFB1E7
:10012000F0AE4C1291CF2D73CA947628ABF51749D7
:100130000856B4EA6937D58B5709EBB536688AD4C7
:1001400095CB2977F4AA4816E9B7550B88D6346AB7
:100150002B7597C94A14F6A8742AC896154BA9F7A7
:10016000B6E80A54D7896B35020000000800020186
:10017000000003040700000000000000000102046A
:100180000810204080010204081020010204081019
:100190002004040404040404040202020202020310
:1001A00003030303030000000023002600290000CE
:1001B000000000250028002B00000000002400277C
:1001C000002A0000F709AB0B1B0C11241FBECFEF58
:1001D000D8E0DEBFCDBF14E0A0E0B1E0EAE5F9E28F
:1001E00002C005900D92A637B107D9F725E0A6E722
:1001F000B4E001C01D92A935B207E1F710E0C5EEE9
:10020000D0E004C02197FE010E94CD11C23ED1076B
:10021000C9F70E94270C0C94AB140C9400000895AD
:10022000FC018FE091E0928B818B76836583148251
:10023000108289E0818381E0828383830895FC01B9
:1002400084810895CF93DF93EB0167E0CE010E9494
:10025000FE0591E02F81821390E0892FDF91CF91ED
:100260000895EF92FF920F931F93CF93DF938C012A
:100270007B01D42FFC01858196810E942E05C0E070
:100280000BC0CD1306C0B701C8010E942201811125
:100290000DC0CF5FDC1748F0B701F801858196816A
:1002A0000E9466058111EDCF01C080E0DF91CF9102
:1002B0001F910F91FF90EF900895EF92FF920F938F
:1002C0001F93CF93DF93EC017B018A018D819E8187
:1002D0000E940C04B7018D819E810E940B0540E0B5
:1002E0006EEB8D819E810E94B3048D819E810E9460
:1002F000F004F80180838D819E810E94F004F80152
:1003000081838D819E810E94F004F80182838D811A
:100310009E810E94F004F80183838D819E810E945A
:10032000F004F80184838D819E810E94F004F8011D
:1003300085838D819E810E94F004F80186838D81E2
:100340009E810E94F004F80187838D819E810E9426
:10035000F004F80180878D819E810E940C04DF915A
:10036000CF911F910F91FF90EF900895CF93DF935E
:10037000EA010E945D0168E0CE010E94FE0591E065
:100380002885821390E0892FDF91CF9108950F93F4
:100390001F93CF93DF93EC018B018D819E810E948F
:1003A0000C04B8018D819E810E940B0540E064EB36
:1003B0008D819E810E94B3048D819E810E9488045C
:1003C000182F8D819E810E940C0481E0111180E024
:1003D000DF91CF911F910F910895CF93DF93CDB708
:1003E000DEB729970FB6F894DEBF0FBECDBFFB0175
:1003F00020812031D9F0AE014F5F5F4F0E94B601DE
:100400008823B1F08D818F3369F018F48F3161F05A
:1004100007C08F3519F08F3769F002C08BE00BC031
:1004200080E009C08AE007C089E005C089E003C018
:1004300080E001C08CE029960FB6F894DEBF0FBEB5
:10044000CDBFDF91CF910895EF92FF920F931F934D
:10045000CF93DF93CDB7DEB761970FB6F894DEBFC9
:100460000FBECDBF8C01FC01858196810E942E05B7
:10047000F8011482EE24E39437C0BE01665F7F4F1B
:10048000C8010E942201882379F1F801808181113D
:100490000AC0BE01665F7F4FC8010E94C701882362
:1004A00011F0F801E082AE014F5F5F4FBE01665F61
:1004B0007F4FC8010E945D01F801F180BE01665FB7
:1004C0007F4FC8010E94ED018F1518F4F80181815A
:1004D00006C0BE01665F7F4FC8010E94ED01F801B2
:1004E000818384818F5F8483BE01665F7F4FF801C3
:1004F000858196810E9466058111BFCF61960FB6F6
:10050000F894DEBF0FBECDBFDF91CF911F910F9149
:10051000FF90EF900895CF93DF93CDB7DEB7299783
:100520000FB6F894DEBF0FBECDBFAE014F5F5F4F79
:100530000E945D0181E09981911101C080E02996BE
:100540000FB6F894DEBF0FBECDBFDF91CF910895F7
:10055000CF92DF92EF92FF920F931F93CF93DF938F
:10056000EC018B01452BF1F08B818823D9F0888138
:10057000811118C00E94600E6B017C0160E070E088
:10058000CE010E948B0281110DC00E94600EDC0121
:10059000CB018C199D09AE09BF098E3E9240A10581
:1005A000B10560F3F80180818A3059F08B3081F019
:1005B0008930A9F46EE570E080E090E00E94920E30
:1005C00014C06CEB70E080E090E00E94920E0DC0D1
:1005D00067E771E080E090E00E94920E06C06EEE48
:1005E00072E080E090E00E94920EDF91CF911F9127
:1005F0000F91FF90EF90DF90CF900895CF93DF930E
:10060000EC018D819E810E940C048D819E810E944F
:100610002905488164E48D819E810E94B3048A810A
:10062000882341F0BE016F5F7F4F40E050E0CE0174
:100630000E94A802DF91CF9108958F929F92AF926E
:10064000BF92CF92DF92EF92FF921F93CF93DF93EF
:10065000FB01EA01898190E0982F88272881BC015D
:10066000622B8081823231F0883221F0803109F0B2
:100670007EC04CC08C818F3329F118F48F3199F1F1
:1006800076C08F3581F08F3709F071C0072E000CCE
:10069000880B990B0E94891020E030E040E85DE370
:1006A0000E943E1165C075956795072E000C880B5A
:1006B000990B0E94891020E030E040E05EE30E9448
:1006C0003E1156C07595679575956795072E000C78
:1006D000880B990B0E94891020E030E040E85EE32F
:1006E0000E943E1145C075956795759567957595FE
:1006F0006795072E000C880B990B0E94891020E04B
:1007000030E040E05FE30E943E1132C01F817595EA
:100710006795072E000C880B990B0E94891020E02A
:1007200030E040E85EE30E94A30F6B017C01812F63
:1007300090E02E81821B9109BC01990F880B990BC7
:100740000E9489104B015C01612F70E080E090E015
:100750000E9487109B01AC01C501B4010E941510D5
:100760009B01AC01C701B6010E94A40F01C004C0E7
:10077000562F472F382F292F652F742F832F922F15
:10078000DF91CF911F91FF90EF90DF90CF90BF90BE
:10079000AF909F908F900895EF92FF920F931F93C9
:1007A000CF93DF93CDB7DEB729970FB6F894DEBFAE
:1007B0000FBECDBF8C017B01AE014F5F5F4F0E942A
:1007C000B601882341F0AE014F5F5F4FB701C8010A
:1007D0000E941D0304C060E070E08EEF92EC299649
:1007E0000FB6F894DEBF0FBECDBFDF91CF911F9142
:1007F0000F91FF90EF900895FC018081089526E607
:1008000036E646EE5FE30E943E1120E030E040E035
:1008100052E40E94A40F0895FF920F931F93CF9369
:10082000DF93FC01D08101811281F894F80181816C
:10083000FD2EF0948F2181837894CCE702C0C150C3
:1008400041F182E090E00E94BE0EF80190819D236C
:10085000B1F3F89482818F21828381818D2B8183F2
:10086000789480EE91E00E94BE0EF894F8018181A8
:10087000F822F18286E490E00E94BE0EF8018081A9
:10088000D823C1E009F0C0E078948AE991E00E94A1
:10089000BE0E8C2FDF91CF911F910F91FF90089585
:1008A0001F93CF93DF93FC011081C181D28160FF40
:1008B00016C0F8948A81912F909589238A83898123
:1008C000812B89838AE090E00E94BE0E8A81182BDA
:1008D0001A83789487E390E00E94BE0E15C0F894C6
:1008E0008A81912F909589238A838981812B89839D
:1008F00081E490E00E94BE0E8A81182B1A837894BE
:1009000085E090E00E94BE0EDF91CF911F91089587
:100910000F931F93CF93DF93FC011081C181D2818C
:10092000F8948981812B89838A81012F0095802306
:100930008A8383E090E00E94BE0E898108230983A8
:100940008AE090E00E94BE0EC881789485E390E032
:100950000E94BE0E1C2381E009F480E0DF91CF915C
:100960001F910F910895BF92CF92DF92EF92FF9265
:100970000F931F93CF93DF937C01D62EB42EC8E044
:10098000D0E011E001E0C12C602F912F9D2109F4EE
:100990006C2DC7010E945004110F2197A9F7B110C7
:1009A00015C0F894D7011196ED91FC9112979181A1
:1009B0008C918095892381831196ED91FC911297FA
:1009C00092818C918095892382837894DF91CF9155
:1009D0001F910F91FF90EF90DF90CF90BF900895FF
:1009E000EF92FF920F931F93CF93DF937C01C8E0A8
:1009F000D0E000E011E0C7010E9488048111012BC2
:100A0000110F2197C1F7802FDF91CF911F910F9187
:100A1000FF90EF900895EF92FF920F931F93CF9363
:100A2000DF937C018B0140E065E50E94B304E8019F
:100A3000085F1F4F699140E0C7010E94B304C017CF
:100A4000D107C1F7DF91CF911F910F91FF90EF90E8
:100A5000089540E06CEC0E94B3040895DC011B96FD
:100A60001C921B971D961C921D971C961C921C97FE
:100A70001A961C92FC013A9603961292E817F9070F
:100A8000E1F708951F93CF93DF93EC01162F60E0F9
:100A9000812F0E94330F612F70E0FB01E358FE4F5E
:100AA000E491E883FB01EF56FE4FE491F0E0EE0F96
:100AB000FF1FEB55FE4F859194919A838983CE0158
:100AC0000E942E05DF91CF911F9108959F92AF92C2
:100AD000BF92CF92DF92EF92FF920F931F93CF932B
:100AE000DF93EC01C62ED72E8D85811161C0CE011A
:100AF0000E940C04811104C01B861D861C8672C0D6
:100B000040E060EFCE010E94B30401E0F12CA12C83
:100B1000EE24E394BB24B394912CCE010E9488046C
:100B2000182FCE010E948804113009F04DC0813089
:100B3000C9F435C08B85E81648F4FE01EF0DF11DB0
:100B4000838180231B2D29F4192D03C01B2DE8124E
:100B5000192D111105C088E08E15C8F1EC8637C03B
:100B6000113041F4FE01EF0DF11D8381802B838351
:100B70001B2D08C0FE01EF0DF11D9381802F809584
:100B800089238383612FCE010E945004E394000FD8
:100B900011F4F3940B2D87E08F1508F0BECF80E49D
:100BA0008E1530F4AB86A11014C081E08D8711C082
:100BB0001B861D861C8680E015C081918D93EC17E5
:100BC000FD07D9F781E00EC01813D4CFB3CFAE2CF8
:100BD000D1CF8B81882361F3FE013396AC2DBD2DDF
:100BE0002B96EBCFDF91CF911F910F91FF90EF905C
:100BF000DF90CF90BF90AF909F9008952FEF260F7A
:100C0000662369F0A82FB92F80E09D91E82FE9278E
:100C1000F0E0E859FF4F84912150B8F7089580E043
:100C20000895449A459A1092B90088E48093B800D8
:100C300084E08093BC0008958FEF90E0ECEBF0E04F
:100C40000EC0019761F41092BC008091A0049091B5
:100C5000A10401969093A1048093A004089520819B
:100C600022237CF708951F93CF93DF93182FCCEBAB
:100C7000D0E084EA88830E941C061093BB0084E8BD
:100C800088830E941C06DF91CF911F910895809365
:100C9000BB0084E88093BC000E941C060895CF939B
:100CA000DF93D62FC42F880F0E9433068D2F0E940A
:100CB00047068C2F0E94470684E98093BC00DF9191
:100CC000CF9108959CE09093B800482F60E88CE3A2
:100CD0000E944F0608958EEA0E9462068EE20E94EC
:100CE000620684EA0E94620662E370E080E090E0BF
:100CF0000E94920E80E20E94620682E00E946206DA
:100D000081EA0E94620688EC0E94620686EA0E94DE
:100D1000620681E80E9462068FEF0E94620664E12B
:100D200070E080E090E00E94920E8FEA0E946206DE
:100D300064E170E080E090E00E94920E0895CF930D
:100D4000C62F80550E9462068C2F880F880F880F4F
:100D500088700E9462068C2F90E0969587958F7020
:100D6000805F0E946206CF9108959CE09093B80046
:100D7000482F60E48CE30E944F060895CF93DF93E1
:100D8000D0E060E08D2F0E949F06C0E080E00E94CE
:100D9000B506CF5FC038D1F7DF5FD83091F7DF916C
:100DA000CF910895EF92FF920F931F93CF93DF930C
:100DB000EC018881811121C025C0E881F0E0B09765
:100DC000EE0FFF1FEE0FFF1FEE0FFF1FE00FF11FD3
:100DD000E050FF4F80810E94B5066AE070E080E03D
:100DE00090E00E94920E0F5F1F4F0830110529F707
:100DF00021968881811103C005C0E12CF12C0E2DB4
:100E00001F2DDBCFDF91CF911F910F91FF90EF90BE
:100E1000089560E088E00E94720F61E088E00E941F
:100E2000330F60E08AE00E94720F61E08AE00E9466
:100E3000330F26E040E052EC61E070E082EA94E09B
:100E40000E94DA0A61E074E082EA94E00E948D0C6C
:100E50000E9411060E946B066AE070E080E090E05C
:100E60000E94920E0E94BE0662E370E080E090E075
:100E70000E94920E80E20E94620682E00E94620658
:100E800086EA0E94620661E081E00E949F0687E494
:100E900094E00E94D20661E082E00E949F068FE308
:100EA00094E00E94D20661E084E00E949F0689E3FC
:100EB00094E00E94D20661E085E00E949F0683E3F1
:100EC00094E00E94D20608954F925F926F927F92B3
:100ED0008F929F92AF92BF92CF92DF92EF92FF924A
:100EE0000F931F93CF93DF93CDB7DEB72A970FB63B
:100EF000F894DEBF0FBECDBF662E772E982E892EBA
:100F000020E030E048EC52E40E94151020E030E090
:100F100040E85FE30E9439118823ACF120E030E023
:100F200048EC52E4662D772D892D982D0E943911B9
:100F30001816ECF4162D072DF92CE82CD12C20E0F6
:100F400030E048EC52E4612F702F8F2D9E2D0E94CF
:100F5000A30F162F072FF82EE92ED39420E030E0B0
:100F600048EC52E40E94391118164CF305C0162DB6
:100F7000072DF92CE82CD12C80E38D0D8983CC240E
:100F8000C394D12C06C0162D072DF92CE82CC12CAA
:100F9000D12C20E030E040E251E4612F702F8F2D02
:100FA0009E2D0E94151020E030E040E85FE30E9493
:100FB0003911882384F120E030E040E251E4612FD0
:100FC000702F8F2D9E2D0E9439118823CCF0B12CCB
:100FD00020E030E040E251E4612F702F8F2D9E2DF4
:100FE0000E94A30F162F072FF82EE92EB39420E0AE
:100FF00030E040E251E40E94391188234CF701C0EF
:10100000B12CFE01EC0DFD1D80E38B0D81838FEF74
:10101000C81AD80A08C0FE01EC0DFD1D80E38183CB
:101020008FEFC81AD80A20E030E0A901612F702F95
:101030008F2D9E2D0E94391188230CF4AFC020E023
:1010400030E040E85FE3612F702F8F2D9E2D0E94CE
:1010500039118823CCF0B12C20E030E040E85FE388
:10106000612F702F8F2D9E2D0E94A30F162F072FFB
:10107000F82EE92EB39420E030E040E85FE30E94D0
:10108000391188234CF701C0B12CE1E0F0E0EC0FFE
:10109000FD1FEC0DFD1D80E38B0D808356018FEF4E
:1010A000A81AB80AE1E0F0E0EC0FFD1FEA0DFB1D05
:1010B0008EE28083260182E0480E511C2DEC3CEC30
:1010C0004CEC5DE3612F702F8F2D9E2D0E94391106
:1010D000882314F423C05601D12C2DEC3CEC4CECAD
:1010E0005DE3612F702F8F2D9E2D0E94A30F162F71
:1010F000072FF82EE92ED3942DEC3CEC4CEC5DE35D
:101100000E94391188234CF7FE01E40DF51D80E3A0
:101110008D0D818382E0A80EB11C08C0FE01E40D94
:10112000F51D80E3818382E0A80EB11C2AE037ED33
:1011300043E25CE3612F702F8F2D9E2D0E943911A9
:101140008823F4F0D12C2AE037ED43E25CE3612FF1
:10115000702F8F2D9E2D0E94A30F162F072FF82E74
:10116000E92ED3942AE037ED43E25CE30E94391183
:1011700088234CF7FE01EA0DFB1D80E38D0D818372
:1011800020E030E048EC52E4662D772D892D982D33
:101190000E9410108823D4F41E8218C08EE2FE0133
:1011A000EC0DFD1D818326018FEF481A580A2DECA6
:1011B0003CEC4CEC5DE3612F702F8F2D9E2D0E9437
:1011C000391188230CF087CF5601A8CF61E070E079
:1011D00080E090E00E94920ECE0101962A960FB612
:1011E000F894DEBF0FBECDBFDF91CF911F910F915D
:1011F000FF90EF90DF90CF90BF90AF909F908F9037
:101200007F906F905F904F9008954F925F926F9292
:101210007F928F929F92AF92BF92EF92FF920F9325
:101220001F93CF93DF93CDB7DEB762970FB6F894D5
:10123000DEBF0FBECDBF86E794E00E94240286E7A2
:1012400094E00E941F01E82EF12C86E794E00E94B2
:10125000FC03882339F06CE274E082EA94E00E9497
:10126000630C04C086E794E00E94FE021E141F0473
:101270000CF081C000E010E0402FBE01655F7F4FA1
:1012800086E794E00E943101882309F46EC0BE0114
:10129000655F7F4F86E794E00E94CC030E94FF03C6
:1012A0004B015C0167E081E00E949F06C501B4012B
:1012B0000E946407FC01DE0111969C01295F3F4FEB
:1012C00091919A3310F49C9301C01C921196E217ED
:1012D000F307B1F7CE0101960E94D2064090980420
:1012E0005090990460909A0470909B04A30192011D
:1012F000C501B4010E94101088234CF020E030E0BA
:10130000A901C301B2010E941010811110C0809286
:10131000980490929904A0929A04B0929B0466E07B
:1013200084E00E949F06CE0101960E94D206209181
:101330009C0430919D0440919E0450919F04C501EE
:10134000B4010E943911181684F480929C04909282
:101350009D04A0929E04B0929F0466E085E00E94E6
:101360009F06CE0101960E94D2060F5F1F4FE01626
:10137000F10609F081CF809197041F928F9380E34B
:1013800094E09F938F938E010F5F1F4F1F930F93D6
:101390000E94D31161E087E00E949F06C8010E946D
:1013A000D206809197048F5F8093970468EE73E074
:1013B00080E090E00E94920E0F900F900F900F909F
:1013C0000F900F9062960FB6F894DEBF0FBECDBFA0
:1013D000DF91CF911F910F91FF90EF90BF90AF9051
:1013E0009F908F907F906F905F904F90089569E0ED
:1013F00089E894E00E94420569E874E086E794E099
:101400000E9410010895FC01918D228D892F90E09A
:10141000805C9F4F821B91098F7399270895FC016F
:10142000918D828D981731F0828DE80FF11D858D99
:1014300090E008958FEF9FEF0895FC01918D828DCC
:10144000981761F0828DDF01A80FB11D5D968C9118
:10145000928D9F5F9F73928F90E008958FEF9FEF23
:10146000089581EA9BE0892B49F080E090E0892B88
:1014700029F00E94A10B81110E9400000895FC0137
:10148000848DDF01A80FB11DA35ABF4F8C91248D0D
:1014900030E02F5F3F4F2F733078332334F42150E7
:1014A0003109206C3F6F2F5F3F4F248FA689B7898A
:1014B0008C93A089B1898C9180648C93938D848D59
:1014C000981306C00288F389E02D80818F7D808388
:1014D0000895CF93DF93EC01888D81110FC018C060
:1014E0000FB607FC0DC0908195FF0AC0A889B98985
:1014F0008C9185FF05C0CE010E943F0AEA89FB89D5
:10150000908195FDEDCFA889B9898C9186FFE8CFB0
:10151000DF91CF9108950F931F93CF93DF93FC0139
:1015200081E0808F938D848D981322C0A089B1892A
:101530008C9185FD2FC01CC00FB607FC08C0E88940
:10154000F989808185FF03C0CE010E943F0A9C8DEE
:10155000091791F38B8DFE01E80FF11DE35AFF4F40
:1015600010830B8FEA89FB898081806280831BC096
:10157000238D30E02F5F3F4F2F733078332334F4C7
:1015800021503109206C3F6F2F5F3F4F162FEF0125
:10159000022FDDCFA689B7896C930088F189E02DF1
:1015A00080818064808381E090E0DF91CF911F9102
:1015B0000F910895BF92CF92DF92EF92FF920F9317
:1015C0001F93CF93DF93EC016A017B01B22EE88970
:1015D000F98982E080834115514E61057105B1F0B2
:1015E00060E079E08DE390E0A70196010E94AB11E5
:1015F00089019A0101501109210931093695279570
:1016000017950795011580E11807A8F0E889F98971
:10161000108260E874E88EE190E0A70196010E94D4
:10162000AB11DA01C9010197A109B109B695A795D6
:10163000979587958C01EC85FD851083EE85FF8558
:101640000083188EEC89FD89B082EA89FB8980814C
:1016500080618083EA89FB89808188608083EA8950
:10166000FB89808180688083EA89FB8980818F7D06
:101670008083DF91CF911F910F91FF90EF90DF90CA
:10168000CF90BF9008951F920F920FB60F92112422
:101690002F938F939F93AF93BF93EF93FF93E0911B
:1016A000B204F091B304808182FD14C0E2EAF4E058
:1016B000A689B7892C91818D8F5F8F73928D891741
:1016C00071F0DF01E18DF0E0EE55FB4F258F59966B
:1016D0008C9305C0E091B804F091B9048081FF912A
:1016E000EF91BF91AF919F918F912F910F900FBE6E
:1016F0000F901F9018951F920F920FB60F92112402
:101700002F933F934F935F936F937F938F939F9309
:10171000AF93BF93EF93FF9382EA94E00E943F0A56
:10172000FF91EF91BF91AF919F918F917F916F91B9
:101730005F914F913F912F910F900FBE0F901F908F
:10174000189582EA94E00E94030A21E0892B09F4AB
:1017500020E0822F0895E2EAF4E01382128288EEFC
:1017600093E0A0E0B0E084839583A683B78382E50D
:1017700094E09183808385EC90E09587848784EC66
:1017800090E09787868780EC90E0918B808B81EC4E
:1017900090E0938B828B82EC90E0958B848B86EC2F
:1017A00090E0978B868B118E128E138E148E089577
:1017B00008958F929F92AF92BF92CF92DF92EF9255
:1017C000FF920F931F93CF93DF935C017B014C013A
:1017D00082E0880E911C6501E5E0CE0ED11C00E090
:1017E00010E0F40161914F014AE050E0C7010E940E
:1017F000210DEC016EE2C7010E94790C8C0F9D1F38
:10180000080F191F8C149D0461F74AE050E0F501A0
:101810006581C7010E94210D800F911FDF91CF913B
:101820001F910F91FF90EF90DF90CF90BF90AF90FE
:101830009F908F900895EFE3F5E082E694E0918326
:1018400080831282138214821582089508950E9463
:10185000C90E0E94260C0E940907C1E3DAE00E942B
:1018600005092097E1F30E94310AF9CFCF92DF9268
:10187000EF92FF920F931F93CF93DF934115510582
:10188000B1F08C01E62EF72EEA01C12CD12CD70144
:101890006D917D01D801ED91FC910190F081E02DD9
:1018A000C8010995C80ED91E219789F702C0C12C1D
:1018B000D12CC601DF91CF911F910F91FF90EF9036
:1018C000DF90CF9008956115710581F0FB010190C3
:1018D0000020E9F73197AF01461B570BDC01ED9172
:1018E000FC910280F381E02D0995089580E090E05D
:1018F0000895DC01ED91FC910190F081E02D0995B6
:101900000895DC01ED91FC910280F381E02D42E02D
:1019100050E064E674E0099508950F931F93CF9308
:10192000DF93EC010E94630C8C01CE010E94810CBC
:10193000800F911FDF91CF911F910F9108954F92CA
:101940005F926F927F929F92AF92BF92CF92DF92FF
:10195000EF92FF920F931F93CF93DF93CDB7DEB734
:10196000A1970FB6F894DEBF0FBECDBF5C016A0130
:101970007B01922E19A281E0821720F00F2EFAE04F
:101980009F2EF02D8E010F5D1F4F492C512C612C85
:10199000712CC701B601A30192010E94AB118C2DDD
:1019A000929E80191124015011098A3010F4805D33
:1019B00001C0895CD8018C93C22ED32EE42EF52E63
:1019C000C114D104E104F10421F70115110591F0CE
:1019D000F80101900020E9F73197AF01401B510B4E
:1019E000D501ED91FC910280F381E02DB801C50194
:1019F000099502C080E090E0A1960FB6F894DEBF92
:101A00000FBECDBFDF91CF911F910F91FF90EF904F
:101A1000DF90CF90BF90AF909F907F906F905F903E
:101A20004F9008952115310549F4DC01ED91FC91A9
:101A30000190F081E02D642F099508950E949F0C7C
:101A400008959A01462F50E060E070E00E94120D68
:101A50000895813039F018F0823051F008951092D5
:101A60006E000895EFE6F0E080818D7F8083089519
:101A7000E0E7F0E080818D7F808381E08093B0009B
:101A8000E1EBF0E08081887F846080831092B30076
:101A90000895CF93C82F809100048C1308C0E8E606
:101AA000F1E0E4918E2F9FEF9093000401C08FEF3F
:101AB0000E94290D60E08C2F0E94720FCF91089533
:101AC0001F920F920FB60F9211242F933F934F93B3
:101AD0005F936F937F938F939F93AF93BF93EF9396
:101AE000FF938091480590914905A0914A05B091D6
:101AF0004B05892B8A2B8B2B51F180914505E09169
:101B00004605F0914705908189278083809148059B
:101B100090914905A0914A05B0914B0518161906F8
:101B20001A061B06C4F48091480590914905A091BE
:101B30004A05B0914B050197A109B1098093480569
:101B400090934905A0934A05B0934B0504C080913A
:101B500000040E94490DFF91EF91BF91AF919F91B9
:101B60008F917F916F915F914F913F912F910F9046
:101B70000FBE0F901F9018951F920F920FB60F92E5
:101B800011242F933F934F935F936F937F938F9382
:101B90009F93AF93BF93EF93FF9380914C059091E8
:101BA0004D05892B29F0E0914C05F0914D050995E3
:101BB000FF91EF91BF91AF919F918F917F916F9125
:101BC0005F914F913F912F910F900FBE0F901F90FB
:101BD00018951F920F920FB60F9211242F933F93D7
:101BE0004F935F936F937F938F939F93AF93BF9325
:101BF000EF93FF9380914E0590914F05892B29F02B
:101C0000E0914E05F0914F050995FF91EF91BF913D
:101C1000AF919F918F917F916F915F914F913F9184
:101C20002F910F900FBE0F901F9018951F920F923B
:101C30000FB60F9211242F933F938F939F93AF93DF
:101C4000BF938091510590915205A0915305B09199
:101C500054053091500523E0230F2D3720F40196D1
:101C6000A11DB11D05C026E8230F0296A11DB11DBF
:101C7000209350058093510590935205A0935305EE
:101C8000B09354058091550590915605A091570544
:101C9000B09158050196A11DB11D809355059093F3
:101CA0005605A0935705B0935805BF91AF919F91EA
:101CB0008F913F912F910F900FBE0F901F9018950D
:101CC0002FB7F8946091510570915205809153059A
:101CD000909154052FBF08953FB7F8948091550512
:101CE00090915605A0915705B091580526B5A89B2F
:101CF00005C02F3F19F00196A11DB11D3FBFBA2F9E
:101D0000A92F982F8827820F911DA11DB11DBC01FD
:101D1000CD01660F771F881F991F660F771F881FD9
:101D2000991F0895CF92DF92EF92FF92CF93DF93A6
:101D30006B017C010E946C0EEB01C114D104E10423
:101D4000F104A9F00E94D80B0E946C0E6C1B7D0B55
:101D5000683E734038F081E0C81AD108E108F10804
:101D6000C851DC4FC114D104E104F10459F7DF91EB
:101D7000CF91FF90EF90DF90CF9008958230910542
:101D800038F0880F991F880F991F05970197F1F771
:101D90000895789484B5826084BD84B5816084BDE3
:101DA00085B5826085BD85B5816085BDEEE6F0E0D4
:101DB000808181608083E1E8F0E010828081826030
:101DC0008083808181608083E0E8F0E080818160B1
:101DD0008083E1EBF0E0808184608083E0EBF0E0E1
:101DE000808181608083EAE7F0E080818460808385
:101DF000808182608083808181608083808180682F
:101E000080831092C1000895833069F028F48130F6
:101E1000B1F08230C1F008958730C9F08830E9F020
:101E2000843001F506C0E0E8F0E080818F778083A0
:101E30000895E0E8F0E080818F7D8083089584B587
:101E40008F7784BD089584B58F7D84BD0895E0EBC0
:101E5000F0E080818F7780830895E0EBF0E080816F
:101E60008F7D80830895CF93DF9390E0FC01E3584A
:101E7000FE4F2491FC01EF56FE4F8491882379F1A7
:101E800090E0880F991FFC01E754FE4FA591B49193
:101E9000FC01E155FE4FC591D49161110CC09FB773
:101EA000F8948C91E22FE0958E238C932881E22385
:101EB000E8839FBF14C0623061F49FB7F8943C91EF
:101EC000822F809583238C93E881E22BE8839FBF48
:101ED00006C08FB7F894EC91E22BEC938FBFDF91A3
:101EE000CF9108951F93CF93DF93282F30E0F9010E
:101EF000E759FE4F8491F901E358FE4F1491F9011F
:101F0000EF56FE4FC491CC23D1F0D62F81110E9401
:101F1000040FEC2FF0E0EE0FFF1FE155FE4FA591EF
:101F2000B4918FB7F894D11106C09C91E12FE09540
:101F3000E923EC9303C0EC91E12BEC938FBFDF918D
:101F4000CF911F9108955058BB27AA270E94BB0F1D
:101F50000C94FF100E94F11038F00E94F81020F04D
:101F600039F49F3F19F426F40C94EE100EF4E0952A
:101F7000E7FB0C94E810E92F0E94101158F3BA17F0
:101F8000620773078407950720F079F4A6F50C948F
:101F900032110EF4E0950B2EBA2FA02D0B01B901D2
:101FA00090010C01CA01A0011124FF27591B99F0CF
:101FB000593F50F4503E68F11A16F040A22F232FDB
:101FC000342F4427585FF3CF469537952795A7952B
:101FD000F0405395C9F77EF41F16BA0B620B730BD2
:101FE000840BBAF09150A1F0FF0FBB1F661F771F43
:101FF000881FC2F70EC0BA0F621F731F841F48F4F8
:10200000879577956795B795F7959E3F08F0B0CF80
:102010009395880F08F09927EE0F97958795089567
:102020000E94C41008F481E008950E9429100C94C5
:10203000FF100E94F81058F00E94F11040F029F4AF
:102040005F3F29F00C94E81051110C9433110C945B
:10205000EE100E94101168F39923B1F3552391F308
:10206000951B550BBB27AA2762177307840738F007
:102070009F5F5F4F220F331F441FAA1FA9F335D064
:102080000E2E3AF0E0E832D091505040E695001C18
:10209000CAF72BD0FE2F29D0660F771F881FBB1FD2
:1020A000261737074807AB07B0E809F0BB0B802DB0
:1020B000BF01FF2793585F4F3AF09E3F510578F0DC
:1020C0000C94E8100C9433115F3FE4F3983ED4F382
:1020D000869577956795B795F7959F5FC9F7880FB0
:1020E000911D9695879597F90895E1E0660F771F02
:1020F000881FBB1F621773078407BA0720F0621B93
:10210000730B840BBA0BEE1F88F7E0950895E894E3
:1021100009C097FB3EF490958095709561957F4F2F
:102120008F4F9F4F9923A9F0F92F96E9BB279395DD
:10213000F695879577956795B795F111F8CFFAF4ED
:10214000BB0F11F460FF1BC06F5F7F4F8F4F9F4F1E
:1021500016C0882311F096E911C0772321F09EE87C
:10216000872F762F05C0662371F096E8862F70E0E2
:1021700060E02AF09A95660F771F881FDAF7880FBC
:102180009695879597F90895990F0008550FAA0B12
:10219000E0E8FEEF16161706E807F907C0F012167A
:1021A0001306E407F50798F0621B730B840B950B7D
:1021B00039F40A2661F0232B242B252B21F40895D2
:1021C0000A2609F4A140A6958FEF811D811D08956F
:1021D00097F99F6780E870E060E008959FEF80ECDA
:1021E000089500240A94161617061806090608957D
:1021F00000240A9412161306140605060895092EE3
:102200000394000C11F4882352F0BB0F40F4BF2B51
:1022100011F460FF04C06F5F7F4F8F4F9F4F089591
:1022200057FD9058440F551F59F05F3F71F0479587
:10223000880F97FB991F61F09F3F79F0879508956C
:10224000121613061406551FF2CF4695F1DF08C08B
:10225000161617061806991FF1CF869571056105A8
:1022600008940895E894BB2766277727CB0197F950
:1022700008950E94C41008F48FEF08950E94511130
:102280000C94FF100E94F11038F00E94F81020F01A
:10229000952311F00C94E8100C94EE1011240C947A
:1022A00033110E94101170F3959FC1F3950F50E008
:1022B000551F629FF001729FBB27F00DB11D639FF8
:1022C000AA27F00DB11DAA1F649F6627B00DA11D9E
:1022D000661F829F2227B00DA11D621F739FB00D44
:1022E000A11D621F839FA00D611D221F749F3327B4
:1022F000A00D611D231F849F600D211D822F762F4D
:102300006A2F11249F5750409AF0F1F088234AF029
:10231000EE0FFF1FBB1F661F771F881F9150504095
:10232000A9F79E3F510580F00C94E8100C943311EE
:102330005F3FE4F3983ED4F3869577956795B7951C
:10234000F795E7959F5FC1F7FE2B880F911D969536
:10235000879597F90895A1E21A2EAA1BBB1BFD01D0
:102360000DC0AA1FBB1FEE1FFF1FA217B307E40774
:10237000F50720F0A21BB30BE40BF50B661F771FCC
:10238000881F991F1A9469F76095709580959095AC
:102390009B01AC01BD01CF010895EE0FFF1F059019
:1023A000F491E02D0994AEE0B0E0E9EDF1E10C9498
:1023B00082140D891E8986E08C831A8309838FEF2E
:1023C0009FE79E838D83AE01475E5F4F6F89788D57
:1023D000CE0101960E94F6112F813885F801E20F97
:1023E000F31F10822E96E4E00C949E14ACE0B0E053
:1023F000ECEFF1E10C9474147C016B018A01FC0197
:1024000017821682838181FFBDC1CE0101964C01E6
:10241000F7019381F60193FD859193FF81916F01FF
:10242000882309F4ABC1853239F493FD859193FF7C
:1024300081916F01853229F4B70190E00E94DE138B
:10244000E7CF512C312C20E02032A0F48B3269F000
:1024500030F4803259F0833269F420612CC08D321F
:1024600039F0803339F4216026C02260246023C013
:10247000286021C027FD27C030ED380F3A3078F4AE
:1024800026FF06C0FAE05F9E300D1124532E13C0C4
:102490008AE0389E300D1124332E20620CC08E321B
:1024A00021F426FD6BC1206406C08C3611F420682F
:1024B00002C0883641F4F60193FD859193FF819126
:1024C0006F018111C1CF982F9F7D9554933028F4CF
:1024D0000C5F1F4FFFE3F9830DC0833631F0833764
:1024E00071F0833509F05BC022C0F80180818983D7
:1024F0000E5F1F4F44244394512C540115C03801E2
:10250000F2E06F0E711CF801A080B18026FF03C0BD
:10251000652D70E002C06FEF7FEFC5012C870E9430
:10252000D3132C0183012C852F77222E17C038015D
:10253000F2E06F0E711CF801A080B18026FF03C08D
:10254000652D70E002C06FEF7FEFC5012C870E9400
:10255000C8132C012C852068222E830123FC1BC06C
:10256000832D90E048165906B0F4B70180E290E060
:102570000E94DE133A94F4CFF50127FC859127FEE3
:1025800081915F01B70190E00E94DE1331103A940F
:10259000F1E04F1A51084114510471F7E5C0843637
:1025A00011F0893639F5F80127FF07C06081718184
:1025B000828193810C5F1F4F08C060817181072E5B
:1025C000000C880B990B0E5F1F4F2F76722E97FF12
:1025D00009C090958095709561957F4F8F4F9F4F63
:1025E0002068722E2AE030E0A4010E941614A82E62
:1025F000A81844C0853729F42F7EB22E2AE030E097
:1026000025C0F22FF97FBF2E8F36C1F018F4883520
:1026100079F0B4C0803719F0883721F0AFC02F2F80
:102620002061B22EB4FE0DC08B2D8460B82E09C07F
:1026300024FF0AC09F2F9660B92E06C028E030E024
:1026400005C020E130E002C020E132E0F801B7FE31
:1026500007C060817181828193810C5F1F4F06C02A
:102660006081718180E090E00E5F1F4FA4010E94A5
:102670001614A82EA818FB2DFF777F2E76FE0BC010
:10268000372D3E7FA51450F474FE0AC072FC08C0BA
:10269000372D3E7E05C0BA2C372D03C0BA2C01C0A1
:1026A000B52C34FF0DC0FE01EA0DF11D8081803391
:1026B00011F4397E09C032FF06C0B394B39404C04C
:1026C000832F867809F0B39433FD13C030FF06C022
:1026D0005A2CB31418F4530C5B18B32CB31468F4CD
:1026E000B70180E290E03C870E94DE13B3943C8502
:1026F000F5CFB31410F43B1801C0312C34FF12C0D5
:10270000B70180E390E03C870E94DE133C8532FFF6
:1027100017C031FD03C088E790E002C088E590E073
:10272000B7010CC0832F867859F031FF02C08BE2CD
:1027300001C080E237FD8DE2B70190E00E94DE1318
:10274000A51438F4B70180E390E00E94DE135A9498
:10275000F7CFAA94F401EA0DF11D8081B70190E052
:102760000E94DE13A110F5CF332009F451CEB7013A
:1027700080E290E00E94DE133A94F6CFF701868162
:10278000978102C08FEF9FEF2C96E2E10C9490149A
:10279000FC010590615070400110D8F7809590952C
:1027A0008E0F9F1F0895FC01615070400190011031
:1027B000D8F7809590958E0F9F1F08950F931F93C4
:1027C000CF93DF93FB01238121FD03C08FEF9FEFA8
:1027D00028C022FF16C046815781248135814217C7
:1027E000530744F4A081B1819D012F5F3F4F318396
:1027F00020838C93268137812F5F3F4F3783268339
:1028000010C0EB01092F182F0084F185E02D0995E8
:10281000892BE1F68E819F8101969F838E83812F84
:10282000902FDF91CF911F910F910895FA01AA2760
:10283000283051F1203181F1E8946F936E7F6E5F03
:102840007F4F8F4F9F4FAF4FB1E03ED0B4E03CD0B1
:10285000670F781F891F9A1FA11D680F791F8A1F94
:10286000911DA11D6A0F711D811D911DA11D20D0FB
:1028700009F468943F912AE0269F11243019305DB5
:102880003193DEF6CF010895462F4770405D4193A6
:10289000B3E00FD0C9F7F6CF462F4F70405D4A33F3
:1028A00018F0495D31FD4052419302D0A9F7EACFBB
:1028B000B4E0A6959795879577956795BA95C9F7EA
:1028C00000976105710508959B01AC010A2E0694DD
:1028D0005795479537952795BA95C9F7620F731F96
:1028E000841F951FA01D08952F923F924F925F92D3
:1028F0006F927F928F929F92AF92BF92CF92DF9210
:10290000EF92FF920F931F93CF93DF93CDB7DEB774
:10291000CA1BDB0B0FB6F894DEBF0FBECDBF099408
:102920002A88398848885F846E847D848C849B845F
:10293000AA84B984C884DF80EE80FD800C811B816D
:10294000AA81B981CE0FD11D0FB6F894DEBF0FBE9C
:0A295000CDBFED010895F894FFCF0C
:10295A00000000000000000000005F00000000000E
:10296A00000007000700000000147F147F14000015
:10297A0000242A7F2A120000002313086462000040
:10298A0000364955225000000000050300000000EF
:10299A00001C2241000000000041221C000000002F
:1029AA0000082A1C2A0800000008083E080800003F
:1029BA0000A06000000000000008080808080000E5
:1029CA0000606000000000000020100804020000FF
:1029DA00003E5149453E00000000427F4000000091
:1029EA000062514949460000002241494936000027
:1029FA00001814127F1000000027454545390000D1
:102A0A00003C4A49493000000001710905030000F1
:102A1A00003649494936000000064949291E000086
:102A2A0000003636000000000000AC6C0000000018
:102A3A0000081422410000000014141414140000A9
:102A4A00004122140800000000020151090600009A
:102A5A0000324979413E0000007E0909097E0000E2
:102A6A00007F494949360000003E414141220000A9
:102A7A00007F4141221C0000007F49494941000072
:102A8A00007F090909010000003E4141517200001E
:102A9A00007F0808087F000000417F410000000015
:102AAA00002040413F010000007F0814224100003D
:102ABA00007F404040400000007F020C027F00007F
:102ACA00007F0408107F0000003E4141413E0000A3
:102ADA00007F090909060000003E4151215E0000FD
:102AEA00007F091929460000002649494932000099
:102AFA000001017F01010000003F4040403F00000B
:102B0A00001F2040201F0000003F4038403F0000C7
:102B1A00006314081463000000030478040300002F
:102B2A000061514945430000007F41410000000017
:102B3A0000020408102000000041417F000000004C
:102B4A0000040201020400000080808080800000EE
:102B5A0000010204000000000020545454780000D0
:102B6A00007F4844443800000038444428000000EC
:102B7A0000384444487F0000003854545418000078
:102B8A0000087E09020000000018A4A4A47C00002A
:102B9A00007F08040478000000007D0000000000A7
:102BAA000080847D00000000007F1028440000009F
:102BBA0000417F4000000000007C041804780000F7
:102BCA00007C08047C0000000038444438000000FF
:102BDA0000FC24241800000000182424FC00000033
:102BEA0000007C080400000000485454240000003F
:102BFA0000047F4400000000003C40407C000000CC
:102C0A00001C2040201C0000003C4030403C0000DA
:102C1A000044281028440000001CA0A07C000000EA
:102C2A00004464544C44000000083641000000008F
:102C3A0000007F000000000000413608000000008C
:102C4A000002010102010000000205050200000065
:102C5A00FF44616C6C61732054656D7065726174B8
:102C6A0075726520494320436F6E74726F6C204CF5
:102C7A006962726172792044656D6F004F4E20005F
:102C8A002564006D61783A20006C6F773A200069FC
:102C9A0074656D703A200074656D703A200000000A
:102CAA0000008B0A360C030A1D0A0F0A690A000083
:102CBA000000D90B0D0A006E616E00696E66006F26
:062CCA007666002E0000FA
:00000001FF
