S016000074656D705F6F6C65645F776966692E7372656347
S11300000C94E6000C94E1190C940E1A0C94EE1363
S11300100C94EE130C94EE130C940E010C940E013C
S11300200C940E010C940E010C940E010C940E0110
S11300300C940E010C940E010C940E010C940E0100
S11300400C943B1A0C940E010C94EF160C94271785
S11300500C940E010C940E010C940E010C940E01E0
S11300600C940E010C940E01005EBCE2613FDD8332
S1130070C29C7E20A3FD1F419DC3217FFCA2401E84
S11300805F01E3BD3E6082DC237D9FC1421CFEA074
S1130090E1BF5D0380DE3C62BEE0025CDF81633D64
S11300A07C22C09E1D43A1FF4618FAA427799BC554
S11300B084DA3866E5BB5907DB856739BAE4065844
S11300C01947A5FB7826C49A653BD987045AB8E634
S11300D0A7F91B45C6987A24F8A6441A99C7257B24
S11300E03A6486D85B05E7B98CD2306EEDB3510F14
S11300F04E10F2AC2F7193CD114FADF3702ECC9204
S1130100D38D6F31B2EC0E50AFF1134DCE90722CF3
S11301106D33D18F0C52B0EE326C8ED0530DEFB1E3
S1130120F0AE4C1291CF2D73CA947628ABF51749D3
S11301300856B4EA6937D58B5709EBB536688AD4C3
S113014095CB2977F4AA4816E9B7550B88D6346AB3
S11301502B7597C94A14F6A8742AC896154BA9F7A3
S1130160B6E80A54D7896B35000000080002010084
S1130170000304070000000000000000010204085E
S113018010204080010204081020010204081020FD
S11301900404040404040404020202020202030329
S11301A003030303000000002300260029000000CD
S11301B00000250028002B00000000002400270078
S11301C02A0010014C03D3125717E61211241FBE44
S11301D0CFEFD8E0DEBFCDBF14E0A0E0B1E0E2E7AE
S11301E0F2E402C005900D92AC3AB107D9F728E0C9
S11301F0ACEAB4E001C01D92AD33B207E1F710E000
S1130200C5EED0E004C02197FE010E944E1EC13EFF
S1130210D107C9F70E9486170C942C210C94000076
S1130220ECEAF4E0158216821186138682E090E0EF
S1130230A0E0B0E084879587A687B78713A215A6A8
S113024014A688E094E093A782A717A608958EBD0C
S113025000000DB407FEFDCF8EB508958FEF8EBD5F
S113026000000DB407FEFDCF8EB5089561E0FC01DA
S113027084810E94991B8091F8048823A1F0109234
S1130280F8048091F704882371F09FB7F894809163
S1130290F704813029F48091F5048DBB9FBF089544
S11302A08091F5048FBF08952091F804211120C096
S11302B021E02093F804E9EFF4E0308121814091BA
S11302C0F704442399F04FB7F8945091F704513050
S11302D059F45DB35093F5046DB35091F604509501
S11302E056235DBB4FBF02C04093F5043CBD2DBDFA
S11302F060E0FC0184810E94991B0895CF93DF93F1
S1130300FC0126812223D1F0EC01878190859C0198
S11303102F5F3F4F308727838230924058F40E94EA
S11303202E012F813885C901019698878F83223049
S11303303240A8F3CE010E9436011E82DF91CF9194
S113034008950F931F93CF93DF93EB010E94851AB7
S11303508B010E942E018F3F49F00E94851A601B79
S1130360710B6C177D07A8F380E001C081E0DF9179
S1130370CF911F910F910895BF92CF92DF92EF9288
S1130380FF920F931F93CF93DF938C01B62E6901D5
S11303907A010E947E01C8010E9454016CE271E05E
S11303A0C8010E94A1018B2D80640E942701C8E12D
S11303B0D0E0D701C6010C2E04C0B695A795979539
S11303C087950A94D2F70E9427012897C83F8FEF98
S11303D0D80779F7BB2029F0E8E0BE1204C087E80B
S11303E003C085E901C08FEF0E942701C0E001C06E
S11303F0CF5F0E942E01F8018287882314F4CF3F37
S1130400B9F7DF91CF911F910F91FF90EF90DF909B
S1130410CF90BF9008950F931F93CF93DF93EC0178
S11304200E94851A8B010AC00E94851A601B710BF9
S11304306D32714018F08FE08D8309C00E942E0147
S11304408A878F3F89F38E3F39F08DE08D83CE010B
S11304500E94360180E001C081E0DF91CF911F91BD
S11304600F910895CF92DF92EF92FF920F931F9313
S1130470CF93DF93EC0169010115110509F46CC0F8
S1130480C801820F931F8130924008F060C08E81B2
S1130490882371F088819981AA81BB81841795078B
S11304A0A607B70729F48F819885C816D90620F5C1
S11304B0488359836A837B838B85833049F0032E79
S11304C039E0440F551F661F771F3A95D1F7302D39
S11304D09A01AB0161E1CE010E94BC01882319F0AD
S11304E083E08D8334C0CE010E940B02882379F10E
S11304F018861F8281E08E838F8198858C159D05D7
S113050050F40E942E018F819885019698878F83DD
S11305108C159D05B0F36701E00EF11E0E942E01BB
S1130520F60181936F01EE15FF05C1F78F81988560
S1130530080F191F18870F838985882319F001155F
S1130540124060F0CE010E947E0181E008C0CE011D
S11305500E94360180E003C081E001C081E0DF91A8
S1130560CF911F910F91FF90EF90DF90CF9008955E
S1130570EF92FF920F931F93790100E012E020E0C5
S113058030E00E9432021F910F91FF90EF90089586
S1130590EF92FF920F931F93CF93DF937C01862FEB
S11305A08A010E942701E8011E5F89910E942701A8
S11305B0C017D107D1F78FEF0E9427018FEF0E9458
S11305C027010E942E01F7018287982F9F71953091
S11305D039F081E18583C7010E94360180E001C0C2
S11305E081E0DF91CF911F910F91FF90EF900895DB
S11305F00F931F93CF93DF93EC01890141155105AC
S11306006105710519F482E18D833DC08B858330CA
S113061049F0032E39E0440F551F661F771F3A95A2
S1130620D1F7302D9A01AB0168E1CE010E94BC01E3
S1130630882319F084E08D8326C0A8016EEFCE01D3
S11306400E94C8028823F9F068E572E0CE010E9496
S1130650A101811103C085E18D8315C020E030E044
S1130660A9016DE0CE010E94BC01811104C00E9469
S11306702E01882319F084E18D8305C0CE010E94E8
S1130680360181E004C0CE010E94360180E0DF9192
S1130690CF911F910F910895E9EFF4E080E58083F5
S11306A081E081830895CF93DF93EC019C012A5F5D
S11306B03F4F41E050E060E070E08B8D9C8D0E94E4
S11306C080088823B1F08F89988DA98DBA8D892BE4
S11306D08A2B8B2B69F48E819F81A885B9858F8B9A
S11306E0988FA98FBA8F8C8180688C8381E001C038
S11306F081E0DF91CF910895CF93DF93EC01462FF2
S11307006E857F85888999890E94EA06882341F04D
S11307108A8920E2829FC00111248C5F9A4F02C013
S113072080E090E0DF91CF9108958F929F92AF92F5
S1130730BF92CF92DF92EF92FF920F931F93CF93CA
S1130740DF93EC018D81882309F47FC00B891C8918
S11307502D893E89041715072607370708F474C046
S1130760823031F44A875B876C877D8781E06DC076
S1130770411551056105710551F41E821F821886C9
S113078019861A861B861C861D8681E05EC08A84B3
S11307909B84AC84BD84EB8DFC8D858590E00996AB
S11307A0950184010150110921093109082E04C061
S11307B036952795179507950A94D2F76A017B0118
S11307C0E1E0CE1AD108E108F10804C0F694E794F8
S11307D0D794C7948A95D2F7C016D106E206F306D9
S11307E020F089288A288B2849F48F89988DA98D2F
S11307F0BA8D8E839F83A887B98716C0C01AD10A81
S1130800E20AF30A11C04E815F81688579859801F7
S11308108B8D9C8D0E94230791E0C91AD108E108B1
S1130820F108811106C011C04A015B018E010A5F03
S11308301F4FC114D104E104F10429F78A869B8671
S1130840AC86BD8681E001C080E0DF91CF911F912D
S11308500F91FF90EF90DF90CF90BF90AF909F905B
S11308608F9008950F931F93CF93DF93FC0185819D
S11308708823D1F1EF018481882394F561E0CF01CD
S11308800E947C038C01892B71F18D81823048F4A4
S11308908B899C89AD89BE89F801848F958FA68F39
S11308A0B78F8F89988DF801938F828F8F89988D58
S11308B0A98DBA8DB58BA48BE091FB04F091FC0457
S11308C0309759F0B8016A5E7F4FC8014896099580
S11308D0F801808D918D938B828B8C818F778C83A3
S11308E00E94AF0601C080E0DF91CF911F910F916C
S11308F008952F923F924F925F926F927F928F92C0
S11309009F92AF92BF92CF92DF92EF92FF920F939A
S11309101F93CF93DF9300D000D000D0CDB7DEB7C4
S11309208C011B015E834D83DC0115968C91159718
S1130930813009F07DC114968C91149781FF78C1A0
S113094082FF18C053964D915D916D917C9156979D
S11309501A968D919D910D90BC91A02D84179507A9
S1130960A607B70709F474C1C8010E949503882338
S113097009F45EC1ED81FE81EF2B09F42DC1CD8018
S1130980DE80A12C6894BB24B1F8D8011A964D914D
S11309905D916D917C911D975B96ED91FC915C97B7
S11309A02A013B01032E39E07694679457944794C7
S11309B03A95D1F7302D9481915094214A01B1E0B8
S11309C09B22911156C08114910409F074C1D8017D
S11309D016964D915D916D917C9119974115510534
S11309E061057105B1F457968D919D910D90BC915F
S11309F0A02D0097A105B10531F4C8010E9453034D
S1130A0081112CC115C1F80186839783A087B18712
S1130A1025C19E012F5F3F4FCF010E942307811103
S1130A2002C090E072C149815A816B817C81D801F6
S1130A305B96ED91FC915C978789803129F088EF72
S1130A409FEFAFEFBFE004C088EF9FEFA0E0B0E0FE
S1130A50481759076A077B0730F0C8010E945303FF
S1130A608111FCC0E5C0F801468357836087718714
S1130A70F5C095012819390976012C153D0508F4AE
S1130A807901D80116964D905D906D907C901997E0
S1130A90B2E04B1A510861087108058404C0440C83
S1130AA0551C661C771C0A94D2F7468557856089C5
S1130AB07189440E551E661E771E490E511C611C19
S1130AC0711CE114E2E0FE0641F580910001909171
S1130AD00101A0910201B091030184159505A605B9
S1130AE0B70559F48FEF9FEFDC01809300019093D9
S1130AF00101A0930201B09303019101B301A2018A
S1130B0080910205909103050E94F802882309F45C
S1130B108FC09EEF391A75014CC08114910429F5D8
S1130B20D8011A964D915D916D917C911D975396C4
S1130B308D919D910D90BC91A02D481759076A077E
S1130B407B0798F00E94AF06882309F471C0409295
S1130B5000015092010160920201709203018091A0
S1130B60010581608093010508C041E0C301B20121
S1130B700E94EA06882309F45BC0C4018C5F9A4F83
S1130B80AC014E0D5F1D8417950799F0F101DC014E
S1130B9091012E0D3F1D61916D93E217F307D9F773
S1130BA00196E1E0F0E0E81BF90B4E0F5F1F240E05
S1130BB0351ECE18DF08F80182859385A485B58596
S1130BC08E0D9F1DA11DB11D82879387A487B587B4
S1130BD0C114D10409F0D9CEF80182859385A48586
S1130BE0B5854389548965897689481759076A0701
S1130BF07B0740F4838B948BA58BB68B84818068B0
S1130C0084830DC08091FB049091FC04892B39F0FE
S1130C102D813E81232B19F0848180688483F8011F
S1130C20848183FF0FC0C8010E94320481110DC06A
S1130C3081E090E0D80113969C938E93129780E004
S1130C4090E063C08D819E8160C08D819E815DC076
S1130C50ED81FE81EF2B09F092CEE1CF7601F1E038
S1130C60CF16F2E0DF0608F07501D8015B96ED912E
S1130C70FC915C9716964D905D906D907C901997C1
S1130C80B2E04B1A510861087108058404C0440C91
S1130C90551C661C771C0A94D2F786859785A08913
S1130CA0B189480E591E6A1E7B1EE114E2E0FE065D
S1130CB009F036CF0ACFC5018819990976018C1538
S1130CC09D0508F47C01D80116964D905D906D90B9
S1130CD07C901997B2E04B1A510861087108058499
S1130CE004C0440C551C661C771C0A94D2F78685F4
S1130CF09785A089B189480E591E6A1E7B1EE1148E
S1130D00E2E0FE0609F031CFE0CE26960FB6F89465
S1130D10DEBF0FBECDBFDF91CF911F910F91FF902A
S1130D20EF90DF90CF90BF90AF909F908F907F9087
S1130D306F905F904F903F902F900895CF93DF93E3
S1130D401F92CDB7DEB7698341E050E0BE016F5F0B
S1130D507F4F0E9479040F90DF91CF910895809185
S1130D6001058823A9F1409100015091010160918E
S1130D7002017091030124E035E080910205909115
S1130D8003050E94F802882321F14091FD0450914B
S1130D90FE046091FF047091000541155105610541
S1130DA0710591F024E035E08091020590910305EE
S1130DB00E94F802882369F01092FD041092FE0448
S1130DC01092FF04109200051092010581E008952D
S1130DD081E00895CF92DF92EF92FF92CF936B015F
S1130DE07C01C42F8091000190910101A091020126
S1130DF0B09103018C159D05AE05BF05C1F00E949D
S1130E00AF068823D1F024E035E0B701A601809134
S1130E100205909103050E94B802882371F0C092E4
S1130E200001D0920101E0920201F092030180914D
S1130E300105C82BC093010581E0CF91FF90EF908D
S1130E40DF90CF9008958F929F92AF92BF92CF92EE
S1130E50DF92EF92FF920F931F93CF93DF93E901F9
S1130E60FC0101851285238534850F5F1F4F2F4FA9
S1130E703F4F041715072607370708F477C08E017C
S1130E806A017B01EC0183899489A589B689278944
S1130E902031D1F4452F562F672F77274A015B0164
S1130EA0880E991EAA1EBB1EC501B40180900001C4
S1130EB090900101A0900201B0900301681579059A
S1130EC08A059B05F1F425C0689416F87695679514
S1130ED0579547951694D1F74A015B01880E991EE0
S1130EE0AA1EBB1EC501B4018090000190900101AF
S1130EF0A0900201B0900301681579058A059B054D
S1130F00E1F040E00E94EA06882389F18F8980316C
S1130F10A1F4DD24EE24FF24C601880F991FFC01EF
S1130F20EC5FFA4F80819181A0E0B0E0F80180830A
S1130F309183A283B38381E01AC0E894C7F8DD24C7
S1130F40EE24FF24C601880F991F880F991FFC0106
S1130F50EC5FFA4F80819181A281B381BF70F80167
S1130F6080839183A283B38381E001C080E0DF9119
S1130F70CF911F910F91FF90EF90DF90CF90BF9092
S1130F80AF909F908F9008954F925F926F927F924F
S1130F908F929F92AF92BF92CF92DF92EF92FF9285
S1130FA00F931F93CF93DF93EC016A017B01280118
S1130FB03901423051056105710508F48BC08985FA
S1130FC09A85AB85BC850196A11DB11D8417950733
S1130FD0A607B70708F480C08B899C89AD89BE89B0
S1130FE02F892031C1F4852E962EA72EBB24880E7E
S1130FF0991EAA1EBB1E8091000190910101A0912F
S11310000201B091030188169906AA06BB06F1F401
S11310104C015D0126C04A015B01689416F8B69440
S1131020A794979487941694D1F7880E991EAA1EB4
S1131030BB1E8091000190910101A0910201B09129
S1131040030188169906AA06BB06B9F040E0C5015B
S1131050B4010E94EA06882309F441C08F898031D3
S113106071F4DD24EE24FF24C601880F991FFC01CE
S1131070EC5FFA4F5182408213C04C015D01E89449
S1131080C7F8DD24EE24FF24C601880F991F880FBA
S1131090991FFC01EC5FFA4F408251826282738295
S11310A0809101058160809301058A898230B0F0C6
S11310B08D819E81AF81B885880E991EAA1EBB1EA4
S11310C08092FD049092FE04A092FF04B092000569
S11310D081E005C080E003C080E001C081E0DF91D1
S11310E0CF911F910F91FF90EF90DF90CF90BF9021
S11310F0AF909F908F907F906F905F904F900895E6
S11311002F923F924F925F926F927F928F929F9213
S1131110AF92BF92CF92DF92EF92FF920F931F9301
S1131120CF93DF93CDB7DEB72F970FB6F894DEBF1A
S11311300FBECDBF1C01F90180809180A280B380D5
S113114081149104A104B10439F02FEF821A920A98
S1131150A20AB20A1D860DC0DC018D909D90AD904F
S1131160BC90B1E0BD87413051056105710509F0BE
S11311701D86D10119960D911D912D913C911C97BD
S1131180D901C8010196A11DB11D8D839E83AF8332
S1131190B887012B022B032B09F45FC0FF87EE876E
S11311A049875A876B877C8775016401412C512CD0
S11311B0320112E000E02D813E814F8158852C15CB
S11311C03D054E055F0540F4C12ED02EE12CF12CD7
S11311D0812E902EA12CB12C9E012F5F3F4FB70181
S11311E0A601C1010E9423078823B9F189819A814C
S11311F0AB81BC81892B8A2B8B2B41F04601570193
S11312003FEF831A930AA30AB30A12C0D701C60197
S11312100196A11DB11D88199909AA09BB0929853F
S11312203A854B855C8582179307A407B507B9F007
S11312303FEF431A530A630A730A4FEFC41AD40ADE
S1131240E40AF40AF10181859285A385B4854816E0
S113125059066A067B0608F4AECF80E053C00FEF50
S11312601FEF2FEF3FE0B701A601C1010E94C407A1
S1131270811112C047C09701860168017901F1E02C
S1131280CF1AD108E108F108B701A601C1010E94F3
S1131290C407811107C036C08C149D04AE04BF047A
S11312A050F307C0970186018C149D04AE04BF045B
S11312B020F3AE85BF854D915D916D917C91411573
S11312C051056105710539F095018401C1010E9440
S11312D0C4078823B9F0EE85FF8580829182A282BB
S11312E0B382FD85FF2369F02FEF821A920AA20AC6
S11312F0B20AD1018D929D92AD92BC92139781E076
S113130001C081E02F960FB6F894DEBF0FBECDBFAB
S1131310DF91CF911F910F91FF90EF90DF90CF90CD
S1131320BF90AF909F908F907F906F905F904F9001
S11313303F902F9008950895FC018BE999E0928BDA
S1131340818B768365831482108289E0818381E0B6
S1131350828383830895FC0184810895CF93DF936E
S1131360EB0167E0CE010E948A0E91E02F81821387
S113137090E0892FDF91CF910895EF92FF920F9320
S11313801F93CF93DF938C017B01D42FFC018581C4
S113139096810E94BA0DC0E00BC0CD1306C0B70100
S11313A0C8010E94AE0981110DC0CF5FDC1748F05F
S11313B0B701F801858196810E94F20D8111EDCF6C
S11313C001C080E0DF91CF911F910F91FF90EF90CA
S11313D00895EF92FF920F931F93CF93DF93EC0145
S11313E07B018A018D819E810E94980CB7018D81B9
S11313F09E810E94970D40E06EEB8D819E810E943C
S11314003F0D8D819E810E947C0DF80180838D812A
S11314109E810E947C0DF80181838D819E810E94B2
S11314207C0DF80182838D819E810E947C0DF801E0
S113143083838D819E810E947C0DF80184838D813C
S11314409E810E947C0DF80185838D819E810E947E
S11314507C0DF80186838D819E810E947C0DF801AC
S113146087838D819E810E947C0DF80180878D8108
S11314709E810E94980CDF91CF911F910F91FF9054
S1131480EF900895CF93DF93EA010E94E90968E0A1
S1131490CE010E948A0E91E02885821390E0892F64
S11314A0DF91CF9108950F931F93CF93DF93EC01B6
S11314B08B018D819E810E94980CB8018D819E8143
S11314C00E94970D40E064EB8D819E810E943F0D48
S11314D08D819E810E94140D182F8D819E810E9402
S11314E0980C81E0111180E0DF91CF911F910F9151
S11314F00895CF93DF93CDB7DEB729970FB6F8944D
S1131500DEBF0FBECDBFFB0120812031D9F0AE017B
S11315104F5F5F4F0E94420A8823B1F08D818F3361
S113152069F018F48F3161F007C08F3519F08F37E7
S113153069F002C08BE00BC080E009C08AE007C0FC
S113154089E005C089E003C080E001C08CE02996F1
S11315500FB6F894DEBF0FBECDBFDF91CF910895D3
S1131560EF92FF920F931F93CF93DF93CDB7DEB724
S113157061970FB6F894DEBF0FBECDBF8C01FC019E
S1131580858196810E94BA0DF8011482EE24E394B9
S113159037C0BE01665F7F4FC8010E94AE09882331
S11315A079F1F801808181110AC0BE01665F7F4F25
S11315B0C8010E94530A882311F0F801E082AE01A9
S11315C04F5F5F4FBE01665F7F4FC8010E94E9090C
S11315D0F801F180BE01665F7F4FC8010E94790A5D
S11315E08F1518F4F801818106C0BE01665F7F4F34
S11315F0C8010E94790AF801818384818F5F848302
S1131600BE01665F7F4FF801858196810E94F20DCD
S11316108111BFCF61960FB6F894DEBF0FBECDBF68
S1131620DF91CF911F910F91FF90EF900895CF9389
S1131630DF93CDB7DEB729970FB6F894DEBF0FBEA0
S1131640CDBFAE014F5F5F4F0E94E90981E09981F0
S1131650911101C080E029960FB6F894DEBF0FBE49
S1131660CDBFDF91CF910895CF92DF92EF92FF9299
S11316700F931F93CF93DF93EC018B01452BF1F074
S11316808B818823D9F08881811118C00E94851A22
S11316906B017C0160E070E0CE010E94170B8111A8
S11316A00DC00E94851ADC01CB018C199D09AE097D
S11316B0BF098E3E9240A105B10560F3F801808117
S11316C08A3059F08B3081F08930A9F46EE570E0EE
S11316D080E090E00E94BB1A14C06CEB70E080E0E4
S11316E090E00E94BB1A0DC067E771E080E090E0D3
S11316F00E94BB1A06C06EEE72E080E090E00E9489
S1131700BB1ADF91CF911F910F91FF90EF90DF9063
S1131710CF900895CF93DF93EC018D819E810E9439
S1131720980C8D819E810E94B50D488164E48D8161
S11317309E810E943F0D8A81882341F0BE016F5F24
S11317407F4F40E050E0CE010E94340BDF91CF91F7
S113175008958F929F92AF92BF92CF92DF92EF92B1
S1131760FF921F93CF93DF93FB01EA01898190E0FD
S1131770982F88272881BC01622B8081823231F026
S1131780883221F0803109F07EC04CC08C818F33C7
S113179029F118F48F3199F176C08F3581F08F37A4
S11317A009F071C0072E000C880B990B0E94E61CEF
S11317B020E030E040E85DE30E949B1D65C0759524
S11317C06795072E000C880B990B0E94E61C20E0FD
S11317D030E040E05EE30E949B1D56C0759567951E
S11317E075956795072E000C880B990B0E94E61CD3
S11317F020E030E040E85EE30E949B1D45C0759503
S113180067957595679575956795072E000C880BF8
S1131810990B0E94E61C20E030E040E05FE30E9468
S11318209B1D32C01F8175956795072E000C880B90
S1131830990B0E94E61C20E030E040E85EE30E9441
S1131840CA1B6B017C01812F90E02E81821B9109C0
S1131850BC01990F880B990B0E94E61C4B015C019B
S1131860612F70E080E090E00E94E41C9B01AC01D9
S1131870C501B4010E943C1C9B01AC01C701B60127
S11318800E94CB1B01C004C0562F472F382F292F8D
S1131890652F742F832F922FDF91CF911F91FF908B
S11318A0EF90DF90CF90BF90AF909F908F9008956E
S11318B0EF92FF920F931F93CF93DF93CDB7DEB7D1
S11318C029970FB6F894DEBF0FBECDBF8C017B0104
S11318D0AE014F5F5F4F0E94420A882341F0AE0180
S11318E04F5F5F4FB701C8010E94A90B04C060E0BD
S11318F070E08EEF92EC29960FB6F894DEBF0FBE1F
S1131900CDBFDF91CF911F910F91FF90EF9008957C
S1131910FC018081089526E636E646EE5FE30E94E8
S11319209B1D20E030E040E052E40E94CB1B089570
S1131930FF920F931F93CF93DF93FC01D08101811A
S11319401281F894F8018181FD2EF0948F21818316
S11319507894CCE702C0C15041F182E090E00E944B
S1131960E71AF80190819D23B1F3F89482818F21C5
S1131970828381818D2B8183789480EE91E00E9413
S1131980E71AF894F8018181F822F18286E490E064
S11319900E94E71AF8018081D823C1E009F0C0E071
S11319A078948AE991E00E94E71A8C2FDF91CF9115
S11319B01F910F91FF9008951F93CF93DF93FC0124
S11319C01081C181D28160FF16C0F8948A81912F61
S11319D0909589238A838981812B89838AE090E089
S11319E00E94E71A8A81182B1A83789487E390E07F
S11319F00E94E71A15C0F8948A81912F9095892343
S1131A008A838981812B898381E490E00E94E71A8B
S1131A108A81182B1A83789485E090E00E94E71A53
S1131A20DF91CF911F9108950F931F93CF93DF936D
S1131A30FC011081C181D281F8948981812B898331
S1131A408A81012F009580238A8383E090E00E949D
S1131A50E71A8981082309838AE090E00E94E71A43
S1131A60C881789485E390E00E94E71A1C2381E002
S1131A7009F480E0DF91CF911F910F910895BF92F7
S1131A80CF92DF92EF92FF920F931F93CF93DF9346
S1131A907C01D62EB42EC8E0D0E011E001E0C12CC8
S1131AA0602F912F9D2109F46C2DC7010E94DC0C3D
S1131AB0110F2197A9F7B11015C0F894D701119609
S1131AC0ED91FC91129791818C918095892381836A
S1131AD01196ED91FC91129792818C9180958923B6
S1131AE082837894DF91CF911F910F91FF90EF90B3
S1131AF0DF90CF90BF900895EF92FF920F931F93C2
S1131B00CF93DF937C01C8E0D0E000E011E0C7018F
S1131B100E94140D8111012B110F2197C1F7802F01
S1131B20DF91CF911F910F91FF90EF900895EF9265
S1131B30FF920F931F93CF93DF937C018B0140E0BF
S1131B4065E50E943F0DE801085F1F4F699140E081
S1131B50C7010E943F0DC017D107C1F7DF91CF9194
S1131B601F910F91FF90EF90089540E06CEC0E945C
S1131B703F0D0895DC011B961C921B971D961C9229
S1131B801D971C961C921C971A961C92FC013A965F
S1131B9003961292E817F907E1F708951F93CF937C
S1131BA0DF93EC01162F60E0812F0E945A1B612FF6
S1131BB070E0FB01E458FE4FE491E883FB01E05739
S1131BC0FE4FE491F0E0EE0FFF1FEC55FE4F8591C0
S1131BD094919A838983CE010E94BA0DDF91CF91AB
S1131BE01F9108959F92AF92BF92CF92DF92EF928E
S1131BF0FF920F931F93CF93DF93EC01C62ED72E42
S1131C008D85811161C0CE010E94980C811104C0A0
S1131C101B861D861C8672C040E060EFCE010E94C8
S1131C203F0D01E0F12CA12CEE24E394BB24B394EA
S1131C30912CCE010E94140D182FCE010E94140D78
S1131C40113009F04DC08130C9F435C08B85E816D8
S1131C5048F4FE01EF0DF11D838180231B2D29F42F
S1131C60192D03C01B2DE812192D111105C088E090
S1131C708E15C8F1EC8637C0113041F4FE01EF0D2A
S1131C80F11D8381802B83831B2D08C0FE01EF0D82
S1131C90F11D9381802F809589238383612FCE0149
S1131CA00E94DC0CE394000F11F4F3940B2D87E0F5
S1131CB08F1508F0BECF80E48E1530F4AB86A110EA
S1131CC014C081E08D8711C01B861D861C8680E0B0
S1131CD015C081918D93EC17FD07D9F781E00EC0F3
S1131CE01813D4CFB3CFAE2CD1CF8B81882361F31B
S1131CF0FE013396AC2DBD2D2B96EBCFDF91CF910A
S1131D001F910F91FF90EF90DF90CF90BF90AF9015
S1131D109F9008952FEF260F662369F0A82FB92FFF
S1131D2080E09D91E82FE927F0E0E859FF4F849186
S1131D302150B8F7089580E00895449A459A109286
S1131D40B90080E28093B80084E08093BC000895D9
S1131D508FEF90E0ECEBF0E00EC0019761F410928D
S1131D60BC0080914D0790914E07019690934E07C9
S1131D7080934D070895208122237CF708951F93B3
S1131D80CF93DF93182FCCEBD0E084EA88830E94B2
S1131D90A80E1093BB0084E888830E94A80EDF91EC
S1131DA0CF911F9108958093BB0084E88093BC0079
S1131DB00E94A80E0895CF93DF93D62FC42F880FC7
S1131DC00E94BF0E8D2F0E94D30E8C2F0E94D30E23
S1131DD084E98093BC00DF91CF91089592E09093C1
S1131DE0B800482F60E88CE30E94DB0E08958EEA69
S1131DF00E94EE0E8EE20E94EE0E84EA0E94EE0E27
S1131E0062E370E080E090E00E94BB1A80E20E94EE
S1131E10EE0E82E00E94EE0E81EA0E94EE0E88EC45
S1131E200E94EE0E86EA0E94EE0E81E80E94EE0EFB
S1131E308FEF0E94EE0E64E170E080E090E00E947B
S1131E40BB1A8FEA0E94EE0E64E170E080E090E03D
S1131E500E94BB1A0895CF93C62F80550E94EE0EA0
S1131E608C2F880F880F880F88700E94EE0E8C2F9D
S1131E7090E0969587958F70805F0E94EE0ECF91CB
S1131E80089592E09093B800482F60E48CE30E9498
S1131E90DB0E0895CF93DF93D0E060E08D2F0E9496
S1131EA02B0FC0E080E00E94410FCF5FC038D1F714
S1131EB0DF5FD83091F7DF91CF910895EF92FF92D1
S1131EC00F931F93CF93DF93EC018881811121C07D
S1131ED025C0E881F0E0B097EE0FFF1FEE0FFF1F63
S1131EE0EE0FFF1FE00FF11FEC5FFE4F80810E9499
S1131EF0410F6AE070E080E090E00E94BB1A0F5F3F
S1131F001F4F0830110529F721968881811103C0DC
S1131F1005C0E12CF12C0E2D1F2DDBCFDF91CF91CD
S1131F201F910F91FF90EF9008954F925F926F92DF
S1131F307F928F929F92AF92BF92CF92DF92EF9255
S1131F40FF920F931F93CF93DF93CDB7DEB72A97FA
S1131F500FB6F894DEBF0FBECDBF662E772E982E37
S1131F60892E20E030E048EC52E40E943C1C20E042
S1131F7030E040E85FE30E94961D8823ACF120E046
S1131F8030E048EC52E4662D772D892D982D0E947F
S1131F90961D1816ECF4162D072DF92CE82CD12CCF
S1131FA020E030E048EC52E4612F702F8F2D9E2DFD
S1131FB00E94CA1B162F072FF82EE92ED39420E077
S1131FC030E048EC52E40E94961D18164CF305C00C
S1131FD0162D072DF92CE82CD12C80E38D0D898347
S1131FE0CC24C394D12C06C0162D072DF92CE82C33
S1131FF0C12CD12C20E030E040E251E4612F702F5D
S11320008F2D9E2D0E943C1C20E030E040E85FE3D1
S11320100E94961D882384F120E030E040E251E4E0
S1132020612F702F8F2D9E2D0E94961D8823CCF03A
S1132030B12C20E030E040E251E4612F702F8F2D6D
S11320409E2D0E94CA1B162F072FF82EE92EB3943B
S113205020E030E040E251E40E94961D88234CF7D2
S113206001C0B12CFE01EC0DFD1D80E38B0D8183BD
S11320708FEFC81AD80A08C0FE01EC0DFD1D80E3DD
S113208081838FEFC81AD80A20E030E0A901612FBC
S1132090702F8F2D9E2D0E94961D88230CF4AFC0A7
S11320A020E030E040E85FE3612F702F8F2D9E2DFC
S11320B00E94961D8823CCF0B12C20E030E040E84B
S11320C05FE3612F702F8F2D9E2D0E94CA1B162F48
S11320D0072FF82EE92EB39420E030E040E85FE3C8
S11320E00E94961D88234CF701C0B12CE1E0F0E07A
S11320F0EC0FFD1FEC0DFD1D80E38B0D808356015D
S11321008FEFA81AB80AE1E0F0E0EC0FFD1FEA0D2A
S1132110FB1D8EE28083260182E0480E511C2DECCB
S11321203CEC4CEC5DE3612F702F8F2D9E2D0E94B3
S1132130961D882314F423C05601D12C2DEC3CECBD
S11321404CEC5DE3612F702F8F2D9E2D0E94CA1BD6
S1132150162F072FF82EE92ED3942DEC3CEC4CECE3
S11321605DE30E94961D88234CF7FE01E40DF51DE6
S113217080E38D0D818382E0A80EB11C08C0FE01AE
S1132180E40DF51D80E3818382E0A80EB11C2AE0F2
S113219037ED43E25CE3612F702F8F2D9E2D0E945B
S11321A0961D8823F4F0D12C2AE037ED43E25CE35A
S11321B0612F702F8F2D9E2D0E94CA1B162F072F63
S11321C0F82EE92ED3942AE037ED43E25CE30E9433
S11321D0961D88234CF7FE01EA0DFB1D80E38D0D4F
S11321E0818320E030E048EC52E4662D772D892D80
S11321F0982D0E94371C8823D4F41E8218C08EE2C6
S1132200FE01EC0DFD1D818326018FEF481A580A4B
S11322102DEC3CEC4CEC5DE3612F702F8F2D9E2D4B
S11322200E94961D88230CF087CF5601A8CF61E049
S113223070E080E090E00E94BB1ACE0101962A96DD
S11322400FB6F894DEBF0FBECDBFDF91CF911F91C3
S11322500F91FF90EF90DF90CF90BF90AF909F9041
S11322608F907F906F905F904F9008954F925F9200
S11322706F927F928F929F92AF92BF92EF92FF9252
S11322800F931F93CF93DF93CDB7DEB762970FB64B
S1132290F894DEBF0FBECDBF83E297E00E94B00A80
S11322A083E297E00E94AB09E82EF12C83E297E0E9
S11322B00E94880C882339F06CE074E083E997E08D
S11322C00E94C21704C083E297E00E948A0B1E1486
S11322D01F040CF0A2C000E010E0402FBE01655FB7
S11322E07F4F83E297E00E94BD09882309F48FC0E1
S11322F060E174E083E997E00E94C2174AE050E08D
S1132300B80183E997E00E94AD1863E174E083E9C2
S113231097E00E94C217BE01655F7F4F83E297E09A
S11323200E94580C2B013C010E948B0C4B015C0158
S1132330C301B2010E948B0CAB01BC0122E030E06E
S113234083E997E00E94CF1967E081E00E942B0F98
S1132350C501B4010E94950FFC01DE0111969C0198
S1132360295F3F4F91919A3310F49C9301C01C92C2
S11323701196E217F307B1F7CE0101960E945E0FA2
S11323804090450750904607609047077090480773
S1132390A3019201C501B4010E94371C88234CF0AB
S11323A020E030E0A901C301B2010E94371C811171
S11323B010C08092450790924607A0924707B092BA
S11323C0480766E084E00E942B0FCE0101960E942C
S11323D05E0F2091490730914A0740914B07509175
S11323E04C07C501B4010E94961D181684F480920E
S11323F0490790924A07A0924B07B0924C0766E0B7
S113240085E00E942B0FCE0101960E945E0F0F5FA4
S11324101F4FE016F10609F060CF62960FB6F894EC
S1132420DEBF0FBECDBFDF91CF911F910F91FF9003
S1132430EF90BF90AF909F908F907F906F905F9040
S11324404F90089564E670E080E090E00E94BB1A2B
S113245040E056E960E070E084E097E00E942215D5
S113246065E174E084E097E00E94EC1764E670E0B4
S113247080E090E00E94BB1A26E040E052EC61E06C
S113248070E083E997E00E948B166BE274E083E9C5
S113249097E00E94EC170E949D0E0E94F70E6AE0DE
S11324A070E080E090E00E94BB1A0E944A0F62E351
S11324B070E080E090E00E94BB1A80E20E94EE0E81
S11324C082E00E94EE0E86EA0E94EE0E61E081E058
S11324D00E942B0F83E794E00E945E0F61E082E08C
S11324E00E942B0F8BE694E00E945E0F61E084E073
S11324F00E942B0F85E694E00E945E0F61E085E068
S11325000E942B0F8FE594E00E945E0F6AE070E05A
S113251080E090E00E94BB1A08950F931F93CF931D
S1132520DF93CDB7DEB72A970FB6F894DEBF0FBEA0
S1132530CDBF66E574E084E097E00E94EC170E944A
S11325403611809144071F928F938CE594E09F93FA
S11325508F938E010F5F1F4F1F930F930E94541E82
S113256061E087E00E942B0FC8010E945E0F8091FA
S113257044078F5F8093440768EE73E080E090E047
S11325800E94BB1A0F900F900F900F900F900F9016
S11325902A960FB6F894DEBF0FBECDBFDF91CF9160
S11325A01F910F91089569E086E397E00E94CE0D94
S11325B066E377E083E297E00E949C0920E047E02D
S11325C066E084E097E00E94F614089584E097E0C2
S11325D00E949C1408952091910730919207281726
S11325E03907F9F490914F07809150079817E1F05B
S11325F0E0914F07F0E0EF5AF84F808120914F07A8
S113260030E02F5F3F4F2F733078332334F4215061
S11326103109206C3F6F2F5F3F4F20934F0790E0AD
S113262008958FEF9FEF08958FEF9FEF0895209106
S113263091073091920728173907B1F42091500778
S113264080914F0730E0205C3F4F281B31092F73E6
S11326503078332334F421503109206C3F6F2F5FDD
S11326603F4F822F932F089580E090E008951F93A9
S1132670CF93DF93EC014C8D5D8D4115510529F409
S113268081E090E09B838A8339C0A989BA8938891B
S1132690832F80951FB79E8D91FB772770F991FD4D
S11326A06095F894772321F09C91932B9C9303C01D
S11326B09C9198239C93FA013197F1F798E060FF7D
S11326C004C02C91232B2C9303C02C9128232C93EE
S11326D0FA013197F1F76695915089F7772321F044
S11326E09C9189238C9303C08C91382B3C931FBFFE
S11326F08C8D9D8D0197F1F741E050E0CA01DF9187
S1132700CF911F9108952091910730919207281736
S1132710390739F48FB7F8941092500710924F0785
S11327208FBF089520919107309192072817390798
S113273071F490914F0780915007981759F0E091E8
S11327404F07F0E0EF5AF84F808190E008958FEF43
S11327509FEF08958FEF9FEF0895E0919107F09117
S11327609207E817F90769F4A389B4899C918589CC
S1132770809589238C93109292071092910781E09F
S1132780089580E00895CF93DF93EC018A8D9B8DAB
S1132790892BF1F080919107909192078C179D07F6
S11327A0C9F0009711F00E94AD138E8D8E7F8E8F2D
S11327B01092500710924F07D0939207C09391073D
S11327C0EB89FC8990818D89892B808381E003C00A
S11327D080E001C080E0DF91CF9108951F920F92B5
S11327E00FB60F9211242F933F934F935F936F93E0
S11327F07F938F939F93AF93BF93CF93DF93EF9385
S1132800FF93A0919107B0919207109709F481C0AA
S11328105E968C915E9781FF0DC01E96ED91FC91A2
S11328201F9790811D968C911D97982381E071F4D8
S113283080E00CC01E96ED91FC911F9790811D962F
S11328408C911D97982381E009F080E0882309F496
S113285060C05396ED91FC915497908155968C915C
S1132860559780958923808356968D919C9157978F
S11328700197F1F758966D917C9159971E96CD91D9
S1132880DC911F971D965C911D9738E040E0FB0199
S11328903197F1F7842F90E095958795482F2881FB
S11328A0252309F04068315091F75E968C915E972C
S11328B081FD40958091500790E001968F73907848
S11328C0992324F40197806C9F6F019620914F0700
S11328D0281749F0E0915007F0E0EF5AF84F408391
S11328E08093500707C05E968C915E9781605E96D8
S11328F08C935E975A968D919C915B970197F1F713
S11329005396ED91FC915497908155968C91892B17
S11329108083FF91EF91DF91CF91BF91AF919F9110
S11329208F917F916F915F914F913F912F910F9074
S11329300FBE0F901F9018952EE734E0FC013183F1
S113294020830E94AD1308951F93CF93DF93EC016E
S1132950162F6E8D6695617081E06827812F0E9425
S1132960991B61E0812F0E945A1B612F70E0FB01CB
S1132970E458FE4FE491E88BFB01E057FE4FE491ED
S1132980F0E0EE0FFF1FE255FE4F859194919A8B74
S1132990898BDF91CF911F9108951F93CF93DF937C
S11329A0EC01162F60E0812F0E945A1B8E8D81FD51
S11329B004C061E0812F0E94991B1C87612F70E085
S11329C0FB01E458FE4FE491ED87FB01E057FE4F15
S11329D0E491F0E0EE0FFF1FEC55FE4F85919491CA
S11329E09F878E87DF91CF911F9108951F93CF9377
S11329F0DF93EC01162F1B821A8288EE93E0A0E08D
S1132A00B0E08C839D83AE83BF838EE794E099838B
S1132A1088831F8A1E8A198E188E1B8E1A8E1D8E0D
S1132A201C8E8E8D8E7F20FB81F98E8F642FCE01BC
S1132A300E94A414612FCE010E94CD14DF91CF9186
S1132A401F910895CF93DF93EC019A01AB011B8E84
S1132A501A8E198E188E1F8A1E8A60E874E88EE119
S1132A6090E00E942F1EF9012430310518F0C901AD
S1132A70039702C081E090E09D8F8C8F8C85863116
S1132A8008F041C0B901769567956431710518F075
S1132A906351710902C061E070E07F8B6E8B3697E1
S1132AA020F0B9016550710902C061E070E0798FCE
S1132AB0688FB901660F771F260F371F3695279544
S1132AC0369527952D30310510F12C50310921C050
S1132AD021E08E3008F420E081E001C0880F2A95BF
S1132AE0EAF7982B909368009C859830D0F09E303C
S1132AF010F1963158F120E030E02AC08D8B8C8D96
S1132B009D8D0197F1F7CE010E94C3132AC021E0E5
S1132B1030E03B8F2A8F909168008830C8F684E0BB
S1132B20E0CF2DE630E03C8B2B8B81E001C0880F99
S1132B309A95EAF7E3CF2BE630E03C8B2B8B985049
S1132B4081E001C0880F9A95EAF7D8CF2CE630E0EF
S1132B503C8B2B8B9E5081E001C0880F9A95EAF73D
S1132B60CDCFDF91CF910895FC01918D228D892FD6
S1132B7090E0805C9F4F821B91098F739927089581
S1132B80FC01918D828D981731F0828DE80FF11D33
S1132B90858D90E008958FEF9FEF0895FC01918D4E
S1132BA0828D981761F0828DDF01A80FB11D5D96AB
S1132BB08C91928D9F5F9F73928F90E008958FEF19
S1132BC09FEF08958DE497E1892B49F080E090E030
S1132BD0892B29F00E944D1781110E94000008954D
S1132BE0FC01848DDF01A80FB11DA35ABF4F8C9146
S1132BF0248D30E02F5F3F4F2F733078332334F42C
S1132C0021503109206C3F6F2F5F3F4F248FA689DD
S1132C10B7898C93A089B1898C9180648C93938DAE
S1132C20848D981306C00288F389E02D80818F7DFE
S1132C3080830895CF93DF93EC01888D81110FC0B9
S1132C4018C00FB607FC0DC0908195FF0AC0A88973
S1132C50B9898C9185FF05C0CE010E94F015EA89DF
S1132C60FB89908195FDEDCFA889B9898C9186FF68
S1132C70E8CFDF91CF9108950F931F93CF93DF9304
S1132C80FC0181E0808F938D848D981322C0A089EC
S1132C90B1898C9185FD2FC01CC00FB607FC08C0FC
S1132CA0E889F989808185FF03C0CE010E94F0156F
S1132CB09C8D091791F38B8DFE01E80FF11DE35AEA
S1132CC0FF4F10830B8FEA89FB89808180628083A8
S1132CD01BC0238D30E02F5F3F4F2F733078332399
S1132CE034F421503109206C3F6F2F5F3F4F162F72
S1132CF0EF01022FDDCFA689B7896C930088F18993
S1132D00E02D80818064808381E090E0DF91CF9129
S1132D101F910F910895BF92CF92DF92EF92FF928D
S1132D200F931F93CF93DF93EC016A017B01B22EC3
S1132D3060E874E88EE190E0A70196010E940D1E00
S1132D4089019A0101501109210931093695279504
S1132D5017950795E889F98982E08083011580E158
S1132D601807A8F0E889F989108260E472E48FE01A
S1132D7090E0A70196010E940D1EDA01C901019796
S1132D80A109B109B695A795979587958C01EC850E
S1132D90FD851083EE85FF850083188EEC89FD89FF
S1132DA0B082EA89FB89808180618083EA89FB891A
S1132DB0808188608083EA89FB8980818068808340
S1132DC0EA89FB8980818F7D8083DF91CF911F9178
S1132DD00F91FF90EF90DF90CF90BF9008951F92D6
S1132DE00F920FB60F9211242F938F939F93AF934B
S1132DF0BF93EF93FF93E091A307F091A407808121
S1132E0082FD14C0E3E9F7E0A689B7892C91818D8E
S1132E108F5F8F73928D891771F0DF01E18DF0E080
S1132E20ED56F84F258F59968C9305C0E091A9076C
S1132E30F091AA078081FF91EF91BF91AF919F918B
S1132E408F912F910F900FBE0F901F9018951F9286
S1132E500F920FB60F9211242F933F934F935F93CA
S1132E606F937F938F939F93AF93BF93EF93FF934E
S1132E7083E997E00E94F015FF91EF91BF91AF9124
S1132E809F918F917F916F915F914F913F912F917E
S1132E900F900FBE0F901F90189583E997E00E9442
S1132EA0B41521E0892B09F420E0822F0895E3E989
S1132EB0F7E01382128288EE93E0A0E0B0E084830E
S1132EC09583A683B7838EE894E09183808385EC11
S1132ED090E09587848784EC90E09787868780ECE0
S1132EE090E0918B808B81EC90E0938B828B82ECD1
S1132EF090E0958B848B86EC90E0978B868B118E7B
S1132F00128E138E148E0895089508950E94F01A57
S1132F100E9485170E942212C2EED5E10E948D12F2
S1132F202097E1F30E94E215F9CFCF92DF92EF925E
S1132F30FF920F931F93CF93DF9341155105B1F087
S1132F408C01E62EF72EEA01C12CD12CD7016D910C
S1132F507D01D801ED91FC910190F081E02DC80133
S1132F600995C80ED91E219789F702C0C12CD12C0E
S1132F70C601DF91CF911F910F91FF90EF90DF90E9
S1132F80CF9008956115710581F0FB010190002037
S1132F90E9F73197AF01461B570BDC01ED91FC912A
S1132FA00280F381E02D0995089580E090E0089572
S1132FB0DC01ED91FC910190F081E02D09950895DB
S1132FC0DC01ED91FC910280F381E02D42E050E0C0
S1132FD06AE974E0099508950F931F93CF93DF93E3
S1132FE0EC010E94C2178C01CE010E94E017800FF1
S1132FF0911FDF91CF911F910F9108954F925F928E
S11330006F927F929F92AF92BF92CF92DF92EF9294
S1133010FF920F931F93CF93DF93CDB7DEB7A197A2
S11330200FB6F894DEBF0FBECDBF5C016A017B0111
S1133030922E19A281E0821720F00F2EFAE09F2E23
S1133040F02D8E010F5D1F4F492C512C612C712CDA
S1133050C701B601A30192010E940D1E8C2D929E00
S113306080191124015011098A3010F4805D01C0C7
S1133070895CD8018C93C22ED32EE42EF52EC11474
S1133080D104E104F10421F70115110591F0F801CF
S113309001900020E9F73197AF01401B510BD50196
S11330A0ED91FC910280F381E02DB801C5010995F1
S11330B002C080E090E0A1960FB6F894DEBF0FBE88
S11330C0CDBFDF91CF911F910F91FF90EF90DF90D3
S11330D0CF90BF90AF909F907F906F905F904F90F4
S11330E00895CF92DF92EF92FF920F931F93CF93A5
S11330F0DF93EC016A017B012115310541F4E8817C
S1133100F9810190F081E02D642F09951DC02A30CA
S11331103105C1F4772394F46DE20E94D8178C0131
S113312044275527BA014C195D096E097F092AE025
S1133130CE010E94FE17800F911F06C02AE00E9454
S1133140FE1702C00E94FE17DF91CF911F910F91CD
S1133150FF90EF90DF90CF9008959A01AB01770F25
S1133160660B770B0E94711808952115310549F4F7
S1133170DC01ED91FC910190F081E02D642F099523
S113318008950E94FE1708954F925F927F928F9246
S11331909F92AF92BF92CF92DF92EF92FF920F93E2
S11331A01F93CF93DF9300D000D0CDB7DEB78C014F
S11331B04A015B01722E9A01AB01C501B4010E9460
S11331C0081E882331F06DE974E0C8010E94C2171B
S11331D0D2C075016401E894F7F82FEF3FEF4FE791
S11331E05FE7C701B6010E94081E811110C02FEFCE
S11331F03FEF4FE75FE7C701B6010E94371C18167F
S113320034F461EA74E0C8010E94C217B4C02FEF1D
S11332103FEF4FE75FE4C501B4010E94961D181605
S113322034F465EA74E0C8010E94C217A4C02FEF09
S11332303FEF4FE75FECC501B4010E94371C8823C0
S113324034F465EA74E0C8010E94C21794C020E017
S113325030E0A901C501B4010E94371C882354F44D
S11332606DE2C8010E94D8177C01B7FAB094B7F890
S1133270B09402C0E12CF12C772009F467C0D12C62
S113328060E070E080E09FE320E030E040E251E461
S11332900E943C1CD394D710F7CF2BC020E030E021
S11332A040E251E4C501B4010E949B1D4B015C0145
S11332B00E94AE1C6B01770FEE08FF082AE030E095
S11332C0B701A601C8010E947118480E591EC70112
S11332D0B6010E94E61C9B01AC01C501B4010E9429
S11332E0CA1B4B015C017A947110D8CF842D952DA3
S11332F042C09B01AC01C501B4010E94CB1B4B0130
S11333005C010E94B51C69837A838B839C830E9431
S1133310E41C9B01AC01C501B4010E94CA1B4B0112
S11333205C012AE030E049815A816B817C81C801CB
S11333300E94B5186C0169EA74E0C8010E94C217C2
S11333408C0D9D1D2C014E0C5F1CA8CF20E030E09D
S113335040E05FE3C501B4010E94CB1B0E94B51C91
S1133360AB01BC012AE030E0C8010E94B5182C0171
S11333704E0C5F1CBBCF0F900F900F900F90DF91FE
S1133380CF911F910F91FF90EF90DF90CF90BF905E
S1133390AF909F908F907F905F904F9008950F9380
S11333A01F93CF93DF93EC010E94C4188C01CE01CC
S11333B00E94E017800F911FDF91CF911F910F9111
S11333C008951F920F920FB60F9211242F933F93DB
S11333D04F935F936F937F938F939F93AF93BF9319
S11333E0EF93FF938091300890913108892B29F055
S11333F0E0913008F09131080995FF91EF91BF9168
S1133400AF919F918F917F916F915F914F913F9178
S11334102F910F900FBE0F901F9018951F920F922F
S11334200FB60F9211242F933F934F935F936F9393
S11334307F938F939F93AF93BF93EF93FF93809169
S1133440320890913308892B29F0E0913208F091E9
S113345033080995FF91EF91BF91AF919F918F919F
S11334607F916F915F914F913F912F910F900FBE7C
S11334700F901F9018951F920F920FB60F92112460
S11334802F933F938F939F93AF93BF93809135086E
S113349090913608A0913708B091380830913408DB
S11334A026E0230F2D3720F40296A11DB11D05C07F
S11334B029E8230F0396A11DB11D2093340880939E
S11334C0350890933608A0933708B0933808809154
S11334D0390890913A08A0913B08B0913C080196B4
S11334E0A11DB11D8093390890933A08A0933B081D
S11334F0B0933C08BF91AF919F918F913F912F91D1
S11335000F900FBE0F901F9018952FB7F8946091ED
S113351035087091360880913708909138082FBF8C
S113352008953FB7F8948091390890913A08A09192
S11335303B08B0913C0826B5A89B05C02F3F19F065
S11335400196A11DB11D3FBFBA2FA92F982F88271F
S1133550820F911DA11DB11D880F991FAA1FBB1FAA
S1133560880F991FAA1FBB1FBC01CD01660F771FCF
S1133570881F991F0895CF92DF92EF92FF92CF9305
S1133580DF936B017C010E94911AEB01C114D104F9
S1133590E104F104A9F00E9484170E94911A6C1BA3
S11335A07D0B683E734038F081E0C81AD108E10809
S11335B0F108C851DC4FC114D104E104F10459F7F6
S11335C0DF91CF91FF90EF90DF90CF9008958330FB
S11335D0910528F0880F991F04970197F1F7089532
S11335E0789484B5826084BD84B5816084BD85B5DA
S11335F0826085BD85B5816085BDEEE6F0E08081A1
S113360081608083E1E8F0E01082808182608083C1
S1133610808181608083E0E8F0E080818160808344
S1133620E1EBF0E0808184608083E0EBF0E0808176
S113363081608083EAE7F0E0808184608083808118
S11336408260808380818E7F808380818068808394
S11336501092C1000895833069F028F48130B1F0EC
S11336608230C1F008958730C9F08830E9F08430A1
S113367001F506C0E0E8F0E080818F77808308954B
S1133680E0E8F0E080818F7D8083089584B58F77B2
S113369084BD089584B58F7D84BD0895E0EBF0E08A
S11336A080818F7780830895E0EBF0E080818F7DC7
S11336B080830895CF93DF9390E0FC01E458FE4F9C
S11336C02491FC01E057FE4F8491882379F190E026
S11336D0880F991FFC01E854FE4FA591B491FC0199
S11336E0E255FE4FC591D49161110CC09FB7F89477
S11336F08C91E22FE0958E238C932881E223E8833A
S11337009FBF14C0623061F49FB7F8943C91822F3C
S1133710809583238C93E881E22BE8839FBF06C0C6
S11337208FB7F894EC91E22BEC938FBFDF91CF919C
S113373008951F93CF93DF93282F30E0F901E859C0
S1133740FE4F8491F901E458FE4F1491F901E057BA
S1133750FE4FC491CC23D1F0D62F81110E942B1B94
S1133760EC2FF0E0EE0FFF1FE255FE4FA591B49150
S11337708FB7F894D11106C09C91E12FE095E9230D
S1133780EC9303C0EC91E12BEC938FBFDF91CF91CD
S11337901F9108955058BB27AA270E94E21B0C943E
S11337A05C1D0E944E1D38F00E94551D20F039F416
S11337B09F3F19F426F40C944B1D0EF4E095E7FB9F
S11337C00C94451DE92F0E946D1D58F3BA1762072A
S11337D073078407950720F079F4A6F50C948F1DE0
S11337E00EF4E0950B2EBA2FA02D0B01B901900118
S11337F00C01CA01A0011124FF27591B99F0593F5C
S113380050F4503E68F11A16F040A22F232F342FA3
S11338104427585FF3CF469537952795A795F040F1
S11338205395C9F77EF41F16BA0B620B730B840B06
S1133830BAF09150A1F0FF0FBB1F661F771F881FBE
S1133840C2F70EC0BA0F621F731F841F48F4879516
S113385077956795B795F7959E3F08F0B0CF939508
S1133860880F08F09927EE0F9795879508950E9481
S1133870211D08F481E008950E94501C0C945C1DE5
S11338800E94551D58F00E944E1D40F029F45F3FE0
S113389029F00C94451D51110C94901D0C944B1D52
S11338A00E946D1D68F39923B1F3552391F3951B81
S11338B0550BBB27AA2762177307840738F09F5F4D
S11338C05F4F220F331F441FAA1FA9F335D00E2EBA
S11338D03AF0E0E832D091505040E695001CCAF727
S11338E02BD0FE2F29D0660F771F881FBB1F2617EA
S11338F037074807AB07B0E809F0BB0B802DBF01C1
S1133900FF2793585F4F3AF09E3F510578F00C948F
S1133910451D0C94901D5F3FE4F3983ED4F38695C7
S113392077956795B795F7959F5FC9F7880F911DB0
S11339309695879597F90895E1E0660F771F881F9C
S1133940BB1F621773078407BA0720F0621B730B4F
S1133950840BBA0BEE1F88F7E09508950E94B51CFE
S11339606894B1110C94901D08950E94751D88F0FF
S11339709F5798F0B92F9927B751B0F0E1F0660F2F
S1133980771F881F991F1AF0BA95C9F714C0B13070
S113399091F00E948F1DB1E008950C948F1D672F44
S11339A0782F8827B85F39F0B93FCCF3869577959F
S11339B06795B395D9F73EF4909580957095619588
S11339C07F4F8F4F9F4F0895E89409C097FB3EF4B3
S11339D090958095709561957F4F8F4F9F4F992358
S11339E0A9F0F92F96E9BB279395F69587957795D6
S11339F06795B795F111F8CFFAF4BB0F11F460FF96
S1133A001BC06F5F7F4F8F4F9F4F16C0882311F0ED
S1133A1096E911C0772321F09EE8872F762F05C001
S1133A20662371F096E8862F70E060E02AF09A959C
S1133A30660F771F881FDAF7880F9695879597F991
S1133A400895990F0008550FAA0BE0E8FEEF16162B
S1133A501706E807F907C0F012161306E407F5077E
S1133A6098F0621B730B840B950B39F40A2661F0F2
S1133A70232B242B252B21F408950A2609F4A14095
S1133A80A6958FEF811D811D089597F99F6780E8A2
S1133A9070E060E008959FEF80EC089500240A949C
S1133AA01616170618060906089500240A94121615
S1133AB01306140605060895092E0394000C11F448
S1133AC0882352F0BB0F40F4BF2B11F460FF04C0F5
S1133AD06F5F7F4F8F4F9F4F089557FD9058440F4E
S1133AE0551F59F05F3F71F04795880F97FB991F59
S1133AF061F09F3F79F08795089512161306140616
S1133B00551FF2CF4695F1DF08C0161617061806A2
S1133B10991FF1CF86957105610508940895E8947D
S1133B20BB2766277727CB0197F908950E94211DAB
S1133B3008F48FEF08950E94AE1D0C945C1D0E9442
S1133B404E1D38F00E94551D20F0952311F00C9461
S1133B50451D0C944B1D11240C94901D0E946D1D49
S1133B6070F3959FC1F3950F50E0551F629FF001CC
S1133B70729FBB27F00DB11D639FAA27F00DB11DE5
S1133B80AA1F649F6627B00DA11D661F829F22276E
S1133B90B00DA11D621F739FB00DA11D621F839FF5
S1133BA0A00D611D221F749F3327A00D611D231FCB
S1133BB0849F600D211D822F762F6A2F11249F5719
S1133BC050409AF0F1F088234AF0EE0FFF1FBB1F1C
S1133BD0661F771F881F91505040A9F79E3F5105DB
S1133BE080F00C94451D0C94901D5F3FE4F3983EC7
S1133BF0D4F3869577956795B795F795E7959F5F85
S1133C00C1F7FE2B880F911D9695879597F9089516
S1133C100E94211D880B990B0895A1E21A2EAA1B5C
S1133C20BB1BFD010DC0AA1FBB1FEE1FFF1FA21768
S1133C30B307E407F50720F0A21BB30BE40BF50B65
S1133C40661F771F881F991F1A9469F760957095EE
S1133C50809590959B01AC01BD01CF010895052E7F
S1133C6097FB1EF400940E94461E57FD07D00E9445
S1133C700D1E07FC03D04EF40C94461E509540953F
S1133C80309521953F4F4F4F5F4F08959095809504
S1133C90709561957F4F8F4F9F4F0895EE0FFF1FD3
S1133CA00590F491E02D0994AEE0B0E0EAE5FEE180
S1133CB00C9403210D891E8986E08C831A83098361
S1133CC08FEF9FE79E838D83AE01475E5F4F6F89C1
S1133CD0788DCE0101960E94771E2F813885F801D8
S1133CE0E20FF31F10822E96E4E00C941F21ACE047
S1133CF0B0E0EDE7FEE10C94F5207C016B018A0154
S1133D00FC0117821682838181FFBDC1CE01019619
S1133D104C01F7019381F60193FD859193FF819105
S1133D206F01882309F4ABC1853239F493FD859181
S1133D3093FF81916F01853229F4B70190E00E94CD
S1133D405F20E7CF512C312C20E02032A0F48B32BD
S1133D5069F030F4803259F0833269F420612CC068
S1133D608D3239F0803339F4216026C0226024601A
S1133D7023C0286021C027FD27C030ED380F3A301A
S1133D8078F426FF06C0FAE05F9E300D1124532E0E
S1133D9013C08AE0389E300D1124332E20620CC0EB
S1133DA08E3221F426FD6BC1206406C08C3611F4DA
S1133DB0206802C0883641F4F60193FD859193FF93
S1133DC081916F018111C1CF982F9F7D95549330BC
S1133DD028F40C5F1F4FFFE3F9830DC0833631F0E5
S1133DE0833771F0833509F05BC022C0F80180810C
S1133DF089830E5F1F4F44244394512C540115C0F2
S1133E003801F2E06F0E711CF801A080B18026FF2A
S1133E1003C0652D70E002C06FEF7FEFC5012C87F2
S1133E200E9454202C0183012C852F77222E17C049
S1133E303801F2E06F0E711CF801A080B18026FFFA
S1133E4003C0652D70E002C06FEF7FEFC5012C87C2
S1133E500E9449202C012C852068222E830123FCFA
S1133E601BC0832D90E048165906B0F4B70180E2D8
S1133E7090E00E945F203A94F4CFF50127FC8591ED
S1133E8027FE81915F01B70190E00E945F2031100D
S1133E903A94F1E04F1A51084114510471F7E5C006
S1133EA0843611F0893639F5F80127FF07C060819F
S1133EB07181828193810C5F1F4F08C06081718181
S1133EC0072E000C880B990B0E5F1F4F2F76722E56
S1133ED097FF09C090958095709561957F4F8F4F9E
S1133EE09F4F2068722E2AE030E0A4010E949720A0
S1133EF0A82EA81844C0853729F42F7EB22E2AE0B4
S1133F0030E025C0F22FF97FBF2E8F36C1F018F4B0
S1133F10883579F0B4C0803719F0883721F0AFC004
S1133F202F2F2061B22EB4FE0DC08B2D8460B82ECD
S1133F3009C024FF0AC09F2F9660B92E06C028E04E
S1133F4030E005C020E130E002C020E132E0F801B9
S1133F50B7FE07C060817181828193810C5F1F4F1E
S1133F6006C06081718180E090E00E5F1F4FA40164
S1133F700E949720A82EA818FB2DFF777F2E76FE8F
S1133F800BC0372D3E7FA51450F474FE0AC072FC9A
S1133F9008C0372D3E7E05C0BA2C372D03C0BA2C7D
S1133FA001C0B52C34FF0DC0FE01EA0DF11D808166
S1133FB0803311F4397E09C032FF06C0B394B39440
S1133FC004C0832F867809F0B39433FD13C030FF07
S1133FD006C05A2CB31418F4530C5B18B32CB31446
S1133FE068F4B70180E290E03C870E945F20B394BC
S1133FF03C85F5CFB31410F43B1801C0312C34FFC9
S113400012C0B70180E390E03C870E945F203C85AA
S113401032FF17C031FD03C088E790E002C088E595
S113402090E0B7010CC0832F867859F031FF02C0AD
S11340308BE201C080E237FD8DE2B70190E00E947F
S11340405F20A51438F4B70180E390E00E945F205C
S11340505A94F7CFAA94F401EA0DF11D8081B701B7
S113406090E00E945F20A110F5CF332009F451CED7
S1134070B70180E290E00E945F203A94F6CFF70106
S11340808681978102C08FEF9FEF2C96E2E10C941A
S11340901121FC010590615070400110D8F7809502
S11340A090958E0F9F1F0895FC0161507040019000
S11340B00110D8F7809590958E0F9F1F08950F9348
S11340C01F93CF93DF93FB01238121FD03C08FEF67
S11340D09FEF28C022FF16C0468157812481358175
S11340E04217530744F4A081B1819D012F5F3F4FD4
S11340F0318320838C93268137812F5F3F4F378311
S1134100268310C0EB01092F182F0084F185E02DC0
S11341100995892BE1F68E819F8101969F838E8379
S1134120812F902FDF91CF911F910F910895FA0164
S1134130AA27283051F1203181F1E8946F936E7FE2
S11341406E5F7F4F8F4F9F4FAF4FB1E03ED0B4E0D3
S11341503CD0670F781F891F9A1FA11D680F791F14
S11341608A1F911DA11D6A0F711D811D911DA11D25
S113417020D009F468943F912AE0269F1124301935
S1134180305D3193DEF6CF010895462F4770405DD0
S11341904193B3E00FD0C9F7F6CF462F4F70405D7F
S11341A04A3318F0495D31FD4052419302D0A9F7DA
S11341B0EACFB4E0A6959795879577956795BA95D4
S11341C0C9F700976105710508959B01AC010A2E9A
S11341D006945795479537952795BA95C9F7620F71
S11341E0731F841F951FA01D08952F923F924F9215
S11341F05F926F927F928F929F92AF92BF92CF9273
S1134200DF92EF92FF920F931F93CF93DF93CDB77B
S1134210DEB7CA1BDB0B0FB6F894DEBF0FBECDBFF3
S113422009942A88398848885F846E847D848C84C4
S11342309B84AA84B984C884DF80EE80FD800C81CD
S11342401B81AA81B981CE0FD11D0FB6F894DEBFB0
S11342500FBECDBFED01089510E0C5EED0E004C05F
S1134260FE010E944E1E2196C63ED107C9F7F8945E
S1054270FFCF7A
S1134272FFFFFFFF000000000000000000005F00DD
S113428200000000000007000700000000147F1473
S11342927F14000000242A7F2A120000002313083E
S11342A264620000003649552250000000000503F4
S11342B200000000001C2241000000000041221CFA
S11342C20000000000082A1C2A0800000008083E1A
S11342D20808000000A060000000000000080808B0
S11342E208080000006060000000000000201008C0
S11342F204020000003E5149453E00000000427F96
S11343024000000000625149494600000022414930
S113431249360000001814127F100000002745459A
S113432245390000003C4A49493000000001710946
S11343320503000000364949493600000006494990
S1134342291E000000003636000000000000AC6C9C
S1134352000000000008142241000000001414149C
S1134362141400000041221408000000000201514C
S11343720906000000324979413E0000007E090925
S1134382097E0000007F494949360000003E414150
S113439241220000007F4141221C0000007F494964
S11343A249410000007F090909010000003E414122
S11343B251720000007F0808087F000000417F411D
S11343C200000000002040413F010000007F08146B
S11343D222410000007F404040400000007F020C68
S11343E2027F0000007F0408107F0000003E41416C
S11343F2413E0000007F090909060000003E4151C8
S1134402215E0000007F091929460000002649495F
S1134412493200000001017F01010000003F4040D9
S1134422403F0000001F2040201F0000003F403892
S1134432403F000000631408146300000003047882
S1134442040300000061514945430000007F4141DB
S11344520000000000020408102000000041417F17
S113446200000000000402010204000000808080B9
S11344728080000000010204000000000020545467
S113448254780000007F4844443800000038444413
S11344922800000000384444487F00000038545487
S11344A25418000000087E09020000000018A4A4A9
S11344B2A47C0000007F08040478000000007D0052
S11344C2000000000080847D00000000007F1028AE
S11344D24400000000417F4000000000007C0418FA
S11344E204780000007C08047C0000000038444486
S11344F23800000000FC24241800000000182424C2
S1134502FC00000000007C08040000000048545431
S11345122400000000047F4400000000003C4040EE
S11345227C000000001C2040201C0000003C4030A5
S1134532403C00000044281028440000001CA0A0B5
S11345427C000000004464544C44000000083641DE
S11345520000000000007F00000000000041360857
S11345620000000000020101020100000002050532
S113457202000000000000009E0695174F4E200026
S11345822023003D00626567696E20776966697061
S11345926F72742053657269616C0044616C6C6162
S11345A2732054656D706572617475726520494338
S11345B220436F6E74726F6C204C696272617279FF
S11345C22044656D6F0068656C6C6F002564006D36
S11345D261783A20006C6F773A20006974656D70D7
S11345E23A200074656D703A200000000000371311
S11345F295171713EB1292138313000000003C1655
S11346029517B415CE15C0151A160D0A006E616EF3
S10F461200696E66006F7666002E0000E2
S9030000FC
