S016000074656D705F6F6C65645F776966692E7372656347
S11300000C94E6000C94A9100C94D6100C942F0BAD
S11300100C942F0B0C942F0B0C940E010C944D107C
S11300200C940E010C940E010C940E010C940E0110
S11300300C940E010C940E010C940E010C940E0100
S11300400C9403110C940E010C94300E0C94680E55
S11300500C940E010C940E010C940E010C940E01E0
S11300600C940E010C940E01005EBCE2613FDD8332
S1130070C29C7E20A3FD1F419DC3217FFCA2401E84
S11300805F01E3BD3E6082DC237D9FC1421CFEA074
S1130090E1BF5D0380DE3C62BEE0025CDF81633D64
S11300A07C22C09E1D43A1FF4618FAA427799BC554
S11300B084DA3866E5BB5907DB856739BAE4065844
S11300C01947A5FB7826C49A653BD987045AB8E634
S11300D0A7F91B45C6987A24F8A6441A99C7257B24
S11300E03A6486D85B05E7B98CD2306EEDB3510F14
S11300F04E10F2AC2F7193CD114FADF3702ECC9204
S1130100D38D6F31B2EC0E50AFF1134DCE90722CF3
S11301106D33D18F0C52B0EE326C8ED0530DEFB1E3
S1130120F0AE4C1291CF2D73CA947628ABF51749D3
S11301300856B4EA6937D58B5709EBB536688AD4C3
S113014095CB2977F4AA4816E9B7550B88D6346AB3
S11301502B7597C94A14F6A8742AC896154BA9F7A3
S1130160B6E80A54D7896B35020000000800020182
S11301700000030407000000000000000001020466
S11301800810204080010204081020010204081015
S1130190200404040404040404020202020202030C
S11301A003030303030000000023002600290000CA
S11301B0000000250028002B000000000024002778
S11301C0002A0000140A980E080F270A11241FBEE3
S11301D0CFEFD8E0DEBFCDBF14E0A0E0B1E0E8E8A7
S11301E0FFE202C005900D92A43AB107D9F725E0C9
S11301F0A4EAB4E001C01D92AA3EB207E1F710E000
S1130200C5EED0E004C02197FE010E94D914C23E7D
S1130210D107C9F70E94140F0C94B7170C9400006F
S11302200895FC0180E191E0928B818B7683658354
S11302301482108289E0818381E08283838308951C
S1130240FC0184810895CF93DF93EB0167E0CE0135
S11302500E94FF0591E02F81821390E0892FDF91A6
S1130260CF910895EF92FF920F931F93CF93DF9353
S11302708C017B01D42FFC01858196810E942F057E
S1130280C0E00BC0CD1306C0B701C8010E94230112
S113029081110DC0CF5FDC1748F0B701F8018581EB
S11302A096810E9467058111EDCF01C080E0DF9146
S11302B0CF911F910F91FF90EF900895EF92FF92CD
S11302C00F931F93CF93DF93EC017B018A018D8100
S11302D09E810E940D04B7018D819E810E940C05B0
S11302E040E06EEB8D819E810E94B4048D819E81DD
S11302F00E94F104F80180838D819E810E94F104A3
S1130300F80181838D819E810E94F104F80182832A
S11303108D819E810E94F104F80183838D819E81E9
S11303200E94F104F80184838D819E810E94F1046E
S1130330F80185838D819E810E94F104F8018683F2
S11303408D819E810E94F104F80187838D819E81B5
S11303500E94F104F80180878D819E810E940D0422
S1130360DF91CF911F910F91FF90EF900895CF935C
S1130370DF93EA010E945E0168E0CE010E94FF055E
S113038091E02885821390E0892FDF91CF91089521
S11303900F931F93CF93DF93EC018B018D819E818B
S11303A00E940D04B8018D819E810E940C0540E0DD
S11303B064EB8D819E810E94B4048D819E810E9494
S11303C08904182F8D819E810E940D0481E01111F2
S11303D080E0DF91CF911F910F910895CF93DF9328
S11303E0CDB7DEB729970FB6F894DEBF0FBECDBFE9
S11303F0FB0120812031D9F0AE014F5F5F4F0E9495
S1130400B7018823B1F08D818F3369F018F48F31EF
S113041061F007C08F3519F08F3769F002C08BE0A7
S11304200BC080E009C08AE007C089E005C089E00C
S113043003C080E001C08CE029960FB6F894DEBFBB
S11304400FBECDBFDF91CF910895EF92FF920F932E
S11304501F93CF93DF93CDB7DEB761970FB6F894B0
S1130460DEBF0FBECDBF8C01FC01858196810E9449
S11304702F05F8011482EE24E39437C0BE01665FB1
S11304807F4FC8010E942301882379F1F8018081FC
S113049081110AC0BE01665F7F4FC8010E94C80176
S11304A0882311F0F801E082AE014F5F5F4FBE0177
S11304B0665F7F4FC8010E945E01F801F180BE01B2
S11304C0665F7F4FC8010E94EE018F1518F4F80192
S11304D0818106C0BE01665F7F4FC8010E94EE01A4
S11304E0F801818384818F5F8483BE01665F7F4FBF
S11304F0F801858196810E9467058111BFCF6196BD
S11305000FB6F894DEBF0FBECDBFDF91CF911F9120
S11305100F91FF90EF900895CF93DF93CDB7DEB79F
S113052029970FB6F894DEBF0FBECDBFAE014F5F63
S11305305F4F0E945E0181E09981911101C080E0CA
S113054029960FB6F894DEBF0FBECDBFDF91CF91D1
S11305500895CF92DF92EF92FF920F931F93CF9360
S1130560DF93EC018B01452BF1F08B818823D9F0CB
S11305708881811118C00E944D116B017C0160E0DB
S113058070E0CE010E948C0281110DC00E944D11B9
S1130590DC01CB018C199D09AE09BF098E3E924046
S11305A0A105B10560F3F80180818A3059F08B30E0
S11305B081F08930A9F46EE570E080E090E00E945B
S11305C07F1114C06CEB70E080E090E00E947F111A
S11305D00DC067E771E080E090E00E947F1106C0E3
S11305E06EEE72E080E090E00E947F11DF91CF9187
S11305F01F910F91FF90EF90DF90CF900895CF93CC
S1130600DF93EC018D819E810E940D048D819E817A
S11306100E942A05488164E48D819E810E94B4046D
S11306208A81882341F0BE016F5F7F4F40E050E034
S1130630CE010E94A902DF91CF9108958F929F92DB
S1130640AF92BF92CF92DF92EF92FF921F93CF931C
S1130650DF93FB01EA01898190E0982F88272881A4
S1130660BC01622B8081823231F0883221F08031EA
S113067009F07EC04CC08C818F3329F118F48F317E
S113068099F176C08F3581F08F3709F071C0072E4C
S1130690000C880B990B0E94761320E030E040E8B0
S11306A05DE30E942B1465C075956795072E000CB9
S11306B0880B990B0E94761320E030E040E05EE363
S11306C00E942B1456C07595679575956795072EEE
S11306D0000C880B990B0E94761320E030E040E870
S11306E05EE30E942B1445C07595679575956795D3
S11306F075956795072E000C880B990B0E9476134D
S113070020E030E040E05FE30E942B1432C01F8100
S113071075956795072E000C880B990B0E9476132C
S113072020E030E040E85EE30E9490126B017C011F
S1130730812F90E02E81821B9109BC01990F880BB7
S1130740990B0E9476134B015C01612F70E080E0ED
S113075090E00E9474139B01AC01C501B4010E9496
S113076002139B01AC01C701B6010E94911201C0A2
S113077004C0562F472F382F292F652F742F832F0E
S1130780922FDF91CF911F91FF90EF90DF90CF9048
S1130790BF90AF909F908F900895EF92FF920F9328
S11307A01F93CF93DF93CDB7DEB729970FB6F89495
S11307B0DEBF0FBECDBF8C017B01AE014F5F5F4F2B
S11307C00E94B701882341F0AE014F5F5F4FB7012C
S11307D0C8010E941E0304C060E070E08EEF92EC3A
S11307E029960FB6F894DEBF0FBECDBFDF91CF912F
S11307F01F910F91FF90EF900895FC01808108955F
S113080026E636E646EE5FE30E942B1420E030E055
S113081040E052E40E9491120895FF920F931F93B7
S1130820CF93DF93FC01D08101811281F894F80108
S11308308181FD2EF0948F2181837894CCE702C0CE
S1130840C15041F182E090E00E94AB11F801908127
S11308509D23B1F3F89482818F21828381818D2B32
S11308608183789480EE91E00E94AB11F894F801B2
S11308708181F822F18286E490E00E94AB11F801B4
S11308808081D823C1E009F0C0E078948AE991E03E
S11308900E94AB118C2FDF91CF911F910F91FF908C
S11308A008951F93CF93DF93FC011081C181D281FE
S11308B060FF16C0F8948A81912F909589238A83CA
S11308C08981812B89838AE090E00E94AB118A811F
S11308D0182B1A83789487E390E00E94AB1115C01B
S11308E0F8948A81912F909589238A838981812B19
S11308F0898381E490E00E94AB118A81182B1A83CA
S1130900789485E090E00E94AB11DF91CF911F9124
S113091008950F931F93CF93DF93FC011081C1813E
S1130920D281F8948981812B89838A81012F009552
S113093080238A8383E090E00E94AB11898108239D
S113094009838AE090E00E94AB11C881789485E322
S113095090E00E94AB111C2381E009F480E0DF9158
S1130960CF911F910F910895BF92CF92DF92EF9292
S1130970FF920F931F93CF93DF937C01D62EB42E57
S1130980C8E0D0E011E001E0C12C602F912F9D213F
S113099009F46C2DC7010E945104110F2197A9F786
S11309A0B11015C0F894D7011196ED91FC911297EE
S11309B091818C918095892381831196ED91FC918D
S11309C0129792818C918095892382837894DF9108
S11309D0CF911F910F91FF90EF90DF90CF90BF9038
S11309E00895EF92FF920F931F93CF93DF937C01AF
S11309F0C8E0D0E000E011E0C7010E948904811141
S1130A00012B110F2197C1F7802FDF91CF911F91F7
S1130A100F91FF90EF900895EF92FF920F931F9321
S1130A20CF93DF937C018B0140E065E50E94B40421
S1130A30E801085F1F4F699140E0C7010E94B404B8
S1130A40C017D107C1F7DF91CF911F910F91FF908C
S1130A50EF90089540E06CEC0E94B4040895DC012A
S1130A601B961C921B971D961C921D971C961C92FC
S1130A701C971A961C92FC013A9603961292E81758
S1130A80F907E1F708951F93CF93DF93EC01162F35
S1130A9060E0812F0E942012612F70E0FB01E35877
S1130AA0FE4FE491E883FB01EF56FE4FE491F0E042
S1130AB0EE0FFF1FEB55FE4F859194919A83898326
S1130AC0CE010E942F05DF91CF911F9108959F922F
S1130AD0AF92BF92CF92DF92EF92FF920F931F9348
S1130AE0CF93DF93EC01C62ED72E8D85811161C083
S1130AF0CE010E940D04811104C01B861D861C8634
S1130B0072C040E060EFCE010E94B40401E0F12C19
S1130B10A12CEE24E394BB24B394912CCE010E9427
S1130B208904182FCE010E948904113009F04DC0A8
S1130B308130C9F435C08B85E81648F4FE01EF0D09
S1130B40F11D838180231B2D29F4192D03C01B2D36
S1130B50E812192D111105C088E08E15C8F1EC8634
S1130B6037C0113041F4FE01EF0DF11D8381802B5C
S1130B7083831B2D08C0FE01EF0DF11D9381802F8F
S1130B80809589238383612FCE010E945104E394CD
S1130B90000F11F4F3940B2D87E08F1508F0BECFEE
S1130BA080E48E1530F4AB86A11014C081E08D87EB
S1130BB011C01B861D861C8680E015C081918D9313
S1130BC0EC17FD07D9F781E00EC01813D4CFB3CFCB
S1130BD0AE2CD1CF8B81882361F3FE013396AC2DEB
S1130BE0BD2D2B96EBCFDF91CF911F910F91FF90ED
S1130BF0EF90DF90CF90BF90AF909F9008952FEF2C
S1130C00260F662369F0A82FB92F80E09D91E82F65
S1130C10E927F0E0E859FF4F84912150B8F708958F
S1130C2080E00895449A459A1092B90080E2809336
S1130C30B80084E08093BC0008958FEF90E0ECEB63
S1130C40F0E00EC0019761F41092BC008091ED04B5
S1130C509091EE0401969093EE048093ED04089530
S1130C60208122237CF708951F93CF93DF93182FBD
S1130C70CCEBD0E084EA88830E941D061093BB006D
S1130C8084E888830E941D06DF91CF911F91089507
S1130C908093BB0084E88093BC000E941D060895E5
S1130CA0CF93DF93D62FC42F880F0E9434068D2F45
S1130CB00E9448068C2F0E94480684E98093BC0059
S1130CC0DF91CF91089592E09093B800482F60E8A7
S1130CD08CE30E94500608958EEA0E9463068EE219
S1130CE00E94630684EA0E94630662E370E080E087
S1130CF090E00E947F1180E20E94630682E00E94DD
S1130D00630681EA0E94630688EC0E94630686EA11
S1130D100E94630681E80E9463068FEF0E946306C7
S1130D2064E170E080E090E00E947F118FEA0E940D
S1130D30630664E170E080E090E00E947F11089512
S1130D40CF93C62F80550E9463068C2F880F880F7F
S1130D50880F88700E9463068C2F90E09695879583
S1130D608F70805F0E946306CF91089592E0909304
S1130D70B800482F60E48CE30E9450060895CF9396
S1130D80DF93D0E060E08D2F0E94A006C0E080E0F9
S1130D900E94B606CF5FC038D1F7DF5FD83091F735
S1130DA0DF91CF910895EF92FF920F931F93CF930A
S1130DB0DF93EC018881811121C025C0E881F0E036
S1130DC0B097EE0FFF1FEE0FFF1FEE0FFF1FE00F98
S1130DD0F11FE050FF4F80810E94B6066AE070E088
S1130DE080E090E00E947F110F5F1F4F08301105D3
S1130DF029F721968881811103C005C0E12CF12CCB
S1130E000E2D1F2DDBCFDF91CF911F910F91FF90FE
S1130E10EF90089564E670E080E090E00E947F1116
S1130E2040E056E960E070E084EA94E00E94630CDC
S1130E3061E074E084EA94E00E947A0F64E670E072
S1130E4080E090E00E947F1126E040E056E960E0F7
S1130E5070E083E395E00E94CC0D67E174E083E3E6
S1130E6095E00E947A0F0E9412060E946C066AE0C6
S1130E7070E080E090E00E947F110E94BF0662E370
S1130E8070E080E090E00E947F1180E20E9463069F
S1130E9082E00E94630686EA0E94630661E081E0C4
S1130EA00E94A00686E694E00E94D30661E082E0F8
S1130EB00E94A0068EE594E00E94D30661E084E0DF
S1130EC00E94A00688E594E00E94D30661E085E0D4
S1130ED00E94A00682E594E00E94D3066AE070E0D6
S1130EE080E090E00E947F1108954F925F926F928C
S1130EF07F928F929F92AF92BF92CF92DF92EF92A6
S1130F00FF920F931F93CF93DF93CDB7DEB72A974A
S1130F100FB6F894DEBF0FBECDBF662E772E982E87
S1130F20892E20E030E048EC52E40E94021320E0D5
S1130F3030E040E85FE30E9426148823ACF120E00F
S1130F4030E048EC52E4662D772D892D982D0E94CF
S1130F5026141816ECF4162D072DF92CE82CD12C98
S1130F6020E030E048EC52E4612F702F8F2D9E2D4D
S1130F700E949012162F072FF82EE92ED39420E00A
S1130F8030E048EC52E40E94261418164CF305C0D5
S1130F90162D072DF92CE82CD12C80E38D0D898397
S1130FA0CC24C394D12C06C0162D072DF92CE82C83
S1130FB0C12CD12C20E030E040E251E4612F702FAD
S1130FC08F2D9E2D0E94021320E030E040E85FE365
S1130FD00E942614882384F120E030E040E251E4AA
S1130FE0612F702F8F2D9E2D0E9426148823CCF004
S1130FF0B12C20E030E040E251E4612F702F8F2DBE
S11310009E2D0E949012162F072FF82EE92EB394CE
S113101020E030E040E251E40E94261488234CF79B
S113102001C0B12CFE01EC0DFD1D80E38B0D81830D
S11310308FEFC81AD80A08C0FE01EC0DFD1D80E32D
S113104081838FEFC81AD80A20E030E0A901612F0C
S1131050702F8F2D9E2D0E94261488230CF4AFC070
S113106020E030E040E85FE3612F702F8F2D9E2D4C
S11310700E9426148823CCF0B12C20E030E040E814
S11310805FE3612F702F8F2D9E2D0E949012162FDB
S1131090072FF82EE92EB39420E030E040E85FE318
S11310A00E94261488234CF701C0B12CE1E0F0E043
S11310B0EC0FFD1FEC0DFD1D80E38B0D80835601AD
S11310C08FEFA81AB80AE1E0F0E0EC0FFD1FEA0D7B
S11310D0FB1D8EE28083260182E0480E511C2DEC1C
S11310E03CEC4CEC5DE3612F702F8F2D9E2D0E9404
S11310F02614882314F423C05601D12C2DEC3CEC87
S11311004CEC5DE3612F702F8F2D9E2D0E94901269
S1131110162F072FF82EE92ED3942DEC3CEC4CEC33
S11311205DE30E94261488234CF7FE01E40DF51DAF
S113113080E38D0D818382E0A80EB11C08C0FE01FE
S1131140E40DF51D80E3818382E0A80EB11C2AE042
S113115037ED43E25CE3612F702F8F2D9E2D0E94AB
S113116026148823F4F0D12C2AE037ED43E25CE323
S1131170612F702F8F2D9E2D0E949012162F072FF6
S1131180F82EE92ED3942AE037ED43E25CE30E9483
S1131190261488234CF7FE01EA0DFB1D80E38D0D18
S11311A0818320E030E048EC52E4662D772D892DD0
S11311B0982D0E94FD128823D4F41E8218C08EE25A
S11311C0FE01EC0DFD1D818326018FEF481A580A9C
S11311D02DEC3CEC4CEC5DE3612F702F8F2D9E2D9C
S11311E00E94261488230CF087CF5601A8CF61E013
S11311F070E080E090E00E947F11CE0101962A9673
S11312000FB6F894DEBF0FBECDBFDF91CF911F9113
S11312100F91FF90EF90DF90CF90BF90AF909F9091
S11312208F907F906F905F904F9008954F925F9250
S11312306F927F928F929F92AF92BF92EF92FF92A2
S11312400F931F93CF93DF93CDB7DEB762970FB69B
S1131250F894DEBF0FBECDBF62E474E084EA94E08C
S11312600E947A0F83EC94E00E94250283EC94E0C0
S11312700E942001E82EF12C83EC94E00E94FD03EF
S1131280882339F068E474E083E395E00E94500F0A
S113129004C083EC94E00E94FF021E141F040CF0AF
S11312A087C000E010E0402FBE01655F7F4F83ECF4
S11312B094E00E943201882309F474C06CE474E061
S11312C083E395E00E94500FBE01655F7F4F83EC7E
S11312D094E00E94CD030E9400044B015C0167E08E
S11312E081E00E94A006C501B4010E947507FC01BB
S11312F0DE0111969C01295F3F4F91919A3310F4BE
S11313009C9301C01C921196E217F307B1F7CE012A
S113131001960E94D3064090E5045090E604609044
S1131320E7047090E804A3019201C501B4010E948E
S1131330FD1288234CF020E030E0A901C301B20182
S11313400E94FD12811110C08092E5049092E6047F
S1131350A092E704B092E80466E084E00E94A0064C
S1131360CE0101960E94D3062091E9043091EA044B
S11313704091EB045091EC04C501B4010E94261481
S1131380181684F48092E9049092EA04A092EB0483
S1131390B092EC0466E085E00E94A006CE010196BE
S11313A00E94D3060F5F1F4FE016F10609F07BCFB2
S11313B08091E4041F928F938FE494E09F938F9322
S11313C08E010F5F1F4F1F930F930E94DF1461E084
S11313D087E00E94A006C8010E94D3068091E4041D
S11313E08F5F8093E40468EE73E080E090E00E94F5
S11313F07F110F900F900F900F900F900F906296A7
S11314000FB6F894DEBF0FBECDBFDF91CF911F9111
S11314100F91FF90EF90BF90AF909F908F907F902F
S11314206F905F904F90089569E086ED94E00E947C
S1131430430566ED74E083EC94E00E94110120E022
S113144047E066E084EA94E00E94370C089584EA59
S113145094E00E94DD0B089520913105309132050E
S113146028173907F9F49091EF048091F004981744
S1131470E1F0E091EF04F0E0EF50FB4F8081209128
S1131480EF0430E02F5F3F4F2F733078332334F471
S113149021503109206C3F6F2F5F3F4F2093EF04A1
S11314A090E008958FEF9FEF08958FEF9FEF0895D9
S11314B0209131053091320528173907B1F4209174
S11314C0F0048091EF0430E0205C3F4F281B310989
S11314D02F733078332334F421503109206C3F6F5B
S11314E02F5F3F4F822F932F089580E090E008955F
S11314F01F93CF93DF93EC014C8D5D8D4115510506
S113150029F481E090E09B838A8339C0A989BA8950
S11315103889832F80951FB79E8D91FB772770F9AB
S113152091FD6095F894772321F09C91932B9C93E3
S113153003C09C9198239C93FA013197F1F798E0AA
S113154060FF04C02C91232B2C9303C02C912823DF
S11315502C93FA013197F1F76695915089F7772327
S113156021F09C9189238C9303C08C91382B3C935C
S11315701FBF8C8D9D8D0197F1F741E050E0CA01AA
S1131580DF91CF911F91089520913105309132055B
S11315902817390739F48FB7F8941092F004109291
S11315A0EF048FBF0895209131053091320528173B
S11315B0390771F49091EF048091F004981759F071
S11315C0E091EF04F0E0EF50FB4F808190E008954C
S11315D08FEF9FEF08958FEF9FEF0895E09131050E
S11315E0F0913205E817F90769F4A389B4899C914D
S11315F08589809589238C93109232051092310548
S113160081E0089580E00895CF93DF93EC018A8D03
S11316109B8D892BF1F080913105909132058C17C7
S11316209D07C9F0009711F00E94EE0A8E8D8E7FFF
S11316308E8F1092F0041092EF04D0933205C09371
S11316403105EB89FC8990818D89892B808381E028
S113165003C080E001C080E0DF91CF9108951F9224
S11316600F920FB60F9211242F933F934F935F93D2
S11316706F937F938F939F93AF93BF93CF93DF9396
S1131680EF93FF93A0913105B0913205109709F4BF
S113169081C05E968C915E9781FF0DC01E96ED9180
S11316A0FC911F9790811D968C911D97982381E042
S11316B071F480E00CC01E96ED91FC911F9790810F
S11316C01D968C911D97982381E009F080E0882372
S11316D009F460C05396ED91FC915497908155960E
S11316E08C91559780958923808356968D919C91F2
S11316F057970197F1F758966D917C9159971E96DB
S1131700CD91DC911F971D965C911D9738E040E0C8
S1131710FB013197F1F7842F90E095958795482F39
S11317202881252309F04068315091F75E968C9109
S11317305E9781FD40958091F00490E001968F734F
S11317409078992324F40197806C9F6F01962091DF
S1131750EF04281749F0E091F004F0E0EF50FB4F5C
S113176040838093F00407C05E968C915E978160FD
S11317705E968C935E975A968D919C915B97019798
S1131780F1F75396ED91FC915497908155968C9175
S1131790892B8083FF91EF91DF91CF91BF91AF911E
S11317A09F918F917F916F915F914F913F912F9175
S11317B00F900FBE0F901F90189521E734E0FC01A5
S11317C0318320830E94EE0A08951F93CF93DF9301
S11317D0EC01162F6E8D6695617081E06827812F6C
S11317E00E945F1261E0812F0E942012612F70E03D
S11317F0FB01E358FE4FE491E88BFB01EF56FE4FEB
S1131800E491F0E0EE0FFF1FE155FE4F85919491B6
S11318109A8B898BDF91CF911F9108951F93CF935A
S1131820DF93EC01162F60E0812F0E9420128E8D31
S113183081FD04C061E0812F0E945F121C87612F2B
S113184070E0FB01E358FE4FE491ED87FB01EF5696
S1131850FE4FE491F0E0EE0FFF1FEB55FE4F859134
S113186094919F878E87DF91CF911F9108951F9345
S1131870CF93DF93EC01162F1B821A8288EE93E03C
S1131880A0E0B0E08C839D83AE83BF8381E794E0C6
S1131890998388831F8A1E8A198E188E1B8E1A8E2E
S11318A01D8E1C8E8E8D8E7F20FB81F98E8F642F72
S11318B0CE010E94E50B612FCE010E940E0CDF9138
S11318C0CF911F910895CF93DF93EC019A01AB015F
S11318D01B8E1A8E198E188E1F8A1E8A60E874E871
S11318E08EE190E00E94BA14F9012430310518F019
S11318F0C901039702C081E090E09D8F8C8F8C8595
S1131900863108F041C0B901769567956431710557
S113191018F06351710902C061E070E07F8B6E8B37
S1131920369720F0B9016550710902C061E070E09A
S1131930798F688FB901660F771F260F371F369589
S11319402795369527952D30310510F12C50310906
S113195021C021E08E3008F420E081E001C0880F2E
S11319602A95EAF7982B909368009C859830D0F0DC
S11319709E3010F1963158F120E030E02AC08D8B72
S11319808C8D9D8D0197F1F7CE010E94040B2AC026
S113199021E030E03B8F2A8F909168008830C8F6B0
S11319A084E0E0CF2DE630E03C8B2B8B81E001C05E
S11319B0880F9A95EAF7E3CF2BE630E03C8B2B8B2C
S11319C0985081E001C0880F9A95EAF7D8CF2CE6A9
S11319D030E03C8B2B8B9E5081E001C0880F9A95A0
S11319E0EAF7CDCFDF91CF910895FC01918D228D3F
S11319F0892F90E0805C9F4F821B91098F739927F8
S1131A000895FC01918D828D981731F0828DE80F35
S1131A10F11D858D90E008958FEF9FEF0895FC01EF
S1131A20918D828D981761F0828DDF01A80FB11D11
S1131A305D968C91928D9F5F9F73928F90E0089535
S1131A408FEF9FEF08958EE89EE0892B49F080E0A8
S1131A5090E0892B29F00E948E0E81110E940000D3
S1131A600895FC01848DDF01A80FB11DA35ABF4F57
S1131A708C91248D30E02F5F3F4F2F7330783323C8
S1131A8034F421503109206C3F6F2F5F3F4F248F76
S1131A90A689B7898C93A089B1898C9180648C9331
S1131AA0938D848D981306C00288F389E02D80817C
S1131AB08F7D80830895CF93DF93EC01888D81110E
S1131AC00FC018C00FB607FC0DC0908195FF0AC067
S1131AD0A889B9898C9185FF05C0CE010E94310D7A
S1131AE0EA89FB89908195FDEDCFA889B9898C910C
S1131AF086FFE8CFDF91CF9108950F931F93CF9383
S1131B00DF93FC0181E0808F938D848D981322C034
S1131B10A089B1898C9185FD2FC01CC00FB607FC2C
S1131B2008C0E889F989808185FF03C0CE010E943D
S1131B30310D9C8D091791F38B8DFE01E80FF11D7A
S1131B40E35AFF4F10830B8FEA89FB8980818062FF
S1131B5080831BC0238D30E02F5F3F4F2F7330787D
S1131B60332334F421503109206C3F6F2F5F3F4FF2
S1131B70162FEF01022FDDCFA689B7896C93008859
S1131B80F189E02D80818064808381E090E0DF91A1
S1131B90CF911F910F910895BF92CF92DF92EF9250
S1131BA0FF920F931F93CF93DF93EC016A017B01A4
S1131BB0B22E60E874E88EE190E0A70196010E94DD
S1131BC0981489019A0101501109210931093695A6
S1131BD0279517950795E889F98982E0808301158F
S1131BE080E11807A8F0E889F989108260E472E4BA
S1131BF08FE090E0A70196010E949814DA01C901D0
S1131C000197A109B109B695A795979587958C0178
S1131C10EC85FD851083EE85FF850083188EEC89A5
S1131C20FD89B082EA89FB89808180618083EA89A9
S1131C30FB89808188608083EA89FB898081806850
S1131C408083EA89FB8980818F7D8083DF91CF91B6
S1131C501F910F91FF90EF90DF90CF90BF90089568
S1131C601F920F920FB60F9211242F938F939F936D
S1131C70AF93BF93EF93FF93E0914305F091440535
S1131C80808182FD14C0E3E3F5E0A689B7892C9135
S1131C90818D8F5F8F73928D891771F0DF01E18DD4
S1131CA0F0E0ED5CFA4F258F59968C9305C0E091D6
S1131CB04905F0914A058081FF91EF91BF91AF9161
S1131CC09F918F912F910F900FBE0F901F90189599
S1131CD01F920F920FB60F9211242F933F934F939D
S1131CE05F936F937F938F939F93AF93BF93EF9380
S1131CF0FF9383E395E00E94310DFF91EF91BF9133
S1131D00AF919F918F917F916F915F914F913F918F
S1131D102F910F900FBE0F901F90189583E395E0BD
S1131D200E94F50C21E0892B09F420E0822F08950C
S1131D30E3E3F5E01382128288EE93E0A0E0B0E0E2
S1131D4084839583A683B78381E894E09183808319
S1131D5085EC90E09587848784EC90E0978786876C
S1131D6080EC90E0918B808B81EC90E0938B828B64
S1131D7082EC90E0958B848B86EC90E0978B868B3D
S1131D80118E128E138E148E089508958F929F9241
S1131D90AF92BF92CF92DF92EF92FF920F931F9375
S1131DA0CF93DF935C017B014C0182E0880E911C90
S1131DB06501E5E0CE0ED11C00E010E0F401619174
S1131DC04F014AE050E0C7010E940E10EC016EE2A0
S1131DD0C7010E94660F8C0F9D1F080F191F8C14DA
S1131DE09D0461F74AE050E0F5016581C7010E9456
S1131DF00E10800F911FDF91CF911F910F91FF90D3
S1131E00EF90DF90CF90BF90AF909F908F90089508
S1131E10E0EDF5E081E994E09183808312821382FE
S1131E2014821582089508950E94B6110E94130F1A
S1131E300E940A07C3E2DDE00E9416092097E1F33D
S1131E400E94230DF9CFCF92DF92EF92FF920F936E
S1131E501F93CF93DF9341155105B1F08C01E62E0A
S1131E60F72EEA01C12CD12CD7016D917D01D80147
S1131E70ED91FC910190F081E02DC8010995C80E07
S1131E80D91E219789F702C0C12CD12CC601DF913C
S1131E90CF911F910F91FF90EF90DF90CF90089515
S1131EA06115710581F0FB0101900020E9F731977C
S1131EB0AF01461B570BDC01ED91FC910280F381CD
S1131EC0E02D0995089580E090E00895DC01ED91FE
S1131ED0FC910190F081E02D09950895DC01ED91CC
S1131EE0FC910280F381E02D42E050E063E974E06C
S1131EF0099508950F931F93CF93DF93EC010E94EC
S1131F00500F8C01CE010E946E0F800F911FDF9144
S1131F10CF911F910F9108954F925F926F927F928C
S1131F209F92AF92BF92CF92DF92EF92FF920F9364
S1131F301F93CF93DF93CDB7DEB7A1970FB6F89475
S1131F40DEBF0FBECDBF5C016A017B01922E19A2D8
S1131F5081E0821720F00F2EFAE09F2EF02D8E01E3
S1131F600F5D1F4F492C512C612C712CC701B601F8
S1131F70A30192010E9498148C2D929E8019112421
S1131F80015011098A3010F4805D01C0895CD801C8
S1131F908C93C22ED32EE42EF52EC114D104E10469
S1131FA0F10421F70115110591F0F80101900020C9
S1131FB0E9F73197AF01401B510BD501ED91FC912D
S1131FC00280F381E02DB801C501099502C080E0CB
S1131FD090E0A1960FB6F894DEBF0FBECDBFDF919F
S1131FE0CF911F910F91FF90EF90DF90CF90BF9012
S1131FF0AF909F907F906F905F904F9008952115C0
S1132000310549F4DC01ED91FC910190F081E02D62
S1132010642F099508950E948C0F08959A01462F04
S113202050E060E070E00E94FF0F0895813039F0C5
S113203018F0823051F0089510926E000895EFE682
S1132040F0E080818D7F80830895E0E7F0E0808177
S11320508D7F808381E08093B000E1EBF0E08081AC
S1132060887F846080831092B3000895CF93C82F33
S1132070809100048C1308C0E8E6F1E0E4918E2F0F
S11320809FEF9093000401C08FEF0E94161060E050
S11320908C2F0E945F12CF9108951F920F920FB65A
S11320A00F9211242F933F934F935F936F937F93DA
S11320B08F939F93AF93BF93EF93FF938091D90531
S11320C09091DA05A091DB05B091DC05892B8A2B70
S11320D08B2B51F18091D605E091D705F091D8056D
S11320E09081892780838091D9059091DA05A09108
S11320F0DB05B091DC05181619061A061B06C4F494
S11321008091D9059091DA05A091DB05B091DC05A9
S11321100197A109B1098093D9059093DA05A09399
S1132120DB05B093DC0504C0809100040E943610E6
S1132130FF91EF91BF91AF919F918F917F916F919B
S11321405F914F913F912F910F900FBE0F901F9071
S113215018951F920F920FB60F9211242F933F934D
S11321604F935F936F937F938F939F93AF93BF939B
S1132170EF93FF938091DD059091DE05892B29F083
S1132180E091DD05F091DE050995FF91EF91BF9196
S1132190AF919F918F917F916F915F914F913F91FB
S11321A02F910F900FBE0F901F9018951F920F92B2
S11321B00FB60F9211242F933F934F935F936F9316
S11321C07F938F939F93AF93BF93EF93FF938091EC
S11321D0DF059091E005892B29F0E091DF05F0916E
S11321E0E0050995FF91EF91BF91AF919F918F9178
S11321F07F916F915F914F913F912F910F900FBEFF
S11322000F901F9018951F920F920FB60F921124E2
S11322102F933F938F939F93AF93BF938091E20546
S11322209091E305A091E405B091E5053091E105B5
S113223023E0230F2D3720F40196A11DB11D05C005
S113224026E8230F0296A11DB11D2093E10580937A
S1132250E2059093E305A093E405B093E50580912E
S1132260E6059091E705A091E805B091E90501968E
S1132270A11DB11D8093E6059093E705A093E805A1
S1132280B093E905BF91AF919F918F913F912F91A9
S11322900F900FBE0F901F9018952FB7F894609170
S11322A0E2057091E3058091E4059091E5052FBF67
S11322B008953FB7F8948091E6059091E705A091C1
S11322C0E805B091E90526B5A89B05C02F3F19F094
S11322D00196A11DB11D3FBFBA2FA92F982F8827A2
S11322E0820F911DA11DB11DBC01CD01660F771F89
S11322F0881F991F660F771F881F991F0895CF9213
S1132300DF92EF92FF92CF93DF936B017C010E94E7
S11323105911EB01C114D104E104F104A9F00E94A4
S1132320C50E0E9459116C1B7D0B683E734038F03A
S113233081E0C81AD108E108F108C851DC4FC11482
S1132340D104E104F10459F7DF91CF91FF90EF90AC
S1132350DF90CF9008958230910538F0880F991F4F
S1132360880F991F05970197F1F70895789484B51C
S1132370826084BD84B5816084BD85B5826085BD7D
S113238085B5816085BDEEE6F0E080818160808363
S1132390E1E8F0E010828081826080838081816046
S11323A08083E0E8F0E0808181608083E1EBF0E00D
S11323B0808184608083E0EBF0E0808181608083B1
S11323C0EAE7F0E08081846080838081826080839A
S11323D08081816080838081806880831092C100C5
S11323E00895833069F028F48130B1F08230C1F06F
S11323F008958730C9F08830E9F0843001F506C0CB
S1132400E0E8F0E080818F7780830895E0E8F0E0F1
S113241080818F7D8083089584B58F7784BD0895EE
S113242084B58F7D84BD0895E0EBF0E080818F77E3
S113243080830895E0EBF0E080818F7D80830895B0
S1132440CF93DF9390E0FC01E358FE4F2491FC010D
S1132450EF56FE4F8491882379F190E0880F991FFD
S1132460FC01E754FE4FA591B491FC01E155FE4FE8
S1132470C591D49161110CC09FB7F8948C91E22F4F
S1132480E0958E238C932881E223E8839FBF14C0B8
S1132490623061F49FB7F8943C91822F8095832336
S11324A08C93E881E22BE8839FBF06C08FB7F89432
S11324B0EC91E22BEC938FBFDF91CF9108951F93A2
S11324C0CF93DF93282F30E0F901E759FE4F849131
S11324D0F901E358FE4F1491F901EF56FE4FC491F0
S11324E0CC23D1F0D62F81110E94F111EC2FF0E012
S11324F0EE0FFF1FE155FE4FA591B4918FB7F894ED
S1132500D11106C09C91E12FE095E923EC9303C01F
S1132510EC91E12BEC938FBFDF91CF911F91089544
S11325205058BB27AA270E94A8120C94EC130E94AF
S1132530DE1338F00E94E51320F039F49F3F19F4BC
S113254026F40C94DB130EF4E095E7FB0C94D513FE
S1132550E92F0E94FD1358F3BA1762077307840723
S1132560950720F079F4A6F50C941F140EF4E09569
S11325700B2EBA2FA02D0B01B90190010C01CA0139
S1132580A0011124FF27591B99F0593F50F4503EE4
S113259068F11A16F040A22F232F342F4427585FD6
S11325A0F3CF469537952795A795F0405395C9F7EE
S11325B07EF41F16BA0B620B730B840BBAF09150A6
S11325C0A1F0FF0FBB1F661F771F881FC2F70EC045
S11325D0BA0F621F731F841F48F487957795679518
S11325E0B795F7959E3F08F0B0CF9395880F08F004
S11325F09927EE0F9795879508950E94B11308F4D3
S113260081E008950E9416130C94EC130E94E513C4
S113261058F00E94DE1340F029F45F3F29F00C9437
S1132620D51351110C9420140C94DB130E94FD1348
S113263068F39923B1F3552391F3951B550BBB27ED
S1132640AA2762177307840738F09F5F5F4F220F32
S1132650331F441FAA1FA9F335D00E2E3AF0E0E829
S113266032D091505040E695001CCAF72BD0FE2F73
S113267029D0660F771F881FBB1F26173707480707
S1132680AB07B0E809F0BB0B802DBF01FF279358BF
S11326905F4F3AF09E3F510578F00C94D5130C949B
S11326A020145F3FE4F3983ED4F3869577956795BD
S11326B0B795F7959F5FC9F7880F911D96958795F4
S11326C097F90895E1E0660F771F881FBB1F621713
S11326D073078407BA0720F0621B730B840BBA0BD1
S11326E0EE1F88F7E0950895E89409C097FB3EF43F
S11326F090958095709561957F4F8F4F9F4F99234B
S1132700A9F0F92F96E9BB279395F69587957795C8
S11327106795B795F111F8CFFAF4BB0F11F460FF88
S11327201BC06F5F7F4F8F4F9F4F16C0882311F0E0
S113273096E911C0772321F09EE8872F762F05C0F4
S1132740662371F096E8862F70E060E02AF09A958F
S1132750660F771F881FDAF7880F9695879597F984
S11327600895990F0008550FAA0BE0E8FEEF16161E
S11327701706E807F907C0F012161306E407F50771
S113278098F0621B730B840B950B39F40A2661F0E5
S1132790232B242B252B21F408950A2609F4A14088
S11327A0A6958FEF811D811D089597F99F6780E895
S11327B070E060E008959FEF80EC089500240A948F
S11327C01616170618060906089500240A94121608
S11327D01306140605060895092E0394000C11F43B
S11327E0882352F0BB0F40F4BF2B11F460FF04C0E8
S11327F06F5F7F4F8F4F9F4F089557FD9058440F41
S1132800551F59F05F3F71F04795880F97FB991F4B
S113281061F09F3F79F08795089512161306140608
S1132820551FF2CF4695F1DF08C016161706180695
S1132830991FF1CF86957105610508940895E89470
S1132840BB2766277727CB0197F908950E94B11318
S113285008F48FEF08950E943E140C94EC130E9428
S1132860DE1338F00E94E51320F0952311F00C9448
S1132870D5130C94DB1311240C9420140E94FD1323
S113288070F3959FC1F3950F50E0551F629FF001BF
S1132890729FBB27F00DB11D639FAA27F00DB11DD8
S11328A0AA1F649F6627B00DA11D661F829F222761
S11328B0B00DA11D621F739FB00DA11D621F839FE8
S11328C0A00D611D221F749F3327A00D611D231FBE
S11328D0849F600D211D822F762F6A2F11249F570C
S11328E050409AF0F1F088234AF0EE0FFF1FBB1F0F
S11328F0661F771F881F91505040A9F79E3F5105CE
S113290080F00C94D5130C9420145F3FE4F3983EAC
S1132910D4F3869577956795B795F795E7959F5F77
S1132920C1F7FE2B880F911D9695879597F9089509
S1132930A1E21A2EAA1BBB1BFD010DC0AA1FBB1FBF
S1132940EE1FFF1FA217B307E407F50720F0A21B31
S1132950B30BE40BF50B661F771F881F991F1A949E
S113296069F760957095809590959B01AC01BD01C8
S1132970CF010895052E97FB1EF400940E94D114F4
S113298057FD07D00E94981407FC03D04EF40C9412
S1132990D11450954095309521953F4F4F4F5F4F3F
S11329A0089590958095709561957F4F8F4F9F4FB7
S11329B00895EE0FFF1F0590F491E02D0994AEE009
S11329C0B0E0E5EEF4E10C948E170D891E8986E0E3
S11329D08C831A8309838FEF9FE79E838D83AE01D7
S11329E0475E5F4F6F89788DCE0101960E94021574
S11329F02F813885F801E20FF31F10822E96E4E050
S1132A000C94AA17ACE0B0E0E8E0F5E10C94801770
S1132A107C016B018A01FC0117821682838181FF8C
S1132A20BDC1CE0101964C01F7019381F60193FDDE
S1132A30859193FF81916F01882309F4ABC185329D
S1132A4039F493FD859193FF81916F01853229F4C7
S1132A50B70190E00E94EA16E7CF512C312C20E018
S1132A602032A0F48B3269F030F4803259F0833292
S1132A7069F420612CC08D3239F0803339F421603F
S1132A8026C02260246023C0286021C027FD27C0FF
S1132A9030ED380F3A3078F426FF06C0FAE05F9E36
S1132AA0300D1124532E13C08AE0389E300D1124AA
S1132AB0332E20620CC08E3221F426FD6BC12064BB
S1132AC006C08C3611F4206802C0883641F4F60141
S1132AD093FD859193FF81916F018111C1CF982F4F
S1132AE09F7D9554933028F40C5F1F4FFFE3F983C7
S1132AF00DC0833631F0833771F0833509F05BC044
S1132B0022C0F801808189830E5F1F4F44244394BF
S1132B10512C540115C03801F2E06F0E711CF801FC
S1132B20A080B18026FF03C0652D70E002C06FEF66
S1132B307FEFC5012C870E94DF162C0183012C85B1
S1132B402F77222E17C03801F2E06F0E711CF801A6
S1132B50A080B18026FF03C0652D70E002C06FEF36
S1132B607FEFC5012C870E94D4162C012C85206888
S1132B70222E830123FC1BC0832D90E048165906A6
S1132B80B0F4B70180E290E00E94EA163A94F4CFE0
S1132B90F50127FC859127FE81915F01B70190E043
S1132BA00E94EA1631103A94F1E04F1A5108411488
S1132BB0510471F7E5C0843611F0893639F5F8010E
S1132BC027FF07C060817181828193810C5F1F4F51
S1132BD008C060817181072E000C880B990B0E5F71
S1132BE01F4F2F76722E97FF09C090958095709590
S1132BF061957F4F8F4F9F4F2068722E2AE030E0FF
S1132C00A4010E942217A82EA81844C0853729F4CD
S1132C102F7EB22E2AE030E025C0F22FF97FBF2E9E
S1132C208F36C1F018F4883579F0B4C0803719F0C4
S1132C30883721F0AFC02F2F2061B22EB4FE0DC013
S1132C408B2D8460B82E09C024FF0AC09F2F966084
S1132C50B92E06C028E030E005C020E130E002C013
S1132C6020E132E0F801B7FE07C060817181828102
S1132C7093810C5F1F4F06C06081718180E090E0FA
S1132C800E5F1F4FA4010E942217A82EA818FB2D27
S1132C90FF777F2E76FE0BC0372D3E7FA51450F4B0
S1132CA074FE0AC072FC08C0372D3E7E05C0BA2CE3
S1132CB0372D03C0BA2C01C0B52C34FF0DC0FE0162
S1132CC0EA0DF11D8081803311F4397E09C032FF91
S1132CD006C0B394B39404C0832F867809F0B394E8
S1132CE033FD13C030FF06C05A2CB31418F4530C30
S1132CF05B18B32CB31468F4B70180E290E03C870E
S1132D000E94EA16B3943C85F5CFB31410F43B1833
S1132D1001C0312C34FF12C0B70180E390E03C873E
S1132D200E94EA163C8532FF17C031FD03C088E7D4
S1132D3090E002C088E590E0B7010CC0832F86784C
S1132D4059F031FF02C08BE201C080E237FD8DE211
S1132D50B70190E00E94EA16A51438F4B70180E3A5
S1132D6090E00E94EA165A94F7CFAA94F401EA0D6F
S1132D70F11D8081B70190E00E94EA16A110F5CF01
S1132D80332009F451CEB70180E290E00E94EA16A4
S1132D903A94F6CFF7018681978102C08FEF9FEFB7
S1132DA02C96E2E10C949C17FC0105906150704054
S1132DB00110D8F7809590958E0F9F1F0895FC0100
S1132DC06150704001900110D8F7809590958E0F56
S1132DD09F1F08950F931F93CF93DF93FB012381CC
S1132DE021FD03C08FEF9FEF28C022FF16C046814C
S1132DF05781248135814217530744F4A081B1815E
S1132E009D012F5F3F4F318320838C93268137812F
S1132E102F5F3F4F3783268310C0EB01092F182FF4
S1132E200084F185E02D0995892BE1F68E819F813F
S1132E3001969F838E83812F902FDF91CF911F91D5
S1132E400F910895FA01AA27283051F1203181F118
S1132E50E8946F936E7F6E5F7F4F8F4F9F4FAF4F9E
S1132E60B1E03ED0B4E03CD0670F781F891F9A1FB1
S1132E70A11D680F791F8A1F911DA11D6A0F711D65
S1132E80811D911DA11D20D009F468943F912AE071
S1132E90269F11243019305D3193DEF6CF01089559
S1132EA0462F4770405D4193B3E00FD0C9F7F6CF8A
S1132EB0462F4F70405D4A3318F0495D31FD405252
S1132EC0419302D0A9F7EACFB4E0A69597958795E8
S1132ED077956795BA95C9F70097610571050895C7
S1132EE09B01AC010A2E0694579547953795279573
S1132EF0BA95C9F7620F731F841F951FA01D08950B
S1132F002F923F924F925F926F927F928F929F92F5
S1132F10AF92BF92CF92DF92EF92FF920F931F93E3
S1132F20CF93DF93CDB7DEB7CA1BDB0B0FB6F89494
S1132F30DEBF0FBECDBF09942A88398848885F84D4
S1132F406E847D848C849B84AA84B984C884DF8045
S1132F50EE80FD800C811B81AA81B981CE0FD11D29
S1132F600FB6F894DEBF0FBECDBFED01089510E09B
S1132F70C5EED0E004C0FE010E94D9142196C63EDD
S10B2F80D107C9F7F894FFCF53
S1132F88000000000000000000005F0000000000D6
S1132F98000007000700000000147F147F140000DD
S1132FA800242A7F2A120000002313086462000008
S1132FB800364955225000000000050300000000B7
S1132FC8001C2241000000000041221C00000000F7
S1132FD800082A1C2A0800000008083E0808000007
S1132FE800A06000000000000008080808080000AD
S1132FF800606000000000000020100804020000C7
S1133008003E5149453E00000000427F4000000058
S113301800625149494600000022414949360000EE
S1133028001814127F100000002745454539000098
S1133038003C4A49493000000001710905030000B9
S1133048003649494936000000064949291E00004E
S113305800003636000000000000AC6C00000000E0
S11330680008142241000000001414141414000071
S11330780041221408000000000201510906000062
S113308800324979413E0000007E0909097E0000AA
S1133098007F494949360000003E41414122000071
S11330A8007F4141221C0000007F4949494100003A
S11330B8007F090909010000003E414151720000E6
S11330C8007F0808087F000000417F4100000000DD
S11330D8002040413F010000007F08142241000005
S11330E8007F404040400000007F020C027F000047
S11330F8007F0408107F0000003E4141413E00006B
S1133108007F090909060000003E4151215E0000C4
S1133118007F091929460000002649494932000060
S11331280001017F01010000003F4040403F0000D2
S1133138001F2040201F0000003F4038403F00008F
S113314800631408146300000003047804030000F7
S11331580061514945430000007F414100000000DF
S113316800020408102000000041417F0000000014
S113317800040201020400000080808080800000B6
S11331880001020400000000002054545478000098
S1133198007F4844443800000038444428000000B4
S11331A800384444487F0000003854545418000040
S11331B800087E09020000000018A4A4A47C0000F2
S11331C8007F08040478000000007D00000000006F
S11331D80080847D00000000007F10284400000067
S11331E800417F4000000000007C041804780000BF
S11331F8007C08047C0000000038444438000000C7
S113320800FC24241800000000182424FC000000FA
S113321800007C0804000000004854542400000006
S113322800047F4400000000003C40407C00000093
S1133238001C2040201C0000003C4030403C0000A2
S11332480044281028440000001CA0A07C000000B2
S1133258004464544C440000000836410000000057
S113326800007F0000000000004136080000000054
S1133278000201010201000000020505020000002D
S1133288FF626567696E2077696669706F7274207A
S113329853657269616C0044616C6C617320546598
S11332A86D706572617475726520494320436F6E51
S11332B874726F6C204C6962726172792044656D16
S11332C86F0068656C6C6F004F4E2000202300254A
S11332D864006D61783A20006C6F773A2000697455
S11332E8656D703A200074656D703A200000000026
S11332F800780A230F580A2C0AD30AC40A000000CB
S1133308007D0D230FF50C0F0D010D5B0D00000062
S113331800C60E0D0A006E616E00696E66006F7657
S107332866002E0009
S9030000FC
